:20000000483F0020016F000001CA011001CA011001CA011001CA011001CA011001CA0110A1
:1C00200001CA011001CA011001CA011001CA011001CA011001CA01103FCA011082
:20003C002DE9F04F09AFADF1140D1E468B46029297F804903C88019000274FF0FF080846DC
:20005C0006F05EF9039040B1401E01D00A203FE04FF0010A2020214D03E04FF0010A504680
:20007C001F4DA0421EDD3119884219DB3019824505DDB9F1180F11D0B9F1120F0ED0DBF8F3
:20009C000C0002993246201804F03AFB3019824509DCDDF80C803019288004E00D2702E083
:2000BC000D2700E00727B8F1FF0F10D00A4805686DB101680D6855B100680568A419A0B2A6
:2000DC000090039A029B019841F21011A847384605B0BDE8F08FC046F00900201A0A0020A4
:0400FC00F6090020E1
:200100003C000000000000000000000034010000000000000000000001000000000000006D
:1C01200000000000000000000000000001000000000000000800000000000000BA
:20013C00340000000000000000000000680100000000000000000000010000000000000005
:14015C00010000000000000000000000080000000000000086
:2001700030000000000000000000000098010000040000000000000001000000FFFFFFFFA5
:10019000FF00000001000000080000000000000057
:2001A0002C0000000000000000000000C4010000040000000000000001000000FFFFFFFF4D
:0C01C000FFFFFFFF08000000000000002F
:2001CC0034050000E401000099A1011095A70110A5C2011009B2011045B80110000000000B
:0801EC00000000002E000000DD
:2001F400280000000000000000000000140200000000000000000000FFFFFFFF00000000B1
:080214000800000000000000DA
:20021C00300500003002000069C201106DC101101FC2011095BA011000000000000000008E
:04023C002C00000092
:20024000300500005402000075C20110A9B601109DBF011049B601100000000000000000DE
:040260002D0000006D
:200264002400000000000000000000008002000000000000000000000000000008000000CC
:040284000000000076
:20028800240000000000000000000000A40200000000000000000000000000000800000084
:0402A8000000000052
:2002AC00240000000000000000000000C8020000000000000100000000000000080000003B
:0402CC00000000002E
:2002D0000000000050040020040000000000000000000000200000007001000030000000D5
:2002F0001C0200007C0400200400000000000000000000000C0000003004000018000000D4
:20031000400200008804002004000000000000000000000024000000480400001800000053
:20033000000000009004002004000000000000000000000010000000A00100002C00000018
:20035000CC0100009804002004000000000000000000000020000000640200002400000056
:20037000FFFFFFFFB8040020040000000000000000000000280000008802000024000000BB
:20039000FFFFFFFFE8040020040000000000000000000000580000003C0100003400000078
:2003B000FFFFFFFFF00400200400000000000000000000001000000060040000180000008D
:2003D000FFFFFFFFF80400200400000000000000000000001C000000AC0200002400000003
:2003F000FFFFFFFF0005002004000000000000000000000038000000F40100002800000073
:20041000FFFFFFFF0805002004000000000000000000000054000000000100003C0000000E
:1804300018000000000000000000000040040000080000000000000050
:1804480018000000000000000000000058040000080000000000000020
:18046000180000000000000000000000700400000800000000000000F0
:080478000200000060B9000061
:040480000068704759
:040484000100000073
:0404880000008C0FD5
:04048C000000BC0FA1
:040490003200000036
:040494000100000063
:0404980058040020E4
:04049C00000200005A
:0404A0000000000058
:0404A40001CA011078
:0404A8000000000050
:0404AC00000000004C
:0404B0000800000040
:0404B40000007612BC
:0404B800F808002020
:0404BC00010000003B
:0404C000A004002074
:0404C400080000002C
:0404C8000000000030
:0404CC00000000002C
:0404D0000000000028
:0404D4000000000024
:0404D8000000000020
:0404DC00010000001B
:0404E000600900208F
:0404E400060000000E
:0404E800010000000F
:0404EC006408002080
:0404F0000000000008
:0404F4000000000004
:0404F80000020000FE
:0404FC0000000000FC
:02050000704742
:020502002800CF
:020504000100F4
:020506002400CF
:020508002C00C5
:02050A002D00C2
:02050C002E00BF
:02050E000100EA
:0105100001E9
:08051400030000004CB90000D7
:08051C000000000000000000D7
:040524000000930D33
:040528000000AD0D15
:04052C0087C401106F
:04053000380500008A
:040534003805000086
:0405380000000000BF
:04053C0090610000CA
:0405400090610000C6
:0405440000000000B3
:04054800A0040020EB
:04054C00C393000055
:040550002000000087
:04055400C4B8000027
:0405580070B7000078
:04055C000DC30110BA
:04056000678D0000A3
:04056400D39500002B
:0405680099C801101D
:04056C009BC8011017
:040570000000000087
:04057400589A000091
:04057800FCB50000CE
:04057C0014B60000B1
:04058000E4B50000DE
:020584000280F3
:020586000380F0
:02058800C0179A
:02058A0001006E
:01058C00016D
:040590000000000067
:040594000000000063
:04059800000000005F
:04059C00000000005B
:0405A0007B98000044
:0405A400D577000007
:0405A8009187000037
:0405AC00A18000002A
:0405B0002F7E00009A
:0405B400D1800000F2
:0405B800495D000099
:0405BC00C5950000E1
:0405C000596100007D
:0405C40011C8011049
:0405C80021C8011035
:0405CC000800000023
:0405D0002400000003
:0405D400180000000B
:0405D80028000000F7
:0405DC0020000000FB
:0405E0003C000000DB
:0405E4000C00000007
:0405E80034000000DB
:2005EC002DE9FE4F05460024DFF8D882DFF8D892A878002800F08C81DFF808A3DFF80CC33E
:20060C00801E00F04181DFF800E3401E012840F20381DFF8DCC2B74FB74EDFF8E092DFF8E7
:20062C00E0B2801E00F0BB80401E00F08B80401E68D0083800F09881801E40F09A81A88802
:20064C00ADF8000066463078052855D001208DF80A00C04809F007F93146C04FBE48C04BFB
:20066C00C04A0E78012E22D00E78042E1FD00E78032E0FD0097802290CD0E888ADF80200E1
:20068C002889ADF804006889ADF80600A889ADF8080033E00088ADF802003888ADF80400CF
:2006AC001888ADF806001088ADF8080026E00188EE88B14201DD008800E0E888ADF8020049
:2006CC0038882989884201DD388800E02889ADF8040018886989884201DD188800E068894F
:2006EC00ADF806001088A989884201DD108800E0A889ADF8080001E08DF80A40684608F025
:20070C007BFE36E1A24809F0AEF86878002840F03081E88838802889308068894D46288016
:20072C008C4808F0A9FE002840F0238199490868002800F01E81086803682A88318838882F
:20074C00984716E1A88807F0A1FE93482146062204F070FE3C803480484604808F49A879AA
:20076C0008707C4809F07FF8894809F07CF801244FF6FF70594608805146087858B9A8793A
:20078C00082801D1052100E0042140460170204608F0CAFCEDE0032140460170E9E06B7871
:2007AC0063BB281D7C4902680A6080888880688959460880062140460170E8893880288A10
:2007CC003080698A484601807549E878087066463078012802D03078022808D11F2006F096
:2007EC0091FD4FF47A7141435A4807F0E5F9E8786A89291D042306F027FC0BE06878312839
:20080C0003D008214046017004E071460C704046042101700124ACE06F78002F2FD1A878BF
:20082C0003281ED05F48078847B971460878012802D051460C700BE00C7009E071460A788F
:20084C0051460F78174303D00188604607F0B4F940460178072901D1062100E004210170D0
:20086C0010E042461078062801D1072005E07146087808B1022000E00320107002E00821C0
:20088C0040460170012474E06F7847BBEF78EFB940460178022922D0017807291FD00178B7
:2008AC00062903D151460978012918D10078032815D0604608F0E0FD88B9012008F034FC71
:2008CC000DE0C046C0290020C429002036494846364B0A780078214606F084F968706878E9
:2008EC00002846D0082140460170012441E0C0464807002052070020540700205607002062
:20090C0040070020F7060020F6060020082700206878C8B9264A0220102106F01DFF254A37
:20092C000320102106F018FFED1C234829680160A988818001214046017048461F4A204B37
:20094C000078127806F04EF910B108214046017001240EE02C2700204A0700204C07002001
:20096C004E0700205007002028468088052108F037FE012C0AD11349086838B10868006821
:20098C0020B108680168404600788847BDE8FE8F502700206007002042070020590700209B
:2009AC0058070020F80600201A0700201B070020B4280020C428002038290020FA06002062
:2009CC00FB0600205C0700202DE9FE4FB84C0F460646F80B80F04781B80880F0D480B54D9E
:2009EC00DFF8D892DFF8E0B2DFF8E882DFF8F4A22C68B80F67D2B0480678002E47D1380902
:200A0C0047D3AF4801264946067000240C70204603F019FFAB4808F0D7FDAC4922465846C2
:200A2C0008F018FFAA48017801291CD141460B78CBB9A94E306880B108F034FC2B68A8491F
:200A4C003668A64D0A68C01A000B82182860B2EBC61F28BF0C6007D20A60A4484FF00051EC
:200A6C0008F0B6FB2CE00670504640F609010180417B01F0F00141F0010141734480017B23
:200A8C0001F0F00101734460974E306018E0390914D2B80BC0F004819D48001D08F0E1FEEA
:200AAC00061C08D0706830B17468F068B6F91C1098A20CCAA04727F40057F1E0002101709C
:200ACC0027F00807ECE0ECB1042008F063F9C8B108F0E8FB864A29681060814226BF401ADC
:200AEC00401E401A000BF060F06800F58D70F060F16840F6C410884203D340F2EE228A422C
:200B0C0000D9F0600024D6F818C02C60BCF1000F10D050460D30007810F00F0F0AD1708C6E
:200B2C0040F60901814205D17CA20CCA30466FF48071E0476F495846224608F08BFE454621
:200B4C00287850B10220ADF80000684608F02AF82C70BDF808006849088049460120674A66
:200B6C00674B087010781C70401C1070192008F08BFC756925B16BA20CCA30462146A84734
:200B8C0027F000578CE004F10C0A504608F069FE061C5FD006F0F1FE7368B2690025B56108
:200BAC00E3B1F37F42F002024FF00009904603F007035B1E07D05B1E03D09B1E06D15BA0AB
:200BCC0002E05CA000E05DA090E800037268F068B6F91C104B4694464246E04708F032FF83
:200BEC008046B4F91200401C6FF31F306082E0681F30017801F07F010170504608F064FA97
:200C0C00404608F01BFFF068B0F99410B4F9122091421FD13B49097801291BD090F8964071
:200C2C009CB904688CB1384909680968B1F1FF3F10D0364909687030B4FBF1F108F0FAFE76
:200C4C00F068703008F0F2FE04E080F89650284605F042F8504608F004FE27F0020708B160
:200C6C0047F002071CE008F0EDFE01462046083008F0F7FD0646B469084608F0DFFEA00844
:200C8C000CD25EB17068B169A143B16130B17568F068B6F91C1000232246A84727F4804726
:200CAC001FB11248394608F093FABDE8FE8FC0468C2800208C290020B9290020B529002019
:200CCC00B329002005570000EC27002055890000B7290020B2290020682900209429002016
:200CEC004C290020A028002000100440EC250020902900203D320000B0270020C22900209C
:200D0C00B4290020D90500209829002074B900008C280020000000002000000000000000CA
:200D2C00000000020000000000000004000000000000001000000000000000400000000051
:200D4C00000000202DE9F04114460E460027A14BDFF888C2A04ADFF88882A24DA0F20131C0
:200D6C001A2900F27481DFE811F068015E01560172011B011301F900DF00D400C900BF007F
:200D8C00B400A900720172019F00920085007A006D007201720172017201550072011B00B8
:200DAC00012E35D11946087801282FD01146087822780A7088B10E787EB9604601780329BF
:200DCC0006D00178072903D00078052840F049814046007808F000FB43E1002840F04181E7
:200DEC000E78002E00F03D8160460178012909D00178042906D00178062903D000780528C7
:200E0C0040F02F81012008F08FF92AE1122728E1182726E12078012E12D1012810D1924824
:200E2C0008F02AFB50B93846294604F02FF8071C40F017818D4808F016FD12E1162710E18C
:200E4C0018270EE12088022E07D10A2805DBB0F5486F02DC0835288003E1182701E12088CA
:200E6C00022E05D1B0F5FA7F02DAAD1D2880F8E01827F6E02088022E07D1062805DBB0F5A4
:200E8C00486F02DC2D1D2880EBE01827E9E02088022E07D1062805DBB0F5486F02DCAD1C2B
:200EAC002880DEE01827DCE0012E05D12078062802DA20782870D4E01827D2E0012E06D143
:200ECC002078042803DA207869490870C9E01827C7E0012E06D12078082803DA2078654923
:200EEC000870BEE01827BCE0062E01D01827B8E0614821680160A1888180B2E0012E06D1C4
:200F0C002078042803DA20785C490870A9E01827A7E0012E06D12078042803DC207858493E
:200F2C0008709EE018279CE0202E01DB182798E0544D39461F22284604F07CFA21463246FB
:200F4C00284603F0E5FB50490E70404600780A782B46394605F046FE074682E0202E01DBAB
:200F6C0018277EE0494D39461F22284604F062FA21463246284603F0CBFB45490E7040461C
:200F8C0000780A782B46012105F02CFE074668E0022E01D0182764E020883E49088060E089
:200FAC00012E36D111460878012830D01946087822780A70C0B10E78B6B96046017802294C
:200FCC0002D0007805284CD14046007808F004FA47E0C046F6060020F7060020C02900200E
:200FEC00C42900204807002000283AD10E78002E37D060460178012905D00178042902D0E5
:20100C00007805282DD1012008F08EF829E0122727E0182725E0042E01D0182721E020682A
:20102C001D4908601DE0102E01D0182719E01B482146102203F06CFB13E0102E01D01827FB
:20104C000FE017482146102203F062FB09E0282801DA022E01D0022703E0218806F0A8FCE9
:20106C0007463846BDE8F081502700202C270020BE290020BB2900203A070020BC29002008
:20108C00BD2900201B0700201A070020FB060020FA060020F806002070290020C428002097
:2010AC00B42800202DE9F04F09AFADF13C0D00900292388801911E46ADF83400101C08BF8E
:2010CC00002000F0828100274FF0010B00F10109B846DA466BE1252940F062811078521CC3
:2010EC0002922D2818BFADF8228004D11078ADF822B0521C029230281CBF4246434605D1ED
:20110C00114608785B465A46491C02912A284FF0FF3516D128460B93346809900299CDF866
:20112C001C80E01C4B1C20F00300001D306050F8044C08780293002C44BFADF822A06442FB
:20114C0012E0444609E0610001EBC40140180299A0F130040878491C0291302801DB3A2846
:20116C00F1DB0B93294609912E282BD10299087843462A2801F10101029111D1099330680B
:20118C000794C01C20F00300001D306050F8045C002D48BF454608780995491C029112E09D
:2011AC0045460AE0690001EBC50140180299A0F1300508782B46491C0291302801DB3A285B
:2011CC00F0DB099307940AB122460B926C2804D04C2818BFADF8208005D102990878ADF8B3
:2011EC0020A0491C029103A9CDF8288007AB0E9164280C9300F08B80692800F08880BDF85D
:20120C0034C0752872D078286ED06F286AD0702850D063283DD073281ED00198029901280A
:20122C00A1F10101029115D96B490C68B5F1FF3F03D0A84288BF6D1C00D8019D0995684632
:20124C0002A9324607ABA047C71902990A9801F1010974E040462AE030680299C01C20F0AA
:20126C000300001D306050F8040CBCF1000F01F10109014608B956A001460E9108F062F86C
:20128C000A90B5F1FF3F5BD0A842C4BF281C0A9056E03068C01C20F00300001D306010F8DC
:2012AC00040C5D468DF80C0002990A95584601F1010945E0082035680B90E81C20F003006E
:2012CC00001D306050F8041C0822102307A804F0BDFA401E0E904021017002990E9801F135
:2012EC00010929E0082302E0102300E00A230299306801F10109C01C20F00300001D3060B7
:20130C0050F8041CAA42BCBF2A1C0B9210E00299306801F10109C01C20F00300001D306054
:20132C0050F8041CAA42BCBF2A1C0B926FF0090307A804F08BFA0E900C9D281A0A90079C96
:20134C00BDF82250241A65B906E06846202101AA07F072F8079C7F1C641E0794F5D50A9856
:20136C0000E007940546401E0A9075B9BDF82200E8B10798401E079019D46846202101AAEA
:20138C0007F05AF807987F1CF4E70E98411C0E91017801AA684607F04FF80A987F1CE1E72C
:2013AC00684601AA07F048F87F1C09F101094A46029812F8011C401C002902907FF48BAEDE
:2013CC00009808B14146017038460FB0BDE8F08F286E756C6C2900C094B900002DE9F043F5
:2013EC00ADF1840DDFF830828C49404606F020FF8B4C0021204608F015FB8A4804608B4949
:20140C00894803F003FB8A4E306008B908F006FB8848894903F0FAFA8849086008B908F061
:20142C00FDFA8748874903F0F1FA8749086008B908F0F4FA8548864903F0E8FA854C20608B
:20144C0008B908F0EBFA2068834908F0FFF808B108F0E4FA03A800212422082308F0DAFA07
:20146C000D2009907D4CDFF8FC9120684FF47A773225B7FBF0F005FB00F2794803AB4946D8
:20148C0008F0C4FA0E20099020682A46B7FBF0F04243754803AB494608F0B8FA01248DF866
:2014AC0000400025ADF8025040F205306A462146FFF748FC40F2063002210DF10202FFF789
:2014CC0041FC6A4A4FF442702146FFF73BFC684A40F207301121FFF735FCA02706203946A6
:2014EC0006F066FA0720394606F062FA0820394606F05EFA0920394606F05AFA20461E2106
:20150C0006F056FA019527468DF808708DF809708DF80A508DF80B704FF48160042101AAA8
:20152C0006F056F84FF48060214602AA06F050F840F2024021460DF1090206F049F840F29A
:20154C00034021460DF10A0206F042F840F2064021460DF10B0206F03BF84FF0FF3008F022
:20156C0015F94FF0FF3008F021F907F073FE414A2846152107F000FD4446207807F07EFEB1
:20158C00207804F073FA207805F0E4FA3A4807F07FFE3A4807F04AFE394807F051FE0CA8A9
:2015AC002946282203F046FF364916A8282203F0AFF8284639460CAA05F0C2F938462021FB
:2015CC000CAA05F0BDF9284639460CAA03F0D4F938460CAA014603F0CFF92846282116AA8E
:2015EC0005F0DCFA384614210CAA05F0D7FA264807F050F9254806F05DFF207808F0BEF832
:20160C00207808F0BFF8306806213A4605F010FF21B0BDE8F083C046C5290020A829002046
:20162C000029002074290020242900200C06002088290020182900201806002060290020E0
:20164C00F428002020060020502900200C290020280600205C290020F97B000074B900007A
:20166C0078260020513E00009C260020DC050020DD050020EE050020500600205806002025
:20168C006006002048B7000044060020480600202DE9F04F0128ADF1140D40F0F280DFF82B
:2016AC001492D9F8DC00012840F0E9800220C9F8DC0008F0A7F90290012005F08FFB20B1AF
:2016CC0001210646C9F8DC10D5E008F097F903906E484FF00008C0F80080012007F05AFB71
:2016EC00012818BFCDF8008004D1404604F016FF0120009066486E4CC0F800801934D4F8CB
:20170C00FF0F112007F0AEFF00280CBF46460126102007F0A7FF08B146F002060F2007F04A
:20172C00A1FF08B146F004060B2007F09BFF30B1584800685849006B0246088890470A207A
:20174C0007F090FF0028404618BF01204FF0805B0BF5DC7528B128685049006B02460888A1
:20176C0090474F480127076028688069014646F0200088474B48076007F06EFF00F001012B
:20178C000191400815D2484807F0D7FE8246BAF1040FF8D0BAF1010F06D1DBF8D8014068EC
:2017AC0002464148032190474049086820F003000860404600F080F82868D4F8FF1F806B8A
:2017CC008047019801280ED0BAF1010F06D1DBF8D8014068024634483946904733490868AA
:2017EC0040F0030008602A480760286840690146304688470B2007F035FF28B12868264976
:20180C00C06A0246088890470A2007F02BFF28B128682249C06A024608889047204807601C
:20182C000322C9F8DC201F4BC3F800802868406B0146304688470128F8D1042005F0CEFA7B
:20184C00124807601A48D4F8FF1F01688909FCD30098012802D1384604F060FE07F0F0FE5C
:20186C00082005F0BBFA06460398C9F8DC7008F0C1F804F00FFC029808F0B8F802E0042698
:20188C0000E00126304605B0BDE8F08F0C40094000022243B80100107AB5000076B50000C7
:2018AC002820086080010443004003402422084014100940380300202DE9F84F82467A48E4
:2018CC00DFF8D89135380068800880F0D88006F0A5FE054678480830D0F8008000244FEA16
:2018EC002876761C5FEA98500AD2C5F13E0015F10A0F4FEAE000D8BF08208642B8BF061C53
:20190C00634FD7F87C01C0F3046007F00FFE83463868C0F3044007F009FE06EB0B020090B6
:20192C00162A05DA12F10A0FB8BF6FF0090200E01522584B584F02F01F0141F4F8511980F5
:20194C00396811F0030F18BF0124C90828BF44F00204BAF1000F18BF44F00404494691F9F3
:20196C000730EB1A052B04DA8B79A34208BF888864D0DFF82CE10F2DA5F10F0C25DB0CEB55
:20198C000513A3F1F00C4FEA2C27072F88BF07273E46062E88BF06265EF82600042303EBA0
:2019AC0086037646F3581B1A03F0FF06E00824BFC3F307200644A00824BFC3F3074006449A
:2019CC00600828BF06EB136601E0002637465EF827E0E0080EF0FF0324BFCEF30720034467
:2019EC00A00824BFCEF307400344600828BF03EB1E630098B6B2ACEB07277E43801A06F12C
:201A0C00800603EB1623D8BF0120342208F0FF0742437A43B2FBF3F04FF6FF72824238BFBE
:201A2C00101C802D80B2888005DA15F1800FB8BF6FF07F0500E07F25CD718C71194A12681D
:201A4C001F280A604FF0000208D340F2FF11814206D24008521C8142FBD301E01F20888061
:201A6C00124F11490F38000942EAC00247EA0200C1F8FB0F0026C1F8FF6FBDE8F88F0D4F96
:201A8C000B4E494608203760891D0870BDE8F88F3C1100506E62084024220840302900208D
:201AAC009C130050082009403500094000E7A48030100940FDFDA400AC3F00502DE9F04178
:201ACC001C4615468C4208BF854282BF00230022E5E0002C08BF002D0AD100290EBF00287D
:201AEC006FF000006FF0000100F0E1F8BDE8F0815FF000085FF0000E002C08BF8D429CBF6B
:201B0C002C1C0025070C47EA01470E0CB44208BFBD429EBF5FEA044444EA15445FEA0545E2
:201B2C00070A47EA01670E0AB44208BFBD429EBF5FEA042444EA15645FEA0525470847EAB3
:201B4C00C1774E08B44208BFBD4200F29380870847EA81778E08B44208BFBD427CD8C708FD
:201B6C0047EA4177CE08B44208BFBD4266D8070947EA01770E09B44208BFBD4250D847099C
:201B8C0047EAC1674E09B44208BFBD423AD8870947EA81678E09B44208BFBD4224D8C709F3
:201BAC0047EA4167CE09B44208BFBD420DD8E60146EA5566EF01B14208BFB84201D3C01BA3
:201BCC00B14158EB08085EEB0E0EA60146EA95664FEA8517B14208BFB84201D3C01BB14153
:201BEC0058EB08084EEB0E0E660146EAD5666F01B14208BFB84201D3C01BB14158EB080847
:201C0C004EEB0E0E260146EA15762F01B14208BFB84201D3C01BB14158EB08085EEB0E0E44
:201C2C00E60046EA5576EF00B14208BFB84201D3C01BB14158EB08084EEB0E0EA60046EAF5
:201C4C009576AF00B14208BFB84201D3C01BB14158EB08084EEB0E0E660046EAD5766F0071
:201C6C00B14208BFB84201D3C01BB14158EB08085EEB0E0EA14208BFA84201D3401BA141A6
:201C8C0058EB08085EEB0E0EA34208BFAA423EBF2D0A45EA0465240A89D3734642461E46ED
:201CAC0017460B46024631463846BDE8F08170472DE9F843814607F0BDFC002100B901219C
:201CCC006B4E30680028FCD06C4D01242D1DEF6A346009B107F0B4FCDFF89881C7F307206C
:201CEC0008F1BC01086007F0A5FC002100B9214630680028FCD02F68346009B107F0A0FCDD
:201D0C00C7F38440C8F8C00007F094FC0146002001B92046014630680028FCD0ED693460EE
:201D2C0009B107F08DFCC5F38120C8F8D000B9F5C061C8F8B81000F0968098F8D80068B98E
:201D4C00C8F8D410D8F8C000C8F8C800D8F8BC70C8F8C470D8F8D060C8F8CC60D8F8D4102B
:201D6C00D8F8BC60002954BF02206FF00100454605F1C8031A6801EB41014018411000EB1D
:201D8C00917002EBA0021A60D5F8C810C5F8C46000291CDD1E293DDDD5F8CC0030B9342945
:201DAC00B4BF15391E21C5F8C81025E02A29BABFD5F8C8000B381E20C5F8C800D5F8C40085
:201DCC003F28B4BF401C3F20C5F8C4001FE0D5F8CC00032812D011F10B0FC6BFD5F8C80006
:201DEC000B30201CC5F8C800D5F8C4000028CCBF401E0020C5F8C400032009E011F1150F66
:201E0C00C6BFD5F8C8001530201CC5F8C8000020C5F8CC00B5F8C400174E30214FF47F42C2
:201E2C0008230090304604F049FF009404214FF400321123304604F041FFB5F8C800042183
:201E4C004FF4F80212230090304604F037FFB5F8CC0020214FF440620A230090304604F00E
:201E6C002DFFBDE8F883002088F8D800BDE8F88300800C403803002000A00C4000A00C4073
:201E8C002DE9FC416F4C204607F0EBFC15460E46009007F0D7FD05F001078046B6F1FF3F32
:201EAC000DD1606820B9B4F91200401C06B202E06068B0F91C6064490020C91C0870304655
:201ECC0006F00EFA0326002800F0A4806168814270D0009FDFF848C1B84231D03FB10099C4
:201EEC000A68904209D0096800290091F7D1832E44D0404607F0A2FD40E0604606F0C2FE69
:201F0C0000990868AA0803D202680B4601461A6000220A60009078B10C340146C87F40F066
:201F2C000400C877684607F0CFF80146204605F00FFE00980028F0D1404607F07FFD1CE0C1
:201F4C00604606F09FFEA8083ABF2068006800202060404607F072FD0C340099C87F40F0C7
:201F6C000400C877684607F0AFF80146204605F0EFFD009808B1A808EFD2832629482C4AE6
:201F8C00007890B928480078012846D0274807F01BFB0221104607F01BF92648007801283E
:201FAC003BD0254807F010FB37E01046022107F00FF932E0A90803D32168009100262660AD
:201FCC00C27F0121B9401143C17707F017FD0646002F14BF19481A4806F0E4FD404607F09D
:201FEC002DFDA80811D3009878B10C340146C87F40F00400C877684607F066F80146204665
:20200C0005F0A6FD00980028F0D1304607F0F2FC832602E0404607F011FD3046BDE8FC8192
:20202C00C0260020B4290020B3290020D5090000EC250020B5290020093B0000010002043D
:20204C00010001048C280020B02700202DE9F04FADF1840D209000F043FF04F00BFE00241C
:20206C00012804D106F0B8FF022808BF012459490868C0F38150012805D151F80C1C01206C
:20208C00090E884004435448007806F039FCDFF84C81DFF84CA1C8F8000030B15246FF210E
:2020AC0007467F1E02F8011BFBD120990968002501F0FF02FE2A1BD0DDF880C052462B46D6
:2020CC00012701F0FF06FF2E0BD0B04203D907FA06F6344201D0022079E001F0FF013543D8
:2020EC0053545CF8041F5B1C01F0FF06FE2EEAD1092001F0D9FD3B4920982422082308605D
:20210C0001A8002107F06EFC4FF0010901AA3E488DF81C90494607F061FCD8F800303BB30C
:20212C003A4E00274FF0040BBA4609FA07F0044218D1054204BF07F0FF0141F4C04104D062
:20214C0027482099C05D51F82010274801F09EFFF8B24FF0FF3106F047FED8F80030C6F8A6
:20216C0000A001E0C6F800B07F1C361D9F42DCD30AA800213022082307F02CFC1B4D1D4AA8
:20218C002878002410210AAB12901948009407F01DFC16A828220823214607F013FC686872
:2021AC0016AA16491C9014481D94234607F006FC134A52F80D0C494620F4F85040F40050AA
:2021CC0042F80D0C0F4BC2F8FF1F2046196021B0BDE8F08FB43F0050BA29002048290020C3
:2021EC0074270020A0290020007FC76758B90000B4270020118E0000B8250020116D00005C
:20220C000D30094008000940D02700201424002070B50C4601460025594A5A4BA0F54070FC
:20222C001D2810D8DFE800F097918B87817D79726B67635D5955510F4C48433F3A34302C0B
:20224C00280F24201C18282901DB022586E0084605F058F8208081E04148007820707DE087
:20226C0040480078207079E03F480078207075E03E480078207071E03D48008820806DE0AC
:20228C003C480088208069E03B480088208065E03A48016821608088A0805FE01046801C88
:2022AC00008820805AE010460088208056E01846801C0088208051E01846008820804DE0F6
:2022CC001046801F0078208048E02F480088208044E02E480078207040E02D4800782070DF
:2022EC003CE02C48016821608088A08036E02A480078207032E02948007820702EE0284A95
:20230C0028491278204602F003FA27E0264A27491278204602F0FCF920E02548008820800E
:20232C001CE024480078207018E02348016821608088A08012E02148006820600EE0204912
:20234C002046102202F0E4F908E01E492046102202F0DEF902E01C4800782070284670BD71
:20236C005907002058070020F7060020C02900205607002054070020520700204207002052
:20238C004E0700204A07002040070020BE290020BB2900203A070020BC290020BD2900206D
:2023AC001A0700201B070020FA060020FB060020F8060020F60600203829002070290020D9
:2023CC00C4280020B4280020BF2900202DE9F84F9A4693460D46044607F034FBDFF85C8154
:2023EC000AAFB8F91220B8F91010009040F6F870891A0840082880F29280B8F91000401C7A
:20240C006FF31F30A8F81000B8F9109006F00AFC064604F1700006F035FCB56086F81EB0C9
:20242C00C6F804A0F460A6F81C9097E80C0051A003C800251040F577D8F8002006F110076A
:20244C00194087E80300002A5CD14046314605F07FFB00285BD0A4F894904448F17F077854
:20246C00DFF8DCA041F08001F17784F8965067B151460F784FB1344A3449324B057001203D
:20248C0015700A781870521C0A70009807F0D6FAD8F8040000284ED15146087800282DD102
:2024AC002B480078012846D007F0CCFA054629480078F8B9B06804F05BF8284B2C4A26498D
:2024CC001B681268086038B9284607F0B7FA2448042106F07DFE2EE0D0680968214C091A3B
:2024EC00B1FBF3F1204607F0A5FA204607F09EFA28461EE01C4901200870F9E7192006F0D6
:20250C00C3FF18E04046314605F022FB50B9B8F9100000F6FF706FF31F30A8F810006FF0F7
:20252C00010905E0A4F89490F07F40F08000F077009807F083FA4846BDE8F88F8C280020C0
:20254C00B5290020B9290020B2290020C2290020B4290020B32900206829002074B9000092
:20256C00EC250020C0260020B6290020B829002098290020F1EFFF9F200000002DE9FC4146
:20258C005E4C574D574EDFF860815A4F94F8E410481E0B2861D8DFE800F07B2C430623437C
:2025AC00062343067664042907D001220A2945F8212C14BF0220032004E02021012045F844
:2025CC00211C024684F8E200002045F8390C0827C5F8FF7FC5F8F37F45F8392CBDE8FC810D
:2025EC00052914BF09200620002584F8E400356070E094F8E1700120383D002FC5F81B009B
:20260C0004BF0620002102D00021F160032084F8E400032045F8010C31603068800859D294
:20262C0094F8E400012503280DD00021404660220523009104F042FB94F8E400062814BF6C
:20264C000A200720D1E702200090002160220523404604F033FB0420C7E707F0ABF9BDE82E
:20266C00FC812249002622480E60012505600E2001F0B0FA022005F035FC84F8E45084F8A0
:20268C00E360BDE8FC81002038600C2578601FE01948006800680146202088472C3D41F6E2
:2026AC001D560F2000214FF4C072072345F8010C4046C5F803600225009504F0FFFA40468D
:2026CC0000214FF4C072072304F03EFD0120386084F8E45004F1780007F0A8F9BDE8FC816F
:2026EC0039400C4038600C4000A00C402C500C4004800C4034600C40A001001038030020B5
:20270C002DE9F041ADF1200D0646594C254605F1A607B08848B1B388391B284640A206F096
:20272C001EFC204606F00EFE2C18B6F80280308806F088FA4AA20CCA00F08CFF4AA20CCA68
:20274C0000F088FF04F06EFB0090391B36A24346204606F004FC284606F0F4FD2A18DFF88A
:20276C001481D8F800002946521B06F0E9FF2C46F08800282DD007F019F984463E4800883E
:20278C0070B9B0680090F068391B2BA263460190284606F0E4FB204606F0D4FD2C182FE0E6
:2027AC00F06800903069019070690290B0690390F0690490306A0590706A0690B368391BE9
:2027CC006246284606F0CBFB204606F0BBFD2C1816E0B2683069009070690190B069029075
:2027EC00F0690390306A0490002005900690F368391B284606F0B3FB204606F0A3FD2C1867
:20280C000D2004F8010B0A2004F8010B404600682946621A06F094FF08B0BDE8F081C0460F
:20282C0023253036752000C05B2025642E25303375205D2000C046C07B6576743A20666D00
:20284C00743D25702C20617267733D5B307825782C2030782578202E2E2E5D7D00C046C075
:20286C00000000000000F03E0000000000408F4068230020C40A00208A0500002DE9F041A0
:20288C0090460E460025082800F29380DFE800F0877767574737270F05C0072E01D0182579
:2028AC0088E046481146324601F032FF82E0304605F078FE071C10D0414C4249206881427C
:2028CC0002D0206806F0CEF838464146324601F01FFF27603C4806706CE013256AE0142EB9
:2028EC0001DD182566E0394C29461522204602F0A1FD41463246204601F00AFF5AE0142E6F
:20290C0001DD182556E0324C29461522204602F091FD41463246204601F0FAFE4AE0142E96
:20292C0001DD182546E02B4C29461522204602F081FD41463246204601F0EAFE3AE0142EBD
:20294C0001DD182536E0244C29461522204602F071FD41463246204601F0DAFE2AE0142EE4
:20296C0001DD182526E01D4C29461522204602F061FD41463246204601F0CAFE1AE0142E0B
:20298C0001DD182516E0164C29461522204602F051FD41463246204601F0BAFE0AE0082E3E
:2029AC0001D0182506E00F481146324601F0B0FE00E002252846BDE8F081C046D2050020CA
:2029CC00CC050020BE050020D0050020A8050020920500207C0500206605002050050020FD
:2029EC003A050020310500202DE9F04FADF1140D00F0B2FDDFF81C81DFF81CA1DFF810B1C3
:202A0C00DFF82091484E454644464FF0FF3006F0A9F838BB00200190694601AA0DF1020074
:202A2C0004F0E0FFF0B9BDF80200102816D19BF800009DF80010884210D1019801884FF6EE
:202A4C00FF728A4208D14088C00B07D3384A0420014604F081FE01E003F022FF019808B140
:202A6C0006F040F898F8000040083BD3287800F0FE00287029489AF800700078074331D0DA
:202A8C009AF800707FB92B4800788DF808002A4800788DF8090022490A680DF10A000260B9
:202AAC008988818002E003208DF80800234800788DF81000224800788DF811009BF80000E3
:202ACC0002A906F087FD68B1082089F80000376847B1306807682FB130460068016899F8AD
:202AEC00000088472878800807D3207800F0FD0020700E49002002F0C9F940460078C008F3
:202B0C0083D3207800F0FB00207004F0D1FD7CE7C4290020F4060020F7060020F6060020BB
:202B2C003A070020C02900205C0700204807002070290020BD290020BC290020BB29002065
:202B4C00BE2900202DE9F047ADF1280D00263446DFF818813046202804DA28F81040401CCA
:202B6C002028FADB3046282805DAFF2100F80D10401C2828FADB3E4D284606F01DFE284659
:202B8C0006F01AFE3B4935460D803B48DFF8EC900288B24251DD01278246364800880128EE
:202BAC004BD0062006F09CFB30B9D9F8000006213A4604F03DFC05E04846006806212A463B
:202BCC0004F036FC03F07CFD414621F81400641C202C00DB2C462A48018842F6E06048438C
:202BEC0006F0EAFD41200DF815004D210DEB45004170761C0DF817600DEB470130124870CD
:202C0C000220142810DA211A491C00D5203118F811200DF8102038F811100DEB400209127E
:202C2C005170401C1428EEDB284628216A4603F0B5FFBAF80000B042AFDC4846006806210C
:202C4C00012204F0F5FB41200DF8150046210DEB450041706A462846282103F09FFF094848
:202C6C00048028460AB0BDE8F087C04678250020804F1200420600203A0600208829002043
:202C8C003C060020360600202DE9F041424C474D8046C8F38140401E02D0401E2AD025E032
:202CAC00284620300168880C20D24FF4804020603A48D0F802204B0AC1F3033703F08003B3
:202CCC0022F08F02134347EA0302C0F80220D0F801300E1266F30303C0F80130026801F023
:202CEC00E70722F0E70247EA020102E04FF00041204601602A4E06F108000068C0F3C00729
:202D0C000FB94020A0624FF40070206406F0A4FB40F0300084F8C800C8F3815038B3401E38
:202D2C0003D0401E1ED002211DE0012006F032F807460420394603F029FE042006F02AF8C1
:202D4C008742FAD1366826F07F4005F0B3F815480068036807214FF06022300E98474FF447
:202D6C00806020600321042003F010FE06E00420012103F00BFE0C4805F09CF828460068C3
:202D8C000B4947F6180700F03F0084F8CB0F094E0F803068BDE8F08140A00C400A60084080
:202DAC00A83F0050B4010010BD3786006C13005070B00C402C20094070B5ADF1380D00F0C9
:202DCC008FF8324908682822082340F00200086001A8002106F0F6FD2D4EB0782E49079002
:202DEC002C48002301AA06F0E9FD00213022082301A806F0EFFD002519213078284AADF862
:202E0C001C5001AB09902548009506F0DFFD2822082301A8294606F0D5FDF0782249079062
:202E2C00204801AA2B4606F0C9FD3022082301A8294606F0CFFD01241A2170781C4AADF89C
:202E4C001C4001AB09901948009506F0BFFD194819492A46134606F0D9FD184806F0B4FBC0
:202E6C001849194E0C70164835704FF6FF728283C577164B1D70164C257016490D70174EE2
:202E8C003560154A15700EB070BDC0460020094068B90000EC250020AD910000EC27002090
:202EAC0055890000202600205D43000024280020D1650000C0260020817F0000093B000036
:202ECC0094270020B2290020B7290020B4290020B3290020B8290020B92900208C2900203F
:202EEC002DE9F041444C94F8E700ADF1280D00286FD1394F387B01250021242284F8E750C6
:202F0C007E6884F8E6000823C4F80C6101A806F081FD002604F10C00069601ABADF8146064
:202F2C002E490796324606F071FD2D4904F1300001AB324606F06AFD2A4904F1540001AB11
:202F4C00324606F063FDB868014628468847DFF89C8025487B7B0078D8F80410C1F38157B5
:202F6C001BB1032F03D184F8E150032F16D0022F14D0012F26D103201D4C009031464FF0A0
:202F8C0040521C23204603F099FE009531464FF400720923204603F091FE13E0022004F086
:202FAC00B9FF032F0CBF4FF47A7142F21071114800685434B1FBF0F1204606F03BFD20469D
:202FCC0006F034FDD8F80000C00802D2304604F0A1FF0AB0BDE8F0810CB900001B56000042
:202FEC00614C0000BD530000BA290020B03F005000A00C4074B9000038030020B0B50546A2
:20300C003D4AA9781023681D02F08AFA287900B3401E65D1A979687900EB012087B2E8793D
:20302C00297A00EB012081B238460C380ED0401E09D0401E04D0401E52D1304801804FE0F0
:20304C002F4801804CE02F48018049E02E48018046E068792F4C002838D0401E30D0401EBA
:20306C002BD02A49801E0CD0801E04D0801E17D0801E0CD034E00846008888B301F05EFA7D
:20308C002EE00846008858B301F058FA28E020490120088020680022072104F0C9F91FE051
:2030AC0020680721012204F0C3F9002014210DA203F074FDFFF746FD12E005F0D3F90FE03E
:2030CC006A792068062104F0B3F909E06A792068062104F0ADF96A792068072104F0A8F975
:2030EC00B0BDC0464D6561737572696E6720416D7065726F21212100D4280020400600203D
:20310C003E0600203C0600203A0600203606002042060020882900202DE9F0430746880FBB
:20312C00ADF1140D75D303F057FC404D00261C352E60394845F81C0C012001F084FB3748AE
:20314C0006F042FABC68B14640F60A01344A6680537B118090465680107BC2F8049003F09A
:20316C00F00300F0F000107343F00103537300E01C46636813B118888142F9D1C4F80480B2
:20318C00607B00F0F0006073264806F06AFB80680088C91F81421DD0491C81421AD03B8CEB
:2031AC00C3B197F82C107E8497F82D00C7F8249001F0F00100F0F00087F82C1040F00100E5
:2031CC0087F82D0007F12003C8F80430507B00F0F0005073B868694605F0F4FC684606F062
:2031EC0033F9B86802F0A5F828680028FCD02E60012005F0CFFD012808D0607B00F0F00038
:20320C0040F001006073084806F0DEF9B86845F81C0C05B0BDE8F08301010E04D50900003D
:20322C00A02800208C28002025640000001004402DE9F04105F0E8FE3F4D3E4EDFF8FC805C
:20324C000446A00820D330464168E9B1002242608B690A690F6922401A4342F0020205F136
:20326C0008038A611A68BA4301F110071A6097E80C002A680C301B1C9A432A6004F068FCFB
:20328C004046022105F0A4FF7068A10815D200F1100191E80C00002702EA04013B40002B34
:2032AC0008BF002909D081691440B0600C4384614FF48041404605F08BFF7068002837D1A6
:2032CC00304606F0CEFA071C32D01E48F9680068884228D1B86803F04BF919490860E8B9D5
:2032EC0005F1080138690A68104308602B6807F1100494E80300081C1843286000222A6123
:20330C00B86845F80C0C05F1100000680028FAD0304605F0D9FE7760BDE8F081086802F03B
:20332C00DBFCBDE8F08140464FF4805105F050FFBDE8F0818C2800200C100440EC2500203B
:20334C0068290020982900202DE9F04F09AFADF1140D1C460D46834697F804903E88029208
:20336C000027FF2003902878022822D16868008842F6021181421CD100960320294601909F
:20338C00584603F0A1F8071C11D12F4E306870B13068406858B1284602F08EFF02463068A6
:2033AC0045680094029B41F230115846A847384647E0284602F080FF8246031C07D05B1E67
:2033CC0001D00A203DE01420DFF8808002E02820DFF87C80B0421EDDA119884219DBA019A3
:2033EC00874205DDB9F1180F11D0B9F1120F0ED0E86802992246301801F08AF9A01987422A
:20340C000ADCCDF80CA0A019A8F8000004E00D2702E00D2700E007270398FF2810D00A48C0
:20342C0005686DB101680D6855B1006805683619B0B20090029B524641F230115846A847C5
:20344C00384605B0BDE8F08F6C0A00208A0A0020720A00202DE9F84308AFBE883F881D46AB
:20346C00904689460024D9F804004178D9F80400007800EB012080B242F62321401A49D06F
:20348C00401E05282ED9801F15D0263856D1072F0FD8C7F10700B04203D8C7F10700288075
:2034AC0000E02E8028492A884046C91901F030F946E0072444E025490878B84210DB087805
:2034CC00C01BB04203DC0878C01B288000E02E801F482A8800683918404601F019F92FE039
:2034EC0007242DE0D9F80C0005F02CFF80B2B8420EDBC11BB14202DCC01B288000E02E80B8
:20350C00D9F80C002A883918404601F001F917E0072415E0082F0FD8C7F10800B04203D88C
:20352C00C7F10800288000E02E800A492A884046C91901F0EDF803E0072401E02C800A247D
:20354C002046BDE8F883C046D2050020D0050020CC050020310500202DE9FE433A482C4952
:20356C0004F050FE39480024047039484FF6FF71018004F0B9F82749087001200094274F75
:20358C000190254822461346394602F019FF022622462348009439461346019602F010FFD8
:2035AC00204825462A463946009504241346019402F006FF1C480470DFF87090102229464B
:2035CC00484601F037FFDFF8688010222946404601F030FF174F2846386017490870174980
:2035EC000870174A072111701649087010214A46304604F095F803201021424604F090F856
:20360C0020463A46014604F08BF8BDE8FE83C046A4290020C12900200827002035910000C2
:20362C002C27002050270020BF290020B4280020C428002070290020BD290020BC290020A0
:20364C00BB290020BE290020C4290020C0290020400700202DE9FC4191EA03084CBF4FF0B3
:20366C0000484FF000084FEAC32545EA52554FEAC2264FEA43077F0D11BF45F0004500211D
:20368C000020BDE8FC815FF4E06E1EF1FF0E774555D04FEAC12343EA50534FEAC0224FEAFD
:2036AC004104640D11BF43F0004300210020BDE8FC81744543D0E419A3FB0501A3FB06E7A7
:2036CC00A2FB06631EEB030E57F1000751F10001A2FB05631EEB060E57F1000751F1000178
:2036EC00FF1851F10001C01951F100014CBF4FF4806E4FF4007E10EB0E0051F1000148BFF8
:20370C00641C01D4400049415FF44077FF37E41BDEBF00210020BDE8FC8117F58067BC424E
:20372C000DD24FEAD02040EA41504FEA41014FEA113141EA045141EA0801BDE8FC810020CE
:20374C00FF21C900C91D090551EA0801BDE8FC812DE9F04390460A68D8F800401678814624
:20376C0000271D46ADF1140D3846531C242E0B6053D112F8016F5B1C4C2E0B600ED1AA685F
:20378C00E41C24F00304241D54F8040C494602F00BFD2968EF600127091A2960462E1AD1C9
:2037AC00E41C24F00304241D54F8040CE41C029024F00304241D54F8040C002749460390B2
:2037CC00AA68ADF8047001A800F0F0FF2968EF600127091A2960532E1FD1E41C24F00304EA
:2037EC00241D54F8040CE861C8F80040288B0090A968EA69D9F800004346FDF753FCD9F8C2
:20380C000040002714B10119C9F80010D8F800402968EF60091A01272960662E0AD12B8B9C
:20382C0023B9E41D24F00704083403E0E41C24F00304241D1FB9E9690E700127EF60C8F826
:20384C00004005B0BDE8F0832DE9F043ADF11C0D054606F0A7F802F0ABFF07464FF000092E
:20386C00CDF800904C4605F039FF30F0010002D16FF004005FE017B96FF004005BE0686854
:20388C0070B16868B0F1FF3F06D0686801A904F0F9FA061C06D04EE04FF0FF30019001E00F
:2038AC00CDF80490012606F079F8019901EB000800E001937868019906F06CF800282ED019
:2038CC0003A804F0C3F8D8B99DF8100002A903F055FD88B9AB68BDF808009DF81210059AF5
:2038EC00984748B1BDF80800A8819DF81200A873059828614E4612E00599684604F05FFAF7
:20390C00641C0198B0F1FF3FD4D00028D2D006F045F8B8EB000302D001989842C9D20099E3
:20392C0007F1080004F049FD24B1786806F02EF8641EFAD1304607B0BDE8F0837CB5044663
:20394C00084602F0C7F8344E02461821304604F09BFC05F03BFA40F2FF32002380B22C2129
:20396C000090304603F0AAF905F07EFD1C210246304604F089FC05F01BFA024614213046BE
:20398C0004F082FC05F064FB02461021304604F07BFC204601F0C8FF02460C21304604F0FE
:2039AC0073FC204605F03CFB1C4D400040F020002870204605F040FB40F010002870204695
:2039CC0005F010F902462821304604F05DFC204605F04AFB400040F06000E870204605F066
:2039EC004FFBC00040F0800005F8080C204605F053FB800040F47C40A5F89300204604F04D
:203A0C0059FC02460821304604F03EFC4FF48000A5F2091108607CBD00A00C4049A10C40F9
:203A2C00F8B52D4E3168C90801D3022052E02B4A38C8114638C138C838C119C881E819009F
:203A4C002A4DFF21A5F148000160012405F10C00046002F110010E3221480968128800F051
:203A6C0057FE2548001D006880471E4842F22B02011F0A6042F60B3101601B4A4FF480716D
:203A8C001160002700F130010F6014300460A5F1400004602C60286805F0D4FF316841F061
:203AAC0004013160124A116821F0F05141F03451116005F0C3FF0F48006804F0B1F805F00E
:203ACC00B1FE05F0BBFE04F0C5F805F0AEFE05F0B8FE3846F8BDC04610100940E4260020B4
:203AEC0000000E4004500C4000100E4048600C40003009402C200940FC260020042998B5B0
:203B0C004CD1274805F0ADFE264C48B9264800F11F010978490838BF206803D3406800E0CC
:203B2C00C06820604168214A09781160416812680978914206D0876927B124A20CCA6FF0BB
:203B4C00FF01B847022004F0E5F9112000F0ACF801222168164B087C1A7018B115480078E8
:203B6C00012803D00E2000F09FF82168496812488F680FB9CF681FB10021C1610F4F076026
:203B8C000F4A40F2FF711160002787610D4941610D4805F019FD192005F0F4FE98BDC046CB
:203BAC008C2800209829002094270020D0210840B4290020B7290020001004405100070681
:203BCC0000000460020000402531000000000000000000022DE9F843044605F033FF814652
:203BEC002D48021992F8ED10491ECFB2002F82F8ED704BD12B4D05EB84052E78698836F0EA
:203C0C007F0788461AD1F10911D24FF08054D4F8B801806901464046884704F5DC7420688E
:203C2C00406B0146404688470228F8D121E000EB8800D0F80011002088471AE04FF08054F5
:203C4C00D4F8B801006A014640468847D4F8B801806A014640468847D4F8B801006B01468B
:203C6C004046884701210D4A0D48116001688908FCD306F03F003F2801D0FFF7ABFF6878EE
:203C8C0000F03F003F2801D0FFF7A4FF484605F0D5FEBDE8F883C046380300202820086091
:203CAC00282008404CB500002DE9F041064605F0C9FE2D4D8046A91991F8ED00421C00281A
:203CCC0081F8ED204AD1294C04EB8604277807F03F003F2801D0FFF7E7FF607800F03F0059
:203CEC003F2801D0FFF7E0FF668837F07F001AD1F80911D24FF08054D4F8B80140690146C0
:203D0C003046884704F5DC742068406B0146304688470128F8D121E005EB8605D5F80011FE
:203D2C00012088471AE04FF08054D4F8B801C069014630468847D4F8B801406A0146304654
:203D4C008847D4F8B801C06A0146304688470121074A0848116001688908FCD3404605F0D5
:203D6C006DFEBDE8F081C046380300204CB500002820086028200840294A2DE9F041804694
:203D8C000126284816600768002FFCD0294C2A4FC020443C206007F108000168234889086D
:203DAC0004D20168090C41F0F00100E072211E4D85F85412002111638768384601F074FB5E
:203DCC0040463946FFF7BAFD1C48B038816D40F20F226FF31F418A4212D901680068C1F38A
:203DEC000363C0F3034003B15B1E072805D006280EBF0720801C00F00F0043EA0010287098
:203E0C003846FEF741FF0E4814380068C1680220884740202060064F3E60BDE8F081C046D0
:203E2C00101009409402224302600840AC3F00509404604244600C40A83F00506C130050FD
:203E4C00B4010010F8B50646284F3E700024F0B205F03CFAC5B226483DB9264A00684FF48C
:203E6C00E021324303F040FE06E0234A00684FF4E021324303F038FE214ADFF888C03046F2
:203E8C000D3818D0401E29D11C490DB10E7846B9104606782E4321D101240C7060460470F7
:203EAC001CE00C7060460470012417480088A8B100F044FB12E015B11046067846B91046EF
:203ECC0006782E430AD1012404706046047005E0047060460470012404F0C4FA012C04D10D
:203EEC0004203946022203F08FF9F8BDB02900205C290020000006800000058035060020BB
:203F0C0034060020B1290020360600202DE9F041DFF8B080044698F800001F4615460E46A9
:203F2C00ADF1380D012804D0FEF746FF4046012101704EB166603DB1A56005F083FD224AA9
:203F4C00117819B105F07AFD002038E0491CC9B2117005F073FD01251FB9684605F0D4F92A
:203F6C006F46386820607868E060387A2074F8686061386900B1A0610021782204F12000B6
:203F8C0001F058FA05A800212422082305F02AFD04F138008DF82C50002105AA05F01EFD69
:203FAC0005A800212422082305F034FD04F1700006490B94002205AB05F028FD20460EB02D
:203FCC00BDE8F081DA050020C3290020D1970000F8B505F02FFB05F03FFB044604F00C0007
:203FEC000C2845D0E0081ED204F0A6F9234E376805460120014604F083FE316869438842BA
:20400C0011D21F4C8220B0FBF7F0291A204605F011FD204605F00AFD0120FDF739FB204655
:20402C0004F030FE25E0200922D21648610939BF016821F00101016841F0010102460160AF
:20404C00D2F898004FF0805440F00300C2F89800D4F8B8018069014620208847D4F8B80111
:20406C00094C806B2168804701202060206800E030BF05F0E5FA01F061FDF8BD74B90000A7
:20408C00440300208C2108402C200940F8B50D46EEB2290824BF27494D40274BB400DFF875
:2040AC009CC0195900EA05020CEA020200F4E02C85EA0107BCF5E02F00EA070721EA000100
:2040CC00C7F3006742EA010201D1510E14D300F4E0210F4310D002F4E027B7F5A02707D0FE
:2040EC00B7F5803704BF22F4003242F4A02203E022F4803242F4C0221A51114CC10D04D31E
:20410C00C5F38052A4F1D0018A55000E10D305F099FC290E03D201220021B24002E0012202
:20412C00B2401146236893431943216005F086FCF8BDC046006000A000100840007F077F5D
:20414C00D020024070B50D46044604F00FFC08B9012047E02448254A690809D311680B8823
:20416C00018819430C4203D005F0A6FA022039E01F490B685B0803D205F09EFA012031E08B
:20418C00012301F1300633600B685B08FCD2690803D211680020888004E011688C800188B7
:2041AC0021430180A80803D211680020C88001E01068C480E80803D211680020088101E043
:2041CC001068048105F02EFB05F038FB0949086840F040000860086820F04000086005F0D9
:2041EC006BFA002070BDC046F0260020E82600200C500C4000500C402DE9F04F09AFADF1A8
:20420C00140D914682460393D7F808803D79B7F800B002910027BAF1000F06D0081C04D08E
:20422C00181C02D0B8F1000F01D1022034E03C462DE00AEB840630884FF6FF71814224D07A
:20424C00B37813B30398029A594604F0D7FB0490D8B1B07840080AD30095CDF804803088C5
:20426C00049B01214A4601F025F83843C7B2B07880080AD30095CDF804803088049B0221FA
:20428C004A4601F017F83843C7B2641CE4B204480078A042CDDC384605B0BDE8F08FC046CC
:2042AC00C12900202DE9F0410C46002705F0CAFB804604F085FE224D204B2A78D10001EBF8
:2042CC00421158502A461078C10001EB40111D4805881E1D75520188491C01801546287883
:2042EC00C10001EB4011E0899A1D505228782022C10001EB401103F10800401804F11001B8
:20430C0000F006FA1048114A06782EB911462B780978994200D101272978491CC9B2202970
:20432C00297001D1002129700FB12978117000210170404605F082FBBDE8F0817811002021
:20434C00C90A0020CC0A0020CA0A0020C80A0020F8B505F077FB224C0746A06910F4602F17
:20436C0025D0A069400CC6B2700807D2B00803D2F00828BF022602E0012600E00026751DE9
:20438C0068B202F049F9A16906F111020120904081433846A16105F051FB04EB86008768D5
:2043AC0047B1606810A20CCA2946B84702E0384605F044FBA06918B10A48002104F008FF67
:2043CC00E07F80080BD367692FB1606808A20CCA6FF00101B847E07F00F0FD00E077F8BD5C
:2043EC00942700202026002000000000000000080000000000000080264838B55038046899
:20440C00B4F1FF3F08BF002404F056FF22481749002510380560012008601549086002F09C
:20442C00EFF91448006820B1134800682046FFF7A3FC124812490560124C0A686FF35B424C
:20444C0044EA0200086010490868C0F30130012806D10A680D48104040F400320A600860BC
:20446C000B4908680028FCD138BDC0465C600C400822044380012843000120438C210840BE
:20448C00482003400000390104000940FFFFFCFC0C0068426C13005094046042F0B520481C
:2044AC000127F84201D002F0E3FA204D204F214EBD4206D203CD0478A4003459401CA0470C
:2044CC00F6E71D48002800D08047164D164FBD4202D210CDA047FAE7F0BD03251BE0416816
:2044EC0008300A1C2A400BD11A1C2A40AB4305D0046804300C600431043BF9D1131C05D05B
:20450C00047801300C700131013BF9D1021C2A4001D0A84304300368002BE0D17047C046B2
:20452C00FFFFFFFF000000000000000018C1000078C10000C0C0000059C50110F0B5ADF16F
:20454C002C0D0022282A05DAFF2002F80D00521C282AFADB1D4E307800240DF81400308800
:20456C000DEB44010012487019490A7801200DF810200A880DEB4000121242700222142AEC
:20458C001BDA144F08460B8817F813300DF812300B8837F813300DEB42051B126B70038866
:2045AC005B1C038033880588AB4203D0521C142AE9DB02E0048020463080204628216A46A2
:2045CC0002F0ECFA20460BB0F0BDC046360600203806002078160020F8B500252E46001D58
:2045EC0084B214F0030002D0241A241DA4B204F05BFC1D4A1060102C02DC1C48076801E0DB
:20460C001B4807683888C10BCB030FD126B9844215DD01263D460DE02B883988C918298056
:20462C0029888C4206DC2F46388808E080F4004080B20026C71938880028E4D1002777B118
:20464C00001B80B2042804DA388840F40040388004E0E119088044F400443C803F1D106899
:20466C0004F002FE3846F8BD44290020782900207C290020B0B5ADF1280D0446A06840BB6F
:20468C000C20FFF7A9FF071C02D16FF0030036E0684600212422082305F0BCF90023ADF824
:2046AC00103005930697174861686A4605F066F93860386838B904F05FFB384603F0CAFBA0
:2046CC006FF003001BE0E06878602069B860A7600DE0A7680C48006880470546386804F04B
:2046EC00D1FA2069B86009480168284688473868616805F09FF9386805F098F900200AB055
:20470C00B0BDC04605960000900A0020940A0020002A4AD05FEA000C8B071CD1830722D172
:20472C00102A08D370B4103A78C978C0103AFBD270BC103238D0042A2CD3082A05D30C2A77
:20474C0024BF08C908C008C908C008C908C092072AD0920F22E00B780370491C401C521E42
:20476C0022D08B07F7D1C30714D18307D8D0121F12D308C903801B0C4380001D121FF8D294
:20478C000AE008C903701B0A43701B0A83701B0AC370001D121FF4D2121D05D00B78037089
:2047AC00491C401C521EF9D1604670472DE9F843002A894607464CBF47F6FF75151C002FE2
:2047CC0008BF002032D03888002808BF002403D02A4600F065F90446281B26DD388828B157
:2047EC00291B484612A202F0EBFB0419B868E0B1D7F804802E1BB8F1000F0DD0404604F0D6
:20480C00A1FD401DB04207DC291B484609A2434602F0D6FB04192E1B122E06DBBB68291B05
:20482C00484606A202F0CCFB04192046BDE8F8833A2000C0222573222C2000C06C696E6530
:20484C002025643A200070472DE9D841044605F0A9F800F06FFC071C02D16FF002003AE0B7
:20486C0004F022FB80460022062A2DD21B48910001EBC201465ABEB9A388910001EBC201DF
:20488C0043529100031D01EBC2015F50A3689100083001EBC20143502273786820614046D6
:2048AC0004F0E2FC002016E0A388910001EBC201415A994205D1404604F0D6FC6FF00200A0
:2048CC0009E0521C062AD2D302F038FB404604F0CBFC6FF00300BDE8D881C046302500205F
:2048EC002DE9F8432020EFF3118780F31188214CA068012105F03EF84FF001094FF0000843
:20490C0065692168A4F81C906A1A2168A4F81E80461B401A904227D387F311884046451927
:20492C00361A4846294605F021F8B042F7D92021EFF3118781F31188E18B012903D1404696
:20494C00294605F013F8B0F1FF3F06D0A169801B814238BF081C411901E0A069291805F02A
:20496C0001F8A4F820902560A4F81C8087F31188BDE8F883780100202DE9FE430D4600248F
:20498C0058B1401E01D002202BE0DFF85C90174E01208046194B1F6806E0DFF85490154EA8
:2049AC0001208046164B1F68A84218DBA84216DC114648462A46FFF7ABFE3580B8F1000F02
:2049CC000ED0072000900F4800780F4B01900A482246494602903846FFF70EFC00E0182407
:2049EC002046BDE8FE83C046A70A0020A80A0020A20A0020A40A0020AD5D00005829002031
:204A0C0054290020A00A0020840600202DE9F843DFF87C900F4604464FF0FF31484604F0B5
:204A2C00B9FFDFF870801D4800210AE0FF2A07D00368934202D958F822600EB1002421E0AA
:204A4C00491C1FB117F82120FE2AEFD100202060012660600546A0600EE0FF290BD063684F
:204A6C0006FA01F048F8214018430B4960601268204603F039F86D1C27B107EB85021178C2
:204A8C00FE29EAD1484604F081FF2046BDE8F883D027002014240020007FC76748290020F3
:204AAC009EB513460C461F4A1D4912880988824206DB13A219460346204602F081FA9EBDC2
:204ACC00194A1788814207DB04F0ECF842681946204602F075FA9EBD002F08BF0BA2E9D0C4
:204AEC000094002B48BF47F6FF73104F002101933C6802910E496A46A04702989EBDC04601
:204B0C007B6D6F64756C652325647D007B6D6F64756C652D726F70653A25787D00C046C061
:204B2C000AB90000A0B900008A0500009CB90000318100002DE9F04FADF13C0D04F062FF26
:204B4C008246DFF86C90DFF86C801B4E1B4D0024684600213C22082304F000FF59F8240036
:204B6C00069058F82400089056F82400049055F82400059012486946002204F0EBFE071C50
:204B8C0001D102F0DBF904F08FF98346384600F0D1FA08B902F0D2F9584604F065FB641C03
:204BAC00D6D0504604F022FF0FB0BDE8F08FC04624B8000028B8000020B800008C0A002065
:204BCC00459400002DE9FC41FCF708FC1F4E204C4FF6FF754FF000084FF0FF3003F0D2FF9B
:204BEC000028F9D1CDF804800DF10200694601AA02F012FFD8B90127BDF80200102811D187
:204C0C0030789DF8001088420CD1019801888D4205D14088000905D301F01AFE02E004F045
:204C2C0069FB0746019810B10FB103F06BFF206804F08CFE0028CFD1206804F083FE074628
:204C4C0001F0E0FA384603F01DFFF0E7C5290020742900202DE9984304F0F4FE1F4CDFF835
:204C6C007880814604F1E000007850B94446A0680146022088470746102002F0AFF82FB351
:204C8C0020E001F0D9F9002820460FD1144909683222B2FBF1F101B9012100F130042046BF
:204CAC0004F0C8FE204604F0C1FE0FE044460022A16880F8E020022088470746102002F099
:204CCC008DF81FB1A068014603208847484604F0B5FEBDE89883C0460CB900003803002017
:204CEC0074B900002DE9F04FADF12C0D1E48006890B31B4D1B4CDFF874A01D4F4FF0010BCD
:204D0C002E46A94625E004F09DFE2978CA0002EB411251468918B1E808516A46A2E8085128
:204D2C00B1E80850A2E8085091E80A1082E80A103178491C01F01F0189F800103978327872
:204D4C00914201D184F800B004F078FE6846FDF7D7FC20780028D6D00BB0BDE8F08FC0464C
:204D6C00C80A0020CA0A0020C40A002078110020C90A002070B51F4CA568064604F020F9C1
:204D8C004FF47A71401B4843050C03F047FC2169401A48BF404240F6B831AD19A94211D38B
:204DAC0006280FDAA268E1688A420BD8206848B1891A114A51438A0C02EB1141884288BFD5
:204DCC00011C08E00D49486840080ED208687D2100F0FF004143C82905D3B1F57A6F88BF74
:204DEC004FF47A6103E0C82101E04FF4FA61084670BDC0467828002040420F00AC3F005031
:204E0C00F8B514460F4604F01DFE85B21B480168097809B904F094F9AFB1384602F0B2FED4
:204E2C0058B114B14FF0FF3020700820FEF7D2FE284604F003FE00201FE038687968BA6888
:204E4C0002F038FE05E04FF480700122014602F031FE0B49012008600A4908684008FCD3C4
:204E6C000948006841680220884706460CB100202070284604F0E2FD3046F8BD1CB90000D9
:204E8C00A802504208800240CC010010FEB50D4604461B486988028891420DDCA988008880
:204EAC00814209DB1749E8880988884204D116492889098888421FD0052002F023FA064665
:204ECC0012480088ADF800006888ADF80200A888ADF80400E888ADF806002889ADF8080056
:204EEC00684604F081FA071C07D10A4804700848314602F061FE00E018273846FEBDC04652
:204F0C0052070020540700205607002040070020502700205A0700202DE9F84307461F4D8B
:204F2C002A884FF6FF7078401040288041F00804002F31D0DFF868904FF00108384604F059
:204F4C0004FC064608FA06F08743204604F0FDFB08FA00F18C4305F108010968800000EB48
:204F6C0006100B58A3B1C3F30B01C3F307301A0D4243520092B2022803DB891F89B2921DCD
:204F8C0092B22B1D1B6809EB0100C918FFF7C0FB002CDAD1002FD1D1BDE8F883F026002071
:204FAC0000000E402DE9F041044604F0FBFC00F0C1F8071C04D101F0C1FF6FF003002FE058
:204FCC0003F072FF80460022062A22D21548910001EBC201465ACEB991004FF6F87301EB64
:204FEC00C20143521049900000EBC2000B1D1F500025900000EBC20008310D5022717868B5
:20500C00A060404604F030F9284609E0521C062ADDD301F093FF404604F026F96FF00300BE
:20502C00BDE8F081302500203025002070B50546012068711C4E1D4C2879C8B903F034FFDF
:20504C00317821B904F010F96FF007002AE032461178491EC9B2117039B904F005F9206884
:20506C0003F08EF8002068711BE004F0FDF818E003F01AFF05463078FF2805D1284604F078
:20508C00F3F86FF006000DE031460878401CC0B20128087002D1206803F088F8284604F031
:2050AC00E3F8002070BDC046D00A0020D40A002070B51948001D20F003001849184A091A22
:2050CC001160184B1860184C186820601D68002001E02880AD1C1E6811688919A942F8D8C1
:2050EC001168236821F003015B181B1F18802168E8230B8025462968E83113684FF6FC72E4
:20510C001A40EC3A0A80094C2160FFF765FA084908602868206070BDC6290020483F0020A2
:20512C00402900208429002080290020782900207C2900202DE9F041054603F0B5FE8046C0
:20514C000026032E2DD21A480446B10001EBC6014758A7B9B00000EBC6002418256000209C
:20516C00A06001460A4604F0E9FB6060606808B901F0E4FE404604F077F8204615E0B100A3
:20518C0001EBC6016158A94208D1404604F06CF8B00000EBC6012046401806E0761C032E2C
:2051AC00D3D3404604F060F80020BDE8F081C046542600202DE9F041984616460F46044675
:2051CC0004F01CFC0546384603F08AF842463146071C03D1284604F00DFC24E0F87F10F09D
:2051EC00070F19D112487B68984202D07B682366786004F1580080E80600284604F0FAFB64
:20520C0004F138004FF0FF3104F0C4FB04F1680797E80300BDE8F081284604F0EBFBF87F78
:20522C0010F0070FFBD102200021BDE8F081C046FD6800002DE9F041074604F003FC80466F
:20524C0018480068400804D3404604F0F7FB002025E027B9404604F0F1FB01201FE0124C06
:20526C00207820B1404604F0E9FB022017E00F4E0021304604F08DF801252570404604F0A0
:20528C00DDFB0B4909683046B7FBF1F104F082FB10B10020207002E0002020702846BDE8D4
:2052AC00F081C0460C500C40BA0A00205C28002074B900002DE9F04307AFADF11C0D1D46E5
:2052CC0091460E4680461B214FF6FF7203AB03F0F3FA059040B300200090BDF80C000190C7
:2052EC00FF2002907C68059A0DF1120329464046A047041C12D16889ADF81000700806D385
:20530C0040464A4604A903F0DDFC044606E03B7840464A4604A904F069F904462CB104A823
:20532C001B2103F01BFD00E01524204607B0BDE8F0837047F8B5044604F0D0F930F0010040
:20534C0002D16FF004002EE004F02CFB054603F0ABFD03460022062A20D21348910001EB97
:20536C00C201475AD7B1910001EBC201465AA188B14210D10D49900000EBC200091D08583F
:20538C0000680026854200D10126A660184603F06BFF002007E0521C062ADFD3184603F04B
:2053AC0063FF4FF0FF30F8BD30250020302500201CB5042003F0EEFC022818D0032816D07D
:2053CC0016480068C0F38150032814BF41F288324FF47A721248144C016854342046B2FB9F
:2053EC00F1F104F027FB204604F020FB1CBD03200C4C009000214FF040521C23204601F0C8
:20540C005DFC012000214FF4007209230090204601F054FC022002F065FD1CBDB43F00503B
:20542C0074B9000000A00C4038030020002213460A46194671B510F0030F0BD0002A82BF44
:20544C0000F8011BB2F1010210F0030FF6D1002A08BF71BD11F0FF0141EA0121042A18D327
:20546C0041EA0141082A0FD30E46102A08D30C460D46B2F10F0312F00F0272C0103BFCD878
:20548C0012F0080F18BF42C012F0040F18BF40F8041B12F0020F18BF20F8021B12F0010F9A
:2054AC0018BF017071BDFEE70246184808B50068C0F3046004F03AF800EB2270401C162864
:2054CC0005DA10F10A0FB8BF6FF0090000E015200F49104B00F01F0040F4F850088018688D
:2054EC00800803D20C490020086001E042F040620A49D00E930E80F0010000F00100086015
:20550C0083F0010000F00100886008BDB81200506E6208400000094094042A43000020438A
:20552C002DE9F041ADF1180D1E4690460C460546184911226846FFF7EBF8701EC7B200213B
:20554C003A464046FFF776FF3A2018E0711EB94203DD08F8010B7F1EFFB2297809111DF8E8
:20556C00011008F8011B15F8011B01F00F011DF8011008F8011BBF1EFFB2641EE4B20CB123
:20558C00042FE3DA14B10FB108F8010B06B0BDE8F081C046D8B8000000B5ADF1140D401E4A
:2055AC000AD0401F31D140F215306946FCF730FE684600F09DFD28E04FF4417002A9FCF78B
:2055CC0027FE9DF808008DF800009DF809008DF801009DF80A008DF8020000208DF8040085
:2055EC008DF803009DF80D108DF807109DF80C108DF806109DF80B108DF805106A4608215A
:20560C00FDF73CF902A800F073FD05B000BD704738B519491A4C00204822C1F8F30F94F89C
:20562C00E200C1F8FF2F20B3012817D0022807D003281ED151F8310C00F024F80B2016E0E4
:20564C0051F8315C2846FCF733FB40F2FF50A84202D8801CA842F1D2082008E051F8310CB5
:20566C0000F05EFC054800780028E7D0052084F8E400FCF783FF38BD39400C401AB90000A9
:20568C003803002038B51A4CA0F5C060D4F8B810C4F8D4000029B8BF49420028B8BF40422B
:2056AC00814220DAB4F8BC00124D30214FF47F4208230090284601F001FBB4F8C00004215E
:2056CC004FF4F80212230090284601F0F7FAB4F8D00020214FF440620A230090284601F0AE
:2056EC00EDFA012000E0002084F8D80038BDC0463803002000A00C4038B50546880F26D338
:20570C0001F078FE124803F05FFF12480078012803D005F1380004F039F90F48002404606A
:20572C00022002F0DFFB1120FEF754FA287C10B90E20FEF74FFA09480A49094A0470087837
:20574C00147020B108480C70042103F041FD38BD093B0000DA05002000000460B32900202E
:20576C00B8290020B6290020EC25002070B50646F4680C3CB079062802DA3079062802DBF0
:20578C006FF0020027E003F08FFBB279124D910001EBC2016958D1B103F066FD307920717B
:2057AC00B0796071307AA071B179880000EBC1002858F168083002F002FBB179880000EB2D
:2057CC00C1002858406804F0E1F8002003E003F04BFD6FF0020070BD342500201A4898B513
:2057EC00D0F8781203680F0F03F0FF03802B28BF002301F03FFA4FF0FF3478B1401E07D01E
:20580C00401E012802D9801E19D01AE0BFB118E0381C12D0801E14D1143311E03846401E64
:20582C000BD0801E07D0001F03D0401E09D1163306E0152405E0142403E00A2401E00A332E
:20584C005CB2204698BDC046A01000502DE9F8430024002B16460F468046254606D5002FE1
:20586C00C3F1000302D57F42761E2D2599463846494601F089FC0CA0405CB7FBF9F7002F6C
:20588C0004F1010408F8010DF1D1A64205DD3021301B401E08F8011DFBD10DB108F8015D68
:2058AC004046BDE8F883C04630313233343536373839616263646566000070472DE9FE43C0
:2058CC000AAF1E4691460D4680462878022805D16868008842F60211814204D0284600F077
:2058EC00BFFC0A201CE038880090294603200190404600F0E9FD071C11D10A4C206870B1E8
:20590C002068406858B1284600F0AAFC024620684FF489514B46446800964046A047384693
:20592C00BDE8FE839C0A002038B504461848174DC03002686B68C2F30351C2F303405B08E3
:20594C0013D22B681D0511EB257103D41029A8BF0F2100E000211B0410EB237303D4102BA5
:20596C00A8BF0F2300E00023184640EA011002F47F4102F0FF03222C41EA004143EA010054
:20598C0024BF02F08042104338BDC046AC3F0050B812005030B5401E4FF00004ADF12C0D64
:2059AC000AD0401E04D0401E20D1FCF7E7FD1DE000F0DAFC044619E001A821462422082322
:2059CC0004F028F806940D4DADF8144009490794012201AB05F1780004F018F8064A2346D3
:2059EC002C2105F19C00009303F0F0FF20460BB030BDC046CD5E00001D560000380300203A
:205A0C002DE9F041054615F8017B90460E461CE0B8F1000F05F101050BD0FF2C09D802207C
:205A2C0015F8011B401E41EA0424F9D101E0042C02D315F8011B00E0394630462246FFF774
:205A4C00F9FCA61901E006F8010B15F8010B8742F9D115F8014B002CE9D115F8010B2C78F3
:205A6C0000022418D4D1BDE8F081704738B50546124C2078800002F06DFD1149086008B9DD
:205A8C0013201AE009684FF6FF7001F059FC2078800002F05FFD0B49086068B109684FF671
:205AAC00FF7001F04DFC0848084B0721102201F00BFB07490D7000E0132038BDC12900205E
:205ACC0054290020582900208406002068B80000A00A00200146184880B5983000688A0C46
:205AEC00C0F38367C0F38F2022D241F3072100290BD54A420021400805D17F0806BF012703
:205B0C00381C4FF6FF70521EF5D1002910DD4FF6FF72400040F00100824207D2780040F0B9
:205B2C0001070F2F92BF01200F27101C491EF0D140EA074080BDC046B8120050164880B5B6
:205B4C0007683FB315498B6803EA5300C00E21D2134A106880081DD2486880081AD210689E
:205B6C00096810F0050F4FEA114101F0F00101F5E0710AD1B9420DD2190F38BF40F00100DB
:205B8C00D90E38BF40F0040003E0B94202D920F00500106080BDC04628500940AC3F00506A
:205BAC000000094010B503F04DFF1149097829B110490C6803F042FF204610BD03F03EFF73
:205BCC0003F070FB0FA20CCA03F0D2FA0A4A126800231B184FEA020408A044EB010490E85E
:205BEC000600C91842EB04021046001C10BDC046B529002004300440B028002000000012BA
:205C0C007A00000000093D00000000002DE9904190460F4603F016FF0246154803788324D7
:205C2C00391C40460BD0491E02D0491E13D010E00C490978012906D00B49098807E00B4939
:205C4C000B1D1F680FB9802406E04968898B018002E0032400E00370104603F0EFFE2046F9
:205C6C00BDE89081B2290020B02700208C280020B5290020F8B5054603F094FE044603F0E4
:205C8C002DFD30F0010002D16FF0040021E003F00BF903460022062A16D20E48910001EB29
:205CAC00C201475A87B19100061D01EBC201715809688C4205D12A71184603F0D5FA002020
:205CCC0007E0521C062AE9D3184603F0CDFA6FF00400F8BD30250020B0B5074603F0B2FE7D
:205CEC00114905460878D8B1401EC0B20870B8B90E48082103F06CFA97B10D4C2068703090
:205D0C0002F0C0FF0C4920680968C068094C3F1A2046B7FBF1F103F08DFE204603F086FE4D
:205D2C00284603F08BFEB0BDC2290020EC25002098290020C026002074B900002DE9F8435F
:205D4C008146EFF31188202080F311880125114E114CF561114F6560F86A016A142088477C
:205D6C00D9F81000810C14BF000C0420A06138680268232100209047C6F88052206820F434
:205D8C00C02040F480302060356088F31188BDE8F883C0460000244300200940840100107F
:205DAC002DE9F84308AFBD883E881C46914688460027084600F054FA30B1401E01D00A20D0
:205DCC0017E00D48008801E00C480088B0420EDB811BA94202DC801B208000E02580D8F856
:205DEC000C00228831184846FEF792FC00E007273846BDE8F883C046A80A0020A40A002035
:205E0C002DE9F84308AFBD883E881C46914688460027084600F050FA30B1401E01D00A2073
:205E2C0017E00D48008801E00C480088B0420EDB811BA94202DC801B208000E02580D8F8F5
:205E4C000C00228831184846FEF762FC00E007273846BDE8F883C0468A0A0020720A002054
:205E6C002DE9F84308AFBD883E881C46914688460027084600F04CFA30B1401E01D00A2017
:205E8C0017E00D48008801E00C480088B0420EDB811BA94202DC801B208000E02580D8F895
:205EAC000C00228831184846FEF732FC00E007273846BDE8F883C0461A0A0020F609002011
:205ECC001648144A144908B5E4300078801E0A2807D8DFE800F01814100614100614100658
:205EEC0009C003F067FD11E010688008FCD250688008FCD20AE008688008FCD306E00868A2
:205F0C008008FCD202E010688008FCD3FCF736FB08BDC04634600C4038600C403803002060
:205F2C00134910B50A684BF2F5214843040AC2F38140012806D102F071FB01F03DFA604337
:205F4C0004EB90540C4901F1E500007830B90948006820F07F402418640802E0002081F82A
:205F6C00E50006480460210C41600123836010BDB43F005010200940380300203C600C40DD
:205F8C00BCB50446A168606808600027142003F010FC4DF8270060B90024A74206D95DF8E1
:205FAC00240001F057FF641CA742F8D86FF003000EE07F1CEAD00027064D5DF8270055F849
:205FCC002710A368044A02F051FB7F1CF5D00020BCBDC04670B90000997D000098B5044612
:205FEC0003F0E0FC00F0E4FB074603F077FB30F0010002D16FF004001DE017B96FF00400BE
:20600C0019E0606868B16068B0F1FF3F05D06068694601F037FF30B10DE04FF0FF300090B4
:20602C0001E0002000907868009903F0B3FC002400B90124204698BD08B5012002F0AAFE73
:20604C0001281DD00F4834210122002301F07CF8002808BF002014D00B48006802F01AFB12
:20606C0002F0AEFF0A4A93681168D060C01A074BA1EB91014343180C884228BF011C11604A
:20608C00012008BD00A00C408000001040420F0078280020B0B5144D28680004070C21D0E3
:2060AC0002F0BCFA114991F90720824205DD10F1800FB8BF6FF07F00C8718C88BC4210D863
:2060CC000A68D5F8D40F801A801C1F2888BF1F203F1B4008C7404FF6FF70E719B84238BF41
:2060EC00071C8F80B0BDC046341009403029002010B5ADF1180D0446124911226846FEF7E6
:20610C0007FB114A1346302003F8010B782003F8010BA41D062011D014F8011D09111DF8A6
:20612C00011003F8011B217801F00F011DF8011003F8011B401EC0B20028EDD1104606B092
:20614C0010BDC046E9B80000E42800201549096820280ADC202819D00B380FD00D380FD01F
:20616C00001F0FD0C01E0FD01AE0243810D0001F10D0401E10D0401E10D011E0486870474F
:20618C0088687047C8687047086970474869704788697047C8697047086A7047486A7047B3
:2061AC0000207047F0010020F8B50646B08815460F46FEF775FC0446002D02D4281B0A28E2
:2061CC0006DB3368291B38460BA200F0F9FE0419B08978B1002D06D4B06803F0B3F8291B61
:2061EC00401D884206DCB368291B384603A200F0E7FE04192046F8BD257000C028272573BF
:20620C0027290000014601F10902087A40B1801E21D0401E1CD0401E16D0401E0DD01DE016
:20622C00108841F21011401A04D0203816D1104602F0D2BB1046FCF7E1BE01F109000088B9
:20624C0000210A4601F0A8B901F1090002F0F8BB487AFFF7A1B9104602F0D9B87047704776
:20626C0010B50446207802280AD16068008842F60211814204D1A4F11000FFF7F1FF16E0B2
:20628C002078102807D160682278094902F0C7FB08B900200BE02078102805D1606822780E
:2062AC00044902F0BCFB08B1FF2000E0012010BD70B6000080B6000010B504462078022809
:2062CC000AD16068008842F60211814204D1A4F11000FFF7F1FF16E02078102807D16068B3
:2062EC002278094902F09BFB08B900200BE02078102805D160682278044902F090FB08B1C7
:20630C00FF2000E0012010BDA0B60000B0B6000010B50446207802280AD16068008842F694
:20632C000211814204D1A4F11000FFF7F1FF16E02078102807D160682278094902F06FFB6D
:20634C0008B900200BE02078102805D160682278044902F064FB08B1FF2000E0012010BD19
:20636C00D0B60000E0B6000038B5134D95F8E100002410B91148007860B103F063FB95F88D
:20638C00E310002906BF012185F8E310012403F055FB0CB1002038BD022001F0BBFD0E204B
:2063AC00FDF782FC02F0BEFA01280EBF0120002085F8E20038BDC046380300201AB90000F6
:2063CC002DE9F04708AFADF1280D8A4680461D46104C20684FF47A79B9FBF0F002FB00F640
:2063EC00002124220823684603F014FB786806902068B9FBF0F0454305953878ADF8100036
:20640C00514632466B46404603F000FB40460AB0BDE8F08774B90000084610B500F000515F
:20642C0000F00400084317D0012002F0B3FC01280CD00B48094C016832222046B2FBF1F109
:20644C0003F0F8FA204603F0F1FA10BD054803F0BBF805490548086010BDC046C02600206B
:20646C0074B90000D509000000100440A0280020F8B58446124F0646082E01D3114F083EF5
:20648C007D68700003248440700001FA00F0A543284378603C68B340012505FA06F08443B1
:2064AC0023433B60B869090CB540B140A8430143B961B8696046114601F01AFCF8BDC0468A
:2064CC0000100C4000200C402DE9F04106AF0C46804600253E88EEB9022B19D151781078DA
:2064EC0000EB012086B2B88836EA00000ED1E1680968404602F088FF86420CD0E1680968F6
:20650C004046324602F07AF9054604E0802502E00D2500E00B252846BDE8F081012838B57A
:20652C001ED1012002F036FC01281BD002F060FD0D4D0E480122322305F1E00100680A70D7
:20654C00B3FBF0F404B914463035284602F09AFB2846214603F06EFA284603F067FA01E059
:20656C0001F08EFA002038BD3803002074B9000010B50446207B00F00F00022819D11048E4
:20658C000078012815D0FFF70DFBA1686FF070428908A1EB900082420BDDB0F1704FBCBF1D
:2065AC000549084405490968C96801F57A71814200DB002010BDC046F6FFFF1F98290020DF
:2065CC00D905002010B510480E4C01680C40E1430160A10907D34068800904D30D484FF4DC
:2065EC00005102F0F5FD14F4602F09D00748016804F460240C4304600548002102F0E8FDBE
:20660C0010BDC04620000E0008100440AC27002020260020EC250020F8B5044603F012FA91
:20662C00844610481838C17FC90802D3817FA14212D00D49091D868B0B68012504F10C0703
:20664C0005FA07F2A540934335430B600F68858317B9034900200870604603F0EFF9F8BD2F
:20666C00D9050020AC270020081004402DE9F84308AF984691460446BD8805F1120080B23B
:20668C0001F0A4FF061C15D0347206F10904A4F8009084F8048039682A46601DFEF738F8CA
:2066AC00658005480068314603F044F90348006803F06CF9BDE8F88374290020A8290020B4
:2066CC0010B54FF4803001F09DFC012003F0BCF842F6E06003F070F80C49881E008810B985
:2066EC0042F20F7403E001EB400131F8024C012003F0ADF840B92A2002F046FD01200421D9
:20670C00FEF70AFC02F02AF8204610BDE8000E402DE9F0411C4615460E468046182001F0AE
:20672C00DDFE071C16D00421002202F015FE5020414601F0FBFE38727E72BD72FC60069879
:20674C0038610798786101F0DDFE044A394600F03BFD00E00420BDE8F081C046EF970000B5
