:20000000483F0020E588000001CA011001CA011001CA011001CA011001CA011001CA0110A4
:1C00200001CA011001CA011001CA011001CA011001CA011001CA01103FCA011082
:20003C003EB501780125913902D01F3925D027E040780E2824D12048204C01682088F8B1B1
:20005C001F48006801421BD01E480068014204D11D4800680088014212D01E484FF4B36368
:20007C00046800930BA2019200230293184B1A88164B186803A3A04702E001F0DFFD054600
:20009C0028463EBD70726F6A6563745F7A65726F2E6300C048434920436F6D6D616E6420A1
:2000BC00436F6D706C657465204576656E7420726563656976656400E8D6000056D6000078
:2000DC00400500003C0500004405000004D7000084050000FCD60000014908607047C04690
:0400FC00302F002081
:200100003C000000000000000000000034010000000000000000000001000000000000006D
:1C01200000000000000000000000000001000000000000000800000000000000BA
:20013C00340000000000000000000000680100000000000000000000010000000000000005
:14015C00010000000000000000000000080000000000000086
:2001700030000000000000000000000098010000040000000000000001000000FFFFFFFFA5
:10019000FF00000001000000080000000000000057
:2001A0002C0000000000000000000000C4010000040000000000000001000000FFFFFFFF4D
:0C01C000FFFFFFFF08000000000000002F
:2001CC0034050000E401000099A1011095A70110A5C2011009B2011045B80110000000000B
:0801EC00000000002E000000DD
:2001F400280000000000000000000000140200000000000000000000FFFFFFFF00000000B1
:080214000800000000000000DA
:20021C00300500003002000069C201106DC101101FC2011095BA011000000000000000008E
:04023C002C00000092
:20024000300500005402000075C20110A9B601109DBF011049B601100000000000000000DE
:040260002D0000006D
:200264002400000000000000000000008002000000000000000000000000000008000000CC
:040284000000000076
:20028800240000000000000000000000A40200000000000000000000000000000800000084
:0402A8000000000052
:2002AC00240000000000000000000000C8020000000000000100000000000000080000003B
:0402CC00000000002E
:2002D000000000005C1A0020040000000000000000000000200000007001000030000000B3
:2002F0001C020000881A00200400000000000000000000000C0000003004000018000000B2
:2003100040020000941A002004000000000000000000000024000000480400001800000031
:20033000000000009C1A002004000000000000000000000010000000A00100002C000000F6
:20035000CC010000A41A002004000000000000000000000020000000640200002400000034
:20037000FFFFFFFFC41A002004000000000000000000000028000000880200002400000099
:20039000FFFFFFFFF41A0020040000000000000000000000580000003C0100003400000056
:2003B000FFFFFFFFFC1A00200400000000000000000000001000000060040000180000006B
:2003D000FFFFFFFF041B00200400000000000000000000001C000000AC02000024000000E0
:2003F000FFFFFFFF0C1B002004000000000000000000000038000000F40100002800000051
:20041000FFFFFFFF141B002004000000000000000000000054000000000100003C000000EC
:1804300018000000000000000000000040040000080000000000000050
:1804480018000000000000000000000058040000080000000000000020
:18046000180000000000000000000000700400000800000000000000F0
:0804780002000000BCD60000E8
:040480000AF0AFBF10
:040484000100000073
:0404880000008C0FD5
:04048C000000BC0FA1
:040490003200000036
:040494000100000063
:04049800641A0020C2
:04049C00000200005A
:0404A0000000000058
:0404A40001CA011078
:0404A8000000000050
:0404AC00000000004C
:0404B0000800000040
:0404B40000007612BC
:0404B800681E00209A
:0404BC00010000003B
:0404C000AC1A002052
:0404C400080000002C
:0404C8000000000030
:0404CC00000000002C
:0404D0000000000028
:0404D4000000000024
:0404D8000000000020
:0404DC00010000001B
:0404E000D01E00200A
:0404E400060000000E
:0404E800010000000F
:0404EC00D41D0020FB
:0404F0000000000008
:0404F4000000000004
:0404F80000020000FE
:0404FC0000000000FC
:02050000704742
:020502002800CF
:020504000100F4
:020506002400CF
:020508002C00C5
:02050A002D00C2
:02050C002E00BF
:02050E000100EA
:0105100001E9
:0805140003000000A8D600005E
:08051C000000000000000000D7
:040524000000930D33
:040528000000AD0D15
:04052C0087C401106F
:04053000380500008A
:040534003805000086
:0405380000000000BF
:04053C0090610000CA
:0405400090610000C6
:0405440000000000B3
:04054800AC1A0020C9
:04054C006FAF00008D
:040550002000000087
:0405540000D60000CD
:0405580068D4000063
:04055C000DC30110BA
:040560004FB4000094
:04056400B9B4000026
:0405680099C801101D
:04056C009BC8011017
:040570000000000087
:040574005CB6000071
:040578006CD2000041
:04057C0084D2000025
:0405800054D2000051
:020584000280F3
:020586000380F0
:02058800C0179A
:02058A0001006E
:01058C00016D
:040590000000000067
:040594000000000063
:04059800000000005F
:04059C00000000005B
:0405A000A5B40000FE
:0405A4003D92000084
:0405A8003DA2000070
:0405AC00299B000087
:0405B0005798000058
:0405B400599B00004F
:0405B80009760000C0
:0405BC0099B10000F1
:0405C000717A00004C
:0405C40011C8011049
:0405C80021C8011035
:0405CC000800000023
:0405D0002400000003
:0405D400180000000B
:0405D80028000000F7
:0405DC0020000000FB
:0405E0003C000000DB
:0405E4000C00000007
:0405E80034000000DB
:2005EC002DE9F04FADF16C0D09F046FD0FF210288748DFF830B201688648DFF82CA205881D
:20060C001A91DDB184480068014217D083480068014204D182480068008801420ED050467B
:20062C00046840F24627BCA60097002301965F46C94E02933A8830684346A047C74C0021A1
:20064C0004F16C0630460AF0FFFF04F1780004F19C01266205F02EFDDFF80493A06208BBDF
:20066C0048460168DDB16C480068014217D06B480068014204D16A480068008801420ED0AD
:20068C00504606684FF41577C1A30097002201935F46B14B029218683A884346B0470AF0D9
:2006AC00CFFFA06A0321012208F0F6FB04F1840004F1440105F0FEFCE06200BB4846016890
:2006CC00DDB155480068014217D054480068014204D153480068008801420ED05046066885
:2006EC0040F25F27B3A30097002201935F469A4B029218683A884346B0470AF0A1FF04F124
:20070C00900004F14C0105F0D5FC206300BB48460168DDB140480068014217D03F48006869
:20072C00014204D13E480068008801420ED05046066840F26727A9A30097002201935F46FC
:20074C00854B029218683A884346B0470AF078FF1A99DDB130480068014217D02F480068CC
:20076C00014204D12E480068008801420ED05046066840F28D27A2A30097002201935F46AD
:20078C00754B029218683A884346B04708F0B1FA0AF013FB0126002740F205308DF80C60E6
:2007AC0003AAADF80E70314601F072FB40F2063002210DF10E0201F06BFB621C4FF4427025
:2007CC00314601F065FBD43440F207301121224601F05EFBDDF86890002D38D00E48006830
:2007EC0019EA000F33D00D48006819EA000F1DD10B480068008819EA000F28D016E0C046D2
:20080C0070726F6A6563745F7A65726F2E6300C0E8D6000056D60000400500003C050000F5
:20082C004405000084050000FCD6000007F080FF40F2BE25514676A30C6800955946019391
:20084C00454D02900A88286843464946A0470620A02108F08FFD0720A02108F08BFD08204C
:20086C00A02108F087FD0920A02108F083FD30461E2108F07FFD049734468DF816704FF441
:20088C0081608DF8144004218DF8154004AA8DF8174008F055FD4FF48060314605AA08F07E
:2008AC004FFD40F2024031460DF1150208F048FD40F2034031460DF1160208F041FD40F239
:2008CC00064031460DF1170208F03AFD0AF06BFDFFF7D0FD0AF086FA0AF078FC0AF08CFA7C
:2008EC0008F014FD0AF092FA0AF072FA282206A8394606F0ADF8504910A8282205F05AFA01
:20090C003846314606AA08F0D1FD3046202106AA08F0CCFD26E0C046496E697469616C69F9
:20092C007A696E67207468652075736572207461736B2C2068617264776172652C20424C6C
:20094C004520737461636B20616E642073657276696365732E00C04604D700002C050020D9
:20096C00E4D600003846282110AA06F067FF3046142106AA06F062FF0AF01CF809F0B8F96A
:20098C000AF0F2FC0AF0F4FC1BB0BDE8F08FC0464572726F7220696E697469616C697A6924
:2009AC006E6720626F617264204C45442070696E7300C0464572726F7220696E69746961B1
:2009CC006C697A696E6720626F617264204441432043532070696E7300C046C04572726F80
:2009EC007220696E697469616C697A696E6720626F617264204144432070696E7300C0465E
:200A0C005350492C2041444320696E697400C0464E616D6520696E2061647665727444612D
:200A2C0074612061727261793A201B5B33336D25731B5B306D00C046EDD200002DE9FE4F20
:200A4C00B84C0F460646F80B80F04781B80880F0D480B54DDFF8D892DFF8E0B2DFF8E88239
:200A6C00DFF8F4A22C68B80F67D2B0480678002E47D1380947D3AF4801264946067000240B
:200A8C000C70204605F045F9AB48FFF72DFBAC49224658460AF0E9FCAA48017801291CD1C8
:200AAC0041460B78CBB9A94E306880B10AF0B8F92B68A8493668A64D0A68C01A000B82182B
:200ACC002860B2EBC61F28BF0C6007D20A60A4484FF000510AF016F92CE00670504640F697
:200AEC0009010180417B01F0F00141F0010141734480017B01F0F00101734460974E30602B
:200B0C0018E0390914D2B80BC0F004819D48001D0AF0B6FC061C08D0706830B17468F0681C
:200B2C00B6F91C1098A20CCAA04727F40057F1E00021017027F00807ECE0ECB1042009F056
:200B4C0035FEC8B10AF06CF9864A29681060814226BF401A401E401A000BF060F06800F54B
:200B6C008D70F060F16840F6C410884203D340F2EE228A4200D9F0600024D6F818C02C608C
:200B8C00BCF1000F10D050460D30007810F00F0F0AD1708C40F60901814205D17CA20CCAA0
:200BAC0030466FF48071E0476F49584622460AF05CFC4546287850B10220ADF80000684687
:200BCC0009F0CCFC2C70BDF808006849088049460120674A674B087010781C70401C10703B
:200BEC0019200AF02BFA756925B16BA20CCA30462146A84727F000578CE004F10C0A5046B3
:200C0C000AF03EFC061C5FD008F065FB7368B2690025B561E3B1F37F42F002024FF0000936
:200C2C00904603F007035B1E07D05B1E03D09B1E06D15BA002E05CA000E05DA090E8000378
:200C4C007268F068B6F91C104B4694464246E0470AF0F2FC8046B4F91200401C6FF31F30E7
:200C6C006082E0681F30017801F07F010170504609F0B4FF40460AF0DBFCF068B0F9941056
:200C8C00B4F9122091421FD13B49097801291BD090F896409CB904688CB1384909680968CD
:200CAC00B1F1FF3F10D0364909687030B4FBF1F10AF0BAFCF06870300AF0B2FC04E080F89B
:200CCC009650284606F068FC50460AF0D9FB27F0020708B147F002071CE00AF0ADFC0146F7
:200CEC00204608300AF0CCFB0646B46908460AF09FFCA0080CD25EB17068B169A143B161C0
:200D0C0030B17568F068B6F91C1000232246A84727F480471FB11248394609F0F3FFBDE841
:200D2C00FE8FC046D82E0020202F0020432F00203F2F00203D2F0020916D00008C2E0020FB
:200D4C0091A30000412F00203C2F00201C2F0020282F0020182F0020EC2E00200010044061
:200D6C00682D0020242F00204D430000302E0020452F00203E2F00209C1F00202C2F0020BA
:200D8C00D8D60000D82E00200000000020000000000000000000000200000000000000044D
:200DAC000000000000000010000000000000004000000000000000202DE9F04F09AFADF10C
:200DCC003C0D00900292388801911E46ADF83400101C08BF002000F0828100274FF0010B93
:200DEC0000F10109B846DA466BE1252940F062811078521C02922D2818BFADF8228004D14F
:200E0C001078ADF822B0521C029230281CBF4246434605D1114608785B465A46491C02919B
:200E2C002A284FF0FF3516D128460B93346809900299CDF81C80E01C4B1C20F00300001D2A
:200E4C00306050F8044C08780293002C44BFADF822A0644212E0444609E0610001EBC40196
:200E6C0040180299A0F130040878491C0291302801DB3A28F1DB0B93294609912E282BD1DB
:200E8C000299087843462A2801F10101029111D1099330680794C01C20F00300001D30607C
:200EAC0050F8045C002D48BF454608780995491C029112E045460AE0690001EBC5014018CF
:200ECC000299A0F1300508782B46491C0291302801DB3A28F0DB099307940AB122460B9264
:200EEC006C2804D04C2818BFADF8208005D102990878ADF820A0491C029103A9CDF8288087
:200F0C0007AB0E9164280C9300F08B80692800F08880BDF834C0752872D078286ED06F28C8
:200F2C006AD0702850D063283DD073281ED0019802990128A1F10101029115D96B490C68F8
:200F4C00B5F1FF3F03D0A84288BF6D1C00D8019D0995684602A9324607ABA047C71902991B
:200F6C000A9801F1010974E040462AE030680299C01C20F00300001D306050F8040CBCF10F
:200F8C00000F01F10109014608B956A001460E9109F08CFF0A90B5F1FF3F5BD0A842C4BFBC
:200FAC00281C0A9056E03068C01C20F00300001D306010F8040C5D468DF80C0002990A9557
:200FCC00584601F1010945E0082035680B90E81C20F00300001D306050F8041C082210235D
:200FEC0007A806F025F8401E0E904021017002990E9801F1010929E0082302E0102300E0EF
:20100C000A230299306801F10109C01C20F00300001D306050F8041CAA42BCBF2A1C0B921A
:20102C0010E00299306801F10109C01C20F00300001D306050F8041CAA42BCBF2A1C0B9237
:20104C006FF0090307A805F0F3FF0E900C9D281A0A90079CBDF82250241A65B906E06846A6
:20106C00202101AA08F0B7FF079C7F1C641E0794F5D50A9800E007940546401E0A9075B917
:20108C00BDF82200E8B10798401E079019D46846202101AA08F09FFF07987F1CF4E70E9868
:2010AC00411C0E91017801AA684608F094FF0A987F1CE1E7684601AA08F08DFF7F1C09F154
:2010CC0001094A46029812F8011C401C002902907FF48BAE009808B14146017038460FB060
:2010EC00BDE8F08F286E756C6C2900C010D700002DE9F04F0546924CA97804F1C402ADF115
:20110C00240D681D934606F0DFF9BD482F79A1468CA10FF2402E0FF2582CDFF8E8820088E8
:20112C000891002FB849079000F094807F1E40F003814246096812688846924620B318EA00
:20114C000A0F21D0B148006818EA000F05D1B0480068008818EA000F16D0B04840F29F4742
:20116C0004680097CDF804E0CDF808C083A603960023CDF810B0A8490593A64F06930A8817
:20118C00089B38684146A047079C6879A979EE792A7A002C00EB012706EB022545D018EA73
:2011AC000A0F1ED0994B1B6818EA030F05D1984B1B681B8818EA030F13D0984B1C6840F232
:2011CC00A64300936FA301930290039100230496914905928F4E0693089B0A8830684146C3
:2011EC00A047079808B318EA0A0F1ED08748006818EA000F05D186480068008818EA000FAC
:20120C0013D0864840F2A7460468009666A3019302970395002204927F4905927D4E0692A8
:20122C00089B0A8830684146A04738460C380ED0401E09D0401E04D0401E08BFA9F80E503A
:20124C007AE0A9F80C5077E0A9F80A5074E0A9F8085071E00C68071C23D04046006804427D
:20126C001FD06A480068044204D1694800680088044216D0694840F24B4706680097CDF832
:20128C0004E0CDF808C053A303930022CDF810B0614905925F4F0692089B0A8838682146DB
:2012AC00B0476979B9F80470D9F8280001293FD9891E0DD0891E06D0891E04D0891E2FD0C7
:2012CC00881E29D038E0002F36D001F067FE33E00798E0B142461068044218D04B48006854
:2012EC00044204D14A480068008804420FD04C48056840F2594739A600230097464901968E
:20130C00444F0293089B0A8838682146A84707F0F0FC09F052FD0FE00120A9F810000BE097
:20132C000020142131A206F089FA00F04BFB03E00A46032107F0B0FD09B0BDE8F08FC046EC
:20134C002C05002070726F6A6563745F7A65726F2E6300C056616C7565204368616E676566
:20136C00206D73673A2025732025733A202573004C45442053657276696365004C45443192
:20138C0000C046C053575620506172616D65746572202D2D2D2025642C2025642C202564C0
:2013AC002C20256400C046C053575620506172616D65746572202D2D2D20416464726573AB
:2013CC00733A20307825782C20446174613A20256400C0464C45443000C046C05350492C5D
:2013EC002041444320696E697400C0464D6561737572696E6720416D7065726F212121008D
:20140C0056D6000040050000E8D600003C0500004405000004D700008405000000D70000CC
:20142C00FCD600002DE9FE430646DFF8DC82DFF8DC92B2780024101C00F03581801E00F003
:20144C000D81401E012840F2E180801E00F0A880401E7BD0401E59D0083800F04681801E5D
:20146C0040F046814546B08895F83E70ADF80000052F45D001208DF80A0005F1CC000AF011
:20148C0001F895F83E0001281BD0042819D0032806D0022804D0F28831897089B38907E004
:2014AC00B5F84020B5F84210B5F84400B5F84630ADF80220ADF80410ADF80600ADF80830F8
:2014CC0020E0B5F84000F1888842D8BF081CADF802003189B5F842008842D8BF081CADF89B
:2014EC0004007189B5F844008842D8BF081CADF80600B5F84630B0898342D8BF031CDDE726
:20150C008DF80A40684609F05BFEF1E0454605F1F00009F0B7FF7078002840F0E980F088DE
:20152C00E882308928837089688305F1CC0009F07DFD002840F0DC80AB6A002B00F0D8807C
:20154C001B68E88A298B6A8B9847D1E0B08808F0BEFE45462146062205F1380005F078FAB6
:20156C00EC822C836C83B079687305F1CC0009F089FF05F1F00009F085FF01244FF6FF70D0
:20158C006F79A8824FB9B079082814BF04200520A870204609F05EFBAAE00320A870A7E094
:2015AC00707858BB311D0A68454605F138000260898881800627AF707089A882F089E882E5
:2015CC00308A2883708A6883F0784446287394F83E00012818BF02280AD11F2007F0A8FB80
:2015EC004FF47A71024604F1CC00514307F078FDF0787289311D07F003FD7BE07078312864
:20160C006FD14D4604202870204623E07778002F67D14546698AA878032A13D02A796F7937
:20162C0021B9012A14BF6C712C7106E0174304D005F1A80007F054FDA878072814BF04200C
:20164C00062007E0062807D02879002808BF0324DAD00220A8704DE00724D5E77078751C44
:20166C0000283ED14246F7789078D1799FB9022816D0072814D0062802D1517901290FD18E
:20168C0003280DD002F1A80009F0D0FC40B9012009F0E0FA04E08732204606F0BBFC2870A1
:2016AC002878F0B924E07078D8B945460220102105F1480207F0FEFF0320102105F15802A2
:2016CC0007F0F8FFF61C05F12C00B7883168878005F1680201600120A979A87006F09AFC55
:2016EC0040B108204D46287004E0B08809F05CFD012C06D14546686A18B1016809B1A878BF
:20170C008847BDE8FE83C046F8130020FA1300202DE9F04FA349A44EA54DA64CDFF898B232
:20172C00DFF898A2DFF898920F88401E0FF2B418ADF1240D00F09080401E75D0801E61D088
:20174C00401E4DD0401E2ED0401E17D0401E40F0C6803168002F00F0C2809448006801420C
:20176C0000F0BD802868014204D120680088014200F0B58040F201405EA766E03168002F8A
:20178C0000F0AD8089480068014200F0A8802868014204D120680088014200F0A08040F24F
:2017AC00F53056A751E040F2153004A902F090FB04A806F0A7FC3168002F00F090807B4A57
:2017CC001268114200F08B802A68114204D122681288114200F083804FF47C774EA673E094
:2017EC003168002F7BD071480068014277D02868014203D120680088014270D040F2FD3086
:20180C004FA722E03168002F69D068480068014265D02868014203D12068008801425ED00B
:20182C0040F2F9304CA710E03168002F57D05F480068014253D02868014203D12068008843
:20184C0001424CD040F2E63048A74A46146800900197002602963CE04FF4417006A902F043
:20186C0037FB00218DF814109DF819308DF813109DF81A208DF811309DF818008DF81220E1
:20188C009DF81B108DF810009DF81D308DF815109DF81C208DF8173004A88DF8162009F05E
:2018AC006DFB06A806F02EFC3168C7B13F4A1268114214D02A68114203D12268128811426B
:2018CC000DD040F2E1372CA64A4614680097019602905B46554618682A884346A04709B0A0
:2018EC00BDE8F08F70726F6A6563745F7A65726F2E6300C04572726F7200C046436F6E6EB3
:20190C00656374656420616E64206164766572746973696E6700C046436F6E6E656374656E
:20192C00642E205065657220616464726573733A201B5B33326D25731B5B306D00C046C044
:20194C00436F6E6E656374696F6E2074696D6564206F757400C046C0446973636F6E6E65C7
:20196C0063746564202F2049646C65004164766572746973696E67004741502069732073E7
:20198C007461727465642E204F757220616464726573733A201B5B33326D25731B5B306DE0
:2019AC0000C046C056D60000E8D60000400500003C0500004405000004D700008405000038
:2019CC00FCD600002DE9F04F964E7189FA2000FB01F2132192FBF1F295B232894FF0000BFE
:2019EC00ADF15C0D06F5B078504390FBF1F080B206F5B07111902020401E21F802BBFBD183
:201A0C00FF20282707A97F1E01F8010BFBD111991F2005F0E5FE002840F0D180824C204690
:201A2C0009F0C7FC284605F03AFB0146182005F0D7FE002840F0C380204609F0BAFC5C46AB
:201A4C00A6F80CB05FA0B7881590002F7BD05846129013905D461490B089012873D00320D1
:201A6C0009F0F2F95F4600B10127714B6F48B3F800A0D0F800903B4608EB4407002B0CBF2D
:201A8C0001225A46706A032107F006FA07F012F8641C3880202CA8BF5C46F18842F6E06003
:201AAC00484309F086FC6D1C022741208DF81E504D238DF81C000DF11E018DF81D302A12D2
:201ACC008DF81F20E21B501C48BF02F1210038F810007F1C01F8020F142F4FEA2020487059
:201AEC00F0DB5846282107AA05F0A8FEBAF1000F26D05048006819EA000F21D04E4800682B
:201B0C0019EA000F05D14D480068008819EA000F16D04D4840F647032EA2D0F800C0009354
:201B2C00594601925B4602945A460397454F049143490593159B069208683A884946E04779
:201B4C00B088A84288DC706A0321012207F0A4F91199182005F044FE002830D1412046272E
:201B6C008DF81C00282107AA8DF81D70584605F065FE2E482E4D01682888F8B12D48006826
:201B8C0001421BD02C480068014204D12B4800680088014212D02C4840F65B07056800977F
:201BAC0016A3019302945A46039204920592254F06923A88224F159B3868A847348017B0DB
:201BCC00BDE8F08F70726F6A6563745F7A65726F2E6300C0414443206461746120746F7475
:201BEC00616C2028726561647920746F2073656E64293A20256420282564290041444320F4
:201C0C00726573756C743A206164632025642C20686561642025642C207461696C202564C8
:201C2C0000C046C030050020804F1200E8D6000056D60000400500003C05000044050000E3
:201C4C0004D700008405000000D700002DE9FF4705468448DFF828C2DFF81092DFF8108227
:201C6C00DFF810E2DFF810A2844E0788687846A3162856D02A797E2A38D07B487F2A1CD0CD
:201C8C000168002F6FD04846006801426BD040460068014204D1704600680088014262D0CC
:201CAC0060464FF4BB67046800973BA701970292574632883868A04755E00168002F52D02F
:201CCC004846006801424ED040460068014204D1704600680088014245D0604640F2D3579B
:201CEC000468009736A20192288918E065480168002F38D048460068014234D04046006849
:201D0C00014204D170460068008801422BD0604640F2CE570468009730A20192287A029022
:201D2C00C6E75A480168CFB148460068014215D040460068014204D1704600680088014252
:201D4C000CD0604640F2B5570468009732A2019228795746029032883868A0476888082123
:201D6C0007F0DCFF30B1297905F1080008F0E6FC012005E0012001F025FC434805600020E1
:201D8C000090BDE8FF87C04670726F6A6563745F7A65726F2E6300C05265636576696564E8
:201DAC002047415454204D6573736167652E204F70636F64653A2030782530327800C04633
:201DCC004D54552053697A65206368616E67653A20256420627974657300C046466C6F77F8
:201DEC0020636F6E74726F6C2076696F6C617465642E204F70636F6465206F66206F666646
:201E0C00656E64696E6720415454206D73673A2030782530327800C04F7574676F696E67C4
:201E2C00205246204649464F2066756C6C2E2052652D7363686564756C65207472616E7300
:201E4C006D697373696F6E206F66206D73672077697468206F70636F646520307825303253
:201E6C007800C04656D60000E8D60000400500003C0500004405000004D7000084050000BB
:201E8C00FCD60000E4D6000050050020ECD60000F8B5A0F2013517460E46022D40F20C815F
:201EAC008649874C874A884B2D1F0F2D04D9143D4AD0AD1E1CD011E0DFE815F0BA00B5001D
:201ECC00EB00DB00AE00A700FE009F00980010001000900086007A006F006200282880F263
:201EEC00EB80022E40F0E880398807F043FAF8BD012E40F0E1800A469078012800F0DC806C
:201F0C00D1783878D07081B9002800F0D5801078012800F0A080042800F09D80062800F0BD
:201F2C009A80052800F09780F8BD3878002840F0C3801078032800F09980072800F0968056
:201F4C00052800F09380F8BD012E40F0B5803878012840F0B180254605F1F00009F066F81A
:201F6C00002840F0A98004F13E01002004F044FF002840F0A18004F1CC0009F083FAF8BDE4
:201F8C00022E40F0998038880A28C0F29580B0F5486F00F39180114614E0022E40F08C80EC
:201FAC003888B0F5FA7F80F2878011460880F8BD022E40F08180388806287DDBB0F5486F27
:201FCC007ADC1946891CF1E7022E75D13888062872DBB0F5486F6FDC1946E7E7012E6BD1D3
:201FEC003878062868DA1146891F0CE0012E63D13878042860DA093105E0012E5CD1387826
:20200C00082859DA08310870F8BD012E54D13878042851DAC91DF6E7012E4DD138780428A4
:20202C004ADC891DEFE7022E46D138881031BDE7012E41D10A46D07801283DD0917838783E
:20204C00907061B9002837D01078012803D0042818BF052830D1012008F0FCFDF8BD3878FF
:20206C0050BB1078022818BF052825D108F096FFF8BD254600211F2205F18704204604F0B3
:20208C00E7FC39463246204603F094FE0020EE710EE0254600211F2205F16804204604F079
:2020AC00D7FC39463246204603F084FE0120AE713146224605F0AEFFF8BDC046FA130020C6
:2020CC00F81300203C140020381400202DE9F04F0128ADF1140D40F0F280DFF81492D9F8C0
:2020EC00DC00012840F0E9800220C9F8DC0009F093FA0290012006F063FB20B101210646AB
:20210C00C9F8DC10D5E009F083FA03906E484FF00008C0F80080012008F048FB012818BFB7
:20212C00CDF8008004D1404605F028FE0120009066486E4CC0F800801934D4F8FF0F11202F
:20214C0009F088F800280CBF46460126102009F081F808B146F002060F2009F07BF808B167
:20216C0046F004060B2009F075F830B1584800685849006B0246088890470A2009F06AF859
:20218C000028404618BF01204FF0805B0BF5DC7528B128685049006B0246088890474F486F
:2021AC000127076028688069014646F0200088474B48076009F048F800F0010101914008A0
:2021CC0015D2484808F0A3FF8246BAF1040FF8D0BAF1010F06D1DBF8D801406802464148DD
:2021EC00032190474049086820F003000860404600F080F82868D4F8FF1F806B80470198B1
:20220C0001280ED0BAF1010F06D1DBF8D801406802463448394690473349086840F003008C
:20222C0008602A480760286840690146304688470B2009F00FF828B128682649C06A024617
:20224C00088890470A2009F005F828B128682249C06A024608889047204807600322C9F889
:20226C00DC201F4BC3F800802868406B0146304688470128F8D1042006F0A2FA1248076081
:20228C001A48D4F8FF1F01688909FCD30098012802D1384605F072FD08F0CAFF082006F0C7
:2022AC008FFA06460398C9F8DC7009F0ADF905F04FFB029809F0A4F902E0042600E0012674
:2022CC00304605B0BDE8F08F0C40094000022243B8010010EAD10000E6D1000028200860BC
:2022EC0080010443004003402422084014100940441900202DE9F84F82467A48DFF8D891E8
:20230C0035380068800880F0D88007F0DDFE054678480830D0F8008000244FEA2876761CA2
:20232C005FEA98500AD2C5F13E0015F10A0F4FEAE000D8BF08208642B8BF061C634FD7F8B7
:20234C007C01C0F3046008F0DBFE83463868C0F3044008F0D5FE06EB0B020090162A05DA34
:20236C0012F10A0FB8BF6FF0090200E01522584B584F02F01F0141F4F8511980396811F028
:20238C00030F18BF0124C90828BF44F00204BAF1000F18BF44F00404494691F90730EB1A0F
:2023AC00052B04DA8B79A34208BF888864D0DFF82CE10F2DA5F10F0C25DB0CEB0513A3F19B
:2023CC00F00C4FEA2C27072F88BF07273E46062E88BF06265EF82600042303EB86037646BD
:2023EC00F3581B1A03F0FF06E00824BFC3F307200644A00824BFC3F307400644600828BF46
:20240C0006EB136601E0002637465EF827E0E0080EF0FF0324BFCEF307200344A00824BFE0
:20242C00CEF307400344600828BF03EB1E630098B6B2ACEB07277E43801A06F1800603EBF8
:20244C001623D8BF0120342208F0FF0742437A43B2FBF3F04FF6FF72824238BF101C802D0F
:20246C0080B2888005DA15F1800FB8BF6FF07F0500E07F25CD718C71194A12681F280A60FB
:20248C004FF0000208D340F2FF11814206D24008521C8142FBD301E01F208880124F11490D
:2024AC000F38000942EAC00247EA0200C1F8FB0F0026C1F8FF6FBDE8F88F0D4F0B4E49461F
:2024CC0008203760891D0870BDE8F88F3C1100506E62084024220840102F00209C13005046
:2024EC00082009403500094000E7A48030100940FDFDA400AC3F00502DE9F0411C46154670
:20250C008C4208BF854282BF00230022E5E0002C08BF002D0AD100290EBF00286FF0000090
:20252C006FF0000100F0E1F8BDE8F0815FF000085FF0000E002C08BF8D429CBF2C1C002512
:20254C00070C47EA01470E0CB44208BFBD429EBF5FEA044444EA15445FEA0545070A47EAC3
:20256C0001670E0AB44208BFBD429EBF5FEA042444EA15645FEA0525470847EAC1774E081D
:20258C00B44208BFBD4200F29380870847EA81778E08B44208BFBD427CD8C70847EA417758
:2025AC00CE08B44208BFBD4266D8070947EA01770E09B44208BFBD4250D8470947EAC167E2
:2025CC004E09B44208BFBD423AD8870947EA81678E09B44208BFBD4224D8C70947EA416729
:2025EC00CE09B44208BFBD420DD8E60146EA5566EF01B14208BFB84201D3C01BB14158EBFD
:20260C0008085EEB0E0EA60146EA95664FEA8517B14208BFB84201D3C01BB14158EB0808EA
:20262C004EEB0E0E660146EAD5666F01B14208BFB84201D3C01BB14158EB08084EEB0E0EFA
:20264C00260146EA15762F01B14208BFB84201D3C01BB14158EB08085EEB0E0EE60046EA39
:20266C005576EF00B14208BFB84201D3C01BB14158EB08084EEB0E0EA60046EA9576AF0007
:20268C00B14208BFB84201D3C01BB14158EB08084EEB0E0E660046EAD5766F00B14208BF27
:2026AC00B84201D3C01BB14158EB08085EEB0E0EA14208BFA84201D3401BA14158EB0808C3
:2026CC005EEB0E0EA34208BFAA423EBF2D0A45EA0465240A89D3734642461E4617460B4648
:2026EC00024631463846BDE8F08170472DE9F843814608F097FD002100B901216B4E3068D3
:20270C000028FCD06C4D01242D1DEF6A346009B108F08EFDDFF89881C7F3072008F1BC01E0
:20272C00086008F07FFD002100B9214630680028FCD02F68346009B108F07AFDC7F3844012
:20274C00C8F8C00008F06EFD0146002001B92046014630680028FCD0ED69346009B108F094
:20276C0067FDC5F38120C8F8D000B9F5C061C8F8B81000F0968098F8D80068B9C8F8D41076
:20278C00D8F8C000C8F8C800D8F8BC70C8F8C470D8F8D060C8F8CC60D8F8D410D8F8BC6099
:2027AC00002954BF02206FF00100454605F1C8031A6801EB41014018411000EB917002EBD1
:2027CC00A0021A60D5F8C810C5F8C46000291CDD1E293DDDD5F8CC0030B93429B4BF153928
:2027EC001E21C5F8C81025E02A29BABFD5F8C8000B381E20C5F8C800D5F8C4003F28B4BF22
:20280C00401C3F20C5F8C4001FE0D5F8CC00032812D011F10B0FC6BFD5F8C8000B30201C1E
:20282C00C5F8C800D5F8C4000028CCBF401E0020C5F8C400032009E011F1150FC6BFD5F840
:20284C00C8001530201CC5F8C8000020C5F8CC00B5F8C400174E30214FF47F42082300900F
:20286C00304605F0B1FE009404214FF400321123304605F0A9FEB5F8C80004214FF4F802E7
:20288C0012230090304605F09FFEB5F8CC0020214FF440620A230090304605F095FEBDE860
:2028AC00F883002088F8D800BDE8F88300800C404419002000A00C4000A00C402DE9FC4185
:2028CC006F4C204608F0DCFD15460E46009008F0B3FE05F001078046B6F1FF3F0DD16068C4
:2028EC0020B9B4F91200401C06B202E06068B0F91C6064490020C91C0870304607F0EAFAD6
:20290C000326002800F0A4806168814270D0009FDFF848C1B84231D03FB100990A68904233
:20292C0009D0096800290091F7D1832E44D0404608F07EFE40E0604607F094FE00990868A8
:20294C00AA0803D202680B4601461A6000220A60009078B10C340146C87F40F00400C877E2
:20296C00684608F03BF90146204606F021FE00980028F0D1404608F05BFE1CE0604607F0BE
:20298C0071FEA8083ABF2068006800202060404608F04EFE0C340099C87F40F00400C87726
:2029AC00684608F01BF90146204606F001FE009808B1A808EFD2832629482C4A007890B99C
:2029CC0028480078012846D02748FDF78DFB0221104608F097F92648007801283BD0254851
:2029EC00FDF782FB37E01046022108F08BF932E0A90803D32168009100262660C27F01218C
:202A0C00B9401143C17708F003FE0646002F14BF19481A4807F0A2FD404608F009FEA80850
:202A2C0011D3009878B10C340146C87F40F00400C877684608F0D2F80146204606F0B8FDDC
:202A4C0000980028F0D1304608F0DEFD832602E0404608F0EDFD3046BDE8FC81D02D0020F8
:202A6C003E2F00203D2F0020490A0000682D00203F2F0020B54F000001000204010001048A
:202A8C00D82E0020302E00202DE9F04FADF1840D209001F0ADFA05F073FD0024012804D133
:202AAC0008F018F8022808BF012459490868C0F38150012805D151F80C1C0120090E8840E6
:202ACC0004435448007807F039FCDFF84C81DFF84CA1C8F8000030B15246FF2107467F1EB8
:202AEC0002F8011BFBD120990968002501F0FF02FE2A1BD0DDF880C052462B46012701F05D
:202B0C00FF06FF2E0BD0B04203D907FA06F6344201D0022079E001F0FF01354353545CF8AB
:202B2C00041F5B1C01F0FF06FE2EEAD1092002F07BFB3B49209824220823086001A80021A2
:202B4C0008F05AFD4FF0010901AA3E488DF81C90494608F04DFDD8F800303BB33A4E002701
:202B6C004FF0040BBA4609FA07F0044218D1054204BF07F0FF0141F4C04104D0274820999F
:202B8C00C05D51F82010274802F068FEF8B24FF0FF3107F035FED8F80030C6F800A001E04A
:202BAC00C6F800B07F1C361D9F42DCD30AA800213022082308F018FD1B4D1D4A287800242D
:202BCC0010210AAB12901948009408F009FD16A828220823214608F0FFFC686816AA1649F2
:202BEC001C9014481D94234608F0F2FC134A52F80D0C494620F4F85040F4005042F80D0C3F
:202C0C000F4BC2F8FF1F2046196021B0BDE8F08FB43F0050442F0020EC2A0020F42D002055
:202C2C00342F0020007FC767B4D60000542E002029A80000342D0020658600000D30094069
:202C4C0008000940702E0020B82C00202DE9F84F9A4693460D46044608F0EEFCDFF85C810C
:202C6C000AAFB8F91220B8F91010009040F6F870891A0840082880F29280B8F91000401CF1
:202C8C006FF31F30A8F81000B8F9109007F0A6FC064604F1700007F0E5FCB56086F81EB0F3
:202CAC00C6F804A0F460A6F81C9097E80C0051A003C800251040F577D8F8002006F11007E2
:202CCC00194087E80300002A5CD14046314606F06FFC00285BD0A4F894904448F17F0778DA
:202CEC00DFF8DCA041F08001F17784F8965067B151460F784FB1344A3449324B05700120B5
:202D0C0015700A781870521C0A70009808F090FCD8F8040000284ED15146087800282DD1BC
:202D2C002B480078012846D008F086FC054629480078F8B9B06805F04BF8284B2C4A264956
:202D4C001B681268086038B9284608F071FC2448042107F0D7FF2EE0D0680968214C091A99
:202D6C00B1FBF3F1204608F05FFC204608F058FC28461EE01C4901200870F9E7192008F0D1
:202D8C005DF918E04046314606F012FC50B9B8F9100000F6FF706FF31F30A8F810006FF0E9
:202DAC00010905E0A4F89490F07F40F08000F077009808F03DFC4846BDE8F88FD82E002029
:202DCC003F2F0020432F00203C2F0020452F00203E2F00203D2F00201C2F0020D8D6000076
:202DEC00682D0020D02D0020402F0020422F00202C2F0020F1EFFF9F200000002DE9DF4F78
:202E0C006548DFF88CC1DFF874B1DFF874A1DFF87491DFF87481DFF874E1078856480E1CC2
:202E2C0032A313D10168002F5DD058460068014259D050460068014204D148460068008802
:202E4C00014250D040F276672CA62DE0012E17D0022E48D1002A46D10168002F43D058462C
:202E6C00006801423FD050460068014204D1484600680088014236D040F2876723A613E0D3
:202E8C00A2B90168002F2ED05846006801422AD050460068014204D148460068008801421B
:202EAC0021D040F27C6725A6002212E039480168CFB158460068014215D050460068014248
:202ECC0004D148460068008801420CD04FF4D06722A6604604680097019677464646029215
:202EEC003A883068A0470090BDE8DF8F70726F6A6563745F7A65726F2E6300C050616972EF
:202F0C00696E6720737461727465640052652D65737461626C6973686564207061697269AF
:202F2C006E672066726F6D2073746F72656420626F6E6420696E666F2E00C04650616972DC
:202F4C00696E6720636F6D706C65746564207375636365737366756C6C792E00506169724B
:202F6C00696E67206661696C65642E204572726F723A202530327800E8D6000040050000CE
:202F8C003C0500004405000004D7000084050000FCD60000E4D6000056D600002DE9F04F2A
:202FAC00584C201D5B4EDFF870B1DFF874A1DFF874910588E188A78840880FF20C18ADF10B
:202FCC00440D8F4256D0002F54D0FF21282707AA7F1E02F8011BFBD129128DF81C5003126A
:202FEC008DF81E0004F214578DF81D100DF11E028DF81F30122137F81030401C02F8023FE4
:20300C0080B285424FEA2323537003D0491EF2D1E08002E00020E080A0800020282107AA70
:20302C0004F00CFC3848394F01683888002847D037480068014243D03068014204D15A468B
:20304C001068008801423BD04A4640F611101568009021A70197E0880290A08803900026E7
:20306C000496534605962D4F06961A8838684346A84725E0254A2C49002017880968E0802B
:20308C00A080EFB1224A1268114219D03268114204D15A4612681288114211D04A4640F6D2
:2030AC00ED071468009711A6019602900390049055460590194B06902A8818684346A0472A
:2030CC0011B0BDE8F08FC04670726F6A6563745F7A65726F2E6300C0414443206461746110
:2030EC003A202564202F20256400C0464E6F2041444320646174613A202564202F202564A9
:20310C0000C046C02C050020E8D6000056D60000400500003C0500004405000004D70000F8
:20312C008405000000D70000E4D600002DE9F0438046D8F80460D8F808700C46ADF1340DAD
:20314C0008F07AFA3178012903D108F071FA0020A3E04FF0010986F8009008F069FA207800
:20316C0070706078B07060687060A068B060E068F06020693061207D3075607D7075A07DE8
:20318C00B075A069B061207F3077607F00257077A07F35623563102186F83C10B0772C46D1
:2031AC0074627463B462B46386F82C4086F82D4086F83D40786802F037F8404602F06AF97D
:2031CC00404603F071F978B935480068C068014638688847786801F053FF08F02DFA347026
:2031EC0008F026FAA04657E001A821463022082308F0FAF9CDF818803A7B09920095294A61
:20320C00B96806F1680001AB08F0EAF901A828220823214608F0E0F9396907912249CDF8DB
:20322C00148006F1840001AA234608F0D1F901A824220823214608F0DFF9B0788DF81C90F3
:20324C0038B906F1B800214601AA08F0D1F917483061707838B906F1D400214601AA08F050
:20326C00C7F91348F06001A821462422082308F0ABF90694ADF8144006F1F0000D49CDF825
:20328C001C800A2201AB08F09BF90B4A06F154000421434606F040FF40460DB0BDE8F08344
:2032AC00D0010010054D000079830000A5B300009DB300005561000059B000002DE9FC4119
:2032CC005E4C574D574EDFF860815A4F94F8E410481E0B2861D8DFE800F07B2C430623432F
:2032EC00062343067664042907D001220A2945F8212C14BF0220032004E02021012045F8F7
:20330C00211C024684F8E200002045F8390C0827C5F8FF7FC5F8F37F45F8392CBDE8FC81BF
:20332C00052914BF09200620002584F8E400356070E094F8E1700120383D002FC5F81B004D
:20334C0004BF0620002102D00021F160032084F8E400032045F8010C31603068800859D247
:20336C0094F8E400012503280DD00021404660220523009105F028F994F8E400062814BF3A
:20338C000A200720D1E702200090002160220523404605F019F90420C7E708F00DF9BDE899
:2033AC00FC812249002622480E60012505600E2001F066FE022006F0D9FA84F8E45084F8F6
:2033CC00E360BDE8FC81002038600C2578601FE01948006800680146202088472C3D41F695
:2033EC001D560F2000214FF4C072072345F8010C4046C5F803600225009505F0E5F840465B
:20340C0000214FF4C072072305F0D4FB0120386084F8E45004F1780008F002F9BDE8FC8131
:20342C0039400C4038600C4000A00C402C500C4004800C4034600C40A00100104419002045
:20344C002DE9F04F0446564DDFF858B1564FDFF85CA1DFF85C9120790FF2C408ADF11C0DD4
:20346C00002829D0401E58D1584629680088002853D03868014250D050460068014204D17D
:20348C00484600680088014247D04C4840F244570568009726A6019660790290A079039069
:2034AC00E07900230490444F0593424E06933A8830684346A84730E0414E0021282230464A
:2034CC0003F0C6FA641D27222146304602F072FC58462968008800B3386801421DD0504656
:2034EC000068014204D1484600680088014214D0324840F23D57046800971CA5019522A33C
:20350C00029325A20392002704962B4D0597294B069718682A884346A04707B0BDE8F08F4B
:20352C0070726F6A6563745F7A65726F2E6300C056616C7565204368616E6765206D73674E
:20354C003A204461746120536572766963652053747265616D3A20253032783A253032787C
:20356C003A253032782E2E2E00C046C056616C7565204368616E6765206D73673A202573FA
:20358C002025733A2025730044617461205365727669636500C046C0537472696E6700C00D
:2035AC00E8D6000056D60000400500003C0500004405000004D700008405000000D700000B
:2035CC00680600202DE9F04F5B4C243C676A0246ADF11C0D002F64D04E48DFF84091DFF89D
:2035EC004081DFF840E1DFF840B1DFF840A1DFF840C106882CA32ABB47490968002E4AD023
:20360C0048460068014246D040460068014204D170460068008801423DD0604640F22266F3
:20362C000568009624A2019238790290A0780390002604960596574606965E463A883068A2
:20364C00A84728E03B48016806B34846006801421CD040460068014204D1704600680088F1
:20366C00014213D0604640F22766056800961DA60196387902900392002604960596574686
:20368C0006965E463A883068A847676A397907F1080007F053F8606A07F0D4F90020606260
:2036AC00A07007B0BDE8F08F70726F6A6563745F7A65726F2E6300C053656E74206D6573AD
:2036CC00736167652077697468206F70636F6465203078253032782E20417474656D7074D4
:2036EC002025640047617665207570206D6573736167652077697468206F70636F646520F2
:20370C003078253032782E205374617475733A20256400C056D60000E8D600004005000052
:20372C003C0500004405000004D700008405000000D70000E4D6000050050020B0B5456877
:20374C0084685148297BADF1180D01291AD001462F7E227E637E4D4837F0010741EA0202F5
:20376C0040EA030001904A48009218BF011CA27E1143029195F88D200323FF2A13D00146AD
:20378C0010460DE0A17E627E237E41F00041024343F00043029195F88D0000933D490192B4
:2037AC00014304230391FE2105F190004DF82310694602F07FFCC5F89C00002808BF00205D
:2037CC005FD0287B344951F8200001282BD02068B0F1804F14BF22220A22217ED5F89C00BE
:2037EC0006F062FB2068B0F1804F14BF21220922617ED5F89C0006F057FB2068B0F1804FA9
:20380C0014BF24220C22A17ED5F89C0006F04CFB95F88D10FF2933D02068B0F1804F14BF70
:20382C0023220B2228E02068B0F1804F14BF21220922217ED5F89C0006F036FB2068B0F171
:20384C00804F14BF22220A22617ED5F89C0006F02BFB2068B0F1804F14BF24220C22A17E88
:20386C00D5F89C0006F020FB2068B0F1804F14BF23220B2295F88D10D5F89C0006F014FBED
:20388C00012006B0B0BDC046000480A0004000800004C0A00020008084D100002DE9F0414E
:2038AC000646524DB088ADF1200D002804BF05F10C04A0460DD005F10C040346A62137A26B
:2038CC00204607F06AF8204607F0F0FA281800F10C083768B8B206F091FE40A20CCA00F05B
:2038EC00B7FE40A20CCA00F0B3FE04F08DFFA4EB080100902BA23B0CA631404607F04DF859
:20390C00204607F0D3FA2218A8682146121B07F00DFDF088D8B107F04BFE35490A8832B956
:20392C00B1680091F168034622A201911FE0F16800913169019171690291B1690391F1694F
:20394C000491316A0591716A0691B3680EE03069009070690190B0690290F0690390306A56
:20396C000490002705970697F368B06802462046A62107F012F8204607F098FA22180D2008
:20398C0002F8010B0A2702F8017BA8682146121B07F0CCFC08B0BDE8F081C0462325303689
:2039AC00752000C05B2025642E25303375205D2000C046C07B6576743A20666D743D2570D7
:2039CC002C20617267733D5B307825782C2030782578202E2E2E5D7D00C046C0000000002A
:2039EC000000F03E0000000000408F40400E00208A0500002DE9F04305466E68AF680C46AE
:203A0C00ADF1340D07F018FE96F8D910012903D107F00EFE002084E04FF0010886F8D98093
:203A2C0007F006FE4FF00009C6F888902069306160697061207E3076207B307320783070F3
:203A4C00606886F8A490706060694946092828BF414686F88C10387B01F0E6FB284603F019
:203A6C005FFEF87E86F88D002846FFF767FE50B9387B01F005FB07F0DFFD86F8D99007F035
:203A8C00D7FD4D464CE001A849463022082307F0ABFD06957A790992CDF80090224A397997
:203AAC0006F11C0001AB07F09BFD01A828220823494607F091FDB96807911C49059506F1CB
:203ACC00380001AA4B4607F083FD307878B901A849462422082307F08FFD06F16C008DF802
:203AEC001C80494601AA07F083FD114800E0A068B06003F089FF317BC6F8A000012908D194
:203B0C00D6F89C000B4907F099FBD6F89C0000B18560094A06F1C40004212B4606F0FCFAC0
:203B2C0028460DB0BDE8F0837D5C00007F7F00008DB30000E18E0000C1B20000B0B5024690
:203B4C00107A02F1090102F10904ADF1200D00283ED0401E33D0401E4DD0401E47D0801EE2
:203B6C004CD13D483D4F0168388820B33C480068014220D03B480068014204D13A48006803
:203B8C000088014217D0A07800280CBF1CA21FA238484FF468770568009722A3019302924A
:203BAC000027039704970597314B06972F4F1A88386818A3A847208805F060FE1EE00888F5
:203BCC0041F23012824219D1084600F09FFA15E00F8841F210103F1A05D0203F0ED1084646
:203BEC00FFF72EFC0AE00846FDF782FA06E0507AFDF78EFD02E0084607F09CF808B0B0BDE2
:203C0C00446973706C6179696E6700C053656E64696E670070726F6A6563745F7A65726FE6
:203C2C002E6300C0426F6E644D6772205265717565737465642070617373636F64652E20EC
:203C4C005765206172652025732070617373636F6465202530366400E8D6000056D6000021
:203C6C00400500003C0500004405000004D700008405000000D700002DE9F041424C474DC5
:203C8C008046C8F38140401E02D0401E2AD025E0284620300168880C20D24FF48040206019
:203CAC003A48D0F802204B0AC1F3033703F0800322F08F02134347EA0302C0F80220D0F802
:203CCC0001300E1266F30303C0F80130026801F0E70722F0E70247EA020102E04FF0004165
:203CEC00204601602A4E06F108000068C0F3C0070FB94020A0624FF40070206407F07EF9C9
:203D0C0040F0300084F8C800C8F3815038B3401E03D0401E1ED002211DE0012006F046FD85
:203D2C0007460420394604F0FBFA042006F03EFD8742FAD1366826F07F4005F0FFFD1548F4
:203D4C000068036807214FF06022300E98474FF4806020600321042004F0E2FA06E00420B9
:203D6C00012104F0DDFA0C4805F0E8FD284600680B4947F6180700F03F0084F8CB0F094EBA
:203D8C000F803068BDE8F08140A00C400A600840A83F0050B4010010BD3786006C130050B7
:203DAC0070B00C402C20094070B5ADF1380D00F01FF9324908682822082340F002000860EC
:203DCC0001A8002107F008FC2D4EB0782E4907902C48002301AA07F0FBFB00213022082394
:203DEC0001A807F001FC002519213078284AADF81C5001AB09902548009507F0F1FB28221C
:203E0C00082301A8294607F0E7FBF07822490790204801AA2B4607F0DBFB3022082301A899
:203E2C00294607F0E1FB01241A2170781C4AADF81C4001AB09901948009507F0D1FB194826
:203E4C0019492A46134607F0BBFB1848FCF74CF91849194E0C70164835704FF6FF728283E4
:203E6C00C577164B1D70164C257016490D70174E3560154A15700EB070BDC0460020094001
:203E8C00CCD60000682D0020D9AC00008C2E002091A300009C2D0020315B0000A82E0020C1
:203EAC00317E0000D02D0020699A0000B54F0000142E00203C2F0020412F00203E2F002019
:203ECC003D2F0020422F0020432F0020202F00202DE9F04F0C464549CA7AADF12C0D84469E
:203EEC000592487B09900D7900958A7A488B4B8A0E7B91F805A091F802800492B1F846E0D5
:203F0C0008904A7A088B0392CD7807900A7AC88A02920F6A0690CA79888A01928A79E146AA
:203F2C00A9F54079B9F11D0F10D8DFE809F05B5553514F4D4B494643413F3C3A380F3431F1
:203F4C002E2B2923201E1C0F19181716BCF1280F49DA604604F0ECFE21E0099EB246D046A8
:203F6C00CDF814801DE00898079007980690DDF818E005E03831086820608888A08032E026
:203F8C0070460AE0B1F8440009E0B1F8420004E0B1F8400001E091F83E00034612E0208064
:203FAC0021E0059804900498039001E03231E2E7039802900298009006E0019A87310DE00A
:203FCC0068310BE01846EAE7009D0BE02C31D2E7276008E0583100E048311022204601F0AA
:203FEC00E9FE00E025700BB0BDE8F08FF81300202DE9F041444C94F8E700ADF1280D00280A
:20400C006FD1394F387B01250021242284F8E7507E6884F8E6000823C4F80C6101A807F09D
:20402C00D3FA002604F10C00069601ABADF814602E490796324607F0C3FA2D4904F1300044
:20404C0001AB324607F0BCFA2A4904F1540001AB324607F0B5FAB868014628468847DFF882
:20406C009C8025487B7B0078D8F80410C1F381571BB1032F03D184F8E150032F16D0022F05
:20408C0014D0012F26D103201D4C009031464FF040521C23204604F097FA009531464FF42C
:2040AC0000720923204604F08FFA13E0022005F075FC032F0CBF4FF47A7142F210711148BF
:2040CC0000685434B1FBF0F1204607F0ADFA204607F0A6FAD8F80000C00802D2304605F07F
:2040EC005DFC0AB0BDE8F08158D60000837B00000D630000D9690000442F0020B03F0050DB
:20410C0000A00C40D8D600004419002090B50146B1F80500ADF11C0D38B1401E03D0401E03
:20412C0008BF18A202E01CA200E021A20879012826D1364C3648278801680FB3354800684F
:20414C0001421DD034480068014204D1334800680088014214D02C4840F271570468009724
:20416C001CA3019322A7029725A303930492002705972B4B06972B4F1A88386811A3A0475D
:20418C0007B090BD496E6469636174696F6E7320656E61626C6564004E6F74696669636182
:2041AC0074696F6E7320656E61626C656400C0464E6F74692F496E642064697361626C65FD
:2041CC006400C04670726F6A6563745F7A65726F2E6300C043434344204368616E6765206F
:2041EC006D73673A2025732025733A20257300C044617461205365727669636500C046C0DF
:20420C0053747265616D00C000D7000056D60000E8D60000400500003C05000044050000D6
:20422C008405000004D700002DE9F0430746880FADF1140D75D304F0BFF8404D00261C352B
:20424C002E60394845F81C0C012001F062FD3748FBF74AFFBC68B14640F60A01344A6680F3
:20426C00537B118090465680107BC2F8049003F0F00300F0F000107343F00103537300E028
:20428C001C46636813B118888142F9D1C4F80480607B00F0F0006073264807F0F1F88068F0
:2042AC000088C91F81421DD0491C81421AD03B8CC3B197F82C107E8497F82D00C7F8249089
:2042CC0001F0F00100F0F00087F82C1040F0010087F82D0007F12003C8F80430507B00F0AE
:2042EC00F0005073B868694606F048F9684606F07DFEB86801F0F9FD28680028FCD02E60C1
:20430C00012006F053FA012808D0607B00F0F00040F0010060730848FBF7E6FEB86845F8EA
:20432C001C0C05B0BDE8F08301010E04490A0000EC2E0020D82E0020357C000000100440B0
:20434C002DE9F04106F0DEFB3F4D3E4EDFF8FC800446A00820D330464168E9B1002242606E
:20436C008B690A690F6922401A4342F0020205F108038A611A68BA4301F110071A6097E8F0
:20438C000C002A680C301B1C9A432A6005F010F94046022106F0B6FC7068A10815D200F1F1
:2043AC00100191E80C00002702EA04013B40002B08BF002909D081691440B0600C43846152
:2043CC004FF48041404606F09DFC7068002837D1304607F055F8071C32D01E48F9680068A2
:2043EC00884228D1B86803F0F3FC19490860E8B905F1080138690A68104308602B6807F129
:20440C00100494E80300081C1843286000222A61B86845F80C0C05F1100000680028FAD074
:20442C00304606F0DBFB7760BDE8F081086803F0B3F8BDE8F08140464FF4805106F062FC2F
:20444C00BDE8F081D82E00200C100440682D00201C2F00202C2F00202DE9F04707467D689A
:20446C00D7F8089090460C4607F0E6F8AE6A8246002E64D105F1F00006F0F4F82C6200240F
:20448C00EC7750466C6207F0D3F807F0D5F82F4E3378824623B9022005F080FA01203070A5
:2044AC00504607F0C5F82A4A1068414640F480701060384604F0D8FEA862C0B938464146CF
:2044CC0003F0ECFFA878D0B9A96805F1B80007F06BF8E8B9AC621020E8774946284602F003
:2044EC00C5FC07F0A9F88246307840B323E0D9F80010886B40F020008863A87810B120469B
:20450C00BDE8F087A96805F1B80007F04DF810B1686ABDE8F0873846414603F0BFFF1020E3
:20452C00AC624946E877284602F0A0FC07F084F88246307818B1022005F018FA3470504668
:20454C0007F076F84FF0FF30BDE8F087482F0020301000402DE9F047ADF1180D01F088FEC2
:20456C003A4D4FF0030908274FF6FF78002605F13E0A2C4606F00CF920BB009601A80DF189
:20458C0006016A4605F06FFBE0B9BDF80400102814D160789DF8061088420FD1009801883C
:2045AC00884509D14088C00B08D3042005F12002014605F07FF801E003F024FF009808B1A3
:2045CC0006F058FA208A41082DD320F0010063792179208253EA010225D073B9207A637A93
:2045EC008DF8070005F132018DF808300A680DF109031A608988998001E08DF80790A07A06
:20460C008DF80F00E37A8DF810300DF1070006F0C5FD38B1636AA77023B11A6812B11968B4
:20462C0038468847208A810807D320F0020020825146304602F0E0FB208AC1089AD320F096
:20464C000400208206F014F994E7C046F81300202DE9FC4191EA03084CBF4FF000484FF04F
:20466C0000084FEAC32545EA52554FEAC2264FEA43077F0D11BF45F0004500210020BDE8CF
:20468C00FC815FF4E06E1EF1FF0E774555D04FEAC12343EA50534FEAC0224FEA4104640DFC
:2046AC0011BF43F0004300210020BDE8FC81744543D0E419A3FB0501A3FB06E7A2FB066347
:2046CC001EEB030E57F1000751F10001A2FB05631EEB060E57F1000751F10001FF1851F115
:2046EC000001C01951F100014CBF4FF4806E4FF4007E10EB0E0051F1000148BF641C01D4EC
:20470C00400049415FF44077FF37E41BDEBF00210020BDE8FC8117F58067BC420DD24FEA7B
:20472C00D02040EA41504FEA41014FEA113141EA045141EA0801BDE8FC810020FF21C900ED
:20474C00C91D090551EA0801BDE8FC8130B5344C606AADF11C0D00283FD0A1780830491C10
:20476C00A17004F007FA0546162D04D0606A042D00F102002AD12B482B4D016828880028B0
:20478C002BD02A480068014227D029480068014204D128480068008801421ED0264A606A42
:2047AC0040F20D6315680093001D11A3019300780290A078039000220492204B0592204CFB
:2047CC0006921A88206806A3A84706E00088002105F0A4FA2846FEF7F5FE07B030BDC04651
:2047EC0070726F6A6563745F7A65726F2E6300C05265747279696E67206D657373616765ED
:20480C002077697468206F70636F6465203078253032782E20417474656D70742025640079
:20482C002C050020ECD6000056D60000400500003C0500004405000000D7000084050000FE
:20484C0004D700002DE9F04390460A68D8F800401678814600271D46ADF1140D3846531C45
:20486C00242E0B6053D112F8016F5B1C4C2E0B600ED1AA68E41C24F00304241D54F8040CCC
:20488C00494603F01DF92968EF600127091A2960462E1AD1E41C24F00304241D54F8040CA9
:2048AC00E41C029024F00304241D54F8040C002749460390AA68ADF8047001A801F0C8FAD2
:2048CC002968EF600127091A2960532E1FD1E41C24F00304241D54F8040CE861C8F80040A6
:2048EC00288B0090A968EA69D9F800004346FCF763FAD9F80040002714B10119C9F8001073
:20490C00D8F800402968EF60091A01272960662E0AD12B8B23B9E41D24F00704083403E087
:20492C00E41C24F00304241D1FB9E9690E700127EF60C8F8004005B0BDE8F08334482DE991
:20494C00F0410D4601683348008806AF98461646ADF1200DF8B13048006801421BD02F4873
:20496C000068014204D12E4800680088014212D02E4840F295630468009311A201920295A4
:20498C0003960023049305930693274B1A88254B186807A3A047CDF8008038882A46334604
:2049AC000190002003F092FA08B0BDE8F081C04670726F6A6563745F7A65726F2E6300C080
:2049CC00284342292043686172616374657269737469632076616C7565206368616E676569
:2049EC003A20737663283078253034782920706172616D4944282564292E2053656E646932
:204A0C006E67206D736720746F206170702E00C0E8D6000056D60000400500003C0500008C
:204A2C004405000004D700008405000000D700002DE9F043804634480D460168304800889F
:204A4C0007AF99461646ADF11C0DF8B12F48006801421BD02E480068014204D12D48006809
:204A6C000088014212D0274840F2A2630468009311A2019202950396002304930593069377
:204A8C00254B1A88254B186807A3A047CDF80090388841462A4633460190012003F016FA3D
:204AAC0007B0BDE8F083C04670726F6A6563745F7A65726F2E6300C02843422920436861AC
:204ACC007220636F6E666967206368616E67653A2073766328307825303478292070617239
:204AEC00616D4944282564292E2053656E64696E67206D736720746F206170702E00C04660
:204B0C0056D6000000D70000E8D60000400500003C050000440500008405000004D7000095
:204B2C002DE9F0430646ADF11C0D06F039FD04F0EDFE4FF000090546CDF8009006F0C0FB69
:204B4C0030F0010002D00098A84202D16FF0040059E070684C4658B1B0F1FF3F05D001A994
:204B6C0004F0BCFE30B107464CE04FF0FF3000E02046019006F010FD0199012701EB000823
:204B8C0000E001936868019906F00EFD00282ED003A804F023FCD8B99DF8100002A904F071
:204BAC0003FC88B9B368BDF808009DF81210059A984748B19DF81270B773BDF80800B08174
:204BCC00059B33614F4612E00599684605F0E8F80198641CB0F1FF3FD4D00028D2D006F091
:204BEC00DBFCB8EB000302D001989842C9D2009905F1080005F02CFA24B1686806F0C8FC3B
:204C0C00641EFAD1384607B0BDE8F0832DE9F84307467C68BE6806F00FFDD4F888100029B7
:204C2C0061D006F005FD3168486820F0020048603168486A20F003004862D4F8A0007569EA
:204C4C0041683269096845EA0200C1F804053168486920F0010048613068012505623846F9
:204C6C0005F06EFAD4F88800D0F8048006F0E4FC814694F8D80058B118F0704F02D1042063
:204C8C0004F074FE022004F071FE002084F8D800484606F0CDFCD4F88810087C042803D075
:204CAC0003200874D4F88810D4F8A0004368326970691B6810438540DD623068B0F1804F78
:204CCC0014BF0B480B48826808689204A0EB9250401E0860A06800230246C4F888303846C7
:204CEC009047BDE8F88306F0A3FCBDE8F883C04600050020300400202DE9F8430746D7F810
:204D0C000880D8F800007D68066C16F4F06F466426D1F00910D2700952D395F83C00AC6B75
:204D2C00401E844288BF041C3846214604F02CFAA86B001BA86308E0A96B384604F024FA18
:204D4C00014695F82D00A96318B9A86B002837D101E00020A86305F1840006F015FC2FE08A
:204D6C00F00A0ED3D8F80000002144684160A96B04F00F04202988BF2021384604F004FAB2
:204D8C001AE04FF000094C4602E0A86B401EA863A86B88B13846012104F0F6F9D8F8000036
:204DAC00446814F00F04C0F80490EED0296B686B491E2963401E6863EC77384602F0C8F804
:204DCC00B0090DD3AE6A5EB13846314604F04CFAA862A86A314618B93846091D03F05EFB84
:204DEC00BDE8F8837CB50446084602F09DFA344E02461821304605F02BF805F0F3FC40F28E
:204E0C00FF32002380B22C210090304603F0DCFB06F0FCF81C210246304605F019F805F003
:204E2C00D3FC02461421304605F012F805F08EFE02461021304605F00BF8204602F066F986
:204E4C0002460C21304605F003F8204605F066FE1C4D400040F020002870204605F06AFE58
:204E6C0040F010002870204605F098FB02462821304604F0EDFF204605F074FE400040F03C
:204E8C006000E870204605F079FEC00040F0800005F8080C204605F07DFE800040F47C40B5
:204EAC00A5F89300204604F0E9FF02460821304604F0CEFF4FF48000A5F2091108607CBDB7
:204ECC0000A00C4049A10C402DE9F04FDFF8D4B009AF0E461D464FF0FF08ADF1140D3C88BC
:204EEC000190002730780292022805D17068008842F60211814238D0304603F053F90390F4
:204F0C0040B1401E18BF0A2048D15946142001F1040903E05946282001F10209A04210DDB4
:204F2C0005EB040A50450ADBF06802992A46201800F040FFDDF80C80A9F800A002E00D276B
:204F4C0000E00727B8F1FF0F0DD0DBF8080050B1066846B16419A0B20090039A029B019830
:204F6C0041F23011B047384618E000940198314603F0E0FA594608310F68041C0DD167B16E
:204F8C00786850B1304603F00DF9009502467D68029B019841F23011A847E0B205B0BDE86E
:204FAC00F08FC046401B0020042998B54CD1274806F066FA264C48B9264800F11F01097816
:204FCC00490838BF206803D3406800E0C06820604168214A09781160416812680978914272
:204FEC0006D0876927B124A20CCA6FF0FF01B847022004F0D3FC112000F016F9012221684C
:20500C00164B087C1A7018B115480078012803D00E2000F009F92168496812488F680FB908
:20502C00CF681FB10021C1610F4F07600F4A40F2FF711160002787610D4941610D48FBF79B
:20504C0053F8192006F09CFA98BDC046D82E00202C2F0020142E0020D02108403E2F002010
:20506C00412F002000100440510007060000046002000040354200000000000000000002C3
:20508C002DE9F843044606F0D7FA81462D48021992F8ED10491ECFB2002F82F8ED704BD1BA
:2050AC002B4D05EB84052E78698836F07F0788461AD1F10911D24FF08054D4F8B801806999
:2050CC0001464046884704F5DC742068406B0146404688470228F8D121E000EB8800D0F8E1
:2050EC000011002088471AE04FF08054D4F8B801006A014640468847D4F8B801806A014656
:20510C0040468847D4F8B801006B01464046884701210D4A0D48116001688908FCD306F0A4
:20512C003F003F2801D0FFF7ABFF687800F03F003F2801D0FFF7A4FF484606F079FABDE8D0
:20514C00F883C046441900202820086028200840BCD100002DE9F041846845680F68226897
:20516C0095F88C30B8B2B2F1804F00FA03F01FFA80FC14BF254B264BDFF898E0886838B998
:20518C0095F88C2070469600825905F1A60006E095F88C60204AB60092596044401E9A60A1
:2051AC0058602068083018609A683F0143F6F078103F08EA07073A439A602368B3F1804F4C
:2051CC0014BF164A164A496821B971468E5904F10E0105E0DFF84CE05EF806606144491E53
:2051EC00966011605060906807439760D5F8A000216942686669126846EA01009062586A84
:20520C0040F003005862BDE8F081C0460005002030040020B4D10000ACD1000010050020C9
:20522C0040040020A4D100002DE9F041064606F003FA2D4D8046A91991F8ED00421C002805
:20524C0081F8ED204AD1294C04EB8604277807F03F003F2801D0FFF7E7FF607800F03F00C3
:20526C003F2801D0FFF7E0FF668837F07F001AD1F80911D24FF08054D4F8B801406901462A
:20528C003046884704F5DC742068406B0146304688470128F8D121E005EB8605D5F8001169
:2052AC00012088471AE04FF08054D4F8B801C069014630468847D4F8B801406A01463046BF
:2052CC008847D4F8B801C06A0146304688470121074A0848116001688908FCD3404606F03F
:2052EC00A7F9BDE8F081C04644190020BCD100002820086028200840F8B52B4F57F81D0CFD
:20530C00C00850D22F4C29492CC9403C04F15C002CC068C968C00EC9012680E80E00FF230D
:20532C00234D2448E16EC5F8AB3FB4F86A20C5F8FF6F00F03FFDA06F804742F60B3442F281
:20534C002B0045F8550C1C4945F8514C4FF480730B60002245F8212C45F83D6CC5F8B36F27
:20536C00C5F8F36FD5F8F30F06F066F957F81D1C124A41F0040147F81D1C116821F0F05181
:20538C0041F03451116006F053F90D48006804F043F906F04DF806F05CF804F057F906F0EC
:2053AC004AF806F059F8F8BD2D10094000D5000055500C4000000E4000100E400030094032
:2053CC002C200940C41C0020294A2DE9F04180460126284816600768002FFCD0294C2A4F47
:2053EC00C020443C206007F1080001682348890804D20168090C41F0F00100E072211E4D08
:20540C0085F85412002111638768384601F05AFB40463946FFF7E6FC1C48B038816D40F20C
:20542C000F226FF31F418A4212D901680068C1F30363C0F3034003B15B1E072805D0062876
:20544C000EBF0720801C00F00F0043EA001028703846FEF711FC0E4814380068C168022007
:20546C00884740202060064F3E60BDE8F081C046101009409402224302600840AC3F005019
:20548C009404604244600C40A83F00506C130050B40100102B4AF0B538CAADF11C0D02A97D
:2054AC0038C10CCA4FF0805681E80C0084684568D6F8D0112068C9688847216822488A6BCF
:2054CC0010408863206840F2F271416495F83C0095F83D202168C0100DEB80008068104304
:2054EC004863684606F048F81A4FDFF864E0D6F8D0112B7FDFF854C06A7FA87F496857F839
:20550C0023705EF82260AA695CF820300D46206801993E433343A8470F490A1F106840F0D9
:20552C0010001060086840F001000860A07DFF2806D0E07DFF2803D0086840F440400860D9
:20554C0007B0F0BDC8D200000DF8FFFFB4D20000ACD200009CD20000301000402DE9F04105
:20556C00DFF8B080044698F800001F4615460E46ADF1380D012804D0FEF716FC404601219B
:20558C0001704EB166603DB1A56006F055F8224A117819B106F04CF8002038E0491CC9B282
:2055AC00117006F045F801251FB9684605F056FC6F46386820607868E060387A2074F8689D
:2055CC006061386900B1A0610021782204F1200001F03EFA05A800212422082306F00CF879
:2055EC0004F138008DF82C50002105AA06F000F805A800212422082305F0E6FF04F1700035
:20560C0006490B94002205AB05F0DAFF20460EB0BDE8F0819D1F0020462F0020D7B30000BB
:20562C002DE9F0470F46054638686C68D5F80880002852D006F000F8D4F8881021B105F045
:20564C00F7FF0320387448E001263E74C4F8887005F0EEFF94F8A40038B194F88D20204927
:20566C00D4F89C00114303F003FDD7F8049005F0E3FF824694F8D80050B919F0704F02D165
:20568C00042004F08BF9022004F088F984F8D860504605F0CDFFD8F80010486840F00200FE
:2056AC00486028463946FFF755FDD8F80010486940F001004861207828B961686C3420464E
:2056CC0005F072FF10B13046BDE8F0872846FFF79DFA2046002105F067FF0020BDE8F087EC
:2056EC0000000680F8B505F09DFD05F0ADFD044604F00C000C2845D0E0081ED204F000FCE2
:20570C00234E376805460120014604F0E9FF31686943884211D21F4C8220B0FBF7F0291A0A
:20572C00204605F081FF204605F07AFF0120FCF7CDFC204604F096FF25E0200922D2164862
:20574C00610939BF016821F00101016841F0010102460160D2F898004FF0805440F0030072
:20576C00C2F89800D4F8B8018069014620208847D4F8B801094C806B216880470120206051
:20578C00206800E030BF05F053FD01F001FEF8BDD8D60000501900208C2108402C200940FB
:2057AC002DE9F0414568876816460C4605F044FF0346A86B3246214630B1184605F038FF6E
:2057CC004FF0FF30BDE8F081AA6329630024EC7718466C6305F02CFF05F02EFF1D4E804679
:2057EC00307820B9022004F0D9F801203070404605F01EFF1849086840F40070086039685E
:20580C00886B40F4FA6088636878002818BF201C1ED1696805F1D40005F0C6FEB8B9AC6332
:20582C003968886B20F4FA60886305F005FF0746307818B1022004F099F83470384605F0FA
:20584C00F7FE1022696B286BEA77401A2863686BBDE8F081472F002030100040F8B50D4669
:20586C00EEB2290824BF27494D40274BB400DFF89CC0195900EA05020CEA020200F4E02CB5
:20588C0085EA0107BCF5E02F00EA070721EA0001C7F3006742EA010201D1510E14D300F465
:2058AC00E0210F4310D002F4E027B7F5A02707D0B7F5803704BF22F4003242F4A02203E019
:2058CC0022F4803242F4C0221A51114CC10D04D3C5F38052A4F1D0018A55000E10D305F0BA
:2058EC00ABFE290E03D201220021B24002E00122B2401146236893431943216005F098FE9A
:20590C00F8BDC046006000A000100840007F077FD02002401FB58DF80C002448016824488B
:20592C000088E0B123480068014218D022480068014204D121480068008801420FD0224875
:20594C0040F24C63046800930CA201929DF80C001C4B02901A881A4B186804A3A047032048
:20596C0003A9012203F01EF800901FBD70726F6A6563745F7A65726F2E6300C0284342299A
:20598C0020474150205374617465206368616E67653A2025642C2053656E64696E67206DD8
:2059AC00736720746F206170702E00C0E8D6000056D60000400500003C05000044050000F6
:2059CC0004D7000084050000FCD600002DE9F0410E46294990461C4606AF8C46726808785F
:2059EC00BB8851783F881278002502EB012242F62321521A29D0521E052A18D9921F0CD00B
:205A0C00263A34D1072F30D8C7F10700984298BF83B2674407F1080121E0B84225DBC01B30
:205A2C009842D8BF83B22380DCF804000BE0F06805F03CFA80B2B84217DBC01B9842D8BF61
:205A4C0083B22380F06839180AE0082F0DD8C7F10800984298BF83B207EB0C010F312380AB
:205A6C0040461A4600F0A6F903E0072501E025800A252846BDE8F081701700202DE9F04F61
:205A8C0009AF1E468946ADF1140D97F8048004903D880392084602F01DFC0027FF2101911D
:205AAC001F49029038B1401E18BF0A2035D101F1040A202002E001F1020A0120A8428B4696
:205ACC0018DD7419A04213DB2CB9B8F1180F0FD0B8F1120F0CD0D9F80C00039932462818FD
:205AEC0000F068F93CB1AAF800400298019002E00D2700E007270198FF280DD0DBF80800B3
:205B0C0050B1046844B1AD19A8B20090029A039B049841F21011A047384605B0BDE8F08FFF
:205B2C00081D0020F8B505F087FD224C0746A06910F4602F25D0A069400CC6B2700807D284
:205B4C00B00803D2F00828BF022602E0012600E00026751D68B202F08FF9A16906F111025C
:205B6C000120904081433846A16105F061FD04EB8600876847B1606810A20CCA2946B84777
:205B8C0002E0384605F054FDA06918B10A48002105F0B8F8E07F80080BD367692FB160682C
:205BAC0008A20CCA6FF00101B847E07F00F0FD00E077F8BD142E00209C2D00200000000056
:205BCC00000000080000000000000080264838B550380468B4F1FF3F08BF002405F02AF9FC
:205BEC0022481749002510380560012008601549086002F05FFA1448006820B1134800680B
:205C0C002046FFF7E1FB124812490560124C0A686FF35B4244EA0200086010490868C0F343
:205C2C000130012806D10A680D48104040F400320A6008600B4908680028FCD138BDC04624
:205C4C005C600C400822044380012843000120438C21084048200340000039010400094048
:205C6C00FFFFFCFC0C0068426C13005094046042B0B501468B681C68E26948682262520867
:205C8C0024D2D0F8A01049680A685D69D2F80415294206D01C68616A21F002016162C2F89D
:205CAC000455D2F8042519690A4231D01A68516A21F001015162D0F8A01049681A6909689D
:205CCC003830C1F8042505F05FFCB0BD1C68626922F001026261D0F88870B7B9626822F07E
:205CEC00020262601C68626A22F003026262D0F8A0005F6944681A69236847EA0200C3F8CF
:205D0C000405084604F01CFAB0BD0846FEF77EFFB0BD7047F0B520480127F84201D002F093
:205D2C0097FB204D204F214EBD4206D203CD0478A4003459401CA047F6E71D48002800D0A9
:205D4C008047164D164FBD4202D210CDA047FAE7F0BD03251BE0416808300A1C2A400BD113
:205D6C001A1C2A40AB4305D0046804300C600431043BF9D1131C05D0047801300C7001310B
:205D8C00013BF9D1021C2A4001D0A84304300368002BE0D17047C046FFFFFFFF0000000079
:205DAC000000000030DE0000B0DE0000B8DD000059C50110002A4AD05FEA000C8B071CD15F
:205DCC00830722D1102A08D370B4103A78C978C0103AFBD270BC103238D0042A2CD3082A52
:205DEC0005D30C2A24BF08C908C008C908C008C908C092072AD0920F22E00B780370491C4A
:205E0C00401C521E22D08B07F7D1C30714D18307D8D0121F12D308C903801B0C4380001D0C
:205E2C00121FF8D20AE008C903701B0A43701B0A83701B0AC370001D121FF4D2121D05D0CD
:205E4C000B780370491C401C521EF9D1604670472DE9F843002A894607464CBF47F6FF7595
:205E6C00151C002F08BF002032D03888002808BF002403D02A4600F0B1F90446281B26DD8D
:205E8C00388828B1291B484612A202F0CFFD0419B868E0B1D7F804802E1BB8F1000F0DD01A
:205EAC00404605F003F8401DB04207DC291B484609A2434602F0BAFD04192E1B122E06DBF8
:205ECC00BB68291B484606A202F0B0FD04192046BDE8F8833A2000C0222573222C2000C0D5
:205EEC006C696E652025643A200070472DE9F04F09AF5FEA00089A46ADF1140DD7F80490D4
:205F0C00029297F800B0039137D0081C35D0101C33D0B9F1000F30D01948017800242AE0EE
:205F2C00A00038F800604FF6FF7708EB0005B7421DD0AF78DFB10298039A514604F0F6FF1E
:205F4C000190A0B1780807D3CDF80090019A30465B46012101F034F8A878800807D3CDF86C
:205F6C0000902888019A02215B4601F029F804480178641CE4B2A142D2DC05B0BDE8F08F1F
:205F8C00F8130020F8B5054604F020FA002808BF01223DD01F4A116EB2F86870680805D3F3
:205FAC0008883843400828BF02222FD21A4C04F10C063068400838BF012227D30120E063B1
:205FCC0033685B08FCD26B083CBF00228A8007D3888047F0010702F16006A2F868703168CA
:205FEC00AA0834BF0022021CCA80EA0838BF0020088105F01DFA05F02CFA206840F04000B5
:20600C0020602068002220F04000206005F04CF91046F8BD841C002000500C402DE9F84388
:20602C002020EFF3118780F31188214CA068012105F09EFA4FF001094FF000086569216883
:20604C00A4F81C906A1A2168A4F81E80461B401A904227D387F3118840464519361A484649
:20606C00294605F081FAB042F7D92021EFF3118781F31188E18B012903D14046294605F057
:20608C0073FAB0F1FF3F06D0A169801B814238BF081C411901E0A069291805F061FAA4F8DE
:2060AC0020902560A4F81C8087F31188BDE8F883780100202DE9F843DFF87C900F460446C8
:2060CC004FF0FF31484605F06FFADFF870801D4800210AE0FF2A07D00368934202D958F8B7
:2060EC0022600EB1002421E0491C1FB117F82120FE2AEFD100202060012660600546A060EF
:20610C000EE0FF290BD0636806FA01F048F8214018430B4960601268204603F015FA6D1C4B
:20612C0027B107EB85021178FE29EAD1484605F02FFA2046BDE8F883702E0020B82C0020A3
:20614C00007FC767EC2A00202DE9F04107467C68BE6804F1F00004F085FA1D4930680968EB
:20616C008069000923D205F067FA1A4D8046287820B1022003F0FAFB00202870404605F0FB
:20618C0057FA32681449906B20F020009063086820F480700860206A616A2569626A401AA8
:2061AC002062216A2B4638469847BDE8F0814FF4FA70B0FBF1F1012998BF0121F03420467B
:2061CC0005F032FA204605F02BFABDE8F081C046D8D60000482F0020301000409EB5134685
:2061EC000C461F4A1D4912880988824206DB13A219460346204602F019FC9EBD194A17887B
:20620C00814207DB04F03EFA42681946204602F00DFC9EBD002F08BF0BA2E9D00094002BC1
:20622C0048BF47F6FF73104F002101933C6802910E496A46A04702989EBDC0467B6D6F64AD
:20624C00756C652325647D007B6D6F64756C652D726F70653A25787D00C046C01CD70000D2
:20626C001ED700008A05000018D70000B99B00002DE9F84303F014FF204C0025A5704FF609
:20628C00FF70A08202F048FF0121207004F1A80003F0A8F9022104F1CC0003F0A3F90421AD
:2062AC0004F1F00003F09EF9042704F14808102240462946E77000F0CBFB04F15809102237
:2062CC004846294600F0C4FB04F1200635602572072065721021A0724246E572022003F08A
:2062EC00CFF9032010214A4603F0CAF938463246014603F0C5F9BDE8F883C046F8130020F1
:20630C002DE9984305F098F91F4CDFF87880814604F1E000007850B94446A06801460220A8
:20632C0088470746102002F04BFA2FB320E001F0E1FA002820460FD1144909683222B2FBE3
:20634C00F1F101B9012100F13004204605F06CF9204605F065F90FE044460022A16880F8B9
:20636C00E020022088470746102002F029FA1FB1A068014603208847484605F059F9BDE803
:20638C009883C04658D6000044190020D8D6000070B51F4CA568064604F090FB4FF47A71E1
:2063AC00401B4843050C03F08FFE2169401A48BF404240F6B831AD19A94211D306280FDA22
:2063CC00A268E1688A420BD8206848B1891A114A51438A0C02EB1141884288BF011C08E0B1
:2063EC000D49486840080ED208687D2100F0FF004143C82905D3B1F57A6F88BF4FF47A6125
:20640C0003E0C82101E04FF4FA61084670BDC046C42E002040420F00AC3F005070B58668B3
:20642C0045680846203832D0401E2CD0401E27D1287B1478012814BF19491A49FF2C41EA05
:20644C0004011BD0D5F89C0000F096FE98B93068B0F1804F14BF23220B22D5F89C002146E5
:20646C0003F022FDD5F89C0095F88D1001F09EFA85F88D4012E04FF0FF3070BDFF24F1E710
:20648C006FF0010070BD002085F8A40070BD297B0020012908BF012085F8A400002070BDB1
:2064AC000004C0A000200080F0B58468204A637DA17D257DADF1140D022643F00043FF29AC
:2064CC0042EA050700934568019708D0E07DFF2805D041F000410243029104260392FE2147
:2064EC0005F140004DF826106946FFF7E3FDE864E86C002808BF002018D0617D0F2203F0C1
:20650C00D3FCE86C217D102203F0CEFCA17DFF290BD0E07DFF2808D0E86C112203F0C4FC08
:20652C00E86CE17D122203F0BFFC012005B0F0BD0000C0A02DE9F04107467E68BD6805F044
:20654C007BF8B16A39B929688969090903D205F06FF8BDE8F0810024B46205F069F8A87D1E
:20656C00FF2806D0E87DFF2803D03046294600F07DFC2A681049906B20F0200090630868EC
:20658C0020F48070086005F057F80C4D8046287818B1022003F0EAF92C70404605F048F868
:2065AC00716A306A3569726A401A3062316A2B4638469847BDE8F08130100040482F00205E
:2065CC00F8B5001D84B214F0030002D0241A241DA4B204F0A1F901461948102C476801607F
:2065EC00C8BF8768388800221646C30BDD0319D126B984420ADD3A46012617E01388C318A3
:20660C009BB29C42138011DC174618469FB1001B80B20428B4BF3C88385344F400443C8045
:20662C003F1D08E080F40040002680B2C71938880028DAD10027084604F093FB3846F8BD61
:20664C00FC1B0020B0B50446A768ADF1280D27BB0C20FFF7B5FF071C16D068460021242290
:20666C00082304F0B1FF002306976A466168ADF810301448059304F06FFF386038B904F04E
:20668C0065FB384603F060FB6FF0030018E0E06878602069B860A7600AE004F03DF9054641
:2066AC00386803F0DFFF2069B860284604F059FB3868616804F0B8FF386804F0B1FF00208E
:2066CC000AB0B0BDE5B10000B0B514460F4604F0B3FF85B219480068007808B904F0E4F82E
:2066EC0087B1384603F04DFC40B114B14FF0FF3020700820FEF7C4FC002419E0386879686D
:20670C00BA6803E04FF480700122014602F002FF0B49012008600B4908684008FCD30A48CE
:20672C0000684168022088470CB1002121700446284604F07DFF2046B0BDC04668D600009D
:20674C00A802504208800240CC0100102DE9F8431D4C04F16801DFF874900A884FF6FE7012
