:20000000483F00200990000001CA011001CA011001CA011001CA011001CA011001CA011078
:1C00200001CA011001CA011001CA011001CA011001CA011001CA01103FCA011082
:20003C003EB501780125913902D01F3925D027E040780E2824D12048204C01682088F8B1B1
:20005C001F48006801421BD01E480068014204D11D4800680088014212D01E4840F29953A3
:20007C00046800930BA2019200230293184B1A88164B186803A3A04702E002F023F90546BF
:20009C0028463EBD70726F6A6563745F7A65726F2E6300C048434920436F6D6D616E6420A1
:2000BC00436F6D706C657465204576656E7420726563656976656400ACDD00001ADD0000E2
:2000DC00400500003C05000044050000C8DD000084050000C0DD0000014908607047C046FB
:0400FC00102F0020A1
:200100003C000000000000000000000034010000000000000000000001000000000000006D
:1C01200000000000000000000000000001000000000000000800000000000000BA
:20013C00340000000000000000000000680100000000000000000000010000000000000005
:14015C00010000000000000000000000080000000000000086
:2001700030000000000000000000000098010000040000000000000001000000FFFFFFFFA5
:10019000FF00000001000000080000000000000057
:2001A0002C0000000000000000000000C4010000040000000000000001000000FFFFFFFF4D
:0C01C000FFFFFFFF08000000000000002F
:2001CC0034050000E401000099A1011095A70110A5C2011009B2011045B80110000000000B
:0801EC00000000002E000000DD
:2001F400280000000000000000000000140200000000000000000000FFFFFFFF00000000B1
:080214000800000000000000DA
:20021C00300500003002000069C201106DC101101FC2011095BA011000000000000000008E
:04023C002C00000092
:20024000300500005402000075C20110A9B601109DBF011049B601100000000000000000DE
:040260002D0000006D
:200264002400000000000000000000008002000000000000000000000000000008000000CC
:040284000000000076
:20028800240000000000000000000000A40200000000000000000000000000000800000084
:0402A8000000000052
:2002AC00240000000000000000000000C8020000000000000100000000000000080000003B
:0402CC00000000002E
:2002D000000000005C1A0020040000000000000000000000200000007001000030000000B3
:2002F0001C020000881A00200400000000000000000000000C0000003004000018000000B2
:2003100040020000941A002004000000000000000000000024000000480400001800000031
:20033000000000009C1A002004000000000000000000000010000000A00100002C000000F6
:20035000CC010000A41A002004000000000000000000000020000000640200002400000034
:20037000FFFFFFFFC41A002004000000000000000000000028000000880200002400000099
:20039000FFFFFFFFF41A0020040000000000000000000000580000003C0100003400000056
:2003B000FFFFFFFFFC1A00200400000000000000000000001000000060040000180000006B
:2003D000FFFFFFFF041B00200400000000000000000000001C000000AC02000024000000E0
:2003F000FFFFFFFF0C1B002004000000000000000000000038000000F40100002800000051
:20041000FFFFFFFF141B002004000000000000000000000054000000000100003C000000EC
:1804300018000000000000000000000040040000080000000000000050
:1804480018000000000000000000000058040000080000000000000020
:18046000180000000000000000000000700400000800000000000000F0
:080478000200000080DD00001D
:040480000BF02DBB95
:040484000100000073
:0404880000008C0FD5
:04048C000000BC0FA1
:040490003200000036
:040494000100000063
:04049800641A0020C2
:04049C00000200005A
:0404A0000000000058
:0404A40001CA011078
:0404A8000000000050
:0404AC00000000004C
:0404B0000800000040
:0404B40000007612BC
:0404B800481E0020BA
:0404BC00010000003B
:0404C000AC1A002052
:0404C400080000002C
:0404C8000000000030
:0404CC00000000002C
:0404D0000000000028
:0404D4000000000024
:0404D8000000000020
:0404DC00010000001B
:0404E000B01E00202A
:0404E400060000000E
:0404E800010000000F
:0404EC00B41D00201B
:0404F0000000000008
:0404F4000000000004
:0404F80000020000FE
:0404FC0000000000FC
:02050000704742
:020502002800CF
:020504000100F4
:020506002400CF
:020508002C00C5
:02050A002D00C2
:02050C002E00BF
:02050E000100EA
:0105100001E9
:08051400030000006CDD000093
:08051C000000000000000000D7
:040524000000930D33
:040528000000AD0D15
:04052C0087C401106F
:04053000380500008A
:040534003805000086
:0405380000000000BF
:04053C0090610000CA
:0405400090610000C6
:0405440000000000B3
:04054800AC1A0020C9
:04054C006BB600008A
:040550002000000087
:04055400C4DC000003
:040558002CDB000098
:04055C000DC30110BA
:040560004BBB000091
:04056400B5BB000023
:0405680099C801101D
:04056C009BC8011017
:040570000000000087
:0405740020BD0000A6
:0405780030D9000076
:04057C0048D900005A
:0405800018D9000086
:020584000280F3
:020586000380F0
:02058800C0179A
:02058A0001006E
:01058C00016D
:040590000000000067
:040594000000000063
:04059800000000005F
:04059C00000000005B
:0405A000A1BB0000FB
:0405A4006199000059
:0405A80061A9000045
:0405AC0045A2000064
:0405B000139F000095
:0405B40075A200002C
:0405B800DD7D0000E5
:0405BC0095B80000EE
:0405C000E9810000CD
:0405C40011C8011049
:0405C80021C8011035
:0405CC000800000023
:0405D0002400000003
:0405D400180000000B
:0405D80028000000F7
:0405DC0020000000FB
:0405E0003C000000DB
:0405E4000C00000007
:0405E80034000000DB
:2005EC002DE9F04FADF16C0D0AF0D8F80FF210288748DFF830B201688648DFF82CA205888F
:20060C001A91DDB184480068014217D083480068014204D182480068008801420ED050467B
:20062C00046840F24627BCA60097002301965F46C94E02933A8830684346A047C74C0021A1
:20064C0004F16C0630460BF061FB04F1780004F19C01266206F018F9DFF80493A06208BB99
:20066C0048460168DDB16C480068014217D06B480068014204D16A480068008801420ED0AD
:20068C00504606684FF41577C1A30097002201935F46B14B029218683A884346B0470BF0D8
:2006AC0031FBA06A0321012208F088FF04F1840004F1440106F0E8F8E06200BB48460168B5
:2006CC00DDB155480068014217D054480068014204D153480068008801420ED05046066885
:2006EC0040F25F27B3A30097002201935F469A4B029218683A884346B0470BF003FB04F1C5
:20070C00900004F14C0106F0BFF8206300BB48460168DDB140480068014217D03F48006882
:20072C00014204D13E480068008801420ED05046066840F26727A9A30097002201935F46FC
:20074C00854B029218683A884346B0470BF0DAFA1A99DDB130480068014217D02F4800686E
:20076C00014204D12E480068008801420ED05046066840F28D27A2A30097002201935F46AD
:20078C00754B029218683A884346B04708F043FE0AF0A5FE0126002740F205308DF80C60BB
:2007AC0003AAADF80E70314601F0D4FF40F2063002210DF10E0201F0CDFF621C4FF4427059
:2007CC00314601F0C7FFD43440F207301121224601F0C0FFDDF86890002D38D00E48006864
:2007EC0019EA000F33D00D48006819EA000F1DD10B480068008819EA000F28D016E0C046D2
:20080C0070726F6A6563745F7A65726F2E6300C0ACDD00001ADD0000400500003C0500005F
:20082C004405000084050000C0DD000008F012FB40F2BE25514676A30C6800955946019337
:20084C00454D02900A88286843464946A0470620A02109F007F90720A02109F003F9082062
:20086C00A02109F0FFF80920A02109F0FBF830461E2109F0F7F8049734468DF816704FF4E5
:20088C0081608DF8144004218DF8154004AA8DF8174009F0CDF84FF48060314605AA09F009
:2008AC00C7F840F2024031460DF1150209F0C0F840F2034031460DF1160209F0B9F840F2DE
:2008CC00064031460DF1170209F0B2F80BF0E9F8FFF7D0FD0AF00EFE0AF0F6FF0AF014FEF5
:2008EC0005F09CF80AF01AFE05F000FC06A83946282206F097FC504910A8282205F044FE8E
:20090C003846314606AA09F077FB3046314606AA09F072FB26E0C046496E697469616C6979
:20092C007A696E67207468652075736572207461736B2C2068617264776172652C20424C6C
:20094C004520737461636B20616E642073657276696365732E00C046C8DD00002C0500200F
:20096C00A8DD00003846282110AA00F01BFC3046142106AA00F016FC0AF0AEFB09F04AFD1E
:20098C000BF070F80BF072F81BB0BDE8F08FC0464572726F7220696E697469616C697A692E
:2009AC006E6720626F617264204C45442070696E7300C0464572726F7220696E69746961B1
:2009CC006C697A696E6720626F617264204441432043532070696E7300C046C04572726F80
:2009EC007220696E697469616C697A696E6720626F617264204144432070696E7300C0465E
:200A0C005350492C2041444320696E697400C0464E616D6520696E2061647665727444612D
:200A2C0074612061727261793A201B5B33336D25731B5B306D00C046B1D900002DE9F04F63
:200A4C0009AFADF13C0D00240FF2F018DFF8FCB1DFF800A208903D880B9338790A92DFF8A2
:200A6C00F8910C90FF200E9008780991022809D10846594640680F88008842F6021686429E
:200A8C0000F0EC80099807F01FFF5946DFF8C0B106469AA0002E0F880D963ED0761E1FD0D2
:200AAC0058460168D7B1A6480068014216D0A5480068014204D1A4480068008801420DD0B3
:200ACC00A44840F22927A5A605680097A04B01969E4F02941A8838684346A8470A200AE179
:200AEC004A465146002F4FF014090968079202F1040A3DD0924A1268114239D0914A126819
:200B0C00114204D1904A12681288114230D0924A16684FF4097398A21AE04A4651464FF0AD
:200B2C0028090968079202F1020A0FB3844A126811421DD0834A1268114204D1824A126870
:200B4C001288114214D0844A166840F216238CA2009301900292089803900B9B0493059511
:200B6C000C987B4B06901A88784B18684346B047A9452FDD0B9E7619B1451FDA58460168DC
:200B8C00D7B16F480068014216D06E480068014204D16D480068008801420DD06D484FF486
:200BAC000D7779A306680097694F0193674B02943A8818684346B0470D242AE009980A99AF
:200BCC000B9AC068281805F0DFFCAAF800600D980E901EE058460168D7B15948006801420E
:200BEC0016D058480068014204D157480068008801420DD0574840F22F276CA306680097F9
:200C0C00534F0193514B02943A8818684346B04707240E98FF280ED00798806858B10768C9
:200C2C004FB10B980D9A0A9B2D18A8B20090089841F23011B84720465DE0C0466461746134
:200C4C005F736572766963652E6300C01ADD0000A8DD0000ACDD0000401B00205146086860
:200C6C00002F82462BD0364800681AEA000F26D0344800681AEA000F05D13348006800884F
:200C8C001AEA000F1BD00C98FE280CBF50A757A7099807F019FE304940F2FB130E6800934F
:200CAC0055A20192029008980390049728490594264B06940A88186851464346B047089860
:200CCC000B9B09990A9A009507F0C6FF4A4608321768061C0ED16FB1786858B1099807F0E0
:200CEC00F3FD02460B980A9B00907C68089841F23011A047F0B20FB0BDE8F08F57726974CE
:200D0C0065417474724342203A20257320636F6E6E48616E646C6528256429206C656E28B5
:200D2C00256429206F666673657428256429206D6574686F64283078253032782900C046D5
:200D4C00400500003C05000044050000C8DD000084050000C0DD0000C4DD000041747472B1
:200D6C00696275746520776173206E6F7420666F756E642E00C046C053747265616D00C016
:200D8C00537472696E6700C0496E76616C69642076616C7565206C656E67746820776173FF
:200DAC002072656365697665642E00C0416E20696E76616C6964206F66667365742077617D
:200DCC0073207265717565737465642E00C046C02D20726573746F72696E6720626F6E64C1
:200DEC00656420737461746500C046C02D204F544120777269746500577269746541747467
:200E0C00724342202843434344293A20706172616D3A20256420636F6E6E48616E646C65E9
:200E2C003A202564202573002DE9FE4FB84C0F460646F80B80F04781B80880F0D480B54D42
:200E4C00DFF8D892DFF8E0B2DFF8E882DFF8F4A22C68B80F67D2B0480678002E47D138099D
:200E6C0047D3AF4801264946067000240C70204605F039FBAB48FFF737F9AC4922465846E6
:200E8C000AF071FEAA48017801291CD141460B78CBB9A94E306880B10AF04AFB2B68A8494A
:200EAC003668A64D0A68C01A000B82182860B2EBC61F28BF0C6007D20A60A4484FF0005188
:200ECC000AF0B2FA2CE00670504640F609010180417B01F0F00141F0010141734480017BC2
:200EEC0001F0F00101734460974E306018E0390914D2B80BC0F004819D48001D0AF03EFE27
:200F0C00061C08D0706830B17468F068B6F91C1098A20CCAA04727F40057F1E00021017037
:200F2C0027F00807ECE0ECB1042009F0D1FFC8B10AF0FEFA864A29681060814226BF401AEB
:200F4C00401E401A000BF060F06800F58D70F060F16840F6C410884203D340F2EE228A42C7
:200F6C0000D9F0600024D6F818C02C60BCF1000F10D050460D30007810F00F0F0AD1708C0A
:200F8C0040F60901814205D17CA20CCA30466FF48071E0476F49584622460AF0E4FD454663
:200FAC00287850B10220ADF80000684609F068FE2C70BDF808006849088049460120674ABD
:200FCC00674B087010781C70401C107019200AF0B3FB756925B16BA20CCA30462146A847A7
:200FEC0027F000578CE004F10C0A50460AF0C6FD061C5FD008F001FD7368B2690025B56135
:20100C00E3B1F37F42F002024FF00009904603F007035B1E07D05B1E03D09B1E06D15BA046
:20102C0002E05CA000E05DA090E800037268F068B6F91C104B4694464246E0470AF05EFEF1
:20104C008046B4F91200401C6FF31F306082E0681F30017801F07F01017050460AF050F945
:20106C0040460AF047FEF068B0F99410B4F9122091421FD13B49097801291BD090F89640E0
:20108C009CB904688CB1384909680968B1F1FF3F10D0364909687030B4FBF1F10AF026FEE4
:2010AC00F06870300AF01EFE04E080F89650284606F05CFE50460AF061FD27F0020708B14F
:2010CC0047F002071CE00AF019FE0146204608300AF054FD0646B46908460AF00BFEA00825
:2010EC000CD25EB17068B169A143B16130B17568F068B6F91C1000232246A84727F48047C2
:20110C001FB1124839460AF08FF9BDE8FE8FC046B82E0020002F0020232F00201F2F00202B
:20112C001D2F0020657500006C2E0020B5AA0000212F00201C2F0020FC2E0020082F0020C8
:20114C00F82E0020CC2E002000100440482D0020042F0020814A0000102E0020252F00204A
:20116C001E2F00207C1F00200C2F00209CDD0000B82E002000000000200000000000000041
:20118C000000000200000000000000040000000000000010000000000000004000000000ED
:2011AC00000000202DE9F04F05467F487F4CDFF800A2DFF800B2DFF800E20F46ADF1340DE2
:2011CC000FF2302C0FF2F4182E1C01880892E068079145D0761E21D0BC48079F0168002F70
:2011EC0000F0DE80BA480068014200F0D980B9480068014205D1504600680088014200F064
:20120C00CF80B6484FF49A7770A6046800975B460196B14F02951A88386879E0261D814694
:20122C0004F1100300294FF014020A96704609934FF001010B9205680C9142D0A4480068DC
:20124C0005423ED0A3480068054204D1504600680088054235D04FF498736DA200211FE06F
:20126C00A61C04F1240300294FF000020A96704609934FF028010C9205680B9121D094484C
:20128C00006805421DD093480068054204D1504600680088054214D040F225135EA20C9987
:2012AC008F4806680093CDF804C002920397049105915B46069188491A8808684346294655
:2012CC00B0470B98B84226DA8048079E0168002E66D07F480068014262D07E48006801421F
:2012EC0004D1504600680088014259D07C4840F24D16046800964AA50195029700230393E9
:20130C000B9A04925E460593734D0693328828684346A04744E0099808993A4605F034F92F
:20132C000C9E0A98002E07803AD00798294600282BD067480068014227D0664800680142BB
:20134C0004D150460068008801421ED05846644B614E028899F802701D683068002F08BF59
:20136C003DA303D0012F0CBF42A348A34FF4A27600964BA70197B9F8006002960393002702
:20138C000497059743460697A8472078554F099904F14C02062300904846019705F090F977
:2013AC000DB0BDE8F08FC0461ADD0000401B00204405000084050000ACDD000064617461D3
:2013CC005F736572766963652E6300C0536574506172616D657465723A20506172616D65E3
:2013EC0074657220232564206E6F742076616C69642E00C0536574506172616D657465726E
:20140C00203A202573206C656E3A20256400C04653747265616D00C0537472696E6700C003
:20142C004C656E677468206F75747369646520626F756E64733A204C656E3A202564204DAD
:20144C00696E4C656E3A202564204D61784C656E3A2025642E00C0461B5B33336D4E6F74B1
:20146C00692F696E642064697361626C65641B5B306D00C04E6F74696669636174696F6E7B
:20148C0020656E61626C656400C046C0496E6469636174696F6E20656E61626C656400C0E2
:2014AC00547279696E6720746F2073656E64206E6F74692F696E643A20636F6E6E48616E73
:2014CC00646C652025782C20257300C0A8DD0000400500003C050000C8DD0000C0DD00001D
:2014EC00C4DD0000252500002DE9F04F09AFADF13C0D00900292388801911E46ADF834004E
:20150C00101C08BF002000F0828100274FF0010B00F10109B846DA466BE1252940F0628181
:20152C001078521C02922D2818BFADF8228004D11078ADF822B0521C029230281CBF424611
:20154C00434605D1114608785B465A46491C02912A284FF0FF3516D128460B933468099023
:20156C000299CDF81C80E01C4B1C20F00300001D306050F8044C08780293002C44BFADF8BF
:20158C0022A0644212E0444609E0610001EBC40140180299A0F130040878491C02913028D8
:2015AC0001DB3A28F1DB0B93294609912E282BD10299087843462A2801F10101029111D1BD
:2015CC00099330680794C01C20F00300001D306050F8045C002D48BF454608780995491CAA
:2015EC00029112E045460AE0690001EBC50140180299A0F1300508782B46491C02913028D0
:20160C0001DB3A28F0DB099307940AB122460B926C2804D04C2818BFADF8208005D1029955
:20162C000878ADF820A0491C029103A9CDF8288007AB0E9164280C9300F08B80692800F0B0
:20164C008880BDF834C0752872D078286ED06F286AD0702850D063283DD073281ED00198CD
:20166C0002990128A1F10101029115D96B490C68B5F1FF3F03D0A84288BF6D1C00D8019D76
:20168C000995684602A9324607ABA047C71902990A9801F1010974E040462AE03068029906
:2016AC00C01C20F00300001D306050F8040CBCF1000F01F10109014608B956A001460E918E
:2016CC0009F072FF0A90B5F1FF3F5BD0A842C4BF281C0A9056E03068C01C20F00300001DC6
:2016EC00306010F8040C5D468DF80C0002990A95584601F1010945E0082035680B90E81CA5
:20170C0020F00300001D306050F8041C0822102307A806F077F8401E0E90402101700299BB
:20172C000E9801F1010929E0082302E0102300E00A230299306801F10109C01C20F0030087
:20174C00001D306050F8041CAA42BCBF2A1C0B9210E00299306801F10109C01C20F0030010
:20176C00001D306050F8041CAA42BCBF2A1C0B926FF0090307A806F045F80E900C9D281A28
:20178C000A90079CBDF82250241A65B906E06846202101AA08F0B1FF079C7F1C641E0794FA
:2017AC00F5D50A9800E007940546401E0A9075B9BDF82200E8B10798401E079019D4684626
:2017CC00202101AA08F099FF07987F1CF4E70E98411C0E91017801AA684608F08EFF0A98D1
:2017EC007F1CE1E7684601AA08F087FF7F1C09F101094A46029812F8011C401C002902909C
:20180C007FF48BAE009808B14146017038460FB0BDE8F08F286E756C6C2900C0D4DD0000E9
:20182C002DE9FE430646DFF8DC82DFF8DC92B2780024101C00F03581801E00F00D81401EE5
:20184C00012840F2E180801E00F0A880401E7BD0401E59D0083800F04681801E40F046814E
:20186C004546B08895F83E70ADF80000052F45D001208DF80A0005F1CC000AF081F995F8FD
:20188C003E0001281BD0042819D0032806D0022804D0F28831897089B38907E0B5F8402079
:2018AC00B5F84210B5F84400B5F84630ADF80220ADF80410ADF80600ADF8083020E0B5F854
:2018CC004000F1888842D8BF081CADF802003189B5F842008842D8BF081CADF80400718946
:2018EC00B5F844008842D8BF081CADF80600B5F84630B0898342D8BF031CDDE78DF80A4051
:20190C00684609F0DBFFF1E0454605F1F0000AF037F97078002840F0E980F088E88230898A
:20192C0028837089688305F1CC0009F0FDFE002840F0DC80AB6A002B00F0D8801B68E88A25
:20194C00298B6A8B9847D1E0B08809F052F845462146062205F1380005F064FCEC822C830D
:20196C006C83B079687305F1CC000AF009F905F1F0000AF005F901244FF6FF706F79A882E1
:20198C004FB9B079082814BF04200520A870204609F0F2FCAAE00320A870A7E0707858BB12
:2019AC00311D0A68454605F138000260898881800627AF707089A882F089E882308A288377
:2019CC00708A6883F0784446287394F83E00012818BF02280AD11F2007F03CFD4FF47A711D
:2019EC00024604F1CC00514307F00CFFF0787289311D07F097FE7BE0707831286FD14D4690
:201A0C0004202870204623E07778002F67D14546698AA878032A13D02A796F7921B9012A01
:201A2C0014BF6C712C7106E0174304D005F1A80007F0E8FEA878072814BF0420062007E06B
:201A4C00062807D02879002808BF0324DAD00220A8704DE00724D5E77078751C00283ED116
:201A6C004246F7789078D1799FB9022816D0072814D0062802D1517901290FD103280DD0B9
:201A8C0002F1A80009F050FE40B9012009F074FC04E08732204606F04FFE28702878F0B9AE
:201AAC0024E07078D8B945460220102105F1480208F05EF90320102105F1580208F058F943
:201ACC00F61C05F12C00B7883168878005F1680201600120A979A87006F02EFE40B1082090
:201AEC004D46287004E0B08809F0DCFE012C06D14546686A18B1016809B1A8788847BDE8DF
:201B0C00FE83C046F8130020FA1300202DE9F04F0646A24CB17804F1C402ADF1240D701D0B
:201B2C00924606F0BBF89E4837799E4A9E4900880FF2BC190FF2C81E0FF2E01C002F0790AB
:201B4C0000F096807F1E40F0D080126809689346884620B318EA0B0F21D09448006818EA9E
:201B6C00000F05D192480068008818EA000F16D0924840F29F4705680097CDF804E0CDF84F
:201B8C0008C069A303930022CDF810A08A490592884F06920A8838684B464146A847079D82
:201BAC007079B179F779327A002D00EB012A07EB022646D018EA0B0F1ED07C4B1B6818EA21
:201BCC00030F05D17A4B1B681B8818EA030F13D07A4B1D6840F2A643009355A30193029019
:201BEC0003910023049774490592724F06930A8838684B464146A847079810B318EA0B0F22
:201C0C001FD06A48006818EA000F05D168480068008818EA000F14D0684840F2A7470568F6
:201C2C0000974CA30193CDF808A0039600220492614905925F4F06920A8838684B464146EF
:201C4C00A847A16A50460C3810D0401E0CD0401E03D0401E08BFE68147E008460022032112
:201C6C0007F0ACFCA68140E066813EE026813CE00968071C21D0106801421ED04B48006881
:201C8C00014204D14A4800680088014215D04B4840F24B4705680097CDF804E0CDF808C0E5
:201CAC0037A303930022CDF810A0434F0592414B069218683A884B46A8477079A16A0128E5
:201CCC000ED9083804D0801E04BF012020820CE0002014212CA2FFF765FA00F0CBF904E0DD
:201CEC0002460846032107F069FC09B0BDE8F08F70726F6A6563745F7A65726F2E6300C07E
:201D0C0056616C7565204368616E6765206D73673A2025732025733A202573004C4544205C
:201D2C0053657276696365004C45443100C046C053575620506172616D65746572202D2DBF
:201D4C002D2025642C2025642C2025642C20256400C046C053575620506172616D6574650D
:201D6C0072202D2D2D20416464726573733A20307825782C20446174613A20256400C0460A
:201D8C004C45443000C046C04D6561737572696E6720416D7065726F212121002C05002089
:201DAC001ADD000040050000ACDD00003C05000044050000C8DD000084050000C4DD0000F9
:201DCC002DE9F04FA349A44EA54DA64CDFF898B2DFF898A2DFF898920F88401E0FF2B418EB
:201DEC00ADF1240D00F09080401E75D0801E61D0401E4DD0401E2ED0401E17D0401E40F0EC
:201E0C00C6803168002F00F0C28094480068014200F0BD802868014204D1206800880142C7
:201E2C0000F0B58040F201405EA766E03168002F00F0AD8089480068014200F0A8802868AA
:201E4C00014204D120680088014200F0A08040F2F53056A751E040F2153004A902F0D2FB93
:201E6C0004A806F0E1FC3168002F00F090807B4A1268114200F08B802A68114204D122683E
:201E8C001288114200F083804FF47C774EA673E03168002F7BD071480068014277D028688B
:201EAC00014203D120680088014270D040F2FD304FA722E03168002F69D0684800680142B9
:201ECC0065D02868014203D12068008801425ED040F2F9304CA710E03168002F57D05F48C5
:201EEC000068014253D02868014203D12068008801424CD040F2E63048A74A46146800901F
:201F0C000197002602963CE04FF4417006A902F079FB00218DF814109DF819308DF81310EA
:201F2C009DF81A208DF811309DF818008DF812209DF81B108DF810009DF81D308DF81510BB
:201F4C009DF81C208DF8173004A88DF8162009F093FB06A806F068FC3168C7B13F4A1268CE
:201F6C00114214D02A68114203D12268128811420DD040F2E1372CA64A46146800970196BB
:201F8C0002905B46554618682A884346A04709B0BDE8F08F70726F6A6563745F7A65726FD2
:201FAC002E6300C04572726F7200C046436F6E6E656374656420616E642061647665727428
:201FCC006973696E6700C046436F6E6E65637465642E205065657220616464726573733A28
:201FEC00201B5B33326D25731B5B306D00C046C0436F6E6E656374696F6E2074696D6564B9
:20200C00206F757400C046C0446973636F6E6E6563746564202F2049646C65004164766536
:20202C0072746973696E670047415020697320737461727465642E204F757220616464726A
:20204C006573733A201B5B33326D25731B5B306D00C046C01ADD0000ACDD00004005000051
:20206C003C05000044050000C8DD000084050000C0DD00002DE9F04F8C4F7989FA2000FBB8
:20208C0001F2132192FBF1F295B23A894FF00009ADF15C0D07F5B078504390FBF1F080B2EF
:2020AC0007F5B07111902020401E21F8029BFBD1FF20282607A9761E01F8010BFBD111990A
:2020CC001F2005F077FF002840F0BC80784C204609F0EDFC284605F0CCFB0146182005F00C
:2020EC0069FF002840F0AE80204609F0E0FC4C46A7F80C9055A0BE881590002E6BD0484607
:20210C00129013904D461490B889012863D007F063F8694E28F814006648B6F800B0D0F889
:20212C0000A0641C202CA8BF4C46F98842F6E060484309F0BCFC6D1C022641208DF81E50F4
:20214C004D238DF81C000DF11E018DF81D302A128DF81F20A21B501C48BF02F1210038F8FF
:20216C001000761C01F8020F142E4FEA20204870F0DB4846282107AAFFF714F8BBF1000F24
:20218C0026D04E4800681AEA000F21D04C4800681AEA000F05D14B48006800881AEA000FC0
:2021AC0016D04B4840F63E032CA2D0F800C00093494601924B4602944A460396434E0491A2
:2021CC0041490593159B0692086832885146E047B888A84298DC1199182005F0EBFE00281B
:2021EC0030D1412046268DF81C00282107AA8DF81D604846FEF7D6FF2E482F4D0168288805
:20220C00F8B12E48006801421BD02D480068014204D12C4800680088014212D02C484FF4C8
:20222C0005660568009617A3019302944A46039204920592254E06923288234E159B306870
:20224C00A8473C8017B0BDE8F08FC04670726F6A6563745F7A65726F2E6300C04144432087
:20226C006461746120746F74616C2028726561647920746F2073656E64293A2025642028F6
:20228C002564290041444320726573756C743A206164632025642C20686561642025642C1B
:2022AC00207461696C20256400C046C030050020804F1200ACDD00001ADD000040050000DE
:2022CC003C05000044050000C8DD000084050000C4DD00002DE9FF4705468448DFF828C265
:2022EC00DFF81092DFF81082DFF810E2DFF810A2844E0788687846A3162856D02A797E2AC5
:20230C0038D07B487F2A1CD00168002F6FD04846006801426BD040460068014204D170464A
:20232C0000680088014262D0604640F2D957046800973BA701970292574632883868A04735
:20234C0055E00168002F52D04846006801424ED040460068014204D170460068008801423C
:20236C0045D0604640F2D4570468009736A20192288918E065480168002F38D048460068DF
:20238C00014234D040460068014204D170460068008801422BD0604640F2CF5704680097FF
:2023AC0030A20192287A0290C6E75A480168CFB148460068014215D040460068014204D11C
:2023CC0070460068008801420CD0604640F2B6570468009732A20192287957460290328853
:2023EC003868A0476888082108F02AF830B1297905F1080008F034FD012005E0012001F055
:20240C007BFC4348056000200090BDE8FF87C04670726F6A6563745F7A65726F2E6300C001
:20242C0052656365766965642047415454204D6573736167652E204F70636F64653A203002
:20244C00782530327800C0464D54552053697A65206368616E67653A202564206279746505
:20246C007300C046466C6F7720636F6E74726F6C2076696F6C617465642E204F70636F6463
:20248C0065206F66206F6666656E64696E6720415454206D73673A2030782530327800C0D5
:2024AC004F7574676F696E67205246204649464F2066756C6C2E2052652D73636865647547
:2024CC006C65207472616E736D697373696F6E206F66206D73672077697468206F70636FCC
:2024EC0064652030782530327800C0461ADD0000ACDD0000400500003C05000044050000EB
:20250C00C8DD000084050000C0DD0000A8DD000050050020B0DD00002DE9F04F834609AF87
:20252C000846ADF1340D099397F808A00892B98807903F880A9106F0C7F906468448DFF816
:20254C00F0910588804ADFF804E277480FF23C180FF2641C002E4FF00004818840880B9563
:20256C0038D0761E1FD071480168D5B148460068014216D06F480068014204D16E480068A8
:20258C00008801420DD06F484FF4E57743A6056800976B4B0196694F02941A8838684346DE
:2025AC00A8470A206FE00D4610460B9E0168002E37D048460068014233D05E48006801422A
:2025CC0004D15D480068008801422AD040F2C51348A214E0054610460B9E01680EB348465E
:2025EC00006801421DD053480068014204D1524800680088014214D04FF4DD733FA2704641
:20260C0006680093CDF804C00292CDF80CB00497CDF814A04A4B06941A88484B186843468E
:20262C00B047BD420EDB0A98E91B8142D4BF8AB2021C099802800798C0683918089803F08B
:20264C00A3FF1FE039480B9F0168D7B148460068014216D037480068014204D136480068AD
:20266C00008801420DD037484FF4E87725A605680097334B0196314F02941A8838684346C0
:20268C00A847072420460DB0BDE8F08F646174615F736572766963652E6300C041747472F7
:2026AC00696275746520776173206E6F7420666F756E642E00C046C05265616441747472D2
:2026CC004342203A20257320636F6E6E48616E646C653A202564206F66667365743A202534
:2026EC0064206D6574686F643A2030782530327800C046C053747265616D00C05374726934
:20270C006E6700C0416E20696E76616C6964206F666673657420776173207265717565739B
:20272C007465642E00C046C0401B0020A8DD0000400500003C05000044050000C8DD0000E8
:20274C0084050000C0DD0000ACDD0000C4DD00001ADD0000F8B5A0F2013517460E46022DD1
:20276C0040F20C818649874C874A884B2D1F0F2D04D9143D4AD0AD1E1CD011E0DFE815F004
:20278C00BA00B500EB00DB00AE00A700FE009F00980010001000900086007A006F006200ED
:2027AC00282880F2EB80022E40F0E880398807F059F9F8BD012E40F0E1800A469078012818
:2027CC0000F0DC80D1783878D07081B9002800F0D5801078012800F0A080042800F09D80C7
:2027EC00062800F09A80052800F09780F8BD3878002840F0C3801078032800F09980072876
:20280C0000F09680052800F09380F8BD012E40F0B5803878012840F0B180254605F1F000A2
:20282C0008F082FF002840F0A98004F13E01002004F0CCFE002840F0A18004F1CC0009F04D
:20284C009FF9F8BD022E40F0998038880A28C0F29580B0F5486F00F39180114614E0022E12
:20286C0040F08C803888B0F5FA7F80F2878011460880F8BD022E40F08180388806287DDB7E
:20288C00B0F5486F7ADC1946891CF1E7022E75D13888062872DBB0F5486F6FDC1946E7E719
:2028AC00012E6BD13878062868DA1146891F0CE0012E63D13878042860DA093105E0012ECF
:2028CC005CD13878082859DA08310870F8BD012E54D13878042851DAC91DF6E7012E4DD1DB
:2028EC00387804284ADC891DEFE7022E46D138881031BDE7012E41D10A46D07801283DD053
:20290C0091783878907061B9002837D01078012803D0042818BF052830D1012008F02CFDB2
:20292C00F8BD387850BB1078022818BF052825D108F0B2FEF8BD254600211F2205F18704C4
:20294C00204604F06FFC39463246204603F01CFE0020EE710EE0254600211F2205F16804A0
:20296C00204604F05FFC39463246204603F00CFE0120AE713146224605F0DEFEF8BDC04691
:20298C00FA130020F81300203C140020381400202DE9F04F0128ADF1140D40F0F280DFF841
:2029AC001492D9F8DC00012840F0E9800220C9F8DC0009F093F90290012006F093FA20B1AB
:2029CC0001210646C9F8DC10D5E009F083F903906E484FF00008C0F80080012008F078FA53
:2029EC00012818BFCDF8008004D1404605F058FD0120009066486E4CC0F800801934D4F877
:202A0C00FF0F112008F0A4FF00280CBF46460126102008F09DFF08B146F002060F2008F048
:202A2C0097FF08B146F004060B2008F091FF30B1584800685849006B0246088890470A207A
:202A4C0008F086FF0028404618BF01204FF0805B0BF5DC7528B128685049006B0246088897
:202A6C0090474F480127076028688069014646F0200088474B48076008F064FF00F0010121
:202A8C000191400815D2484808F0BFFE8246BAF1040FF8D0BAF1010F06D1DBF8D8014068F0
:202AAC0002464148032190474049086820F003000860404600F080F82868D4F8FF1F806B77
:202ACC008047019801280ED0BAF1010F06D1DBF8D801406802463448394690473349086897
:202AEC0040F0030008602A480760286840690146304688470B2008F02BFF28B1286826496C
:202B0C00C06A0246088890470A2008F021FF28B128682249C06A0246088890472048076012
:202B2C000322C9F8DC201F4BC3F800802868406B0146304688470128F8D1042006F0D2F964
:202B4C00124807601A48D4F8FF1F01688909FCD30098012802D1384605F0A2FC08F0E6FE11
:202B6C00082006F0BFF906460398C9F8DC7009F0ADF805F0A9FA029809F0A4F802E004260E
:202B8C0000E00126304605B0BDE8F08F0C40094000022243B8010010AED80000AAD8000006
:202BAC002820086080010443004003402422084014100940441900202DE9F84F82467A48AF
:202BCC00DFF8D89135380068800880F0D88007F00DFE054678480830D0F8008000244FEA9A
:202BEC002876761C5FEA98500AD2C5F13E0015F10A0F4FEAE000D8BF08208642B8BF061C40
:202C0C00634FD7F87C01C0F3046008F0F7FD83463868C0F3044008F0F1FD06EB0B020090D3
:202C2C00162A05DA12F10A0FB8BF6FF0090200E01522584B584F02F01F0141F4F8511980E2
:202C4C00396811F0030F18BF0124C90828BF44F00204BAF1000F18BF44F00404494691F9E0
:202C6C000730EB1A052B04DA8B79A34208BF888864D0DFF82CE10F2DA5F10F0C25DB0CEB42
:202C8C000513A3F1F00C4FEA2C27072F88BF07273E46062E88BF06265EF82600042303EB8D
:202CAC0086037646F3581B1A03F0FF06E00824BFC3F307200644A00824BFC3F30740064487
:202CCC00600828BF06EB136601E0002637465EF827E0E0080EF0FF0324BFCEF30720034454
:202CEC00A00824BFCEF307400344600828BF03EB1E630098B6B2ACEB07277E43801A06F119
:202D0C00800603EB1623D8BF0120342208F0FF0742437A43B2FBF3F04FF6FF72824238BFAB
:202D2C00101C802D80B2888005DA15F1800FB8BF6FF07F0500E07F25CD718C71194A12680A
:202D4C001F280A604FF0000208D340F2FF11814206D24008521C8142FBD301E01F2088804E
:202D6C00124F11490F38000942EAC00247EA0200C1F8FB0F0026C1F8FF6FBDE8F88F0D4F83
:202D8C000B4E494608203760891D0870BDE8F88F3C1100506E62084024220840F02E0020B5
:202DAC009C130050082009403500094000E7A48030100940FDFDA400AC3F00502DE9F04165
:202DCC001C4615468C4208BF854282BF00230022E5E0002C08BF002D0AD100290EBF00286A
:202DEC006FF000006FF0000100F0E1F8BDE8F0815FF000085FF0000E002C08BF8D429CBF58
:202E0C002C1C0025070C47EA01470E0CB44208BFBD429EBF5FEA044444EA15445FEA0545CF
:202E2C00070A47EA01670E0AB44208BFBD429EBF5FEA042444EA15645FEA0525470847EAA0
:202E4C00C1774E08B44208BFBD4200F29380870847EA81778E08B44208BFBD427CD8C708EA
:202E6C0047EA4177CE08B44208BFBD4266D8070947EA01770E09B44208BFBD4250D8470989
:202E8C0047EAC1674E09B44208BFBD423AD8870947EA81678E09B44208BFBD4224D8C709E0
:202EAC0047EA4167CE09B44208BFBD420DD8E60146EA5566EF01B14208BFB84201D3C01B90
:202ECC00B14158EB08085EEB0E0EA60146EA95664FEA8517B14208BFB84201D3C01BB14140
:202EEC0058EB08084EEB0E0E660146EAD5666F01B14208BFB84201D3C01BB14158EB080834
:202F0C004EEB0E0E260146EA15762F01B14208BFB84201D3C01BB14158EB08085EEB0E0E31
:202F2C00E60046EA5576EF00B14208BFB84201D3C01BB14158EB08084EEB0E0EA60046EAE2
:202F4C009576AF00B14208BFB84201D3C01BB14158EB08084EEB0E0E660046EAD5766F005E
:202F6C00B14208BFB84201D3C01BB14158EB08085EEB0E0EA14208BFA84201D3401BA14193
:202F8C0058EB08085EEB0E0EA34208BFAA423EBF2D0A45EA0465240A89D3734642461E46DA
:202FAC0017460B46024631463846BDE8F08170472DE9F843814608F0B3FC002100B9012192
:202FCC006B4E30680028FCD06C4D01242D1DEF6A346009B108F0AAFCDFF89881C7F3072062
:202FEC0008F1BC01086008F09BFC002100B9214630680028FCD02F68346009B108F096FCDC
:20300C00C7F38440C8F8C00008F08AFC0146002001B92046014630680028FCD0ED693460E4
:20302C0009B108F083FCC5F38120C8F8D000B9F5C061C8F8B81000F0968098F8D80068B984
:20304C00C8F8D410D8F8C000C8F8C800D8F8BC70C8F8C470D8F8D060C8F8CC60D8F8D41018
:20306C00D8F8BC60002954BF02206FF00100454605F1C8031A6801EB41014018411000EB0A
:20308C00917002EBA0021A60D5F8C810C5F8C46000291CDD1E293DDDD5F8CC0030B9342932
:2030AC00B4BF15391E21C5F8C81025E02A29BABFD5F8C8000B381E20C5F8C800D5F8C40072
:2030CC003F28B4BF401C3F20C5F8C4001FE0D5F8CC00032812D011F10B0FC6BFD5F8C800F3
:2030EC000B30201CC5F8C800D5F8C4000028CCBF401E0020C5F8C400032009E011F1150F53
:20310C00C6BFD5F8C8001530201CC5F8C8000020C5F8CC00B5F8C400174E30214FF47F42AF
:20312C0008230090304605F0E1FD009404214FF400321123304605F0D9FDB5F8C800042142
:20314C004FF4F80212230090304605F0CFFDB5F8CC0020214FF440620A230090304605F063
:20316C00C5FDBDE8F883002088F8D800BDE8F88300800C404419002000A00C4000A00C40A8
:20318C002DE9FC416F4C204608F0F8FC15460E46009008F0B3FD05F001078046B6F1FF3F34
:2031AC000DD1606820B9B4F91200401C06B202E06068B0F91C6064490020C91C0870304642
:2031CC0007F01AFA0326002800F0A4806168814270D0009FDFF848C1B84231D03FB10099A4
:2031EC000A68904209D0096800290091F7D1832E44D0404608F07EFD40E0604607F0C4FD77
:20320C0000990868AA0803D202680B4601461A6000220A60009078B10C340146C87F40F053
:20322C000400C877684608F06BF80146204606F01DFD00980028F0D1404608F05BFD1CE026
:20324C00604607F0A1FDA8083ABF2068006800202060404608F04EFD0C340099C87F40F0D5
:20326C000400C877684608F04BF80146204606F0FDFC009808B1A808EFD2832629482C4A28
:20328C00007890B928480078012846D02748FCF72BFF0221104608F0C7F82648007801286F
:2032AC003BD02548FCF720FF37E01046022108F0BBF832E0A90803D32168009100262660DE
:2032CC00C27F0121B9401143C17708F003FD0646002F14BF19481A4807F0D2FC404608F0AE
:2032EC0009FDA80811D3009878B10C340146C87F40F00400C877684608F002F801462046D9
:20330C0006F0B4FC00980028F0D1304608F0DEFC832602E0404608F0EDFC3046BDE8FC81A8
:20332C00B02D00201E2F00201D2F0020350E0000482D00201F2F00200956000001000204FF
:20334C0001000104B82E0020102E00202DE9F04FADF1840D209001F0E5F905F0A3FC00243C
:20336C00012804D107F048FF022808BF012459490868C0F38150012805D151F80C1C0120C8
:20338C00090E884004435448007807F069FBDFF84C81DFF84CA1C8F8000030B15246FF21CB
:2033AC0007467F1E02F8011BFBD120990968002501F0FF02FE2A1BD0DDF880C052462B46C3
:2033CC00012701F0FF06FF2E0BD0B04203D907FA06F6344201D0022079E001F0FF013543C5
:2033EC0053545CF8041F5B1C01F0FF06FE2EEAD1092002F043FA3B492098242208230860E2
:20340C0001A8002108F05AFC4FF0010901AA3E488DF81C90494608F04DFCD8F800303BB31F
:20342C003A4E00274FF0040BBA4609FA07F0044218D1054204BF07F0FF0141F4C04104D04F
:20344C0027482099C05D51F82010274802F096FDF8B24FF0FF3107F065FDD8F80030C6F87E
:20346C0000A001E0C6F800B07F1C361D9F42DCD30AA800213022082308F018FC1B4D1D4AA8
:20348C002878002410210AAB12901948009408F009FC16A828220823214608F0FFFB686886
:2034AC0016AA16491C9014481D94234608F0F2FB134A52F80D0C494620F4F85040F40050AB
:2034CC0042F80D0C0F4BC2F8FF1F2046196021B0BDE8F08FB43F0050242F0020CC2A0020BB
:2034EC00D42D0020142F0020007FC76778DD0000342E00204DAF0000142D0020898D000045
:20350C000D30094008000940502E0020982C00202DE9F84F9A4693460D46044608F0EEFBB2
:20352C00DFF85C810AAFB8F91220B8F91010009040F6F870891A0840082880F29280B8F9E0
:20354C001000401C6FF31F30A8F81000B8F9109007F0D6FB064604F1700007F015FCB560AB
:20356C0086F81EB0C6F804A0F460A6F81C9097E80C0051A003C800251040F577D8F80020DB
:20358C0006F11007194087E80300002A5CD14046314606F06BFB00285BD0A4F894904448F7
:2035AC00F17F0778DFF8DCA041F08001F17784F8965067B151460F784FB1344A3449324B93
:2035CC000570012015700A781870521C0A70009808F090FBD8F8040000284ED15146087885
:2035EC0000282DD12B480078012846D008F086FB054629480078F8B9B06804F07BFF284B18
:20360C002C4A26491B681268086038B9284608F071FB2448042107F007FF2EE0D06809684C
:20362C00214C091AB1FBF3F1204608F05FFB204608F058FB28461EE01C4901200870F9E7AB
:20364C00192008F079F818E04046314606F00EFB50B9B8F9100000F6FF706FF31F30A8F848
:20366C0010006FF0010905E0A4F89490F07F40F08000F077009808F03DFB4846BDE8F88F18
:20368C00B82E00201F2F0020232F00201C2F0020252F00201E2F00201D2F0020FC2E002036
:2036AC009CDD0000482D0020B02D0020202F0020222F00200C2F0020F1EFFF9F200000001A
:2036CC002DE9DF4F6548DFF88CC1DFF874B1DFF874A1DFF87491DFF87481DFF874E107887E
:2036EC0056480E1C32A313D10168002F5DD058460068014259D050460068014204D1484662
:20370C0000680088014250D040F277672CA62DE0012E17D0022E48D1002A46D10168002F23
:20372C0043D05846006801423FD050460068014204D1484600680088014236D04FF4D167BA
:20374C0023A613E0A2B90168002F2ED05846006801422AD050460068014204D14846006861
:20376C000088014221D040F27D6725A6002212E039480168CFB158460068014215D050465E
:20378C000068014204D148460068008801420CD040F2816722A66046046800970196774621
:2037AC00464602923A883068A0470090BDE8DF8F70726F6A6563745F7A65726F2E6300C092
:2037CC0050616972696E6720737461727465640052652D65737461626C6973686564207000
:2037EC00616972696E672066726F6D2073746F72656420626F6E6420696E666F2E00C046FB
:20380C0050616972696E6720636F6D706C65746564207375636365737366756C6C792E0082
:20382C0050616972696E67206661696C65642E204572726F723A202530327800ACDD0000F3
:20384C00400500003C05000044050000C8DD000084050000C0DD0000A8DD00001ADD000046
:20386C002DE9F0438046D8F80460D8F808700C46ADF1340D08F042FA3178012903D108F0AD
:20388C0039FA0020A3E04FF0010986F8009008F031FA207870706078B07060687060A068BC
:2038AC00B060E068F06020693061207D3075607D7075A07DB075A069B061207F3077607FB5
:2038CC0000257077A07F35623563102186F83C10B0772C4674627463B462B46386F82C402A
:2038EC0086F82D4086F83D40786801F0C7FF404602F060F9404603F0C1F978B93548006825
:20390C00C068014638688847786801F0E3FE08F0F5F9347008F0EEF9A04657E001A8214675
:20392C003022082308F0C2F9CDF818803A7B09920095294AB96806F1680001AB08F0B2F9C7
:20394C0001A828220823214608F0A8F9396907912249CDF8148006F1840001AA234608F0B8
:20396C0099F901A824220823214608F0A7F9B0788DF81C9038B906F1B800214601AA08F08D
:20398C0099F917483061707838B906F1D400214601AA08F08FF91348F06001A82146242262
:2039AC00082308F073F90694ADF8144006F1F0000D49CDF81C800A2201AB08F063F90B4ABA
:2039CC0006F154000421434606F038FF40460DB0BDE8F083D0010010395400009D8A0000C5
:2039EC00A1BA000099BA00002969000055B700002DE9FC415E4C574D574EDFF860815A4FC8
:203A0C0094F8E410481E0B2861D8DFE800F07B2C43062343062343067664042907D00122C8
:203A2C000A2945F8212C14BF0220032004E02021012045F8211C024684F8E200002045F8E2
:203A4C00390C0827C5F8FF7FC5F8F37F45F8392CBDE8FC81052914BF09200620002584F8C7
:203A6C00E400356070E094F8E1700120383D002FC5F81B0004BF0620002102D00021F160A9
:203A8C00032084F8E400032045F8010C31603068800859D294F8E400012503280DD000218F
:203AAC00404660220523009105F020F994F8E400062814BF0A200720D1E7022000900021DE
:203ACC0060220523404605F011F90420C7E708F0D5F8BDE8FC812249002622480E60012563
:203AEC0005600E2001F0F6FD022006F0B5FA84F8E45084F8E360BDE8FC81002038600C2502
:203B0C0078601FE01948006800680146202088472C3D41F61D560F2000214FF4C072072339
:203B2C0045F8010C4046C5F803600225009505F0DDF8404600214FF4C072072305F0CCFB01
:203B4C000120386084F8E45004F1780008F0CAF8BDE8FC8139400C4038600C4000A00C4012
:203B6C002C500C4004800C4034600C40A0010010441900202DE9F04F0446564DDFF858B171
:203B8C00564FDFF85CA1DFF85C9120790FF2C408ADF11C0D002829D0401E58D158462968D8
:203BAC000088002853D03868014250D050460068014204D1484600680088014247D04C48A1
:203BCC0040F245570568009726A6019660790290A0790390E07900230490444F0593424EC2
:203BEC0006933A8830684346A84730E0414E00212822304603F016FB641D27222146304623
:203C0C0002F0C2FC58462968008800B3386801421DD050460068014204D14846006800881A
:203C2C00014214D0324840F23E57046800971CA5019522A3029325A20392002704962B4DC7
:203C4C000597294B069718682A884346A04707B0BDE8F08F70726F6A6563745F7A65726F18
:203C6C002E6300C056616C7565204368616E6765206D73673A204461746120536572766920
:203C8C0063652053747265616D3A20253032783A253032783A253032782E2E2E00C046C0A9
:203CAC0056616C7565204368616E6765206D73673A2025732025733A202573004461746118
:203CCC00205365727669636500C046C0537472696E6700C0ACDD00001ADD00004005000025
:203CEC003C05000044050000C8DD000084050000C4DD0000680600202DE9F04F5B4C243C75
:203D0C00676A0246ADF11C0D002F64D04E48DFF84091DFF84081DFF840E1DFF840B1DFF8E7
:203D2C0040A1DFF840C106882CA32ABB47490968002E4AD048460068014246D040460068F6
:203D4C00014204D170460068008801423DD0604640F223660568009624A201923879029049
:203D6C00A0780390002604960596574606965E463A883068A84728E03B48016806B34846D0
:203D8C00006801421CD040460068014204D1704600680088014213D060464FF4C56605682D
:203DAC0000961DA60196387902900392002604960596574606965E463A883068A847676ADD
:203DCC00397907F1080007F04BF8606A07F0CCF900206062A07007B0BDE8F08F70726F6ADD
:203DEC006563745F7A65726F2E6300C053656E74206D6573736167652077697468206F7091
:203E0C00636F6465203078253032782E20417474656D7074202564004761766520757020B6
:203E2C006D6573736167652077697468206F70636F6465203078253032782E20537461746A
:203E4C0075733A20256400C01ADD0000ACDD0000400500003C05000044050000C8DD0000D7
:203E6C0084050000C4DD0000A8DD000050050020B0B5456884685148297BADF1180D0129EA
:203E8C001AD001462F7E227E637E4D4837F0010741EA020240EA030001904A48009218BF0B
:203EAC00011CA27E1143029195F88D200323FF2A13D0014610460DE0A17E627E237E41F00B
:203ECC000041024343F00043029195F88D0000933D490192014304230391FE2105F19000DD
:203EEC004DF82310694602F0CFFCC5F89C00002808BF00205FD0287B344951F82000012889
:203F0C002BD02068B0F1804F14BF22220A22217ED5F89C0006F05AFB2068B0F1804F14BF41
:203F2C0021220922617ED5F89C0006F04FFB2068B0F1804F14BF24220C22A17ED5F89C00B8
:203F4C0006F044FB95F88D10FF2933D02068B0F1804F14BF23220B2228E02068B0F1804F8E
:203F6C0014BF21220922217ED5F89C0006F02EFB2068B0F1804F14BF22220A22617ED5F8E6
:203F8C009C0006F023FB2068B0F1804F14BF24220C22A17ED5F89C0006F018FB2068B0F16C
:203FAC00804F14BF23220B2295F88D10D5F89C0006F00CFB012006B0B0BDC046000480A0E3
:203FCC00004000800004C0A00020008048D800002DE9F0410646524DB088ADF1200D002894
:203FEC0004BF05F10C04A0460DD005F10C040346A62137A2204607F062F8204607F0D4FA58
:20400C00281800F10C083768B8B206F089FE40A20CCA00F0B7FE40A20CCA00F0B3FE04F01F
:20402C0085FFA4EB080100902BA23B0CA631404607F045F8204607F0B7FA2218A868214664
:20404C00121B07F0F1FCF088D8B107F013FE35490A8832B9B1680091F168034622A201919D
:20406C001FE0F16800913169019171690291B1690391F1690491316A0591716A0691B36857
:20408C000EE03069009070690190B0690290F0690390306A0490002705970697F368B068FB
:2040AC0002462046A62107F00AF8204607F07CFA22180D2002F8010B0A2702F8017BA8688F
:2040CC002146121B07F0B0FC08B0BDE8F081C04623253036752000C05B2025642E2530330C
:2040EC0075205D2000C046C07B6576743A20666D743D25702C20617267733D5B30782578C9
:20410C002C2030782578202E2E2E5D7D00C046C0000000000000F03E0000000000408F407B
:20412C00400E00208A0500002DE9F04305466E68AF680C46ADF1340D07F0E0FD96F8D91079
:20414C00012903D107F0D6FD002084E04FF0010886F8D98007F0CEFD4FF00009C6F8889008
:20416C002069306160697061207E3076207B307320783070606886F8A49070606069494623
:20418C00092828BF414686F88C10387B01F076FB284603F0AFFEF87E86F88D002846FFF752
:2041AC0067FE50B9387B01F095FA07F0A7FD86F8D99007F09FFD4D464CE001A849463022F4
:2041CC00082307F073FD06957A790992CDF80090224A397906F11C0001AB07F063FD01A8E6
:2041EC0028220823494607F059FDB96807911C49059506F1380001AA4B4607F04BFD307858
:20420C0078B901A849462422082307F057FD06F16C008DF81C80494601AA07F04BFD114817
:20422C0000E0A068B06003F0ABFF317BC6F8A000012908D1D6F89C000B4907F07DFBD6F8D5
:20424C009C0000B18560094A06F1C40004212B4606F0F4FA28460DB0BDE8F08351640000A0
:20426C00A386000089BA000005960000BDB90000B0B50246107A02F1090102F10904ADF1E3
:20428C00200D00283ED0401E33D0401E4DD0401E47D0801E4CD13D483D4F0168388820B396
:2042AC003C480068014220D03B480068014204D13A4800680088014217D0A07800280CBF29
:2042CC001CA21FA238484FF468770568009722A3019302920027039704970597314B0697AF
:2042EC002F4F1A88386818A3A847208805F024FE1EE0088841F23012824219D1084600F09A
:20430C009FFA15E00F8841F210103F1A05D0203F0ED10846FFF72EFC0AE00846FDF7F6FB22
:20432C0006E0507AFDF74CFD02E0084607F094F808B0B0BD446973706C6179696E6700C0D8
:20434C0053656E64696E670070726F6A6563745F7A65726F2E6300C0426F6E644D67722059
:20436C005265717565737465642070617373636F64652E2057652061726520257320706102
:20438C007373636F6465202530366400ACDD00001ADD0000400500003C0500004405000032
:2043AC00C8DD000084050000C4DD00002DE9F041424C474D8046C8F38140401E02D0401EE9
:2043CC002AD025E0284620300168880C20D24FF4804020603A48D0F802204B0AC1F30337F3
:2043EC0003F0800322F08F02134347EA0302C0F80220D0F801300E1266F30303C0F80130D1
:20440C00026801F0E70722F0E70247EA020102E04FF00041204601602A4E06F10800006810
:20442C00C0F3C0070FB94020A0624FF40070206407F062F940F0300084F8C800C8F3815013
:20444C0038B3401E03D0401E1ED002211DE0012006F03EFD07460420394604F0F3FA042081
:20446C0006F036FD8742FAD1366826F07F4005F0DBFD15480068036807214FF06022300EDC
:20448C0098474FF4806020600321042004F0DAFA06E00420012104F0D5FA0C4805F0C4FD85
:2044AC00284600680B4947F6180700F03F0084F8CB0F094E0F803068BDE8F08140A00C4025
:2044CC000A600840A83F0050B4010010BD3786006C13005070B00C402C20094070B5ADF115
:2044EC00380D00F01FF9324908682822082340F00200086001A8002107F0D0FB2D4EB0783A
:20450C002E4907902C48002301AA07F0C3FB00213022082301A807F0C9FB00251921307881
:20452C00284AADF81C5001AB09902548009507F0B9FB2822082301A8294607F0AFFBF07864
:20454C0022490790204801AA2B4607F0A3FB3022082301A8294607F0A9FB01241A217078BC
:20456C001C4AADF81C4001AB09901948009507F099FB194819492A46134607F083FB1848A1
:20458C00FBF7B2FD1849194E0C70164835704FF6FF728283C577164B1D70164C25701649EC
:2045AC000D70174E3560154A15700EB070BDC0460020094090DD0000482D0020FDB3000088
:2045CC006C2E0020B5AA00007C2D002005630000882E002055850000B02D002055A10000E2
:2045EC0009560000F42D00201C2F0020212F00201E2F00201D2F0020222F0020232F002078
:20460C00002F00202DE9F04F0C464549CA7AADF12C0D84460592487B09900D7900958A7A13
:20462C00488B4B8A0E7B91F805A091F802800492B1F846E008904A7A088B0392CD7807903F
:20464C000A7AC88A02920F6A0690CA79888A01928A79E146A9F54079B9F11D0F10D8DFE8E7
:20466C0009F05B5553514F4D4B494643413F3C3A380F34312E2B2923201E1C0F191817161A
:20468C00BCF1280F49DA604604F0E4FE21E0099EB246D046CDF814801DE0089807900798A9
:2046AC000690DDF818E005E03831086820608888A08032E070460AE0B1F8440009E0B1F8EC
:2046CC00420004E0B1F8400001E091F83E00034612E0208021E0059804900498039001E0FA
:2046EC003231E2E7039802900298009006E0019A87310DE068310BE01846EAE7009D0BE0CA
:20470C002C31D2E7276008E0583100E048311022204601F039FF00E025700BB0BDE8F08F11
:20472C00F81300202DE9F041444C94F8E700ADF1280D00286FD1394F387B012500212422F5
:20474C0084F8E7507E6884F8E6000823C4F80C6101A807F09BFA002604F10C00069601AB5A
:20476C00ADF814602E490796324607F08BFA2D4904F1300001AB324607F084FA2A4904F170
:20478C00540001AB324607F07DFAB868014628468847DFF89C8025487B7B0078D8F80410D1
:2047AC00C1F381571BB1032F03D184F8E150032F16D0022F14D0012F26D103201D4C009072
:2047CC0031464FF040521C23204604F08FFA009531464FF400720923204604F087FA13E0A8
:2047EC00022005F051FC032F0CBF4FF47A7142F21071114800685434B1FBF0F1204607F036
:20480C0075FA204607F06EFAD8F80000C00802D2304605F039FC0AB0BDE8F0811CDD000083
:20482C00FB820000E16A0000AD710000242F0020B03F005000A00C409CDD000044190020F2
:20484C0090B50146B1F80500ADF11C0D38B1401E03D0401E08BF18A202E01CA200E021A20F
:20486C000879012826D1364C3648278801680FB33548006801421DD034480068014204D1A0
:20488C00334800680088014214D02C4840F27257046800971CA3019322A7029725A30393F5
:2048AC000492002705972B4B06972B4F1A88386811A3A04707B090BD496E64696361746900
:2048CC006F6E7320656E61626C6564004E6F74696669636174696F6E7320656E61626C65B0
:2048EC006400C0464E6F74692F496E642064697361626C656400C04670726F6A6563745FAA
:20490C007A65726F2E6300C043434344204368616E6765206D73673A2025732025733A209C
:20492C00257300C044617461205365727669636500C046C053747265616D00C0C4DD000015
:20494C001ADD0000ACDD0000400500003C0500004405000084050000C8DD00002DE9F04385
:20496C000746880FADF1140D75D304F0B7F8404D00261C352E60394845F81C0C012001F013
:20498C00B2FD3748FBF7B0FBBC68B14640F60A01344A6680537B118090465680107BC2F830
:2049AC00049003F0F00300F0F000107343F00103537300E01C46636813B118888142F9D113
:2049CC00C4F80480607B00F0F0006073264807F0D5F880680088C91F81421DD0491C81429B
:2049EC001AD03B8CC3B197F82C107E8497F82D00C7F8249001F0F00100F0F00087F82C100D
:204A0C0040F0010087F82D0007F12003C8F80430507B00F0F0005073B868694606F040F932
:204A2C00684606F061FEB86801F049FE28680028FCD02E60012006F04BFA012808D0607BC5
:204A4C0000F0F00040F0010060730848FBF74CFBB86845F81C0C05B0BDE8F08301010E0477
:204A6C00350E0000CC2E0020B82E0020AD830000001004402DE9F04106F0D6FB3F4D3E4E1D
:204A8C00DFF8FC800446A00820D330464168E9B1002242608B690A690F6922401A4342F085
:204AAC00020205F108038A611A68BA4301F110071A6097E80C002A680C301B1C9A432A6001
:204ACC0005F0D4F84046022106F0AEFC7068A10815D200F1100191E80C00002702EA0401B9
:204AEC003B40002B08BF002909D081691440B0600C4384614FF48041404606F095FC7068D0
:204B0C00002837D1304607F039F8071C32D01E48F9680068884228D1B86803F0EBFC194948
:204B2C000860E8B905F1080138690A68104308602B6807F1100494E80300081C184328606E
:204B4C0000222A61B86845F80C0C05F1100000680028FAD0304606F0D3FB7760BDE8F081A0
:204B6C00086803F003F9BDE8F08140464FF4805106F05AFCBDE8F081B82E00200C10044052
:204B8C00482D0020FC2E00200C2F00202DE9F04707467D68D7F8089090460C4607F0AEF824
:204BAC00AE6A8246002E64D105F1F00006F0ECF82C620024EC7750466C6207F09BF807F0EC
:204BCC009DF82F4E3378824623B9022005F05CFA01203070504607F08DF82A4A10684146B5
:204BEC0040F480701060384604F0D0FEA862C0B93846414603F0E4FFA878D0B9A96805F1C7
:204C0C00B80007F033F8E8B9AC621020E8774946284602F015FD07F071F88246307840B3AC
:204C2C0023E0D9F80010886B40F020008863A87810B12046BDE8F087A96805F1B80007F03D
:204C4C0015F810B1686ABDE8F0873846414603F0B7FF1020AC624946E877284602F0F0FC66
:204C6C0007F04CF88246307818B1022005F0F4F93470504607F03EF84FF0FF30BDE8F087BF
:204C8C00282F0020301000402DE9F047ADF1180D01F0D8FE3A4D4FF0030908274FF6FF787D
:204CAC00002605F13E0A2C4606F004F920BB009601A80DF106016A4605F067FBE0B9BDF8AB
:204CCC000400102814D160789DF8061088420FD100980188884509D14088C00B08D3042020
:204CEC0005F12002014605F043F801E003F01CFF009808B106F050FA208A41082DD320F096
:204D0C00010063792179208253EA010225D073B9207A637A8DF8070005F132018DF8083024
:204D2C000A680DF109031A608988998001E08DF80790A07A8DF80F00E37A8DF810300DF17C
:204D4C00070006F0A9FD38B1636AA77023B11A6812B1196838468847208A810807D320F0D3
:204D6C00020020825146304602F030FC208AC1089AD320F00400208206F00CF994E7C04646
:204D8C00F81300202DE9FC4191EA03084CBF4FF000484FF000084FEAC32545EA52554FEAFA
:204DAC00C2264FEA43077F0D11BF45F0004500210020BDE8FC815FF4E06E1EF1FF0E7745CA
:204DCC0055D04FEAC12343EA50534FEAC0224FEA4104640D11BF43F0004300210020BDE87F
:204DEC00FC81744543D0E419A3FB0501A3FB06E7A2FB06631EEB030E57F1000751F1000180
:204E0C00A2FB05631EEB060E57F1000751F10001FF1851F10001C01951F100014CBF4FF40E
:204E2C00806E4FF4007E10EB0E0051F1000148BF641C01D4400049415FF44077FF37E41B06
:204E4C00DEBF00210020BDE8FC8117F58067BC420DD24FEAD02040EA41504FEA41014FEADE
:204E6C00113141EA045141EA0801BDE8FC810020FF21C900C91D090551EA0801BDE8FC81AB
:204E8C0030B5344C606AADF11C0D00283FD0A1780830491CA17004F0FFF90546162D04D0C4
:204EAC00606A042D00F102002AD12B482B4D0168288800282BD02A480068014227D0294851
:204ECC000068014204D128480068008801421ED0264A606A40F20E6315680093001D11A3F7
:204EEC00019300780290A078039000220492204B0592204C06921A88206806A3A84706E0F7
:204F0C000088002105F09CFA2846FEF7F5FE07B030BDC04670726F6A6563745F7A65726F3B
:204F2C002E6300C05265747279696E67206D6573736167652077697468206F70636F646545
:204F4C00203078253032782E20417474656D7074202564002C050020B0DD00001ADD0000D3
:204F6C00400500003C05000044050000C4DD000084050000C8DD00002DE9F04390460A68F6
:204F8C00D8F800401678814600271D46ADF1140D3846531C242E0B6053D112F8016F5B1C98
:204FAC004C2E0B600ED1AA68E41C24F00304241D54F8040C494603F03FF92968EF60012795
:204FCC00091A2960462E1AD1E41C24F00304241D54F8040CE41C029024F00304241D54F8C8
:204FEC00040C002749460390AA68ADF8047001A801F018FB2968EF600127091A2960532E3F
:20500C001FD1E41C24F00304241D54F8040CE861C8F80040288B0090A968EA69D9F800001B
:20502C004346FCF761FAD9F80040002714B10119C9F80010D8F800402968EF60091A01276A
:20504C002960662E0AD12B8B23B9E41D24F00704083403E0E41C24F00304241D1FB9E969F5
:20506C000E700127EF60C8F8004005B0BDE8F08334482DE9F0410D4601683348008806AF2B
:20508C0098461646ADF1200DF8B13048006801421BD02F480068014204D12E4800680088EB
:2050AC00014212D02E4840F296630468009311A20192029503960023049305930693274B4C
:2050CC001A88254B186807A3A047CDF8008038882A4633460190002003F08AFA08B0BDE82E
:2050EC00F081C04670726F6A6563745F7A65726F2E6300C02843422920436861726163741A
:20510C00657269737469632076616C7565206368616E67653A207376632830782530347856
:20512C002920706172616D4944282564292E2053656E64696E67206D736720746F20617031
:20514C00702E00C0ACDD00001ADD0000400500003C05000044050000C8DD00008405000068
:20516C00C4DD00002DE9F043804634480D4601683048008807AF99461646ADF11C0DF8B1DA
:20518C002F48006801421BD02E480068014204D12D4800680088014212D0274840F2A363CF
:2051AC000468009311A20192029503960023049305930693254B1A88254B186807A3A047F0
:2051CC00CDF80090388841462A4633460190012003F00EFA07B0BDE8F083C04670726F6A01
:2051EC006563745F7A65726F2E6300C028434229204368617220636F6E66696720636861A1
:20520C006E67653A20737663283078253034782920706172616D4944282564292E2053650A
:20522C006E64696E67206D736720746F206170702E00C0461ADD0000C4DD0000ACDD000032
:20524C00400500003C0500004405000084050000C8DD00002DE9F0430646ADF11C0D06F0F3
:20526C0001FD04F0B1FE4FF000090546CDF8009006F0A4FB30F0010002D00098A84202D1BC
:20528C006FF0040059E070684C4658B1B0F1FF3F05D001A904F080FE30B107464CE04FF08A
:2052AC00FF3000E02046019006F0D8FC0199012701EB000800E001936868019906F0D6FCB6
:2052CC0000282ED003A804F001FCD8B99DF8100002A904F0E1FB88B9B368BDF808009DF8A1
:2052EC001210059A984748B19DF81270B773BDF80800B081059B33614F4612E005996846D3
:20530C0005F0E0F80198641CB0F1FF3FD4D00028D2D006F0A3FCB8EB000302D001989842CE
:20532C00C9D2009905F1080005F024FA24B1686806F090FC641EFAD1384607B0BDE8F0835B
:20534C002DE9F84307467C68BE6806F0D7FCD4F88810002961D006F0CDFC3168486820F0FA
:20536C00020048603168486A20F003004862D4F8A000756941683269096845EA0200C1F886
:20538C0004053168486920F001004861306801250562384605F066FAD4F88800D0F804805C
:2053AC0006F0ACFC814694F8D80058B118F0704F02D1042004F050FE022004F04DFE00208E
:2053CC0084F8D800484606F095FCD4F88810087C042803D003200874D4F88810D4F8A00002
:2053EC004368326970691B6810438540DD623068B0F1804F14BF0B480B4882680868920437
:20540C00A0EB9250401E0860A06800230246C4F8883038469047BDE8F88306F06BFCBDE8EF
:20542C00F883C04600050020300400202DE9F8430746D7F80880D8F800007D68066C16F440
:20544C00F06F466426D1F00910D2700952D395F83C00AC6B401E844288BF041C3846214677
:20546C0004F024FAA86B001BA86308E0A96B384604F01CFA014695F82D00A96318B9A86B60
:20548C00002837D101E00020A86305F1840006F0DDFB2FE0F00A0ED3D8F8000000214468F5
:2054AC004160A96B04F00F04202988BF2021384604F0FCF91AE04FF000094C4602E0A86B23
:2054CC00401EA863A86B88B13846012104F0EEF9D8F80000446814F00F04C0F80490EED0F3
:2054EC00296B686B491E2963401E6863EC77384602F018F9B0090DD3AE6A5EB13846314684
:20550C0004F044FAA862A86A314618B93846091D03F056FBBDE8F8837CB50446084602F026
:20552C00EDFA344E02461821304605F023F805F0EBFC40F2FF32002380B22C210090304608
:20554C0003F0D4FB06F0E0F81C210246304605F011F805F0CBFC02461421304605F00AF810
:20556C0005F086FE02461021304605F003F8204602F0B6F902460C21304604F0FBFF204681
:20558C0005F05EFE1C4D400040F020002870204605F062FE40F010002870204605F090FBA4
:2055AC0002462821304604F0E5FF204605F06CFE400040F06000E870204605F071FEC00089
:2055CC0040F0800005F8080C204605F075FE800040F47C40A5F89300204604F0E1FF02460E
:2055EC000821304604F0C6FF4FF48000A5F2091108607CBD00A00C4049A10C40042998B596
:20560C004CD1274806F0BAFA264C48B9264800F11F010978490838BF206803D3406800E0A7
:20562C00C06820604168214A09781160416812680978914206D0876927B124A20CCA6FF0A0
:20564C00FF01B847022004F01FFD112000F016F901222168164B087C1A7018B11548007824
:20566C00012803D00E2000F009F92168496812488F680FB9CF681FB10021C1610F4F0760A0
:20568C000F4A40F2FF711160002787610D4941610D48FAF729FD192006F0D4FA98BDC046C7
:2056AC00B82E00200C2F0020F42D0020D02108401E2F0020212F0020001004405100070674
:2056CC0000000460020000406949000000000000000000022DE9F843044606F00FFB814602
:2056EC002D48021992F8ED10491ECFB2002F82F8ED704BD12B4D05EB84052E78698836F0CF
:20570C007F0788461AD1F10911D24FF08054D4F8B801806901464046884704F5DC74206873
:20572C00406B0146404688470228F8D121E000EB8800D0F80011002088471AE04FF08054DA
:20574C00D4F8B801006A014640468847D4F8B801806A014640468847D4F8B801006B014670
:20576C004046884701210D4A0D48116001688908FCD306F03F003F2801D0FFF7ABFF6878D3
:20578C0000F03F003F2801D0FFF7A4FF484606F0B1FABDE8F883C04644190020282008607B
:2057AC002820084080D800002DE9F041846845680F68226895F88C30B8B2B2F1804F00FAF5
:2057CC0003F01FFA80FC14BF254B264BDFF898E0886838B995F88C2070469600825905F1FB
:2057EC00A60006E095F88C60204AB60092596044401E9A6058602068083018609A683F015F
:20580C0043F6F078103F08EA07073A439A602368B3F1804F14BF164A164A496821B9714642
:20582C008E5904F10E0105E0DFF84CE05EF806606144491E96601160506090680743976071
:20584C00D5F8A000216942686669126846EA01009062586A40F003005862BDE8F081C04664
:20586C00000500203004002078D8000070D80000100500204004002068D800002DE9F041EB
:20588C00064606F03BFA2D4D8046A91991F8ED00421C002881F8ED204AD1294C04EB8604F8
:2058AC00277807F03F003F2801D0FFF7E7FF607800F03F003F2801D0FFF7E0FF668837F0CA
:2058CC007F001AD1F80911D24FF08054D4F8B801406901463046884704F5DC742068406B25
:2058EC000146304688470128F8D121E005EB8605D5F80011012088471AE04FF08054D4F8FB
:20590C00B801C069014630468847D4F8B801406A014630468847D4F8B801C06A01463046E6
:20592C0088470121074A0848116001688908FCD3404606F0DFF9BDE8F081C04644190020A2
:20594C0080D800002820086028200840F8B52B4F57F81D0CC00850D22F4C29492CC9403CBC
:20596C0004F15C002CC068C968C00EC9012680E80E00FF23234D2448E16EC5F8AB3FB4F871
:20598C006A20C5F8FF6F00F0FFFDA06F804742F60B3442F22B0045F8550C1C4945F8514CD1
:2059AC004FF480730B60002245F8212C45F83D6CC5F8B36FC5F8F36FD5F8F30F06F09EF94E
:2059CC0057F81D1C124A41F0040147F81D1C116821F0F05141F03451116006F08BF90D4868
:2059EC00006804F077F906F0A1F806F0B0F804F08BF906F09EF806F0ADF8F8BD2D100940C8
:205A0C00C4DB000055500C4000000E4000100E40003009402C200940C41C00207FB5314883
:205A2C00E538067804F038FD244D0028E86028D005F0B6F8224A05F14C00062103F028FD2D
:205A4C002048214C01682088D0B120480068014216D01F480068014204D11E48006800889D
:205A6C0001420DD01E48EE23046800930AA2019206230293194B1A88174B186802A3A04713
:205A8C002E7000907FBDC046646174615F736572766963652E6300C052656769737465720A
:205AAC00656420736572766963652C202564206174747269627574657300C046401B002043
:205ACC001CDA0000ACDD00001ADD0000400500003C05000044050000C8DD00008405000047
:205AEC00C0DD000011060020294A2DE9F04180460126284816600768002FFCD0294C2A4FE1
:205B0C00C020443C206007F1080001682348890804D20168090C41F0F00100E072211E4DE0
:205B2C0085F85412002111638768384601F0B4FB40463946FFF7F0FC1C48B038816D40F281
:205B4C000F226FF31F418A4212D901680068C1F30363C0F3034003B15B1E072805D006284F
:205B6C000EBF0720801C00F00F0043EA001028703846FEF71BFC0E4814380068C1680220D6
:205B8C00884740202060064F3E60BDE8F081C046101009409402224302600840AC3F0050F2
:205BAC009404604244600C40A83F00506C130050B40100102B4AF0B538CAADF11C0D02A956
:205BCC0038C10CCA4FF0805681E80C0084684568D6F8D0112068C9688847216822488A6BA8
:205BEC0010408863206840F2F271416495F83C0095F83D202168C0100DEB800080681043DD
:205C0C004863684606F01AF81A4FDFF864E0D6F8D0112B7FDFF854C06A7FA87F496857F83F
:205C2C0023705EF82260AA695CF820300D46206801993E433343A8470F490A1F106840F0B2
:205C4C0010001060086840F001000860A07DFF2806D0E07DFF2803D0086840F440400860B2
:205C6C0007B0F0BD8CD900000DF8FFFF78D9000070D9000060D90000301000402DE9F041B2
:205C8C00DFF8B080044698F800001F4615460E46ADF1380D012804D0FEF720FC404601216A
:205CAC0001704EB166603DB1A56006F027F8224A117819B106F01EF8002038E0491CC9B2B7
:205CCC00117006F017F801251FB9684605F044FC6F46386820607868E060387A2074F868B6
:205CEC006061386900B1A0610021782204F1200001F098FA05A800212422082305F0DEFF20
:205D0C0004F138008DF82C50002105AA05F0D2FF05A800212422082305F0B8FF04F1700063
:205D2C0006490B94002205AB05F0ACFF20460EB0BDE8F0817D1F0020262F0020D3BA0000FF
:205D4C002DE9F0470F46054638686C68D5F80880002852D005F0D2FFD4F8881021B105F046
:205D6C00C9FF0320387448E001263E74C4F8887005F0C0FF94F8A40038B194F88D2020495C
:205D8C00D4F89C00114303F005FDD7F8049005F0B5FF824694F8D80050B919F0704F02D16A
:205DAC00042004F071F9022004F06EF984F8D860504605F09FFFD8F80010486840F0020039
:205DCC00486028463946FFF7EFFCD8F80010486940F001004861207828B961686C3420468E
:205DEC0005F044FF10B13046BDE8F0872846FFF7A7FA2046002105F039FF0020BDE8F08717
:205E0C0000000680F8B505F08BFD05F09BFD044604F00C000C2845D0E0081ED204F002FCDC
:205E2C00234E376805460120014604F0EBFF31686943884211D21F4C8220B0FBF7F0291AE1
:205E4C00204605F053FF204605F04CFF0120FCF79FFD204604F098FF25E0200922D21648C2
:205E6C00610939BF016821F00101016841F0010102460160D2F898004FF0805440F003004B
:205E8C00C2F89800D4F8B8018069014620208847D4F8B801094C806B21688047012020602A
:205EAC00206800E030BF05F041FD01F05BFEF8BD9CDD0000501900208C2108402C200940C1
:205ECC002DE9F0414568876816460C4605F016FF0346A86B3246214630B1184605F00AFFA3
:205EEC004FF0FF30BDE8F081AA6329630024EC7718466C6305F0FEFE05F000FF1D4E8046AF
:205F0C00307820B9022004F0BFF801203070404605F0F0FE1849086840F40070086039687F
:205F2C00886B40F4FA6088636878002818BF201C1ED1696805F1D40005F098FEB8B9AC6339
:205F4C003968886B20F4FA60886305F0D7FE0746307818B1022004F07FF83470384605F01C
:205F6C00C9FE1022696B286BEA77401A2863686BBDE8F081272F002030100040F8B50D4690
:205F8C00EEB2290824BF27494D40274BB400DFF89CC0195900EA05020CEA020200F4E02C8E
:205FAC0085EA0107BCF5E02F00EA070721EA0001C7F3006742EA010201D1510E14D300F43E
:205FCC00E0210F4310D002F4E027B7F5A02707D0B7F5803704BF22F4003242F4A02203E0F2
:205FEC0022F4803242F4C0221A51114CC10D04D3C5F38052A4F1D0018A55000E10D305F093
:20600C007DFE290E03D201220021B24002E00122B2401146236893431943216005F06AFECE
:20602C00F8BDC046006000A000100840007F077FD02002401FB58DF80C0024480168244864
:20604C000088E0B123480068014218D022480068014204D121480068008801420FD022484E
:20606C0040F24D63046800930CA201929DF80C001C4B02901A881A4B186804A3A047032020
:20608C0003A9012203F020F800901FBD70726F6A6563745F7A65726F2E6300C02843422971
:2060AC0020474150205374617465206368616E67653A2025642C2053656E64696E67206DB1
:2060CC00736720746F206170702E00C0ACDD00001ADD0000400500003C0500004405000039
:2060EC00C8DD000084050000C0DD00009EB52348214A083002602248016822480788CFB1BA
:20610C0021480068014215D020480068014204D11F480068008801420CD01E48FF270AA3E3
:20612C00046800971C4F01931C4B02923A88186801A3A0479EBDC046646174615F736572E5
:20614C00766963652E6300C0526567697374657265642063616C6C6261636B7320746F204A
:20616C006170706C69636174696F6E2E2053747275637420257000C090050020401B002007
:20618C00ACDD00001ADD0000400500003C05000044050000C0DD000084050000C8DD0000D9
:2061AC002DE9F0410E46294990461C4606AF8C4672680878BB8851783F881278002502EB3E
:2061CC00012242F62321521A29D0521E052A18D9921F0CD0263A34D1072F30D8C7F1070030
:2061EC00984298BF83B2674407F1080121E0B84225DBC01B9842D8BF83B22380DCF804008A
:20620C000BE0F06805F0D0F980B2B84217DBC01B9842D8BF83B22380F06839180AE0082F65
:20622C000DD8C7F10800984298BF83B207EB0C010F31238040461A4600F0A6F903E00725E1
:20624C0001E025800A252846BDE8F081701700202DE9F04F09AF1D468A46ADF1140D97F8C4
:20626C00049003903F880292084602F0C5FB00264FF0FF081F49019038B1401E18BF0A20E3
:20628C0034D1084600F1040B02E0084600F1020B0490C7B9EC19022C13DA2CB9B9F1180F87
:2062AC000FD0B9F1120F0CD0DAF80C0002992A46381800F069F91CB1DDF80480ABF80040B8
:2062CC0002E00D2600E00726B8F1FF0F0DD00498806850B1046844B17F19B8B20090019AE9
:2062EC00029B039841F21011A047304605B0BDE8F08FC046081D0020F8B505F0FFFC224C7A
:20630C000746A06910F4602F25D0A069400CC6B2700807D2B00803D2F00828BF022602E0FF
:20632C00012600E00026751D68B202F037F9A16906F111020120904081433846A16105F018
:20634C00D9FC04EB8600876847B1606810A20CCA2946B84702E0384605F0CCFCA06918B153
:20636C000A48002105F060F8E07F80080BD367692FB1606808A20CCA6FF00101B847E07FD5
:20638C0000F0FD00E077F8BDF42D00207C2D00200000000000000008000000000000008066
:2063AC00264838B550380468B4F1FF3F08BF002405F0C8F822481749002510380560012042
:2063CC0008601549086002F007FA1448006820B1134800682046FFF787FB12481249056040
:2063EC00124C0A686FF35B4244EA0200086010490868C0F30130012806D10A680D48104066
:20640C0040F400320A6008600B4908680028FCD138BDC0465C600C4008220443800128431F
:20642C00000120438C210840482003400000390104000940FFFFFCFC0C0068426C1300504A
:20644C0094046042B0B501468B681C68E26948682262520824D2D0F8A01049680A685D69A3
:20646C00D2F80415294206D01C68616A21F002016162C2F80455D2F8042519690A4231D0F1
:20648C001A68516A21F001015162D0F8A01049681A6909683830C1F8042505F0D7FBB0BD52
:2064AC001C68626922F001026261D0F88870B7B9626822F0020262601C68626A22F0030270
:2064CC006262D0F8A0005F6944681A69236847EA0200C3F80405084604F0C4F9B0BD084651
:2064EC00FEF72EFFB0BD7047F0B520480127F84201D002F03FFB204D204F214EBD4206D2BC
:20650C0003CD0478A4003459401CA047F6E71D48002800D08047164D164FBD4202D210CD36
:20652C00A047FAE7F0BD03251BE0416808300A1C2A400BD11A1C2A40AB4305D00468043067
:20654C000C600431043BF9D1131C05D0047801300C700131013BF9D1021C2A4001D0A843DC
:20656C0004300368002BE0D17047C046FFFFFFFF0000000000000000F8F6010078F701007C
:20658C0084F6010059C50110002A4AD05FEA000C8B071CD1830722D1102A08D370B4103A2D
:2065AC0078C978C0103AFBD270BC103238D0042A2CD3082A05D30C2A24BF08C908C008C90F
:2065CC0008C008C908C092072AD0920F22E00B780370491C401C521E22D08B07F7D1C307DB
:2065EC0014D18307D8D0121F12D308C903801B0C4380001D121FF8D20AE008C903701B0AB9
:20660C0043701B0A83701B0AC370001D121FF4D2121D05D00B780370491C401C521EF9D142
:20662C00604670472DE9F843002A894607464CBF47F6FF75151C002F08BF002032D0388895
:20664C00002808BF002403D02A4600F0B1F90446281B26DD388828B1291B484612A202F09D
:20666C0077FD0419B868E0B1D7F804802E1BB8F1000F0DD0404604F097FF401DB04207DC59
:20668C00291B484609A2434602F062FD04192E1B122E06DBBB68291B484606A202F058FD2C
:2066AC0004192046BDE8F8833A2000C0222573222C2000C06C696E652025643A20007047C7
:2066CC002DE9F04F09AF5FEA00089A46ADF1140DD7F80490029297F800B0039137D0081CBC
:2066EC0035D0101C33D0B9F1000F30D01948017800242AE0A00038F800604FF6FF7708EBBB
:20670C000005B7421DD0AF78DFB10298039A514604F08AFF0190A0B1780807D3CDF80090EF
:20672C00019A30465B46012101F034F8A878800807D3CDF800902888019A02215B4601F085
:20674C0029F804480178641CE4B2A142D2DC05B0BDE8F08FF8130020F8B5054604F0C8F9EF
