:20000000483F00203196000001CA011001CA011001CA011001CA011001CA011001CA01104A
:1C00200001CA011001CA011001CA011001CA011001CA011001CA01103FCA011082
:20003C003EB52348234B0521102209F0DDFB054621480088F8B1214921480A6800680242D9
:20005C0019D020480A680068024205D11E4800680A68008802420ED01E480468DA200090F9
:20007C000AA00190052002901948028817480968006802A3A04728463EBDC0466C65645FC0
:20009C00736572766963652E6300C0465265676973746572656420736572766963652C2051
:2000BC002564206174747269627574657300C046E00A002018F301007EF3010010F40100A1
:2000DC00400500003C050000440500002CF401008405000024F40100014908607047C04603
:0400FC00B42E0020FE
:200100003C000000000000000000000034010000000000000000000001000000000000006D
:1C01200000000000000000000000000001000000000000000800000000000000BA
:20013C00340000000000000000000000680100000000000000000000010000000000000005
:14015C00010000000000000000000000080000000000000086
:2001700030000000000000000000000098010000040000000000000001000000FFFFFFFFA5
:10019000FF00000001000000080000000000000057
:2001A0002C0000000000000000000000C4010000040000000000000001000000FFFFFFFF4D
:0C01C000FFFFFFFF08000000000000002F
:2001CC0034050000E401000099A1011095A70110A5C2011009B2011045B80110000000000B
:0801EC00000000002E000000DD
:2001F400280000000000000000000000140200000000000000000000FFFFFFFF00000000B1
:080214000800000000000000DA
:20021C00300500003002000069C201106DC101101FC2011095BA011000000000000000008E
:04023C002C00000092
:20024000300500005402000075C20110A9B601109DBF011049B601100000000000000000DE
:040260002D0000006D
:200264002400000000000000000000008002000000000000000000000000000008000000CC
:040284000000000076
:20028800240000000000000000000000A40200000000000000000000000000000800000084
:0402A8000000000052
:2002AC00240000000000000000000000C8020000000000000100000000000000080000003B
:0402CC00000000002E
:2002D0000000000068070020040000000000000000000000200000007001000030000000BA
:2002F0001C020000940700200400000000000000000000000C0000003004000018000000B9
:2003100040020000A007002004000000000000000000000024000000480400001800000038
:2003300000000000A807002004000000000000000000000010000000A00100002C000000FD
:20035000CC010000B00700200400000000000000000000002000000064020000240000003B
:20037000FFFFFFFFD0070020040000000000000000000000280000008802000024000000A0
:20039000FFFFFFFF00080020040000000000000000000000580000003C010000340000005C
:2003B000FFFFFFFF0808002004000000000000000000000010000000600400001800000071
:2003D000FFFFFFFF100800200400000000000000000000001C000000AC02000024000000E7
:2003F000FFFFFFFF1808002004000000000000000000000038000000F40100002800000058
:20041000FFFFFFFF2008002004000000000000000000000054000000000100003C000000F3
:1804300018000000000000000000000040040000080000000000000050
:1804480018000000000000000000000058040000080000000000000020
:18046000180000000000000000000000700400000800000000000000F0
:0804780002000000E4F30100A2
:040480000068704759
:040484000100000073
:0404880000008C0FD5
:04048C000000BC0FA1
:040490003200000036
:040494000100000063
:0404980070070020C9
:04049C00000200005A
:0404A0000000000058
:0404A40001CA011078
:0404A8000000000050
:0404AC00000000004C
:0404B0000800000040
:0404B40000007612BC
:0404B800180C0020FC
:0404BC00010000003B
:0404C000B807002059
:0404C400080000002C
:0404C8000000000030
:0404CC00000000002C
:0404D0000000000028
:0404D4000000000024
:0404D8000000000020
:0404DC00010000001B
:0404E000800C00206C
:0404E400060000000E
:0404E800010000000F
:0404EC00800B002061
:0404F0000000000008
:0404F4000000000004
:0404F80000020000FE
:0404FC0000000000FC
:02050000704742
:020502002800CF
:020504000100F4
:020506002400CF
:020508002C00C5
:02050A002D00C2
:02050C002E00BF
:02050E000100EA
:0105100001E9
:0805140003000000D0F3010018
:08051C000000000000000000D7
:040524000000930D33
:040528000000AD0D15
:04052C0087C401106F
:04053000380500008A
:040534003805000086
:0405380000000000BF
:04053C0090610000CA
:0405400090610000C6
:0405440000000000B3
:04054800B8070020D0
:04054C0077BD000077
:040550002000000087
:0405540038F3010077
:04055800C4F10100E9
:04055C000DC30110BA
:040560004BB9000093
:04056400A9C2000028
:0405680099C801101D
:04056C009BC8011017
:040570000000000087
:04057400FCC30000C4
:0405780018F0010076
:04057C0030F001005A
:0405800000F0010086
:020584000280F3
:020586000380F0
:02058800C0179A
:02058A0001006E
:01058C00016D
:040590000000000067
:040594000000000063
:04059800000000005F
:04059C00000000005B
:0405A00095C2000000
:0405A400ED9F0000C7
:0405A800DDB00000C2
:0405AC0091A9000011
:0405B00087A600001A
:0405B400C1A90000D9
:0405B800B18400000A
:0405BC009FBF0000DD
:0405C000B9880000F6
:0405C40011C8011049
:0405C80021C8011035
:0405CC000800000023
:0405D0002400000003
:0405D400180000000B
:0405D80028000000F7
:0405DC0020000000FB
:0405E0003C000000DB
:0405E4000C00000007
:0405E80034000000DB
:2005EC002DE9F04F09AFADF1440D079009929846089138793C880A900027FF200C90DFF882
:20060C0098A2DFF898B2DFF8989208789EA102280F915ED108984068008842F602118142DC
:20062C0057D1A8480688002E33D0514658460A68006802422DD05546484629680068014222
:20064C0006D1A5485146006809680088014220D00A98FE2802D10FF2882901E00FF29C29AB
:20066C00089808F005FA9D490E6840F2FB110091A5A101910290079803900F9BCDF8109001
:20068C0051460597AD4806970288AB4809680068B047009403200190099A08990798434688
:2006AC0008F0EEFA071C12D1AD4C206878B12068406860B1089808F0DBF902462068099B7D
:2006CC004468CDF80080079841F23011A0473846C3E1089808F0CCF90B900FF28C2C002828
:2006EC0057D0401E24D077480088F8B15846B74900680A68024219D048460A680068024234
:20070C0005D1754800680A68008802420ED0B048046840F229200F9B0090B2A001908748EB
:20072C0002970288844809680068A0470A2094E114200D90B2480E9062480688002E57D069
:20074C00514658460A680068024251D048460A680068024205D1604800680A680088024249
:20076C0046D05E4805684FF409700090CDF804C0ADA0029007980390CDF8108005940A98CE
:20078C0006906E480F9B02886B4809680068A8472EE028200D90B2480E904A4806883EB3B6
:2007AC00514658460A680068024221D048460A680068024205D1484800680A680088024231
:2007CC0016D04648056840F216200090CDF804C0A4A0029007980390CDF8108005940A9813
:2007EC00069056480F9B0288534809680068A8470D98A04240F3D9800D9908EB04000FF271
:20080C006C2C81424EDB08EB0400874229DD0A98182801D0122824D12A480688FEB1584653
:20082C006A4900680A68024219D048460A680068024205D1284800680A68008802420ED07C
:20084C006348056840F23D2000900F9BCDF804C03A4802970288384809680068A8470D2701
:20086C00E6E008980999C0684246201806F08CFA08EB0400874200F3DB800B980C900E990C
:20088C0008EB04000880D3E0646174615F736572766963652E6300C010F401004005000095
:2008AC003C05000007480688002E5BD05846474900680A68024255D048460A680068024298
:2008CC003ED101E07EF30100034800680A680088024247D034E0C0464405000028F4010022
:2008EC002D20726573746F72696E6720626F6E64656420737461746500C046C02D204F543F
:20090C0041207772697465005772697465417474724342202843434344293A207061726198
:20092C006D3A20256420636F6E6E48616E646C653A202564202573002CF4010084050000FC
:20094C00234805684FF40D7000900F9BCDF804C05A48029702885A4809680068A84701E020
:20096C008C0D00200D2763E05772697465417474724342203A20257320636F6E6E48616E19
:20098C00646C6528256429206C656E28256429206F666673657428256429206D6574686F45
:2009AC006428307825303278290042480688002E37D05846054900680A68024231D04846E9
:2009CC000A68006802421DD104E0C0460CF4010024F40100384800680A680088024220D0E5
:2009EC0010E0C04641747472696275746520776173206E6F7420666F756E642E00C046C035
:200A0C00AA0D00203048056840F22F200F9B00901FA0019029480297028829480968006825
:200A2C00A847072704E0C04653747265616D00C00C98FF2810D0234806686EB101680E68F5
:200A4C0056B1006805680B9A099B4444A0B20090079841F23011A847384611B0BDE8F08F96
:200A6C00920D0020537472696E6700C0496E76616C69642076616C7565206C656E677468CE
:200A8C00207761732072656365697665642E00C0416E20696E76616C6964206F66667365A1
:200AAC007420776173207265717565737465642E00C046C07EF30100440500008405000021
:200ACC002CF401008C0D002024F401002DE9FE4F05460024DFF8D882DFF8D892A87800288B
:200AEC0000F08C81DFF808A3DFF80CC3801E00F04181DFF800E3401E012840F20381DFF8A7
:200B0C00DCC2B74FB74EDFF8E092DFF8E0B2801E00F0BB80401E00F08B80401E68D0083876
:200B2C0000F09881801E40F09A81A888ADF8000066463078052855D001208DF80A00C04884
:200B4C000BF09EFB3146C04FBE48C04BC04A0E78012E22D00E78042E1FD00E78032E0FD070
:200B6C00097802290CD0E888ADF802002889ADF804006889ADF80600A889ADF8080033E0E3
:200B8C000088ADF802003888ADF804001888ADF806001088ADF8080026E00188EE88B14229
:200BAC0001DD008800E0E888ADF8020038882989884201DD388800E02889ADF80400188818
:200BCC006989884201DD188800E06889ADF806001088A989884201DD108800E0A889ADF893
:200BEC00080001E08DF80A4068460BF0E3F836E1A2480BF045FB6878002840F03081E88818
:200C0C0038802889308068894D4628808C480BF011F9002840F0238199490868002800F044
:200C2C001E81086803682A8831883888984716E1A8880AF0BDF893482146062206F080FF6F
:200C4C003C803480484604808F49A87908707C480BF016FB89480BF013FB01244FF6FF7012
:200C6C00594608805146087858B9A879082801D1052100E004214046017020460AF044FF31
:200C8C00EDE0032140460170E9E06B7863BB281D7C4902680A608088888068895946088090
:200CAC00062140460170E8893880288A3080698A484601807549E87808706646307801286A
:200CCC0002D03078022808D11F2008F0B3FE4FF47A7141435A4809F09BFBE8786A89291D27
:200CEC00042308F049FD0BE06878312803D008214046017004E071460C7040460421017039
:200D0C000124ACE06F78002F2FD1A87803281ED05F48078847B971460878012802D05146C8
:200D2C000C700BE00C7009E071460A7851460F78174303D00188604609F06AFB40460178CB
:200D4C00072901D1062100E00421017010E042461078062801D1072005E07146087808B1EC
:200D6C00022000E00320107002E0082140460170012474E06F7847BBEF78EFB94046017850
:200D8C00022922D0017807291FD00178062903D151460978012918D10078032815D06046BD
:200DAC000BF048F888B901200AF0AEFE0DE0C046D82E0020DC2E002036494846364B0A7891
:200DCC000078214608F0A6FA68706878002846D0082140460170012441E0C046640A0020A0
:200DEC006E0A0020700A0020720A00205C0A0020130A0020120A0020E02B00206878C8B98E
:200E0C00264A0220102109F0B3F8254A0320102109F0AEF8ED1C234829680160A988818065
:200E2C0001214046017048461F4A204B0078127808F070FA10B108214046017001240EE0D3
:200E4C00042C0020660A0020680A00206A0A00206C0A00202846808805210BF0A7F8012C87
:200E6C000AD11349086838B10868006820B108680168404600788847BDE8FE8F282C0020E1
:200E8C007C0A00205E0A0020750A0020740A0020140A0020360A0020370A0020CC2D0020C3
:200EAC00DC2D0020502E0020160A0020170A0020780A00202DE9F04FADF1340D0E4607921B
:200ECC004FF0000897A10FF2982C071CDFF82C92DFF830A2DFF830B20C915BD07F1E24D04F
:200EEC0049460F88FFB151460A6885490B68134219D05A460B681268134205D1834A126889
:200F0C000B68128813420ED0854A146840F24712009289A2019202907E480C9B02887C4812
:200F2C0009680068A0470220E5E07B4808907B480990012420460A90BF4800680B9048468A
:200F4C000788002F59D05046BC4900680A68024253D058460A680068024205D16B48006815
:200F6C000A680088024248D0B548056840F243100090CDF804C081A00290039640460490A1
:200F8C000590069063480C9B0288614809680068A84732E0AB480890AB4809900124204619
:200FAC000A90AA4800680B90484607882FB35046A24900680A6802421FD058460A68006891
:200FCC00024205D1514800680A680088024214D09B4805684FF49C700090CDF804C069A007
:200FEC0002900396404604900590069049480C9B0288474809680068A847B4424FDBB44246
:20100C004DDC08980799324605F0BEFE09980680201C6FD048460088002832D050468749EA
:20102C0000680A6802422CD058460A680068024205D1364800680A680088024221D00B9840
:20104C00807838B10B988078012801D14FA202E054A200E058A27A48046840F25710009013
:20106C005CA001900B98008802900392404604900590069027480C9B02882548096800685A
:20108C00A047072000907248007801907148724B02900B980899424605F0E6FB2AE04846A1
:2010AC00008828B35046164900680A6802421FD058460A680068024205D1144800680A68F7
:2010CC000088024214D05E4805684FF4B07000904BA00190029603940494CDF814800D485D
:2010EC00CDF818800C9B0288094809680068A8474FF0180840460DB0BDE8F08F7EF3010005
:20110C000CF40100400500003C050000440500002CF4010084050000C70D0020C80D002060
:20112C0024F40100627574746F6E5F736572766963652E6300C046C0536574506172616D2A
:20114C00657465723A20506172616D6574657220232564206E6F742076616C69642E00C07D
:20116C00536574506172616D65746572203A202573206C656E3A20256400C04642555454FD
:20118C004F4E3100425554544F4E30004E6F74696669636174696F6E20656E61626C656497
:2011AC0000C046C0496E6469636174696F6E20656E61626C656400C01B5B33336D4E6F7436
:2011CC00692F696E642064697361626C65641B5B306D00C0547279696E6720746F2073658D
:2011EC006E64206E6F74692F696E643A20636F6E6E48616E646C652025782C20257300C018
:20120C004C656E677468206F75747369646520626F756E64733A204C656E3A202564204DCF
:20122C00696E4C656E3A202564204D61784C656E3A2025642E00C046702E002010F401008A
:20124C0028F40100C20D0020C40D00206C2E0020C00D002039260000A00900202DE9F04F61
:20126C0009AFADF13C0D079009921E46089138793C880A900025FF200C90084607F024FC40
:20128C000B90DFF87492DFF87882DFF878B2A349DFF88CC20FF28C2AADA3002854D0401E36
:2012AC0024D048460088F8B14046944900680A68024219D058460A680068024205D1924899
:2012CC0000680A68008802420ED09248046840F2ED10009097A001908D48029502888B48E8
:2012EC00096800685346A0470A2001E120200D9089480E9048460788002F51D040460A68CC
:20130C00006802424CD058460A680068024205D17D4800680A680088024241D060460768D6
:20132C004FF4F470009001939AA0029007980390049605940A9806907548028873480968FA
:20134C0000685346B8472BE001200D90A7480E904846078827B340460A68006802421FD0A1
:20136C0058460A680068024205D1674800680A680088024214D0604607684FF4ED70009051
:20138C00019386A0029007980390049605940A9806905F4802885D48096800685346B84711
:2013AC000D98A0426BDD0D9930190FF2F81C81423FDB3019012181422ADD0A98182801D089
:2013CC00122825D14846078807B3404601684B4802680A421AD059460A68014608681042BE
:2013EC0005D1494800680288086810420ED04948076840F201200090CDF804C04448029559
:20140C0002884248096800685346B8470D255AE008980999C0683246201805F0B5FC3019C6
:20142C00012181424FDC0B980C900E993019088049E04846078807B3404601682F48026809
:20144C000A421AD059460A6801460868104205D12D4800680288086810420ED02D4807686F
:20146C004FF4FC700090CDF804C02948029502882648096800685346B8470D2523E0484664
:20148C000788FFB140461D4900680A68024219D058460A680068024205D11B4800680A683F
:2014AC00008802420ED01B48076840F2F310009045A00190164802950288144809680068B5
:2014CC005346B84707250C98FF2810D0484807686FB101680F6857B1006807680B9A099B6A
:2014EC00A419A0B20090079841F21011B84728460FB0BDE8F08FC0467EF301000CF4010085
:20150C00400500003C050000440500002CF401008405000024F401003A0D002010F40100C1
:20152C0028F401006C65645F736572766963652E6300C046417474726962757465207761BA
:20154C0073206E6F7420666F756E642E00C046C05772697465417474724342203A2025732E
:20156C0020636F6E6E48616E646C6528256429206C656E28256429206F666673657428253E
:20158C006429206D6574686F64283078253032782900C0464C45443100C046C04C45443042
:2015AC0000C046C0496E76616C69642076616C7565206C656E6774682077617320726563EE
:2015CC0065697665642E00C0416E20696E76616C6964206F66667365742077617320726545
:2015EC00717565737465642E00C046C0160D0020100D00202DE9FE4FB84C0F460646F80B65
:20160C0080F04781B80880F0D480B54DDFF8D892DFF8E0B2DFF8E882DFF8F4A22C68B80F4D
:20162C0067D2B0480678002E47D1380947D3AF4801264946067000240C70204605F0B7FA7F
:20164C00AB48FEF751FDAC49224658460AF00FFEAA48017801291CD141460B78CBB9A94E3F
:20166C00306880B10AF0EAFA2B68A8493668A64D0A68C01A000B82182860B2EBC61F28BFC0
:20168C000C6007D20A60A4484FF000510AF094FA2CE00670504640F609010180417B01F005
:2016AC00F00141F0010141734480017B01F0F00101734460974E306018E0390914D2B80BB4
:2016CC00C0F004819D48001D0AF0D8FD061C08D0706830B17468F068B6F91C1098A20CCA26
:2016EC00A04727F40057F1E00021017027F00807ECE0ECB104200AF015F8C8B10AF09EFA5D
:20170C00864A29681060814226BF401A401E401A000BF060F06800F58D70F060F16840F6AE
:20172C00C410884203D340F2EE228A4200D9F0600024D6F818C02C60BCF1000F10D050466A
:20174C000D30007810F00F0F0AD1708C40F60901814205D17CA20CCA30466FF48071E04715
:20176C006F49584622460AF082FD4546287850B10220ADF80000684609F0BAFE2C70BDF883
:20178C0008006849088049460120674A674B087010781C70401C107019200AF053FB756922
:2017AC0025B16BA20CCA30462146A84727F000578CE004F10C0A50460AF060FD061C5FD075
:2017CC0008F007FD7368B2690025B561E3B1F37F42F002024FF00009904603F007035B1E00
:2017EC0007D05B1E03D09B1E06D15BA002E05CA000E05DA090E800037268F068B6F91C10EC
:20180C004B4694464246E0470AF0EEFD8046B4F91200401C6FF31F306082E0681F30017839
:20182C0001F07F01017050460AF03EF940460AF0D7FDF068B0F99410B4F9122091421FD158
:20184C003B49097801291BD090F896409CB904688CB1384909680968B1F1FF3F10D0364964
:20186C0009687030B4FBF1F10AF0B6FDF06870300AF0AEFD04E080F89650284606F0E0FDED
:20188C0050460AF0FBFC27F0020708B147F002071CE00AF0A9FD0146204608300AF0EEFC37
:2018AC000646B46908460AF09BFDA0080CD25EB17068B169A143B16130B17568F068B6F991
:2018CC001C1000232246A84727F480471FB1124839460AF071F9BDE8FE8FC046A42D00203E
:2018EC00A42E0020D12E0020CD2E0020CB2E0020997D0000042D0020A1B20000CF2E0020C0
:20190C00CA2E0020802E0020AC2E0020642E0020B82D002000100440C42A0020A82E0020CC
:20192C0085530000882C0020DA2E0020CC2E0020F2080020B02E002000F40100A42D0020AF
:20194C00000000002000000000000000000000020000000000000004000000000000001045
:20196C00000000000000004000000000000000202DE9F04FADF1340D0E4607920024012194
:20198C000B91DFF818B2DFF818A2DFF818920FF2542C071C0FF214285BD07F1E24D07D4989
:2019AC000F88FFB159460A687B490B68134219D052460B681268134205D14A4612680B6821
:2019CC00128813420ED0784A14684FF49A7200927AA201920290BA480288B8480968006869
:2019EC004346A0470220D1E0B6480890B648099014200A9020460B90B448076865480588F7
:201A0C00002D55D05846B24900680A6802424FD050460A680068024205D1484600680A68A0
:201A2C000088024244D0AB4805684FF498700090CDF804C072A0029003962046049005902A
:201A4C0006909F4802889D48096800684346A8472EE0A1480890A148099028200A904D48B5
:201A6C0007882FB358469A4900680A6802421FD050460A680068024205D1484600680A6869
:201A8C000088024214D09348056840F225100090CDF804C05CA0029003962046049005900C
:201AAC000690874802888548096800684346A8470A98B04240DBB4423EDC08980799324696
:201ACC0005F062F9099806800B9800285DD031480088002859D058467D4900680A680242B7
:201AEC0053D050460A680068024205D1484600680A680088024248D0B87830B1B878012877
:201B0C0001D143A202E048A200E04CA2714805684FF4A270009050A00190388802900392F5
:201B2C002046049005900690654802886348096800684346A84728E01648008820B35846E2
:201B4C00154900680A6802421ED050460A680068024205D1484600680A680088024213D06E
:201B6C005C48056840F24D10009046A00190029603940A98049005945148069402884F4860
:201B8C00096800684346A847182420460DB0BDE8F08FC0467EF301000CF4010040050000A7
:201BAC003C0500004405000024F40100646174615F736572766963652E6300C053657450BF
:201BCC006172616D657465723A20506172616D6574657220232564206E6F742076616C69A4
:201BEC00642E00C0536574506172616D65746572203A202573206C656E3A20256400C04660
:201C0C0053747265616D00C0537472696E6700C04E6F74696669636174696F6E20656E611A
:201C2C00626C656400C046C0496E6469636174696F6E20656E61626C656400C01B5B3333B2
:201C4C006D4E6F74692F696E642064697361626C65641B5B306D00C0547279696E672074CB
:201C6C006F2073656E64206E6F74692F696E643A20636F6E6E48616E646C652025782C207E
:201C8C00257300C04C656E677468206F75747369646520626F756E64733A204C656E3A20E3
:201CAC002564204D696E4C656E3A202564204D61784C656E3A2025642E00C0462CF40100AC
:201CCC0084050000950D0020AA0D0020842E002010F4010028F401003C0D0020920D0020BA
:201CEC002DE9F04114460E460027A14BDFF888C2A04ADFF88882A24DA0F201311A2900F2FC
:201D0C007481DFE811F068015E01560172011B011301F900DF00D400C900BF00B400A900A7
:201D2C00720172019F00920085007A006D007201720172017201550072011B00012E35D130
:201D4C001946087801282FD01146087822780A7088B10E787EB960460178032906D00178F5
:201D6C00072903D00078052840F04981404600780AF010F843E1002840F041810E78002EC3
:201D8C0000F03D8160460178012909D00178042906D00178062903D00078052840F02F81EB
:201DAC00012009F0B1FE2AE1122728E1182726E12078012E12D1012810D192480AF03AF801
:201DCC0050B93846294605F0E7FB071C40F017818D480AF055FA12E1162710E118270EE1D2
:201DEC002088022E07D10A2805DBB0F5486F02DC0835288003E1182701E12088022E05D143
:201E0C00B0F5FA7F02DAAD1D2880F8E01827F6E02088022E07D1062805DBB0F5486F02DC65
:201E2C002D1D2880EBE01827E9E02088022E07D1062805DBB0F5486F02DCAD1C2880DEE0AA
:201E4C001827DCE0012E05D12078062802DA20782870D4E01827D2E0012E06D12078042835
:201E6C0003DA207869490870C9E01827C7E0012E06D12078082803DA207865490870BEE021
:201E8C001827BCE0062E01D01827B8E0614821680160A1888180B2E0012E06D12078042866
:201EAC0003DA20785C490870A9E01827A7E0012E06D12078042803DC2078584908709EE05D
:201ECC0018279CE0202E01DB182798E0544D39461F22284605F034FE21463246284604F023
:201EEC0053FF50490E70404600780A782B46394607F010FA074682E0202E01DB18277EE086
:201F0C00494D39461F22284605F01AFE21463246284604F039FF45490E70404600780A78DF
:201F2C002B46012107F0F6F9074668E0022E01D0182764E020883E49088060E0012E36D1D6
:201F4C0011460878012830D01946087822780A70C0B10E78B6B960460178022902D0007888
:201F6C0005284CD14046007809F014FF47E0C046120A0020130A0020D82E0020DC2E00200B
:201F8C00640A002000283AD10E78002E37D060460178012905D00178042902D0007805287E
:201FAC002DD1012009F0B0FD29E0122727E0182725E0042E01D0182721E020681D4908602A
:201FCC001DE0102E01D0182719E01B482146102204F0DAFE13E0102E01D018270FE017485A
:201FEC002146102204F0D0FE09E0282801DA022E01D0022703E0218808F006F907463846EE
:20200C00BDE8F081282C0020042C0020D62E0020D32E0020560A0020D42E0020D52E0020D0
:20202C00370A0020360A0020170A0020160A0020140A0020882E0020DC2D0020CC2D0020FC
:20204C002DE9F04F09AFADF13C0D00900292388801911E46ADF83400101C08BF002000F0CA
:20206C00828100274FF0010B00F10109B846DA466BE1252940F062811078521C02922D283A
:20208C0018BFADF8228004D11078ADF822B0521C029230281CBF4246434605D1114608784F
:2020AC005B465A46491C02912A284FF0FF3516D128460B93346809900299CDF81C80E01CF6
:2020CC004B1C20F00300001D306050F8044C08780293002C44BFADF822A0644212E0444668
:2020EC0009E0610001EBC40140180299A0F130040878491C0291302801DB3A28F1DB0B93A9
:20210C00294609912E282BD10299087843462A2801F10101029111D1099330680794C01C4E
:20212C0020F00300001D306050F8045C002D48BF454608780995491C029112E045460AE0EF
:20214C00690001EBC50140180299A0F1300508782B46491C0291302801DB3A28F0DB0993B9
:20216C0007940AB122460B926C2804D04C2818BFADF8208005D102990878ADF820A0491C45
:20218C00029103A9CDF8288007AB0E9164280C9300F08B80692800F08880BDF834C0752841
:2021AC0072D078286ED06F286AD0702850D063283DD073281ED0019802990128A1F1010158
:2021CC00029115D96B490C68B5F1FF3F03D0A84288BF6D1C00D8019D0995684602A93246F4
:2021EC0007ABA047C71902990A9801F1010974E040462AE030680299C01C20F00300001DFE
:20220C00306050F8040CBCF1000F01F10109014608B956A001460E9109F06AFD0A90B5F18E
:20222C00FF3F5BD0A842C4BF281C0A9056E03068C01C20F00300001D306010F8040C5D46B9
:20224C008DF80C0002990A95584601F1010945E0082035680B90E81C20F00300001D3060C4
:20226C0050F8041C0822102307A805F071FE401E0E904021017002990E9801F1010929E066
:20228C00082302E0102300E00A230299306801F10109C01C20F00300001D306050F8041CB2
:2022AC00AA42BCBF2A1C0B9210E00299306801F10109C01C20F00300001D306050F8041CA5
:2022CC00AA42BCBF2A1C0B926FF0090307A805F03FFE0E900C9D281A0A90079CBDF822506F
:2022EC00241A65B906E06846202101AA08F036FD079C7F1C641E0794F5D50A9800E0079489
:20230C000546401E0A9075B9BDF82200E8B10798401E079019D46846202101AA08F01EFDA2
:20232C0007987F1CF4E70E98411C0E91017801AA684608F013FD0A987F1CE1E7684601AAA2
:20234C0008F00CFD7F1C09F101094A46029812F8011C401C002902907FF48BAE009808B16C
:20236C004146017038460FB0BDE8F08F286E756C6C2900C038F401002DE9F041ADF1800D8D
:20238C008C4E8D49304608F0CFFB8C4C002120460AF01AF88A4804608B498A4804F076FE9A
:2023AC008A49086008B90AF00BF88948894904F06DFE8949086008B90AF002F88748884987
:2023CC0004F064FE8749086008B909F0F9FF8648864904F05BFE864C206008B909F0F0FFCC
:2023EC002068844909F020FE08B109F0E9FF03A800212422082309F0DFFF0D2009907E4C27
:20240C00DFF8FC8120684FF47A753227B5FBF0F007FB00F2794803AB414609F0C9FFFF20EF
:20242C00099020683A46B5FBF0F04243754803AB414609F0BDFF07F02BFD05F0E1FC08F04A
:20244C00A3FC01248DF800400025ADF8025040F205306A462146FFF743FC40F2063002218D
:20246C000DF10202FFF73CFC674A4FF442702146FFF736FC654A40F207301121FFF730FC7F
:20248C00A0270620394607F0BFFE3946072007F0BBFE3946082007F0B7FE3946092007F0C8
:2024AC00B3FE20461E2107F0AFFE019527468DF808708DF809708DF80A508DF80B704FF4F6
:2024CC008160042101AA07F057FC4FF48060214602AA07F051FC40F2024021460DF1090297
:2024EC0007F04AFC40F2034021460DF10A0207F043FC40F2064021460DF10B0207F03CFC5E
:20250C004FF0FF3009F044FE4FF0FF3009F054FE09F080FB3E4A2846152109F011FA34462F
:20252C002078FDF785FD207802F0B2FF207803F0A1FB384802F03AFC374802F04FFA37483E
:20254C0002F094FB0CA82946282205F0F9FA344916A8282204F018FC284639460CAA00F079
:20256C002DFC384620210CAA00F028FC284639460CAAFEF79FFC38460CAA0146FEF79AFC64
:20258C002846282116AAFFF7F3F9384614210CAAFFF7EEF9234808F023FE234808F01CFC91
:2025AC00207809F0EDFD207809F0EEFD20B0BDE8F081C046DD2E0020C02E0020182E00208D
:2025CC008C2E00203C2E002078080020A02E0020302E002084080020782E00200C2E0020B3
:2025EC008C080020682E0020242E002094080020742E002051A4000000F40100502B0020F0
:20260C0045630000742B002048080020490800205A080020BC080020C4080020CC08002020
:20262C009CF10100B0080020B40800202DE9F04F09AFADF1340D07900A930992089197F869
:20264C000890B8883F880B900024084606F0E4F9DFF840B2DFF844A29349DFF850E20FF283
:20266C0084180FF2B01C002853D0401E24D085480088F8B1844985480A680068024219D0A9
:20268C0083480A680068024205D1584600680A68008802420ED08248056840F2D110009073
:2026AC0055A001905046029402887B48096800684346A8470A2092E07A480588714806888C
:2026CC00002E51D071480A68006802424CD070480A680068024205D1584600680A68008800
:2026EC00024241D0704606684FF4E6700090CDF804C057A00290079803900497CDF81490E4
:20270C005046069402886448096800684346B0472AE0674805885B4806882EB35B480A6881
:20272C000068024220D05A480A680068024205D1584600680A680088024215D0704606680E
:20274C0040F2C1100090CDF804C043A00290079803900497CDF814905046069402884E4856
:20276C00096800684346B047BD4213DB0B99E81B884203DC0A98ED1B058002E00A990B9860
:20278C0008800898C06839180A980288099804F0FBFA23E03B480088F8B13B493B480A68A6
:2027AC000068024219D03A480A680068024205D1584600680A68008802420ED038480568F3
:2027CC0040F2D710009026A001905046029402883148096800684346A847072420460DB01F
:2027EC00BDE8F08F627574746F6E5F736572766963652E6300C046C0417474726962757417
:20280C006520776173206E6F7420666F756E642E00C046C052656164417474724342203A45
:20282C0020257320636F6E6E48616E646C653A202564206F66667365743A202564206D655B
:20284C0074686F643A2030782530327800C046C0425554544F4E3100425554544F4E3000DD
:20286C00416E20696E76616C6964206F666673657420776173207265717565737465642E64
:20288C0000C046C07EF301000CF40100400500003C050000440500002CF40100840500007A
:2028AC0024F40100C80D002010F4010028F40100C40D00202DE9F04F09AFADF1340D079068
:2028CC000A930992089197F80890B8883F880B900024084606F0CCF8DFF83CB2DFF840A2A8
:2028EC009249DFF84CE20FF284180FF2AC1C002853D0401E24D084480088F8B18349844854
:20290C000A680068024219D082480A680068024205D1584600680A68008802420ED08148FB
:20292C0005684FF4E570009054A001905046029402887A48096800684346A8470A2092E00C
:20294C007948058870480688002E51D070480A68006802424CD06F480A680068024205D1EB
:20296C00584600680A680088024241D07046066840F2C5100090CDF804C056A0029007988B
:20298C0003900497CDF814905046069402886348096800684346B0472AE0664805885A48EF
:2029AC0006882EB35A480A680068024220D059480A680068024205D1584600680A68008857
:2029CC00024215D0704606684FF4DD700090CDF804C042A00290079803900497CDF814904B
:2029EC005046069402884D48096800684346B047BD4213DB0B99E81B884203DC0A98ED1B3C
:202A0C00058002E00A990B9808800898C06839180A980288099804F0B7F923E03A480088DE
:202A2C00F8B13A493A480A680068024219D039480A680068024205D1584600680A68008860
:202A4C0002420ED0374805684FF4E870009025A0019050460294028830480968006843464B
:202A6C00A847072420460DB0BDE8F08F646174615F736572766963652E6300C04174747213
:202A8C00696275746520776173206E6F7420666F756E642E00C046C05265616441747472EE
:202AAC004342203A20257320636F6E6E48616E646C653A202564206F66667365743A202550
:202ACC0064206D6574686F643A2030782530327800C046C053747265616D00C05374726950
:202AEC006E6700C0416E20696E76616C6964206F66667365742077617320726571756573B8
:202B0C007465642E00C046C07EF301000CF40100400500003C050000440500002CF4010015
:202B2C008405000024F40100AA0D002010F4010028F40100920D00202DE9F04F09AFADF184
:202B4C00340D07900A930992089197F80890B8883F880B900024084605F0B6FFDFF83CB216
:202B6C00DFF840A29249DFF84CE20FF284180FF2AC1C002853D0401E24D084480088F8B1B0
:202B8C00834984480A680068024219D082480A680068024205D1584600680A680088024288
:202BAC000ED08148056840F2A110009054A001905046029402887A48096800684346A84734
:202BCC000A2092E07948058870480688002E51D070480A68006802424CD06F480A680068E7
:202BEC00024205D1584600680A680088024241D0704606684FF4CE700090CDF804C056A0A6
:202C0C000290079803900497CDF814905046069402886348096800684346B0472AE066486A
:202C2C0005885A4806882EB35A480A680068024220D059480A680068024205D1584600689F
:202C4C000A680088024215D07046066840F291100090CDF804C042A00290079803900497F4
:202C6C00CDF814905046069402884D48096800684346B047BD4213DB0B99E81B884203DCFA
:202C8C000A98ED1B058002E00A990B9808800898C06839180A980288099804F075F823E0FF
:202CAC003A480088F8B13A493A480A680068024219D039480A680068024205D158460068CE
:202CCC000A68008802420ED03748056840F2A710009025A001905046029402883048096872
:202CEC0000684346A847072420460DB0BDE8F08F6C65645F736572766963652E6300C0465A
:202D0C0041747472696275746520776173206E6F7420666F756E642E00C046C0526561646B
:202D2C00417474724342203A20257320636F6E6E48616E646C653A202564206F6666736525
:202D4C00743A202564206D6574686F643A2030782530327800C046C04C45443100C046C0DC
:202D6C004C45443000C046C0416E20696E76616C6964206F666673657420776173207265BD
:202D8C00717565737465642E00C046C07EF301000CF40100400500003C05000044050000F6
:202DAC002CF401008405000024F401003A0D002010F4010028F40100160D00202DE9F04F23
:202DCC00ADF12C0D0E4607920024DFF840B2DFF840A2DFF8409294490FF2C41C071C0FF2F2
:202DEC00881856D07F1E24D086490F88FFB159460A6885490B68134219D052460B68126845
:202E0C00134205D14A4612680B68128813420ED0894A14684FF48C72009257A201920290F1
:202E2C007E4802887C48096800684346A047022096E07B4808907B48099020200A90714847
:202E4C000788002F53D058460A68006802424ED050460A680068024205D1484600680A68B9
:202E6C000088024243D0714805684FF48A700090CDF804C051A00290039620460490059040
:202E8C000690664802886448096800684346A8472DE0674808906748099001200A90594863
:202EAC00078827B358460A68006802421FD050460A680068024205D1484600680A68008878
:202ECC00024214D0594805684FF486700090CDF804C03CA002900396204604900590069032
:202EEC004E4802884C48096800684346A8470A98B04202DB0120B0422ADD4248008828B349
:202F0C005846414900680A6802421FD050460A680068024205D1484600680A6800880242B2
:202F2C0014D0424805684FF49270009027A001900296012003900A98049005943748069449
:202F4C0002883548096800684346A847182406E008980799324603F017FF0998068020469D
:202F6C000BB0BDE8F08FC0466C65645F736572766963652E6300C046536574506172616D27
:202F8C00657465723A20506172616D6574657220232564206E6F742076616C69642E00C01F
:202FAC00536574506172616D65746572203A202573206C656E3A20256400C0464C454431D8
:202FCC0000C046C04C45443000C046C04C656E677468206F75747369646520626F756E649D
:202FEC00733A204C656E3A202564204D696E4C656E3A202564204D61784C656E3A20256468
:20300C002E00C0467EF301000CF40100400500003C050000440500002CF401008405000084
:20302C00190D00203A0D002010F4010028F40100150D0020160D002024F401002DE9F04FC2
:20304C000128ADF1140D40F0F280DFF81492D9F8DC00012840F0E9800220C9F8DC0009F036
:20306C00A3F90290012006F051FA20B101210646C9F8DC10D5E009F093F903906E484FF006
:20308C000008C0F80080012008F04CFB012818BFCDF8008004D1404605F01CFE0120009024
:2030AC0066486E4CC0F800801934D4F8FF0F112008F0C6FF00280CBF46460126102008F081
:2030CC00BFFF08B146F002060F2008F0B9FF08B146F004060B2008F0B3FF30B15848006899
:2030EC005849006B0246088890470A2008F0A8FF0028404618BF01204FF0805B0BF5DC752F
:20310C0028B128685049006B0246088890474F480127076028688069014646F0200088477C
:20312C004B48076008F086FF00F001010191400815D2484808F0E7FE8246BAF1040FF8D09E
:20314C00BAF1010F06D1DBF8D801406802464148032190474049086820F0030008604046B7
:20316C0000F080F82868D4F8FF1F806B8047019801280ED0BAF1010F06D1DBF8D801406829
:20318C0002463448394690473349086840F0030008602A48076028684069014630468847E4
:2031AC000B2008F04DFF28B128682649C06A0246088890470A2008F043FF28B128682249AB
:2031CC00C06A024608889047204807600322C9F8DC201F4BC3F800802868406B01463046BC
:2031EC0088470128F8D1042006F090F9124807601A48D4F8FF1F01688909FCD300980128C7
:20320C0002D1384605F066FD08F008FF082006F07DF906460398C9F8DC7009F0BDF805F0CF
:20322C008DFA029809F0B4F802E0042600E00126304605B0BDE8F08F0C400940000222435E
:20324C00B801001072DF00006EDF0000282008608001044300400340242208401410094005
:20326C00500600202DE9F84F82467A48DFF8D89135380068800880F0D88007F061FE0546DF
:20328C0078480830D0F8008000244FEA2876761C5FEA98500AD2C5F13E0015F10A0F4FEAFC
:2032AC00E000D8BF08208642B8BF061C634FD7F87C01C0F3046008F01FFE83463868C0F3BC
:2032CC00044008F019FE06EB0B020090162A05DA12F10A0FB8BF6FF0090200E01522584B2B
:2032EC00584F02F01F0141F4F8511980396811F0030F18BF0124C90828BF44F00204BAF1A5
:20330C00000F18BF44F00404494691F90730EB1A052B04DA8B79A34208BF888864D0DFF851
:20332C002CE10F2DA5F10F0C25DB0CEB0513A3F1F00C4FEA2C27072F88BF07273E46062EF9
:20334C0088BF06265EF82600042303EB86037646F3581B1A03F0FF06E00824BFC3F30720F8
:20336C000644A00824BFC3F307400644600828BF06EB136601E0002637465EF827E0E008A3
:20338C000EF0FF0324BFCEF307200344A00824BFCEF307400344600828BF03EB1E630098DF
:2033AC00B6B2ACEB07277E43801A06F1800603EB1623D8BF0120342208F0FF0742437A4387
:2033CC00B2FBF3F04FF6FF72824238BF101C802D80B2888005DA15F1800FB8BF6FF07F05FF
:2033EC0000E07F25CD718C71194A12681F280A604FF0000208D340F2FF11814206D2400833
:20340C00521C8142FBD301E01F208880124F11490F38000942EAC00247EA0200C1F8FB0F8A
:20342C000026C1F8FF6FBDE8F88F0D4F0B4E494608203760891D0870BDE8F88F3C1100501D
:20344C006E62084024220840482E00209C130050082009403500094000E7A48030100940A2
:20346C00FDFDA400AC3F00502DE9F0411C4615468C4208BF854282BF00230022E5E0002C90
:20348C0008BF002D0AD100290EBF00286FF000006FF0000100F0E1F8BDE8F0815FF000083E
:2034AC005FF0000E002C08BF8D429CBF2C1C0025070C47EA01470E0CB44208BFBD429EBF5A
:2034CC005FEA044444EA15445FEA0545070A47EA01670E0AB44208BFBD429EBF5FEA0424E9
:2034EC0044EA15645FEA0525470847EAC1774E08B44208BFBD4200F29380870847EA81771F
:20350C008E08B44208BFBD427CD8C70847EA4177CE08B44208BFBD4266D8070947EA0177B8
:20352C000E09B44208BFBD4250D8470947EAC1674E09B44208BFBD423AD8870947EA81670D
:20354C008E09B44208BFBD4224D8C70947EA4167CE09B44208BFBD420DD8E60146EA55661D
:20356C00EF01B14208BFB84201D3C01BB14158EB08085EEB0E0EA60146EA95664FEA85179B
:20358C00B14208BFB84201D3C01BB14158EB08084EEB0E0E660146EAD5666F01B14208BF26
:2035AC00B84201D3C01BB14158EB08084EEB0E0E260146EA15762F01B14208BFB84201D322
:2035CC00C01BB14158EB08085EEB0E0EE60046EA5576EF00B14208BFB84201D3C01BB14135
:2035EC0058EB08084EEB0E0EA60046EA9576AF00B14208BFB84201D3C01BB14158EB0808DF
:20360C004EEB0E0E660046EAD5766F00B14208BFB84201D3C01BB14158EB08085EEB0E0EEC
:20362C00A14208BFA84201D3401BA14158EB08085EEB0E0EA34208BFAA423EBF2D0A45EA26
:20364C000465240A89D3734642461E4617460B46024631463846BDE8F08170472DE9F04FB9
:20366C0009AFADF1240D9A460E4681460792684CDFF8A4B1694D30780FF2341802285AD143
:20368C007068008842F60211814254D12488002C30D058465F4C0068216801422AD02868AC
:2036AC002168014205D15E48006821680088014220D03879FE2802D10FF2CC0B01E00FF2A6
:2036CC00E40B304605F0A8F958490D684FF4FF7100913CA101910290CDF80C90CDF810B0A2
:2036EC00002005900690504802884E48216800684346A8473888009003200190079A534614
:20370C003146484605F0BCFA071C12D1484C206878B12068406860B1304605F07DF9024638
:20372C0020684468CDF800A0079B4FF489514846A047384625E0304605F06EF92088F8B10A
:20374C0058463C4900680A68024219D028680A68024205D1324800680A68008802420FD018
:20376C00354804684FF40470009022A00190002002902D4802882B48096800684346A0474D
:20378C000A2009B0BDE8F08F2D20726573746F72696E6720626F6E6465642073746174651F
:2037AC0000C046C02D204F544120777269746500627574746F6E5F736572766963652E633E
:2037CC0000C046C05772697465417474724342202843434344293A20706172616D3A202584
:2037EC006420636F6E6E48616E646C653A20256420257300417474726962757465207761F8
:20380C0073206E6F7420666F756E642E00C046C07EF3010010F40100400500003C0500008B
:20382C00440500002CF401008405000028F40100BC0D00200CF4010024F401002DE9F84318
:20384C00814608F0E5FB002100B901216B4E30680028FCD06C4D01242D1DEF6A346009B1AD
:20386C0008F0DCFBDFF89881C7F3072008F1BC01086008F0CDFB002100B9214630680028BD
:20388C00FCD02F68346009B108F0C8FBC7F38440C8F8C00008F0BCFB0146002001B920467C
:2038AC00014630680028FCD0ED69346009B108F0B5FBC5F38120C8F8D000B9F5C061C8F865
:2038CC00B81000F0968098F8D80068B9C8F8D410D8F8C000C8F8C800D8F8BC70C8F8C470D9
:2038EC00D8F8D060C8F8CC60D8F8D410D8F8BC60002954BF02206FF00100454605F1C80326
:20390C001A6801EB41014018411000EB917002EBA0021A60D5F8C810C5F8C46000291CDDA5
:20392C001E293DDDD5F8CC0030B93429B4BF15391E21C5F8C81025E02A29BABFD5F8C80040
:20394C000B381E20C5F8C800D5F8C4003F28B4BF401C3F20C5F8C4001FE0D5F8CC000328EB
:20396C0012D011F10B0FC6BFD5F8C8000B30201CC5F8C800D5F8C4000028CCBF401E002065
:20398C00C5F8C400032009E011F1150FC6BFD5F8C8001530201CC5F8C8000020C5F8CC009F
:2039AC00B5F8C400174E30214FF47F4208230090304605F01BFD009404214FF40032112330
:2039CC00304605F013FDB5F8C80004214FF4F80212230090304605F009FDB5F8CC00202199
:2039EC004FF440620A230090304605F0FFFCBDE8F883002088F8D800BDE8F88300800C402F
:203A0C005006002000A00C4000A00C402DE9FC416F4C204608F032FC15460E46009008F07B
:203A2C00E3FC05F001078046B6F1FF3F0DD1606820B9B4F91200401C06B202E06068B0F94E
:203A4C001C6064490020C91C0870304607F0DAF80326002800F0A4806168814270D0009FA5
:203A6C00DFF848C1B84231D03FB100990A68904209D0096800290091F7D1832E44D040467B
:203A8C0008F0AEFC40E0604607F0B6FD00990868AA0803D202680B4601461A6000220A6070
:203AAC00009078B10C340146C87F40F00400C877684607F0F9FF0146204606F075FC0098B7
:203ACC000028F0D1404608F08BFC1CE0604607F093FDA8083ABF2068006800202060404604
:203AEC0008F07EFC0C340099C87F40F00400C877684607F0D9FF0146204606F055FC0098AC
:203B0C0008B1A808EFD2832629482C4A007890B928480078012846D02748FCF7E5FA022193
:203B2C00104608F049F82648007801283BD02548FCF7DAFA37E01046022108F03DF832E0CD
:203B4C00A90803D32168009100262660C27F0121B9401143C17708F023FC0646002F14BFBF
:203B6C0019481A4807F0C4FC404608F039FCA80811D3009878B10C340146C87F40F00400B5
:203B8C00C877684607F090FF0146204606F00CFC00980028F0D1304608F0FEFB832602E088
:203BAC00404608F01DFC3046BDE8FC81982B0020CC2E0020CB2E002001160000C42A00208F
:203BCC00CD2E0020295F00000100020401000104A42D0020882C00202DE9F04FADF1840DE0
:203BEC00209001F0AFFA05F0DDFB0024012804D107F0D6FE022808BF012459490868C0F3DA
:203C0C008150012805D151F80C1C0120090E884004435448007807F019FBDFF84C81DFF876
:203C2C004CA1C8F8000030B15246FF2107467F1E02F8011BFBD120990968002501F0FF0225
:203C4C00FE2A1BD0DDF880C052462B46012701F0FF06FF2E0BD0B04203D907FA06F63442C0
:203C6C0001D0022079E001F0FF01354353545CF8041F5B1C01F0FF06FE2EEAD1092002F0F6
:203C8C008DFA3B49209824220823086001A8002108F07AFB4FF0010901AA3E488DF81C909A
:203CAC00494608F06DFBD8F800303BB33A4E00274FF0040BBA4609FA07F0044218D10542AE
:203CCC0004BF07F0FF0141F4C04104D027482099C05D51F82010274802F0B6FCF8B24FF05A
:203CEC00FF3107F049FDD8F80030C6F800A001E0C6F800B07F1C361D9F42DCD30AA800214D
:203D0C003022082308F038FB1B4D1D4A2878002410210AAB12901948009408F029FB16A805
:203D2C0028220823214608F01FFB686816AA16491C9014481D94234608F012FB134A52F8CC
:203D4C000D0C494620F4F85040F4005042F80D0C0F4BC2F8FF1F2046196021B0BDE8F08F76
:203D6C00B43F0050D22E0020602E00204C2C0020B82E0020007FC767DCF30100CC2C0020F3
:203D8C00A1B70000902A0020419400000D30094008000940E82C0020EC28002070B50C465A
:203DAC0001460025594A5A4BA0F540701D2810D8DFE800F097918B87817D79726B67635D65
:203DCC005955510F4C48433F3A34302C280F24201C18282901DB022586E0084605F02AFE15
:203DEC00208081E04148007820707DE040480078207079E03F480078207075E03E480078FD
:203E0C00207071E03D48008820806DE03C480088208069E03B480088208065E03A480168EB
:203E2C0021608088A0805FE01046801C008820805AE010460088208056E01846801C008804
:203E4C00208051E01846008820804DE01046801F0078208048E02F480088208044E02E4864
:203E6C000078207040E02D48007820703CE02C48016821608088A08036E02A48007820705F
:203E8C0032E02948007820702EE0284A28491278204602F079FF27E0264A27491278204669
:203EAC0002F072FF20E02548008820801CE024480078207018E02348016821608088A08019
:203ECC0012E02148006820600EE020492046102202F05AFF08E01E492046102202F054FF2D
:203EEC0002E01C4800782070284670BD750A0020740A0020130A0020D82E0020720A002091
:203F0C00700A00206E0A00205E0A00206A0A0020660A00205C0A0020D62E0020D32E0020EC
:203F2C00560A0020D42E0020D52E0020360A0020370A0020160A0020170A0020140A002030
:203F4C00120A0020502E0020882E0020DC2D0020CC2D0020D72E00202DE9F84F9A46934628
:203F6C000D46044608F040FADFF85C810AAFB8F91220B8F91010009040F6F870891A08402C
:203F8C00082880F29280B8F91000401C6FF31F30A8F81000B8F9109007F0FAFA064604F166
:203FAC00700007F029FBB56086F81EB0C6F804A0F460A6F81C9097E80C0051A003C800259D
:203FCC001040F577D8F8002006F11007194087E80300002A5CD14046314606F0E5F9002800
:203FEC005BD0A4F894904448F17F0778DFF8DCA041F08001F17784F8965067B151460F784A
:20400C004FB1344A3449324B0570012015700A781870521C0A70009808F0E2F9D8F80400D0
:20402C0000284ED15146087800282DD12B480078012846D008F0D8F9054629480078F8B918
:20404C00B06804F071FE284B2C4A26491B681268086038B9284608F0C3F92448042107F081
:20406C00ABFD2EE0D0680968214C091AB1FBF3F1204608F0B1F9204608F0AAF928461EE040
:20408C001C4901200870F9E7192007F0DBFE18E04046314606F088F950B9B8F9100000F601
:2040AC00FF706FF31F30A8F810006FF0010905E0A4F89490F07F40F08000F077009808F000
:2040CC008FF94846BDE8F88FA42D0020CD2E0020D12E0020CA2E0020DA2E0020CC2E00200D
:2040EC00CB2E0020802E002000F40100C42A0020982B0020CE2E0020D02E0020B02E0020AF
:20410C00F1EFFF9F200000002DE9F047ADF1280D5E4801884FF47A7000FB01F35C490A8853
:20412C0093FBF2F297B25B4A12880988504390FBF1F01FFA80FA00263446DFF85C8130468C
:20414C00202804DA28F81040401C2028FADB3046282805DAFF2100F80D10401C2828FADBE9
:20416C0051461F2004F008F910B14FF0FF3089E04A4D284608F026F83946304608F028F8A8
:20418C000146182004F0F8F810B14FF0FF3079E0284608F017F8424935460D80414802880D
:2041AC00B24252DDDFF8009101273D48008801284BD0032007F060FD30B9D9F8000003219A
:2041CC003A4605F0EBFC05E0D9F8000003212A4605F0E4FC04F07AFE414621F81400641CB8
:2041EC00202C00DB2C463148018842F6E060484307F0E8FF41200DF815004D210DEB450011
:20420C004170761C0DF817600DEB4701301248700220142810DA211A491C00D5203118F87B
:20422C0011200DF8102038F811100DEB400209125170401C1428EEDB284628216A46FDF7E9
:20424C0097FB18480088B042AFDC1748006803212A4605F0A3FC5146182004F08DF810B163
:20426C004FF0FF300EE041200DF8150046210DEB450041706A4628462821FDF779FB0C48E3
:20428C00048028460AB0BDE8F087C046AC080020EE080020AA080020502A0020804F12000D
:2042AC00AE080020A6080020A02E0020A8080020A20800202DE9FC415E4C574D574EDFF8A9
:2042CC0060815A4F94F8E410481E0B2861D8DFE800F07B2C43062343062343067664042970
:2042EC0007D001220A2945F8212C14BF0220032004E02021012045F8211C024684F8E2007D
:20430C00002045F8390C0827C5F8FF7FC5F8F37F45F8392CBDE8FC81052914BF0920062042
:20432C00002584F8E400356070E094F8E1700120383D002FC5F81B0004BF0620002102D0B1
:20434C000021F160032084F8E400032045F8010C31603068800859D294F8E4000125032852
:20436C000DD00021404660220523009105F03EF894F8E400062814BF0A200720D1E70220AB
:20438C000090002160220523404605F02FF80420C7E707F0E1FFBDE8FC812249002622484E
:2043AC000E60012505600E2001F024FE022006F0C5F984F8E45084F8E360BDE8FC81002030
:2043CC0038600C2578601FE01948006800680146202088472C3D41F61D560F2000214FF404
:2043EC00C072072345F8010C4046C5F803600225009504F0FBFF404600214FF4C072072375
:20440C0005F03AFA0120386084F8E45004F1780007F0DEFFBDE8FC8139400C4038600C40F2
:20442C0000A00C402C500C4004800C4034600C40A0010010500600202DE9F041ADF1200DD3
:20444C000646594C254605F1A607B08848B1B388391B284640A207F065FA204607F048FC4A
:20446C002C18B6F80280308807F0A2F84AA20CCA01F016FA4AA20CCA01F012FA05F06AF89A
:20448C000090391B36A24346204607F04BFA284607F02EFC2A18DFF81481D8F800002946AD
:2044AC00521B07F04AFE2C46F08800282DD007F04FFF84463E48008870B9B0680090F068EF
:2044CC00391B2BA263460190284607F02BFA204607F00EFC2C182FE0F0680090306901901F
:2044EC0070690290B0690390F0690490306A0590706A0690B368391B6246284607F012FA85
:20450C00204607F0F5FB2C1816E0B2683069009070690190B0690290F0690390306A049096
:20452C00002005900690F368391B284607F0FAF9204607F0DDFB2C180D2004F8010B0A2045
:20454C0004F8010B404600682946621A07F0F5FD08B0BDE8F081C04623253036752000C0AE
:20456C005B2025642E25303375205D2000C046C07B6576743A20666D743D25702C20617241
:20458C0067733D5B307825782C2030782578202E2E2E5D7D00C046C0000000000000F03E4F
:2045AC000000000000408F4040280020E40D00208A0500002DE9F04190460E4600250828F2
:2045CC0000F29380DFE800F0877767574737270F05C0072E01D0182588E0464811463246D6
:2045EC0002F0D2FB82E0304606F06EFC071C10D0414C42492068814202D0206806F0D8FE2C
:20460C0038464146324602F0BFFB27603C4806706CE013256AE0142E01DD182566E0394CEE
:20462C0029461522204603F08BFA41463246204602F0AAFB5AE0142E01DD182556E0324CA3
:20464C0029461522204603F07BFA41463246204602F09AFB4AE0142E01DD182546E02B4CCA
:20466C0029461522204603F06BFA41463246204602F08AFB3AE0142E01DD182536E0244CF1
:20468C0029461522204603F05BFA41463246204602F07AFB2AE0142E01DD182526E01D4C18
:2046AC0029461522204603F04BFA41463246204602F06AFB1AE0142E01DD182516E0164C3F
:2046CC0029461522204603F03BFA41463246204602F05AFB0AE0082E01D0182506E00F4883
:2046EC001146324602F050FB00E002252846BDE8F081C046960900209009002082090020EE
:20470C00940900206C09002056090020400900202A09002014090020FE080020F508002080
:20472C00B0B5456884685148297BADF1180D01291AD001462F7E227E637E4D4837F0010722
:20474C0041EA020240EA030001904A48009218BF011CA27E1143029195F88D200323FF2AB8
:20476C0013D0014610460DE0A17E627E237E41F00041024343F00043029195F88D000093B3
:20478C003D490192014304230391FE2105F190004DF82310694602F079FCC5F89C00002841
:2047AC0008BF00205FD0287B344951F8200001282BD02068B0F1804F14BF22220A22217E50
:2047CC00D5F89C0006F008FA2068B0F1804F14BF21220922617ED5F89C0006F0FDF9206877
:2047EC00B0F1804F14BF24220C22A17ED5F89C0006F0F2F995F88D10FF2933D02068B0F10F
:20480C00804F14BF23220B2228E02068B0F1804F14BF21220922217ED5F89C0006F0DCF964
:20482C002068B0F1804F14BF22220A22617ED5F89C0006F0D1F92068B0F1804F14BF242218
:20484C000C22A17ED5F89C0006F0C6F92068B0F1804F14BF23220B2295F88D10D5F89C0011
:20486C0006F0BAF9012006B0B0BDC046000480A0004000800004C0A0002000800CDF000066
:20488C002DE9F04FADF1140D00F08CFFDFF81C81DFF81CA1DFF810B1DFF82091484E454634
:2048AC0044464FF0FF3006F003FE38BB00200190694601AA0DF1020005F0C0FCF0B9BDF8F0
:2048CC000200102816D19BF800009DF80010884210D1019801884FF6FF728A4208D1408883
:2048EC00C00B07D3384A0420014605F041FB01E004F0DCFB019808B106F09AFD98F80000CE
:20490C0040083BD3287800F0FE00287029489AF800700078074331D09AF800707FB92B482C
:20492C0000788DF808002A4800788DF8090022490A680DF10A0002608988818002E0032090
:20494C008DF80800234800788DF81000224800788DF811009BF8000002A907F021FB68B164
:20496C00082089F80000376847B1306807682FB130460068016899F8000088472878800835
:20498C0007D3207800F0FD0020700E49002002F003FE40460078C00883D3207800F0FB0013
:2049AC00207005F091FA7CE7DC2E0020100A0020130A0020120A0020560A0020D82E0020F5
:2049CC00780A0020640A0020882E0020D52E0020D42E0020D32E0020D62E00202DE99F473F
:2049EC00DFF830C1454A4749DFF81CA1DFF81C91DFF81CE1DFF8208125A310BB1788F7B186
:204A0C0008683F490A68024219D0524610680A68024205D14A4610680A68008802420ED033
:204A2C0042464FF48A70146800901EA001900020029060460968028870460068A0470120D1
:204A4C0022E0364C20601788EFB10A6834490C68144218D052460C681268144205D14A4624
:204A6C0012680C68128814420DD04246146840F20F12009215A20192029060460968028809
:204A8C0070460068A04700200090BDE89F87C046627574746F6E5F736572766963652E6307
:204AAC0000C046C04E756C6C20706F696E74657220676976656E20666F72206170702063E4
:204ACC00616C6C6261636B732E00C046526567697374657265642063616C6C6261636B738B
:204AEC0020746F206170706C69636174696F6E2E2053747275637420257000C07EF3010039
:204B0C0014F40100400500003C050000440500002CF401008405000024F40100BC0D002005
:204B2C0010F401002DE9F04305466E68AF680C46ADF1340D07F058FC96F8D910012903D1F2
:204B4C0007F04EFC002084E04FF0010886F8D98007F046FC4FF00009C6F8889020693061F4
:204B6C0060697061207E3076207B307320783070606886F8A490706060694946092828BF1B
:204B8C00414686F88C10387B01F008FB284603F0EBFCF87E86F88D002846FFF7C1FD50B9CD
:204BAC00387B01F027FA07F01FFC86F8D99007F017FC4D464CE001A849463022082307F0B6
:204BCC00DBFB06957A790992CDF80090224A397906F11C0001AB07F0CBFB01A828220823BD
:204BEC00494607F0C1FBB96807911C49059506F1380001AA4B4607F0B3FB307878B901A81D
:204C0C0049462422082307F0BFFB06F16C008DF81C80494601AA07F0B3FB114800E0A06833
:204C2C00B06003F0E7FD317BC6F8A000012908D1D6F89C000B4907F0F7F9D6F89C0000B1B4
:204C4C008560094A06F1C40004212B4606F0A0F928460DB0BDE8F083196B0000858E000056
:204C6C00ADC100005D9C0000C5C000002DE99F47DFF828C1434A4549DFF814A1DFF814915D
:204C8C00DFF814E1DFF8188124A310BB1788F7B108683D490A68024219D0524610680A68DC
:204CAC00024205D14A4610680A68008802420ED042464FF48270146800901CA00190002074
:204CCC00029060460968028870460068A047012021E0344C20601788E7B10A6832490C68D6
:204CEC00144217D052460C681268144205D14A4612680C68128814420CD042461468FF224A
:204D0C00009214A20192029060460968028870460068A04700200090BDE89F87646174615F
:204D2C005F736572766963652E6300C04E756C6C20706F696E74657220676976656E20664B
:204D4C006F72206170702063616C6C6261636B732E00C04652656769737465726564206380
:204D6C00616C6C6261636B7320746F206170706C69636174696F6E2E205374727563742040
:204D8C00257000C07EF3010014F40100400500003C050000440500002CF4010084050000BE
:204DAC0024F401008C0D002010F401002DE99F47DFF828C1434A4549DFF814A1DFF8149131
:204DCC00DFF814E1DFF8188124A308BB1788EFB108683D490A68024218D0524610680A68AC
:204DEC00024205D14A4610680A68008802420DD04246EE20146800901CA0019000200290C9
:204E0C0060460968028870460068A047012021E0344C20601788E7B10A6833490C681442CF
:204E2C0017D052460C681268144205D14A4612680C68128814420CD042461468E9220092E2
:204E4C0014A20192029060460968028870460068A04700200090BDE89F87C0466C65645FB0
:204E6C00736572766963652E6300C0464E756C6C20706F696E74657220676976656E206623
:204E8C006F72206170702063616C6C6261636B732E00C0465265676973746572656420633F
:204EAC00616C6C6261636B7320746F206170706C69636174696F6E2E2053747275637420FF
:204ECC00257000C07EF3010014F40100400500003C050000440500002CF40100840500007D
:204EEC0024F40100100D002010F401002DE9F041424C474D8046C8F38140401E02D0401E12
:204F0C002AD025E0284620300168880C20D24FF4804020603A48D0F802204B0AC1F30337A7
:204F2C0003F0800322F08F02134347EA0302C0F80220D0F801300E1266F30303C0F8013085
:204F4C00026801F0E70722F0E70247EA020102E04FF00041204601602A4E06F108000068C5
:204F6C00C0F3C0070FB94020A0624FF40070206406F050FF40F0300084F8C800C8F38150D5
:204F8C0038B3401E03D0401E1ED002211DE0012006F0C8FB07460420394604F0D7F80420CC
:204FAC0006F0C0FB8742FAD1366826F07F4005F0ADFB15480068036807214FF06022300E39
:204FCC0098474FF4806020600321042004F0BEF806E00420012104F0B9F80C4805F096FBA6
:204FEC00284600680B4947F6180700F03F0084F8CB0F094E0F803068BDE8F08140A00C40DA
:20500C000A600840A83F0050B4010010BD3786006C13005070B00C402C20094070B5ADF1C9
:20502C00380D00F08FF8324908682822082340F00200086001A8002107F096F92D4EB078BB
:20504C002E4907902C48002301AA07F089F900213022082301A807F08FF9002519213078AE
:20506C00284AADF81C5001AB09902548009507F07FF92822082301A8294607F075F9F07891
:20508C0022490790204801AA2B4607F069F93022082301A8294607F06FF901241A217078E9
:2050AC001C4AADF81C4001AB09901948009507F05FF9194819492A46134607F079F918489E
:2050CC00FBF712F81849194E0C70164835704FF6FF728283C577164B1D70164C2570164946
:2050EC000D70174E3560154A15700EB070BDC04600200940F4F30100C42A00208DBB0000B1
:20510C00042D0020A1B20000F82A0020CD6900003C2D0020898D0000982B002039A8000004
:20512C00295F00006C2C0020CA2E0020CF2E0020CC2E0020CB2E0020D02E0020D12E00207E
:20514C00A42E00202DE9F041444C94F8E700ADF1280D00286FD1394F387B01250021242204
:20516C0084F8E7507E6884F8E6000823C4F80C6101A807F021F9002604F10C00069601ABAB
:20518C00ADF814602E490796324607F011F92D4904F1300001AB324607F00AF92A4904F13C
:2051AC00540001AB324607F003F9B868014628468847DFF89C8025487B7B0078D8F8041022
:2051CC00C1F381571BB1032F03D184F8E150032F16D0022F14D0012F26D103201D4C009048
:2051EC0031464FF040521C23204604F0FFF8009531464FF400720923204604F0F7F813E0A2
:20520C00022005F0B3FA032F0CBF4FF47A7142F21071114800685434B1FBF0F1204607F0AB
:20522C00DBF8204607F0D4F8D8F80000C00802D2304605F09BFA0AB0BDE8F08180F30100B6
:20524C00CB7F0000E1720000C97A0000D22E0020B03F005000A00C4000F4010050060020AC
:20526C002DE9F0430746880FADF1140D75D303F093FF404D00261C352E60394845F81C0CF1
:20528C00012001F094FC3748FAF72EFFBC68B14640F60A01344A6680537B118090465680F8
:2052AC00107BC2F8049003F0F00300F0F000107343F00103537300E01C46636813B1188852
:2052CC008142F9D1C4F80480607B00F0F0006073264806F0D3FF80680088C91F81421DD029
:2052EC00491C81421AD03B8CC3B197F82C107E8497F82D00C7F8249001F0F00100F0F00097
:20530C0087F82C1040F0010087F82D0007F12003C8F80430507B00F0F0005073B86869469D
:20532C0006F0F6F8684606F06DFDB86801F015FE28680028FCD02E60012006F0F3F901280D
:20534C0008D0607B00F0F00040F0010060730848FAF7CAFEB86845F81C0C05B0BDE8F0834F
:20536C0001010E0401160000B82D0020A42D0020DD8B0000001004402DE9F04106F028FBE4
:20538C003F4D3E4EDFF8FC800446A00820D330464168E9B1002242608B690A690F692240F3
:2053AC001A4342F0020205F108038A611A68BA4301F110071A6097E80C002A680C301B1CD0
:2053CC009A432A6004F0F0FF4046022106F0F4FB7068A10815D200F1100191E80C000027D3
:2053EC0002EA04013B40002B08BF002909D081691440B0600C4384614FF48041404606F03F
:20540C00DBFB7068002837D1304606F037FF071C32D01E48F9680068884228D1B86803F0D6
:20542C0083FC19490860E8B905F1080138690A68104308602B6807F1100494E80300081C67
:20544C001843286000222A61B86845F80C0C05F1100000680028FAD0304606F025FB776078
:20546C00BDE8F081086802F0EBFFBDE8F08140464FF4805106F0A0FBBDE8F081A42D002076
:20548C000C100440C42A0020802E0020B02E00207FB50546334C2078800005F0EDFC324957
:2054AC00086008B913203FE009684FF6FF7004F0DFFA2078800005F0DFFC2C49086008B9ED
:2054CC00132031E009684FF6FF7004F0D1FA2848284B0721102204F08FF90646264800889D
:2054EC00F8B1264926480A680068024219D025480A680068024205D1234800680A680088E5
:20550C0002420ED023480468FE2000900CA00190072002901E4802881C480968006803A30F
:20552C00A0471D480570304600907FBD627574746F6E5F736572766963652E6300C046C019
:20554C005265676973746572656420736572766963652C2025642061747472696275746557
:20556C007300C046D92E00206C2E0020702E0020A0090020DCF201007EF3010010F40100F8
:20558C00400500003C050000440500002CF401008405000024F40100C00D00202DE9F8432F
:2055AC0008AFBE883F881D46904689460024D9F804004178D9F80400007800EB012080B2D6
:2055CC0042F62321401A49D0401E05282ED9801F15D0263856D1072F0FD8C7F10700B04267
:2055EC0003D8C7F10700288000E02E8028492A884046C91901F0C8FB46E0072444E02549AD
:20560C000878B84210DB0878C01BB04203DC0878C01B288000E02E801F482A88006839188A
:20562C00404601F0B1FB2FE007242DE0D9F80C0006F05EFB80B2B8420EDBC11BB14202DC06
:20564C00C01B288000E02E80D9F80C002A883918404601F099FB17E0072415E0082F0FD80D
:20566C00C7F10800B04203D8C7F10800288000E02E800A492A884046C91901F085FB03E0DA
:20568C00072401E02C800A242046BDE8F883C046960900209409002090090020F50800203A
:2056AC0098B50446374AA1781023601D02F0BEFA207900B3401E5AD1A179607900EB01207F
:2056CC0087B2E079217A00EB012081B238460C380ED0401E09D0401E04D0401E47D12A4861
:2056EC00018044E02948018041E0294801803EE0284801803BE060792949002831D0401EF8
:20570C0028D0401E21D02449801E0CD0801E04D0801E12D0801E0CD029E00846008830B321
:20572C0000F0EEFF23E00846008800B300F0E8FF1DE01A490120088019E0002014210CA218
:20574C00FCF716F9FEF7E0FC11E002F059FB05F01BFB0CE0084662790068032104F01EFA7B
:20576C0005E0084662790068032104F017FA98BD4D6561737572696E6720416D7065726FFA
:20578C0021212100EC2D0020AC080020AA080020A8080020A6080020A2080020AE0800207D
:2057AC00A02E00202DE9FE433A482C4905F0A6F939480024047039484FF6FF71018004F049
:2057CC009FFB2749087001200094274F0190254822461346394603F0CFF90226224623481C
:2057EC00009439461346019603F0C6F9204825462A463946009504241346019403F0BCF9D3
:20580C001C480470DFF8709010222946484602F097F9DFF8688010222946404602F090F9BB
:20582C00174F284638601749087017490870174A072111701649087010214A46304604F034
:20584C007BFB03201021424604F076FB20463A46014604F071FBBDE8FE83C046BC2E0020C2
:20586C00D92E0020E02B002015BB0000042C0020282C0020D72E0020CC2D0020DC2D0020CF
:20588C00882E0020D52E0020D42E0020D32E0020D62E0020DC2E0020D82E00205C0A0020C6
:2058AC002DE9FC4191EA03084CBF4FF000484FF000084FEAC32545EA52554FEAC2264FEAD9
:2058CC0043077F0D11BF45F0004500210020BDE8FC815FF4E06E1EF1FF0E774555D04FEA62
:2058EC00C12343EA50534FEAC0224FEA4104640D11BF43F0004300210020BDE8FC8174457C
:20590C0043D0E419A3FB0501A3FB06E7A2FB06631EEB030E57F1000751F10001A2FB056385
:20592C001EEB060E57F1000751F10001FF1851F10001C01951F100014CBF4FF4806E4FF4B7
:20594C00007E10EB0E0051F1000148BF641C01D4400049415FF44077FF37E41BDEBF00214E
:20596C000020BDE8FC8117F58067BC420DD24FEAD02040EA41504FEA41014FEA113141EA04
:20598C00045141EA0801BDE8FC810020FF21C900C91D090551EA0801BDE8FC812DE9F043A4
:2059AC0090460A68D8F800401678814600271D46ADF1140D3846531C242E0B6053D112F80D
:2059CC00016F5B1C4C2E0B600ED1AA68E41C24F00304241D54F8040C494602F095FF2968A0
:2059EC00EF600127091A2960462E1AD1E41C24F00304241D54F8040CE41C029024F00304B4
:205A0C00241D54F8040C002749460390AA68ADF8047001A801F054FA2968EF600127091A56
:205A2C002960532E1FD1E41C24F00304241D54F8040CE861C8F80040288B0090A968EA69B8
:205A4C00D9F800004346FCF7FBFAD9F80040002714B10119C9F80010D8F800402968EF6020
:205A6C00091A01272960662E0AD12B8B23B9E41D24F00704083403E0E41C24F00304241DAA
:205A8C001FB9E9690E700127EF60C8F8004005B0BDE8F0832DE9F043ADF11C0D054606F0BD
:205AAC0053FC03F08BFA07464FF00009CDF800904C4606F007FB30F0010002D16FF0040048
:205ACC005FE017B96FF004005BE0686870B16868B0F1FF3F06D0686801A904F0FFFD061C0B
:205AEC0006D04EE04FF0FF30019001E0CDF80490012606F025FC019901EB000800E001931D
:205B0C007868019906F018FC00282ED003A804F0C9FBD8B99DF8100002A903F0C7FF88B991
:205B2C00AB68BDF808009DF81210059A984748B1BDF80800A8819DF81200A873059828618D
:205B4C004E4612E00599684604F065FD641C0198B0F1FF3FD4D00028D2D006F0F1FBB8EB26
:205B6C00000302D001989842C9D2009907F1080005F0B5F824B1786806F0DAFB641EFAD12E
:205B8C00304607B0BDE8F0832DE9F84307467C68BE6806F029FCD4F88810002961D006F03D
:205BAC001FFC3168486820F0020048603168486A20F003004862D4F8A00075694168326925
:205BCC00096845EA0200C1F804053168486920F001004861306801250562384605F0ECF9D4
:205BEC00D4F88800D0F8048006F0FEFB814694F8D80058B118F0704F02D1042004F09EFD89
:205C0C00022004F09BFD002084F8D800484606F0E7FBD4F88810087C042803D0032008746A
:205C2C00D4F88810D4F8A0004368326970691B6810438540DD623068B0F1804F14BF0B4861
:205C4C000B48826808689204A0EB9250401E0860A06800230246C4F8883038469047BDE8E1
:205C6C00F88306F0BDFBBDE8F883C04600050020300400207FB505462B480078800005F071
:205C8C000FF92A49086008B9132031E009684FF6FF7003F0EDFE2648264B0621102203F0E2
:205CAC00ABFD064624480088F8B1244924480A680068024219D023480A680068024205D108
:205CCC00214800680A68008802420ED021480468EE2000900BA00190062002901C48028876
:205CEC001A480968006803A3A0471B480570304600907FBD646174615F73657276696365CC
:205D0C002E6300C05265676973746572656420736572766963652C202564206174747269EE
:205D2C00627574657300C046D92E0020842E0020800A0020F0F201007EF3010010F4010031
:205D4C00400500003C050000440500002CF401008405000024F40100900D00207CB504466D
:205D6C00084602F005FA344E02461821304604F007FF05F0F3FC40F2FF32002380B22C217C
:205D8C000090304603F032FB06F04CF81C210246304604F0F5FE05F0D3FC024614213046FE
:205DAC0004F0EEFE05F038FE02461021304604F0E7FE204602F004F902460C21304604F0D0
:205DCC00DFFE204605F010FE1C4D400040F020002870204605F014FE40F010002870204635
:205DEC0005F0A6FB02462821304604F0C9FE204605F01EFE400040F06000E870204605F045
:205E0C0023FEC00040F0800005F8080C204605F027FE800040F47C40A5F89300204604F05A
:205E2C00C5FE02460821304604F0AAFE4FF48000A5F2091108607CBD00A00C4049A10C40D9
:205E4C00F8B52D4E3168C90801D3022052E02B4A38C8114638C138C838C119C881E819005B
:205E6C002A4DFF21A5F148000160012405F10C00046002F110010E3221480968128800F00D
:205E8C0083FF2548001D006880471E4842F22B02011F0A6042F60B3101601B4A4FF48071FC
:205EAC001160002700F130010F6014300460A5F1400004602C60286806F096FA316841F05F
:205ECC0004013160124A116821F0F05141F03451116006F085FA0F48006804F0CDFA06F0ED
:205EEC00AAF906F0B8F904F0E1FA06F0A7F906F0B5F93846F8BDC04610100940BC2B00209A
:205F0C0000000E4004500C4000100E4048600C40003009402C200940D42B0020042998B58E
:205F2C004CD1274806F0AAF9264C48B9264800F11F010978490838BF206803D3406800E08F
:205F4C00C06820604168214A09781160416812680978914206D0876927B124A20CCA6FF077
:205F6C00FF01B847022004F001FC112000F016F901222168164B087C1A7018B1154800781A
:205F8C00012803D00E2000F009F92168496812488F680FB9CF681FB10021C1610F4F076077
:205FAC000F4A40F2FF711160002787610D4941610D48FAF799F8192006F0B6F998BDC04652
:205FCC00A42D0020B02E00206C2C0020D0210840CC2E0020CF2E00200010044051000706EC
:205FEC0000000460020000406D52000000000000000000022DE9F843044606F0F5F98146E8
:20600C002D48021992F8ED10491ECFB2002F82F8ED704BD12B4D05EB84052E78698836F0A5
:20602C007F0788461AD1F10911D24FF08054D4F8B801806901464046884704F5DC7420684A
:20604C00406B0146404688470228F8D121E000EB8800D0F80011002088471AE04FF08054B1
:20606C00D4F8B801006A014640468847D4F8B801806A014640468847D4F8B801006B014647
:20608C004046884701210D4A0D48116001688908FCD306F03F003F2801D0FFF7ABFF6878AA
:2060AC0000F03F003F2801D0FFF7A4FF484606F097F9BDE8F883C046500600202820086074
:2060CC002820084044DF00002DE9F041846845680F68226895F88C30B8B2B2F1804F00FA01
:2060EC0003F01FFA80FC14BF254B264BDFF898E0886838B995F88C2070469600825905F1D2
:20610C00A60006E095F88C60204AB60092596044401E9A6058602068083018609A683F0135
:20612C0043F6F078103F08EA07073A439A602368B3F1804F14BF164A164A496821B9714619
:20614C008E5904F10E0105E0DFF84CE05EF806606144491E96601160506090680743976048
:20616C00D5F8A000216942686669126846EA01009062586A40F003005862BDE8F081C0463B
:20618C0000050020300400203CDF000034DF000010050020400400202CDF00002DE9F04161
:2061AC00064606F021F92D4D8046A91991F8ED00421C002881F8ED204AD1294C04EB8604EA
:2061CC00277807F03F003F2801D0FFF7E7FF607800F03F003F2801D0FFF7E0FF668837F0A1
:2061EC007F001AD1F80911D24FF08054D4F8B801406901463046884704F5DC742068406BFC
:20620C000146304688470128F8D121E005EB8605D5F80011012088471AE04FF08054D4F8D1
:20622C00B801C069014630468847D4F8B801406A014630468847D4F8B801C06A01463046BD
:20624C0088470121074A0848116001688908FCD3404606F0C5F8BDE8F081C046500600209B
:20626C0044DF00002820086028200840294A2DE9F04180460126284816600768002FFCD0B8
:20628C00294C2A4FC020443C206007F1080001682348890804D20168090C41F0F00100E069
:2062AC0072211E4D85F85412002111638768384601F080FC40463946FFF750FD1C48B038EE
:2062CC00816D40F20F226FF31F418A4212D901680068C1F30363C0F3034003B15B1E0728AB
:2062EC0005D006280EBF0720801C00F00F0043EA001028703846FEF7F9FD0E4814380068B8
:20630C00C1680220884740202060064F3E60BDE8F081C0461010094094022243026008405A
:20632C00AC3F00509404604244600C40A83F00506C130050B4010010F8B50646294F3E7002
:20634C000024F0B205F08EFCC5B227483DB9274A00684FF4E021324303F0F2FF06E0244A46
:20636C0000684FF4E021324303F0EAFF224ADFF88CC030460D3818D0F2382BD11D490DB198
:20638C000E7846B9104606782E4323D101240C70604604701EE00C7060460470012418485F
:2063AC000088B8B100F0ACF914E015B11046067846B9104606782E430CD10124047060465D
:2063CC00047007E0047060460470012401F018FD04F0DAFC012C04D104203946022203F017
:2063EC00ABFAF8BDC82E0020742E00200000068000000580A1080020A0080020C92E0020AC
:20640C00A20800202DE9F041DFF8B080044698F800001F4615460E46ADF1380D012804D08A
:20642C00FEF7FCFD4046012101704EB166603DB1A56005F0D9FF224A117819B105F0D0FF41
:20644C00002038E0491CC9B2117005F0C9FF01251FB9684605F024FC6F4638682060786864
:20646C00E060387A2074F8686061386900B1A0610021782204F1200001F062FB05A800212A
:20648C002422082305F080FF04F138008DF82C50002105AA05F074FF05A800212422082366
:2064AC0005F08AFF04F1700006490B94002205AB05F07EFF20460EB0BDE8F081F308002066
:2064CC00DB2E0020E3C100002DE9F0470F46054638686C68D5F80880002852D005F084FF6B
:2064EC00D4F8881021B105F07BFF0320387448E001263E74C4F8887005F072FF94F8A400D1
:20650C0038B194F88D202049D4F89C00114303F0A3FCD7F8049005F067FF824694F8D800AC
:20652C0050B919F0704F02D1042004F01FF9022004F01CF984F8D860504605F051FFD8F8F1
:20654C000010486840F00200486028463946FFF7BBFDD8F80010486940F0010048612078F7
:20656C0028B961686C34204605F0E6FE10B13046BDE8F0872846FFF707FB2046002105F051
:20658C00DBFE0020BDE8F08700000680F8B505F03FFD05F04FFD044604F00C000C2845D0A2
:2065AC00E0081ED204F05AFB234E376805460120014605F06EF831686943884211D21F4C33
:2065CC008220B0FBF7F0291A204605F005FF204605F0FEFE0120FCF731FD204605F00CF8E1
:2065EC0025E0200922D21648610939BF016821F00101016841F0010102460160D2F898008A
:20660C004FF0805440F00300C2F89800D4F8B8018069014620208847D4F8B801094C806B4D
:20662C002168804701202060206800E030BF05F0F5FC01F0D1FDF8BD00F401005C06002035
:20664C008C2108402C200940F8B50D46EEB2290824BF27494D40274BB400DFF89CC0195928
:20666C0000EA05020CEA020200F4E02C85EA0107BCF5E02F00EA070721EA0001C7F30067C7
:20668C0042EA010201D1510E14D300F4E0210F4310D002F4E027B7F5A02707D0B7F58037D6
:2066AC0004BF22F4003242F4A02203E022F4803242F4C0221A51114CC10D04D3C5F3805211
:2066CC00A4F1D0018A55000E10D305F08DFE290E03D201220021B24002E00122B240114668
:2066EC00236893431943216005F07AFEF8BDC046006000A000100840007F077FD020024099
:20670C00F0B5ADF12C0D2848284E02883188914201D037882FB90021018031804FF0FF30BC
:20672C0040E00022282A05DAFF2102F80D10521C282AFADB317800240DF8141031880DEB67
:20674C004402091251700146087801220DF8120008880DEB4202001250700222142A1BDA15
