:20000000483F0020096B000001CA011001CA011001CA011001CA011001CA011001CA01109D
:1C00200001CA011001CA011001CA011001CA011001CA011001CA01103FCA011082
:20003C00B0B505462A4CA978681D04F1EC0205F067FB2F79CFB17F1E3FD1297AE879AA79A2
:20005C006F7900EB012007EB02210C390BD0491E07D0491E03D0491E08BF2082B0BDE08145
:20007C00B0BDA081B0BD6081B0BD6A79E788206B114601291ED9891E17D0891E06D0891E14
:20009C0004D0891E09D0891E04D0B0BDAFB104F0B3FBB0BD01206082B0BD0020142107A22B
:2000BC0005F096FB02F056FAB0BD06F04BFF08F0DBFFB0BD032107F017F8B0BD4D65617353
:2000DC007572696E6720416D7065726F2121210020050020024902680A604068486070478D
:0400FC00C317002006
:200100003C000000000000000000000034010000000000000000000001000000000000006D
:1C01200000000000000000000000000001000000000000000800000000000000BA
:20013C00340000000000000000000000680100000000000000000000010000000000000005
:14015C00010000000000000000000000080000000000000086
:2001700030000000000000000000000098010000040000000000000001000000FFFFFFFFA5
:10019000FF00000001000000080000000000000057
:2001A0002C0000000000000000000000C4010000040000000000000001000000FFFFFFFF4D
:0C01C000FFFFFFFF08000000000000002F
:2001CC0034050000E401000099A1011095A70110A5C2011009B2011045B80110000000000B
:0801EC00000000002E000000DD
:2001F400280000000000000000000000140200000000000000000000FFFFFFFF00000000B1
:080214000800000000000000DA
:20021C00300500003002000069C201106DC101101FC2011095BA011000000000000000008E
:04023C002C00000092
:20024000300500005402000075C20110A9B601109DBF011049B601100000000000000000DE
:040260002D0000006D
:200264002400000000000000000000008002000000000000000000000000000008000000CC
:040284000000000076
:20028800240000000000000000000000A40200000000000000000000000000000800000084
:0402A8000000000052
:2002AC00240000000000000000000000C8020000000000000100000000000000080000003B
:0402CC00000000002E
:2002D00000000000A01A00200400000000000000000000002000000070010000300000006F
:2002F0001C020000CC1A00200400000000000000000000000C00000030040000180000006E
:2003100040020000D81A0020040000000000000000000000240000004804000018000000ED
:2003300000000000E01A002004000000000000000000000010000000A00100002C000000B2
:20035000CC010000E81A0020040000000000000000000000200000006402000024000000F0
:20037000FFFFFFFF081B002004000000000000000000000028000000880200002400000054
:20039000FFFFFFFF381B0020040000000000000000000000580000003C0100003400000011
:2003B000FFFFFFFF401B002004000000000000000000000010000000600400001800000026
:2003D000FFFFFFFF481B00200400000000000000000000001C000000AC020000240000009C
:2003F000FFFFFFFF501B002004000000000000000000000038000000F4010000280000000D
:20041000FFFFFFFF581B002004000000000000000000000054000000000100003C000000A8
:1804300018000000000000000000000040040000080000000000000050
:1804480018000000000000000000000058040000080000000000000020
:18046000180000000000000000000000700400000800000000000000F0
:080478000200000018B90000A9
:0404800009F0F7B8D0
:040484000100000073
:0404880000008C0FD5
:04048C000000BC0FA1
:040490003200000036
:040494000100000063
:04049800A81A00207E
:04049C00000200005A
:0404A0000000000058
:0404A40001CA011078
:0404A8000000000050
:0404AC00000000004C
:0404B0000800000040
:0404B40000007612BC
:0404B800381F0020C9
:0404BC00010000003B
:0404C000F01A00200E
:0404C400080000002C
:0404C8000000000030
:0404CC00000000002C
:0404D0000000000028
:0404D4000000000024
:0404D8000000000020
:0404DC00010000001B
:0404E000A01F002039
:0404E400060000000E
:0404E800010000000F
:0404EC00A01E00202E
:0404F0000000000008
:0404F4000000000004
:0404F80000020000FE
:0404FC0000000000FC
:02050000704742
:020502002800CF
:020504000100F4
:020506002400CF
:020508002C00C5
:02050A002D00C2
:02050C002E00BF
:02050E000100EA
:0105100001E9
:080514000300000004B900001F
:08051C000000000000000000D7
:040524000000930D33
:040528000000AD0D15
:04052C0087C401106F
:04053000380500008A
:040534003805000086
:0405380000000000BF
:04053C0090610000CA
:0405400090610000C6
:0405440000000000B3
:04054800F01A002085
:04054C005D920000BC
:040550002000000087
:040554004CB800009F
:0405580008B70000E0
:04055C000DC30110BA
:0405600041970000BF
:0405640043970000B9
:0405680099C801101D
:04056C009BC8011017
:040570000000000087
:0405740030990000BA
:0405780040B500008A
:04057C0058B500006E
:0405800028B500009A
:020584000280F3
:020586000380F0
:02058800C0179A
:02058A0001006E
:01058C00016D
:040590000000000067
:040594000000000063
:04059800000000005F
:04059C00000000005B
:0405A0002B97000095
:0405A4002D740000B2
:0405A800C984000002
:0405AC00E17C0000EE
:0405B0000F7A0000BE
:0405B400117D0000B5
:0405B800B558000032
:0405BC005F94000048
:0405C000215D0000B9
:0405C40011C8011049
:0405C80021C8011035
:0405CC000800000023
:0405D0002400000003
:0405D400180000000B
:0405D80028000000F7
:0405DC0020000000FB
:0405E0003C000000DB
:0405E4000C00000007
:0405E80034000000DB
:2005EC002DE9FE4FB84C0F460646F80B80F04781B80880F0D480B54DDFF8D892DFF8E0B27C
:20060C00DFF8E882DFF8F4A22C68B80F67D2B0480678002E47D1380947D3AF4801264946C8
:20062C00067000240C70204603F029FDAB4808F017FFAC492246584609F05AF8AA48017867
:20064C0001291CD141460B78CBB9A94E306880B108F04EFD2B68A8493668A64D0A68C01A85
:20066C00000B82182860B2EBC61F28BF0C6007D20A60A4484FF0005108F0A4FC2CE0067093
:20068C00504640F609010180417B01F0F00141F0010141734480017B01F0F0010173446038
:2006AC00974E306018E0390914D2B80BC0F004819D48001D09F027F8061C08D0706830B1D4
:2006CC007468F068B6F91C1098A20CCAA04727F40057F1E00021017027F00807ECE0ECB1A4
:2006EC00042008F0C5F9C8B108F002FD864A29681060814226BF401A401E401A000BF060BE
:20070C00F06800F58D70F060F16840F6C410884203D340F2EE228A4200D9F0600024D6F807
:20072C0018C02C60BCF1000F10D050460D30007810F00F0F0AD1708C40F60901814205D194
:20074C007CA20CCA30466FF48071E0476F495846224608F0CDFF4546287850B10220ADF833
:20076C000000684608F052F82C70BDF808006849088049460120674A674B087010781C704C
:20078C00401C1070192008F0C5FD756925B16BA20CCA30462146A84727F000578CE004F14C
:2007AC000C0A504608F0AFFF061C5FD006F06FFE7368B2690025B561E3B1F37F42F00202BA
:2007CC004FF00009904603F007035B1E07D05B1E03D09B1E06D15BA002E05CA000E05DA010
:2007EC0090E800037268F068B6F91C104B4694464246E04709F092F88046B4F91200401CE7
:20080C006FF31F306082E0681F30017801F07F010170504608F052FB404609F07BF8F06822
:20082C00B0F99410B4F9122091421FD13B49097801291BD090F896409CB904688CB13849C6
:20084C0009680968B1F1FF3F10D0364909687030B4FBF1F109F05AF8F068703009F052F843
:20086C0004E080F89650284604F0ECFF504608F04AFF27F0020708B147F002071CE009F0F8
:20088C004DF801462046083008F03DFF0646B469084609F03FF8A0080CD25EB17068B16980
:2008AC00A143B16130B17568F068B6F91C1000232246A84727F480471FB11248394608F048
:2008CC0081FBBDE8FE8FC046882E0020D42E0020F72E0020F32E0020F12E0020E54F000067
:2008EC003C2E00201D860000F52E0020F02E0020D02E0020DC2E0020CC2E00209C2E0020F2
:20090C0000100440182D0020D82E0020B92D0000E02D0020F92E0020F22E002064200020AE
:20092C00E02E002034B90000882E0020000000002000000000000000000000020000000098
:20094C00000000040000000000000010000000000000004000000000000000202DE9F04FC2
:20096C0009AFADF13C0D00900292388801911E46ADF83400101C08BF002000F082810027EC
:20098C004FF0010B00F10109B846DA466BE1252940F062811078521C02922D2818BFADF8DF
:2009AC00228004D11078ADF822B0521C029230281CBF4246434605D1114608785B465A4681
:2009CC00491C02912A284FF0FF3516D128460B93346809900299CDF81C80E01C4B1C20F0B7
:2009EC000300001D306050F8044C08780293002C44BFADF822A0644212E0444609E061008C
:200A0C0001EBC40140180299A0F130040878491C0291302801DB3A28F1DB0B9329460991E0
:200A2C002E282BD10299087843462A2801F10101029111D1099330680794C01C20F003003B
:200A4C00001D306050F8045C002D48BF454608780995491C029112E045460AE0690001EBA4
:200A6C00C50140180299A0F1300508782B46491C0291302801DB3A28F0DB099307940AB1AF
:200A8C0022460B926C2804D04C2818BFADF8208005D102990878ADF820A0491C029103A953
:200AAC00CDF8288007AB0E9164280C9300F08B80692800F08880BDF834C0752872D0782895
:200ACC006ED06F286AD0702850D063283DD073281ED0019802990128A1F10101029115D9B0
:200AEC006B490C68B5F1FF3F03D0A84288BF6D1C00D8019D0995684602A9324607ABA047D3
:200B0C00C71902990A9801F1010974E040462AE030680299C01C20F00300001D306050F8B5
:200B2C00040CBCF1000F01F10109014608B956A001460E9108F02CFB0A90B5F1FF3F5BD035
:200B4C00A842C4BF281C0A9056E03068C01C20F00300001D306010F8040C5D468DF80C0088
:200B6C0002990A95584601F1010945E0082035680B90E81C20F00300001D306050F8041CE4
:200B8C000822102307A804F043FB401E0E904021017002990E9801F1010929E0082302E0EA
:200BAC00102300E00A230299306801F10109C01C20F00300001D306050F8041CAA42BCBF4F
:200BCC002A1C0B9210E00299306801F10109C01C20F00300001D306050F8041CAA42BCBF9C
:200BEC002A1C0B926FF0090307A804F011FB0E900C9D281A0A90079CBDF82250241A65B9A3
:200C0C0006E06846202101AA07F002FB079C7F1C641E0794F5D50A9800E007940546401E69
:200C2C000A9075B9BDF82200E8B10798401E079019D46846202101AA07F0EAFA07987F1C40
:200C4C00F4E70E98411C0E91017801AA684607F0DFFA0A987F1CE1E7684601AA07F0D8FA42
:200C6C007F1C09F101094A46029812F8011C401C002902907FF48BAE009808B1414601706C
:200C8C0038460FB0BDE8F08F286E756C6C2900C054B900002DE9FE430646DFF8DC82DFF85F
:200CAC00DC92B2780024101C00F03581801E00F00D81401E012840F2E180801E00F0A880AE
:200CCC00401E7BD0401E59D0083800F04681801E40F046814546B08895F83E70ADF80000A9
:200CEC00052F45D001208DF80A0005F1CC0008F00CFD95F83E0001281BD0042819D003280D
:200D0C0006D0022804D0F28831897089B38907E0B5F84020B5F84210B5F84400B5F8463083
:200D2C00ADF80220ADF80410ADF80600ADF8083020E0B5F84000F1888842D8BF081CADF80F
:200D4C0002003189B5F842008842D8BF081CADF804007189B5F844008842D8BF081CADF899
:200D6C000600B5F84630B0898342D8BF031CDDE78DF80A40684608F08BFBF1E0454605F179
:200D8C00F00008F0C2FC7078002840F0E980F088E882308928837089688305F1CC0008F014
:200DAC00B1FA002840F0DC80AB6A002B00F0D8801B68E88A298B6A8B9847D1E0B08807F0E3
:200DCC00CCFB45462146062205F1380003F0A6FFEC822C836C83B079687305F1CC0008F096
:200DEC0094FC05F1F00008F090FC01244FF6FF706F79A8824FB9B079082814BF0420052085
:200E0C00A870204608F08AF8AAE00320A870A7E0707858BB311D0A68454605F138000260AC
:200E2C00898881800627AF707089A882F089E882308A2883708A6883F0784446287394F8DF
:200E4C003E00012818BF02280AD11F2006F0A0F84FF47A71024604F1CC00514306F070FA4B
:200E6C00F0787289311D06F0FBF97BE0707831286FD14D4604202870204623E07778002F19
:200E8C0067D14546698AA878032A13D02A796F7921B9012A14BF6C712C7106E0174304D06F
:200EAC0005F1A80006F04CFAA878072814BF0420062007E0062807D02879002808BF03243D
:200ECC00DAD00220A8704DE00724D5E77078751C00283ED14246F7789078D1799FB9022893
:200EEC0016D0072814D0062802D1517901290FD103280DD002F1A80008F004FA40B9012065
:200F0C0008F00CF804E08732204605F003FA28702878F0B924E07078D8B945460220102198
:200F2C0005F1480206F0A2FC0320102105F1580206F09CFCF61C05F12C00B788316887808C
:200F4C0005F1680201600120A979A87005F0E2F940B108204D46287004E0B08808F08CFABB
:200F6C00012C06D14546686A18B1016809B1A8788847BDE8FE83C0463C1400203E1400201B
:200F8C00F8B5A0F2013517460E46022D40F20C818649874C874A884B2D1F0F2D04D9143D35
:200FAC004AD0AD1E1CD011E0DFE815F0BA00B500EB00DB00AE00A700FE009F0098001000C8
:200FCC001000900086007A006F006200282880F2EB80022E40F0E880398806F08DFAF8BDAC
:200FEC00012E40F0E1800A469078012800F0DC80D1783878D07081B9002800F0D5801078F0
:20100C00012800F0A080042800F09D80062800F09A80052800F09780F8BD3878002840F029
:20102C00C3801078032800F09980072800F09680052800F09380F8BD012E40F0B580387847
:20104C00012840F0B180254605F1F00008F05AF9002840F0A98004F13E01002003F0F6FFA1
:20106C00002840F0A18004F1CC0008F04EFBF8BD022E40F0998038880A28C0F29580B0F55D
:20108C00486F00F39180114614E0022E40F08C803888B0F5FA7F80F2878011460880F8BDE7
:2010AC00022E40F08180388806287DDBB0F5486F7ADC1946891CF1E7022E75D1388806288B
:2010CC0072DBB0F5486F6FDC1946E7E7012E6BD13878062868DA1146891F0CE0012E63D10A
:2010EC003878042860DA093105E0012E5CD13878082859DA08310870F8BD012E54D13878D6
:20110C00042851DAC91DF6E7012E4DD1387804284ADC891DEFE7022E46D138881031BDE7F2
:20112C00012E41D10A46D07801283DD091783878907061B9002837D01078012803D00428E2
:20114C0018BF052830D1012007F0E8FEF8BD387850BB1078022818BF052825D108F08AF8EA
:20116C00F8BD254600211F2205F18704204603F0D5FD39463246204602F0D2FF0020EE7196
:20118C000EE0254600211F2205F16804204603F0C5FD39463246204602F0C2FF0120AE71BB
:2011AC003146224605F0B6F8F8BDC0463E1400203C140020801400207C1400202DE9F04159
:2011CC00ADF1800D07F076F8864C002104F17C05284608F093FB04F1940004F1B801656218
:2011EC0003F01EF9206310B908F084FB206B0321012205F081FF04F1A00004F14C0103F005
:20120C000FF9606308B908F075FB04F1AC0004F1540103F005F9A06308B908F06BFB04F1DB
:20122C00880004F1C40103F0FBF8E06210B908F061FBE06A6C4908F061F908B108F05AFBC4
:20124C0003A800212422082308F050FB684E4FF47A7732250D20DFF894813168099003ABC8
:20126C0004F5A270B7FBF1F189B205FB01F2414608F038FB0C20316809902A4603AB04F56E
:20128C00B470B7FBF1F189B24A43414608F02AFB05F060FE07F0F0FE0125002640F2053033
:2012AC008DF80A500DF10A02ADF808602946FFF767FE40F20630022102AAFFF761FE621C58
:2012CC004FF442702946FFF75BFE04F1FC0240F207301121FFF754FE0620A02106F00CF997
:2012EC000720A02106F008F90820A02106F004F90920A02106F000F928461E2106F0FCF8B7
:20130C0001962C468DF801604FF481608DF8034004218DF8024001AA8DF8004006F0D2F8CA
:20132C004FF4806029460DF1030206F0CBF840F2024029460DF1020206F0C4F840F2034047
:20134C0029460DF1010206F0BDF840F2064029466A4606F0B7F808F074F9FFF78BF807F055
:20136C00A9FE08F09BF807F0AFFE05F0D5FD06F061FB07F0B3FE07F089FE07F091FE28227C
:20138C000CA8314603F0CAFC1A4916A8282202F0C7FE304629460CAA06F04AF928462021B8
:2013AC000CAA06F045F9304629460CAA04F094FD284629460CAA04F08FFD3046282116AA85
:2013CC0004F00EFA284614210CAA04F009FA07F061FC06F069FD08F01DF908F01FF920B017
:2013EC00BDE8F08120050020C58000008D47000034B9000081B500002DE9F04F0128ADF12E
:20140C00140D40F0F280DFF81492D9F8DC00012840F0E9800220C9F8DC0008F05FFA02906F
:20142C00012005F0DFFA20B101210646C9F8DC10D5E008F04FFA03906E484FF00008C0F887
:20144C000080012007F014FB012818BFCDF8008004D1404604F012FE0120009066486E4C1C
:20146C00C0F800801934D4F8FF0F112008F052F800280CBF46460126102008F04BF808B1C4
:20148C0046F002060F2008F045F808B146F004060B2008F03FF830B1584800685849006B56
:2014AC000246088890470A2008F034F80028404618BF01204FF0805B0BF5DC7528B12868A9
:2014CC005049006B0246088890474F480127076028688069014646F0200088474B48076048
:2014EC0008F012F800F001010191400815D2484807F069FF8246BAF1040FF8D0BAF1010F33
:20150C0006D1DBF8D801406802464148032190474049086820F003000860404600F080F866
:20152C002868D4F8FF1F806B8047019801280ED0BAF1010F06D1DBF8D80140680246344829
:20154C00394690473349086840F0030008602A480760286840690146304688470B2007F0E2
:20156C00D9FF28B128682649C06A0246088890470A2007F0CFFF28B128682249C06A0246A1
:20158C0008889047204807600322C9F8DC201F4BC3F800802868406B014630468847012892
:2015AC00F8D1042005F01EFA124807601A48D4F8FF1F01688909FCD30098012802D138463C
:2015CC0004F05CFD07F094FF082005F00BFA06460398C9F8DC7008F079F904F011FB02980E
:2015EC0008F070F902E0042600E00126304605B0BDE8F08F0C40094000022243B801001057
:20160C00BEB40000BAB4000028200860800104430040034024220840141009408819002027
:20162C002DE9F84F82467A48DFF8D89135380068800880F0D88006F065FE054678480830B6
:20164C00D0F8008000244FEA2876761C5FEA98500AD2C5F13E0015F10A0F4FEAE000D8BFD9
:20166C0008208642B8BF061C634FD7F87C01C0F3046007F0A1FE83463868C0F3044007F0D3
:20168C009BFE06EB0B020090162A05DA12F10A0FB8BF6FF0090200E01522584B584F02F0A8
:2016AC001F0141F4F8511980396811F0030F18BF0124C90828BF44F00204BAF1000F18BFB4
:2016CC0044F00404494691F90730EB1A052B04DA8B79A34208BF888864D0DFF82CE10F2D4B
:2016EC00A5F10F0C25DB0CEB0513A3F1F00C4FEA2C27072F88BF07273E46062E88BF06262C
:20170C005EF82600042303EB86037646F3581B1A03F0FF06E00824BFC3F307200644A008D5
:20172C0024BFC3F307400644600828BF06EB136601E0002637465EF827E0E0080EF0FF03F1
:20174C0024BFCEF307200344A00824BFCEF307400344600828BF03EB1E630098B6B2ACEB3C
:20176C0007277E43801A06F1800603EB1623D8BF0120342208F0FF0742437A43B2FBF3F052
:20178C004FF6FF72824238BF101C802D80B2888005DA15F1800FB8BF6FF07F0500E07F2567
:2017AC00CD718C71194A12681F280A604FF0000208D340F2FF11814206D24008521C8142E2
:2017CC00FBD301E01F208880124F11490F38000942EAC00247EA0200C1F8FB0F0026C1F839
:2017EC00FF6FBDE8F88F0D4F0B4E494608203760891D0870BDE8F88F3C1100506E62084041
:20180C0024220840C02E00209C130050082009403500094000E7A48030100940FDFDA40000
:20182C00AC3F00502DE9F0411C4615468C4208BF854282BF00230022E5E0002C08BF002D96
:20184C000AD100290EBF00286FF000006FF0000100F0E1F8BDE8F0815FF000085FF0000E31
:20186C00002C08BF8D429CBF2C1C0025070C47EA01470E0CB44208BFBD429EBF5FEA044482
:20188C0044EA15445FEA0545070A47EA01670E0AB44208BFBD429EBF5FEA042444EA15642F
:2018AC005FEA0525470847EAC1774E08B44208BFBD4200F29380870847EA81778E08B44296
:2018CC0008BFBD427CD8C70847EA4177CE08B44208BFBD4266D8070947EA01770E09B44294
:2018EC0008BFBD4250D8470947EAC1674E09B44208BFBD423AD8870947EA81678E09B442EA
:20190C0008BFBD4224D8C70947EA4167CE09B44208BFBD420DD8E60146EA5566EF01B14223
:20192C0008BFB84201D3C01BB14158EB08085EEB0E0EA60146EA95664FEA8517B14208BF20
:20194C00B84201D3C01BB14158EB08084EEB0E0E660146EAD5666F01B14208BFB84201D36E
:20196C00C01BB14158EB08084EEB0E0E260146EA15762F01B14208BFB84201D3C01BB1417F
:20198C0058EB08085EEB0E0EE60046EA5576EF00B14208BFB84201D3C01BB14158EB08080B
:2019AC004EEB0E0EA60046EA9576AF00B14208BFB84201D3C01BB14158EB08084EEB0E0E39
:2019CC00660046EAD5766F00B14208BFB84201D3C01BB14158EB08085EEB0E0EA14208BFF4
:2019EC00A84201D3401BA14158EB08085EEB0E0EA34208BFAA423EBF2D0A45EA0465240A96
:201A0C0089D3734642461E4617460B46024631463846BDE8F08170472DE9F843814607F0F2
:201A2C0061FD002100B901216B4E30680028FCD06C4D01242D1DEF6A346009B107F058FDE0
:201A4C00DFF89881C7F3072008F1BC01086007F049FD002100B9214630680028FCD02F68EA
:201A6C00346009B107F044FDC7F38440C8F8C00007F038FD0146002001B920460146306844
:201A8C000028FCD0ED69346009B107F031FDC5F38120C8F8D000B9F5C061C8F8B81000F04D
:201AAC00968098F8D80068B9C8F8D410D8F8C000C8F8C800D8F8BC70C8F8C470D8F8D060CF
:201ACC00C8F8CC60D8F8D410D8F8BC60002954BF02206FF00100454605F1C8031A6801EBF6
:201AEC0041014018411000EB917002EBA0021A60D5F8C810C5F8C46000291CDD1E293DDDF1
:201B0C00D5F8CC0030B93429B4BF15391E21C5F8C81025E02A29BABFD5F8C8000B381E205E
:201B2C00C5F8C800D5F8C4003F28B4BF401C3F20C5F8C4001FE0D5F8CC00032812D011F1C6
:201B4C000B0FC6BFD5F8C8000B30201CC5F8C800D5F8C4000028CCBF401E0020C5F8C40006
:201B6C00032009E011F1150FC6BFD5F8C8001530201CC5F8C8000020C5F8CC00B5F8C400ED
:201B8C00174E30214FF47F4208230090304604F075FE009404214FF400321123304604F01B
:201BAC006DFEB5F8C80004214FF4F80212230090304604F063FEB5F8CC0020214FF44062A8
:201BCC000A230090304604F059FEBDE8F883002088F8D800BDE8F88300800C408819002036
:201BEC0000A00C4000A00C402DE9FC416F4C204607F089FD15460E46009007F08FFE05F058
:201C0C0001078046B6F1FF3F0DD1606820B9B4F91200401C06B202E06068B0F91C60644937
:201C2C000020C91C0870304606F05CFA0326002800F0A4806168814270D0009FDFF848C1A9
:201C4C00B84231D03FB100990A68904209D0096800290091F7D1832E44D0404607F05AFE4A
:201C6C0040E0604606F052FE00990868AA0803D202680B4601461A6000220A60009078B1FB
:201C8C000C340146C87F40F00400C877684607F015F90146204605F067FD00980028F0D1BD
:201CAC00404607F037FE1CE0604606F02FFEA8083ABF2068006800202060404607F02AFEC3
:201CCC000C340099C87F40F00400C877684607F0F5F80146204605F047FD009808B1A808EC
:201CEC00EFD2832629482C4A007890B928480078012846D0274807F0B3FB0221104607F01B
:201D0C0061F92648007801283BD0254807F0A8FB37E01046022107F055F932E0A90803D3CE
:201D2C002168009100262660C27F0121B9401143C17707F0CFFD0646002F14BF19481A4815
:201D4C0006F064FD404607F0E5FDA80811D3009878B10C340146C87F40F00400C87768467D
:201D6C0007F0ACF80146204605F0FEFC00980028F0D1304607F0AAFD832602E0404607F083
:201D8C00C9FD3046BDE8FC81802D0020F22E0020F12E0020ED050000182D0020F32E0020F5
:201DAC005D3500000100020401000104882E0020E02D00202DE9F04FADF1840D209000F051
:201DCC00DBFE04F037FD0024012804D106F0F2FF022808BF012459490868C0F38150012818
:201DEC0005D151F80C1C0120090E884004435448007806F0E9FBDFF84C81DFF84CA1C8F833
:201E0C00000030B15246FF2107467F1E02F8011BFBD120990968002501F0FF02FE2A1BD0FD
:201E2C00DDF880C052462B46012701F0FF06FF2E0BD0B04203D907FA06F6344201D002201E
:201E4C0079E001F0FF01354353545CF8041F5B1C01F0FF06FE2EEAD1092001F0B9FC3B49EF
:201E6C00209824220823086001A8002107F026FD4FF0010901AA3E488DF81C90494607F0B0
:201E8C0019FDD8F800303BB33A4E00274FF0040BBA4609FA07F0044218D1054204BF07F00B
:201EAC00FF0141F4C04104D027482099C05D51F82010274801F0E4FEF8B24FF0FF3106F0FD
:201ECC0001FED8F80030C6F800A001E0C6F800B07F1C361D9F42DCD30AA80021302208237C
:201EEC0007F0E4FC1B4D1D4A2878002410210AAB12901948009407F0D5FC16A828220823F4
:201F0C00214607F0CBFC686816AA16491C9014481D94234607F0BEFC134A52F80D0C49467F
:201F2C0020F4F85040F4005042F80D0C0F4BC2F8FF1F2046196021B0BDE8F08FB43F005019
:201F4C00F82E0020C82E0020A42D0020E82E0020007FC76710B90000042E0020ED8A0000B3
:201F6C00E42C0020D16800000D30094008000940202E0020682C00202DE9F84F9A469346DD
:201F8C000D46044607F0CAFCDFF85C810AAFB8F91220B8F91010009040F6F870891A0840A1
:201FAC00082880F29280B8F91000401C6FF31F30A8F81000B8F9109006F068FC064604F1F7
:201FCC00700006F0A3FCB56086F81EB0C6F804A0F460A6F81C9097E80C0051A003C8002523
:201FEC001040F577D8F8002006F11007194087E80300002A5CD14046314605F0B5FB00282F
:20200C005BD0A4F894904448F17F0778DFF8DCA041F08001F17784F8965067B151460F7849
:20202C004FB1344A3449324B0570012015700A781870521C0A70009807F06CFCD8F8040044
:20204C0000284ED15146087800282DD12B480078012846D007F062FC054629480078F8B98C
:20206C00B06804F035F8284B2C4A26491B681268086038B9284607F04DFC2448042106F038
:20208C00A1FF2EE0D0680968214C091AB1FBF3F1204607F03BFC204607F034FC28461EE030
:2020AC001C4901200870F9E7192007F033F918E04046314605F058FB50B9B8F9100000F6DD
:2020CC00FF706FF31F30A8F810006FF0010905E0A4F89490F07F40F08000F077009807F001
:2020EC0019FC4846BDE8F88F882E0020F32E0020F72E0020F02E0020F92E0020F22E0020E4
:20210C00F12E0020D02E002034B90000182D0020802D0020F42E0020F62E0020E02E002083
:20212C00F1EFFF9F200000002DE9FC415E4C574D574EDFF860815A4F94F8E410481E0B2835
:20214C0061D8DFE800F07B2C43062343062343067664042907D001220A2945F8212C14BF2A
:20216C000220032004E02021012045F8211C024684F8E200002045F8390C0827C5F8FF7F9C
:20218C00C5F8F37F45F8392CBDE8FC81052914BF09200620002584F8E400356070E094F8FA
:2021AC00E1700120383D002FC5F81B0004BF0620002102D00021F160032084F8E400032031
:2021CC0045F8010C31603068800859D294F8E400012503280DD0002140466022052300914D
:2021EC0004F04CFB94F8E400062814BF0A200720D1E702200090002160220523404604F027
:20220C003DFB0420C7E707F041FBBDE8FC812249002622480E60012505600E2001F004FA42
:20222C00022005F097FC84F8E45084F8E360BDE8FC81002038600C2578601FE019480068CE
:20224C0000680146202088472C3D41F61D560F2000214FF4C072072345F8010C4046C5F825
:20226C0003600225009504F009FB404600214FF4C072072304F0B0FD0120386084F8E450EB
:20228C0004F1780007F03EFBBDE8FC8139400C4038600C4000A00C402C500C4004800C4046
:2022AC0034600C40A001001088190020B0B5456884685148297BADF1180D01291AD0014667
:2022CC002F7E227E637E4D4837F0010741EA020240EA030001904A48009218BF011CA27EDB
:2022EC001143029195F88D200323FF2A13D0014610460DE0A17E627E237E41F0004102439E
:20230C0043F00043029195F88D0000933D490192014304230391FE2105F190004DF82310C6
:20232C00694602F07DF8C5F89C00002808BF00205FD0287B344951F8200001282BD02068AF
:20234C00B0F1804F14BF22220A22217ED5F89C0005F09CFE2068B0F1804F14BF21220922EE
:20236C00617ED5F89C0005F091FE2068B0F1804F14BF24220C22A17ED5F89C0005F086FE45
:20238C0095F88D10FF2933D02068B0F1804F14BF23220B2228E02068B0F1804F14BF212289
:2023AC000922217ED5F89C0005F070FE2068B0F1804F14BF22220A22617ED5F89C0005F003
:2023CC0065FE2068B0F1804F14BF24220C22A17ED5F89C0005F05AFE2068B0F1804F14BFAF
:2023EC0023220B2295F88D10D5F89C0005F04EFE012006B0B0BDC046000480A0004000805D
:20240C000004C0A00020008058B400002DE9F0410646524DB088ADF1200D002804BF05F18A
:20242C000C04A0460DD005F10C040346A62137A2204606F021FC204606F0AAFE281800F120
:20244C000C083768B8B206F031FA40A20CCA00F0B7FD40A20CCA00F0B3FD04F0E7FAA4EB1A
:20246C00080100902BA23B0CA631404606F004FC204606F08DFE2218A8682146121B07F094
:20248C00ABF8F088D8B107F0FDF935490A8832B9B1680091F168034622A201911FE0F168AA
:2024AC0000913169019171690291B1690391F1690491316A0591716A0691B3680EE0306904
:2024CC00009070690190B0690290F0690390306A0490002705970697F368B06802462046B0
:2024EC00A62106F0C9FB204606F052FE22180D2002F8010B0A2702F8017BA8682146121BEB
:20250C0007F06AF808B0BDE8F081C04623253036752000C05B2025642E25303375205D20B3
:20252C0000C046C07B6576743A20666D743D25702C20617267733D5B307825782C203078C2
:20254C002578202E2E2E5D7D00C046C0000000000000F03E0000000000408F40840E002099
:20256C008A0500002DE9F04F514C208AFA211322484390FBF2F086B204F10E000388ADF178
:20258C002C0D4FF0000900F5D378594391FBF2F189B20A9100F5D3712020401E21F8029B00
:2025AC00FBD1FF20282769467F1E01F8010BFBD10A991F2003F09AFA002875D13D4D2846E9
:2025CC0007F045F8304602F05AFE0146182003F08DFA002868D1284607F039F84D4660898F
:2025EC00A4F81290002849D04E464FF04D0B42F6E06A608A012841D0032006F097FD4F463D
:20260C0000B10127384608EB450700280CBF01224A46206B032104F06FFD04F05DFB6D1C8E
:20262C003880202DA8BF4D46A0890AFB00F007F00EF8761C8DF801B037128DF8026041201B
:20264C008DF803700DF102028DF8000002202B1A591C48BF03F1210138F81110401C02F84F
:20266C00021F14284FEA21215170F0DB484628216A4603F0B5F86089B042BADC206B0321A3
:20268C00012204F039FD0A99182003F02FFA58B9412046278DF8000028216A468DF8017097
:2026AC00484603F09DF8E5800BB0BDE8F08FC04620050020804F12002DE9F04305466E681E
:2026CC00AF680C46ADF1340D07F028F996F8D910012903D107F01EF9002084E04FF001083F
:2026EC0086F8D98007F016F94FF00009C6F888902069306160697061207E3076207B30739D
:20270C0020783070606886F8A490706060694946092828BF414686F88C10387B01F058F826
:20272C00284603F053F9F87E86F88D002846FFF7BDFD50B9387B00F077FF07F0EFF886F8C3
:20274C00D99007F0E7F84D464CE001A849463022082307F0ABF806957A790992CDF80090A2
:20276C00224A397906F11C0001AB07F09BF801A828220823494607F091F8B96807911C499B
:20278C00059506F1380001AA4B4607F083F8307878B901A849462422082307F08FF806F1BF
:2027AC006C008DF81C80494601AA07F083F8114800E0A068B06003F07FFA317BC6F8A0000D
:2027CC00012908D1D6F89C000B4906F097FED6F89C0000B18560094A06F1C40004212B46FD
:2027EC0005F0B8FD28460DB0BDE8F083E93F00007F6200003996000041710000759500004C
:20280C002DE9F041424C474D8046C8F38140401E02D0401E2AD025E0284620300168880CB9
:20282C0020D24FF4804020603A48D0F802204B0AC1F3033703F0800322F08F02134347EAC8
:20284C000302C0F80220D0F801300E1266F30303C0F80130026801F0E70722F0E70247EAB7
:20286C00020102E04FF00041204601602A4E06F108000068C0F3C0070FB94020A0624FF45A
:20288C000070206406F026FD40F0300084F8C800C8F3815038B3401E03D0401E1ED0022164
:2028AC001DE0012006F0E4F807460420394603F0DDFE042006F0DCF88742FAD1366826F028
:2028CC007F4005F02FF915480068036807214FF06022300E98474FF48060206003210420EF
:2028EC0003F0C4FE06E00420012103F0BFFE0C4805F018F9284600680B4947F6180700F06B
:20290C003F0084F8CB0F094E0F803068BDE8F08140A00C400A600840A83F0050B4010010A8
:20292C00BD3786006C13005070B00C402C20094070B5ADF1380D00F01FF9324908682822FC
:20294C00082340F00200086001A8002106F0A6FF2D4EB0782E4907902C48002301AA06F058
:20296C0099FF00213022082301A806F09FFF002519213078284AADF81C5001AB099025489C
:20298C00009506F08FFF2822082301A8294606F085FFF07822490790204801AA2B4606F027
:2029AC0079FF3022082301A8294606F07FFF01241A2170781C4AADF81C4001AB0990194835
:2029CC00009506F06FFF194819492A46134606F089FF184806F044FD1849194E0C701648AF
:2029EC0035704FF6FF728283C577164B1D70164C257016490D70174E3560154A15700EB0D2
:202A0C0070BDC0460020094028B90000182D0020A18F00003C2E00201D8600004C2D0020D2
:202A2C009D3E0000582E002031610000802D0020217C00005D350000C42D0020F02E00202C
:202A4C00F52E0020F22E0020F12E0020F62E0020F72E0020D42E00202DE9F04F0C464549C8
:202A6C00CA7AADF12C0D84460592487B09900D7900958A7A488B4B8A0E7B91F805A091F86B
:202A8C0002800492B1F846E008904A7A088B0392CD7807900A7AC88A02920F6A0690CA7927
:202AAC00888A01928A79E146A9F54079B9F11D0F10D8DFE809F05B5553514F4D4B49464359
:202ACC00413F3C3A380F34312E2B2923201E1C0F19181716BCF1280F49DA604604F058FAE9
:202AEC0021E0099EB246D046CDF814801DE00898079007980690DDF818E005E038310868C7
:202B0C0020608888A08032E070460AE0B1F8440009E0B1F8420004E0B1F8400001E091F84F
:202B2C003E00034612E0208021E0059804900498039001E03231E2E70398029002980090AB
:202B4C0006E0019A87310DE068310BE01846EAE7009D0BE02C31D2E7276008E0583100E01A
:202B6C0048311022204601F0DBFA00E025700BB0BDE8F08F3C1400202DE9F041444C94F84B
:202B8C00E700ADF1280D00286FD1394F387B01250021242284F8E7507E6884F8E600082319
:202BAC00C4F80C6101A806F0A1FE002604F10C00069601ABADF814602E490796324606F098
:202BCC0091FE2D4904F1300001AB324606F08AFE2A4904F1540001AB324606F083FEB868A6
:202BEC00014628468847DFF89C8025487B7B0078D8F80410C1F381571BB1032F03D184F8B9
:202C0C00E150032F16D0022F14D0012F26D103201D4C009031464FF040521C23204603F027
:202C2C002DFE009531464FF400720923204603F025FE13E0022004F0A5FF032F0CBF4FF407
:202C4C007A7142F21071114800685434B1FBF0F1204606F05BFE204606F054FED8F80000BF
:202C6C00C00802D2304604F08DFF0AB0BDE8F081B4B80000335E0000E5450000A54C0000CE
:202C8C00F82E0020B03F005000A00C4034B90000881900202DE9F0430746880FADF1140D1D
:202CAC0075D303F009FD404D00261C352E60394845F81C0C012001F0E2F9374806F0D0FB22
:202CCC00BC68B14640F60A01344A6680537B118090465680107BC2F8049003F0F00300F06E
:202CEC00F000107343F00103537300E01C46636813B118888142F9D1C4F80480607B00F04F
:202D0C00F0006073264806F0FEFC80680088C91F81421DD0491C81421AD03B8CC3B197F8A2
:202D2C002C107E8497F82D00C7F8249001F0F00100F0F00087F82C1040F0010087F82D00C0
:202D4C0007F12003C8F80430507B00F0F0005073B868694605F06AFD684606F0B3FAB8684E
:202D6C0001F079FA28680028FCD02E60012005F07FFE012808D0607B00F0F00040F0010051
:202D8C006073084806F06CFBB86845F81C0C05B0BDE8F08301010E04ED0500009C2E002065
:202DAC00882E00208D5E0000001004402DE9F04106F018F83F4D3E4EDFF8FC800446A00848
:202DCC0020D330464168E9B1002242608B690A690F6922401A4342F0020205F108038A61B7
:202DEC001A68BA4301F110071A6097E80C002A680C301B1C9A432A6004F0B6FC404602217F
:202E0C0006F0E0F87068A10815D200F1100191E80C00002702EA04013B40002B08BF00293B
:202E2C0009D081691440B0600C4384614FF48041404606F0C7F87068002837D1304606F078
:202E4C0062FC071C32D01E48F9680068884228D1B86803F03DF919490860E8B905F108013E
:202E6C0038690A68104308602B6807F1100494E80300081C1843286000222A61B86845F849
:202E8C000C0C05F1100000680028FAD0304606F015F87760BDE8F081086802F0D3FCBDE872
:202EAC00F08140464FF4805106F08CF8BDE8F081882E00200C100440182D0020D02E0020B2
:202ECC00E02E00202DE9F047ADF1180D01F03CFB3A4D4FF0030908274FF6FF78002605F1A7
:202EEC003E0A2C4605F0B6FD20BB009601A80DF106016A4604F093FFE0B9BDF80400102885
:202F0C0014D160789DF8061088420FD100980188884509D14088C00B08D3042005F1200221
:202F2C00014604F0A3FC01E003F0ECFB009808B105F010FF208A41082DD320F001006379BB
:202F4C002179208253EA010225D073B9207A637A8DF8070005F132018DF808300A680DF16F
:202F6C0009031A608988998001E08DF80790A07A8DF80F00E37A8DF810300DF1070006F0CD
:202F8C0075FA38B1636AA77023B11A6812B1196838468847208A810807D320F00200208241
:202FAC005146304602F052F8208AC1089AD320F00400208205F0BEFD94E7C0463C14002085
:202FCC002DE9FC4191EA03084CBF4FF000484FF000084FEAC32545EA52554FEAC2264FEAE2
:202FEC0043077F0D11BF45F0004500210020BDE8FC815FF4E06E1EF1FF0E774555D04FEA6B
:20300C00C12343EA50534FEAC0224FEA4104640D11BF43F0004300210020BDE8FC81744584
:20302C0043D0E419A3FB0501A3FB06E7A2FB06631EEB030E57F1000751F10001A2FB05638E
:20304C001EEB060E57F1000751F10001FF1851F10001C01951F100014CBF4FF4806E4FF4C0
:20306C00007E10EB0E0051F1000148BF641C01D4400049415FF44077FF37E41BDEBF002157
:20308C000020BDE8FC8117F58067BC420DD24FEAD02040EA41504FEA41014FEA113141EA0D
:2030AC00045141EA0801BDE8FC810020FF21C900C91D090551EA0801BDE8FC812DE9F043AD
:2030CC0090460A68D8F800401678814600271D46ADF1140D3846531C242E0B6053D112F816
:2030EC00016F5B1C4C2E0B600ED1AA68E41C24F00304241D54F8040C494602F039FE296806
:20310C00EF600127091A2960462E1AD1E41C24F00304241D54F8040CE41C029024F00304BC
:20312C00241D54F8040C002749460390AA68ADF8047001A801F042F82968EF600127091A73
:20314C002960532E1FD1E41C24F00304241D54F8040CE861C8F80040288B0090A968EA69C1
:20316C00D9F800004346FDF7F9FBD9F80040002714B10119C9F80010D8F800402968EF6029
:20318C00091A01272960662E0AD12B8B23B9E41D24F00704083403E0E41C24F00304241DB3
:2031AC001FB9E9690E700127EF60C8F8004005B0BDE8F0832DE9F0430646ADF11C0D06F0C5
:2031CC005DFB04F097FC4FF000090546CDF8009006F0D0F930F0010002D00098A84202D115
:2031EC006FF0040059E070684C4658B1B0F1FF3F05D001A904F066FC30B107464CE04FF067
:20320C00FF3000E02046019006F034FB0199012701EB000800E001936868019906F026FBCC
:20322C0000282ED003A804F09BF9D8B99DF8100002A904F07BF988B9B368BDF808009DF832
:20324C001210059A984748B19DF81270B773BDF80800B081059B33614F4612E00599684693
:20326C0004F090FE0198641CB0F1FF3FD4D00028D2D006F0FFFAB8EB000302D00198984280
:20328C00C9D2009905F1080005F000F824B1686806F0E8FA641EFAD1384607B0BDE8F083EC
:2032AC002DE9F84307467C68BE6806F037FBD4F88810002961D006F02DFB3168486820F0FD
:2032CC00020048603168486A20F003004862D4F8A000756941683269096845EA0200C1F847
:2032EC0004053168486920F001004861306801250562384605F056F8D4F88800D0F804802F
:20330C0006F00CFB814694F8D80058B118F0704F02D1042004F01EFC022004F01BFC002057
:20332C0084F8D800484606F0F5FAD4F88810087C042803D003200874D4F88810D4F8A00064
:20334C004368326970691B6810438540DD623068B0F1804F14BF0B480B48826808689204F7
:20336C00A0EB9250401E0860A06800230246C4F8883038469047BDE8F88306F0CBFABDE852
:20338C00F883C04600050020300400207CB50446084602F0EDF8344E02461821304604F01A
:2033AC0049FE05F081FB40F2FF32002380B22C210090304603F062FA05F094FF1C210246E2
:2033CC00304604F037FE05F061FB02461421304604F030FE05F02AFD02461021304604F0DD
:2033EC0029FE204601F082FF02460C21304604F021FE204605F002FD1C4D400040F0200071
:20340C002870204605F006FD40F010002870204605F01CFA02462821304604F00BFE2046F7
:20342C0005F010FD400040F06000E870204605F015FDC00040F0800005F8080C204605F00D
:20344C0019FD800040F47C40A5F89300204604F007FE02460821304604F0ECFD4FF48000C4
:20346C00A5F2091108607CBD00A00C4049A10C402DE9F04FDFF8D4B009AF0E461D464FF06E
:20348C00FF08ADF1140D3C880190002730780292022805D17068008842F60211814238D02C
:2034AC00304603F025F8039040B1401E18BF0A2048D15946142001F1040903E059462820E2
:2034CC0001F10209A04210DD05EB040A50450ADBF06802992A46201800F022FEDDF80C8090
:2034EC00A9F800A002E00D2700E00727B8F1FF0F0DD0DBF8080050B1066846B16419A0B2B7
:20350C000090039A029B019841F23011B047384618E000940198314603F066F9594608318D
:20352C000F68041C0DD167B1786850B1304602F0DFFF009502467D68029B019841F230115F
:20354C00A847E0B205B0BDE8F08FC046841B0020042998B54CD1274806F0D5F8264C48B904
:20356C00264800F11F010978490838BF206803D3406800E0C06820604168214A0978116063
:20358C00416812680978914206D0876927B124A20CCA6FF0FF01B847022004F0F3FA1120DC
:2035AC0000F016F901222168164B087C1A7018B115480078012803D00E2000F009F92168A2
:2035CC00496812488F680FB9CF681FB10021C1610F4F07600F4A40F2FF711160002787618B
:2035EC000D4941610D4805F03BFF192006F036F998BDC046882E0020E02E0020C42D002075
:20360C00D0210840F22E0020F52E002000100440510007060000046002000040A12C0000BD
:20362C0000000000000000022DE9F843044606F075F981462D48021992F8ED10491ECFB2B7
:20364C00002F82F8ED704BD12B4D05EB84052E78698836F07F0788461AD1F10911D24FF033
:20366C008054D4F8B801806901464046884704F5DC742068406B0146404688470228F8D155
:20368C0021E000EB8800D0F80011002088471AE04FF08054D4F8B801006A0146404688474A
:2036AC00D4F8B801806A014640468847D4F8B801006B01464046884701210D4A0D48116028
:2036CC0001688908FCD306F03F003F2801D0FFF7ABFF687800F03F003F2801D0FFF7A4FF28
:2036EC00484606F017F9BDE8F883C04688190020282008602820084090B400002DE9F04178
:20370C00846845680F68226895F88C30B8B2B2F1804F00FA03F01FFA80FC14BF254B264BA8
:20372C00DFF898E0886838B995F88C2070469600825905F1A60006E095F88C60204AB600D2
:20374C0092596044401E9A6058602068083018609A683F0143F6F078103F08EA07073A43D7
:20376C009A602368B3F1804F14BF164A164A496821B971468E5904F10E0105E0DFF84CE09D
:20378C005EF806606144491E966011605060906807439760D5F8A00021694268666912681B
:2037AC0046EA01009062586A40F003005862BDE8F081C046000500203004002088B400005A
:2037CC0080B40000100500204004002078B400002DE9F041064606F0A1F82D4D8046A919C0
:2037EC0091F8ED00421C002881F8ED204AD1294C04EB8604277807F03F003F2801D0FFF72F
:20380C00E7FF607800F03F003F2801D0FFF7E0FF668837F07F001AD1F80911D24FF080542C
:20382C00D4F8B801406901463046884704F5DC742068406B0146304688470128F8D121E0C7
:20384C0005EB8605D5F80011012088471AE04FF08054D4F8B801C069014630468847D4F800
:20386C00B801406A014630468847D4F8B801C06A0146304688470121074A08481160016875
:20388C008908FCD3404606F045F8BDE8F081C0468819002090B400002820086028200840A2
:2038AC00F8B52B4E56F81D0CC0084FD2294F2A491CC907F15C001CC01CC91CC00EC90125B8
:2038CC0080E80E00FF23254C2548F96EC4F8AB3FB7F86A20C4F8FF5F00F022FCB86F80470A
:2038EC0042F60B3742F22B0044F8550C1D4944F8517C4FF480730B60002244F8212C44F84F
:20390C003D5CC4F8B35FC4F8F35FD4F8F30F06F005F856F81D1C144A41F0040146F81D1CD3
:20392C00116821F0F05141F03451116005F0F2FF0E48006803F04CFF05F0C2FE05F0CCFE33
:20394C0003F060FF05F0BFFE05F0C9FEF8BDC0462D100940501D00207CB7000055500C40A9
:20396C0000000E4000100E40003009402C200940294A2DE9F0418046012628481660076885
:20398C00002FFCD0294C2A4FC020443C206007F1080001682348890804D20168090C41F068
:2039AC00F00100E072211E4D85F85412002111638768384601F0ECF940463946FFF7E6FC94
:2039CC001C48B038816D40F20F226FF31F418A4212D901680068C1F30363C0F3034003B130
:2039EC005B1E072805D006280EBF0720801C00F00F0043EA001028703846FEF701FF0E48E3
:203A0C0014380068C1680220884740202060064F3E60BDE8F081C046101009409402224379
:203A2C0002600840AC3F00509404604244600C40A83F00506C130050B40100102DE9F04159
:203A4C00DFF8B080044698F800001F4615460E46ADF1380D012804D0FEF76AFF404601217F
:203A6C0001704EB166603DB1A56005F057FF224A117819B105F04EFF002038E0491CC9B2AD
:203A8C00117005F047FF01251FB9684605F058FB6F46386820607868E060387A2074F868CF
:203AAC006061386900B1A0610021782204F1200001F034F905A800212422082305F0FEFEC8
:203ACC0004F138008DF82C50002105AA05F0F2FE05A800212422082305F008FF04F1700057
:203AEC0006490B94002205AB05F0FCFE20460EB0BDE8F08165200020FA2E002067960000E7
:203B0C002DE9F0470F46054638686C68D5F80880002852D005F002FFD4F8881021B105F078
:203B2C00F9FE0320387448E001263E74C4F8887005F0F0FE94F8A40038B194F88D20204960
:203B4C00D4F89C00114303F0C3FBD7F8049005F0E5FE824694F8D80050B919F0704F02D1E1
:203B6C00042004F00FF8022004F00CF884F8D860504605F0CFFED8F80010486840F0020032
:203B8C00486028463946FFF7B9FDD8F80010486940F001004861207828B961686C34204625
:203BAC0005F064FE10B13046BDE8F0872846FFF777FB2046002105F059FE0020BDE8F0876A
:203BCC0000000680F8B505F08DFC05F09DFC044604F00C000C2845D0E0081ED204F098FAA9
:203BEC00234E376805460120014604F0CDFE31686943884211D21F4C8220B0FBF7F0291A63
:203C0C00204605F083FE204605F07CFE0120FDF7F3FB204604F07AFE25E0200922D2164892
:203C2C00610939BF016821F00101016841F0010102460160D2F898004FF0805440F00300AD
:203C4C00C2F89800D4F8B8018069014620208847D4F8B801094C806B21688047012020608C
:203C6C00206800E030BF05F043FC01F0B5FCF8BD34B90000941900208C2108402C20094012
:203C8C00F8B50D46EEB2290824BF27494D40274BB400DFF89CC0195900EA05020CEA0202B1
:203CAC0000F4E02C85EA0107BCF5E02F00EA070721EA0001C7F3006742EA010201D1510E3C
:203CCC0014D300F4E0210F4310D002F4E027B7F5A02707D0B7F5803704BF22F4003242F4DF
:203CEC00A02203E022F4803242F4C0221A51114CC10D04D3C5F38052A4F1D0018A55000EE9
:203D0C0010D305F00BFE290E03D201220021B24002E00122B24011462368934319432160E8
:203D2C0005F0F8FDF8BDC046006000A000100840007F077FD02002402DE9F0410E46294936
:203D4C0090461C4606AF8C4672680878BB8851783F881278002502EB012242F62321521AC4
:203D6C0029D0521E052A18D9921F0CD0263A34D1072F30D8C7F10700984298BF83B26744AE
:203D8C0007F1080121E0B84225DBC01B9842D8BF83B22380DCF804000BE0F06805F0F8F9F6
:203DAC0080B2B84217DBC01B9842D8BF83B22380F06839180AE0082F0DD8C7F1080098426C
:203DCC0098BF83B207EB0C010F31238040461A4600F0A6F903E0072501E025800A252846C2
:203DEC00BDE8F081B41700202DE9F04F09AF1E468946ADF1140D97F8048004903D880392B6
:203E0C00084602F00DFC0027FF2101911F49029038B1401E18BF0A2035D101F1040A2020EC
:203E2C0002E001F1020A0120A8428B4618DD7419A04213DB2CB9B8F1180F0FD0B8F1120F0A
:203E4C000CD0D9F80C0003993246281800F068F93CB1AAF800400298019002E00D2700E008
:203E6C0007270198FF280DD0DBF8080050B1046844B1AD19A8B20090029A039B049841F275
:203E8C001011A047384605B0BDE8F08FD41D0020F8B505F043FD224C0746A06910F4602F6D
:203EAC0025D0A069400CC6B2700807D2B00803D2F00828BF022602E0012600E00026751DAE
:203ECC0068B202F059F9A16906F111020120904081433846A16105F01DFD04EB86008768BC
:203EEC0047B1606810A20CCA2946B84702E0384605F010FDA06918B10A48002105F062F80A
:203F0C00E07F80080BD367692FB1606808A20CCA6FF00101B847E07F00F0FD00E077F8BD20
:203F2C00C42D00204C2D002000000000000000080000000000000080264838B550380468F4
:203F4C00B4F1FF3F08BF002405F0DCF822481749002510380560012008601549086002F0E1
:203F6C0029FA1448006820B1134800682046FFF7FFFC124812490560124C0A686FF35B427A
:203F8C0044EA0200086010490868C0F30130012806D10A680D48104040F400320A60086081
:203FAC000B4908680028FCD138BDC0465C600C400822044380012843000120438C21084083
:203FCC00482003400000390104000940FFFFFCFC0C0068426C13005094046042B0B5014642
:203FEC008B681C68E26948682262520824D2D0F8A01049680A685D69D2F80415294206D0EA
:20400C001C68616A21F002016162C2F80455D2F8042519690A4231D01A68516A21F0010149
:20402C005162D0F8A01049681A6909683830C1F8042505F00FFCB0BD1C68626922F0010289
:20404C006261D0F88870B7B9626822F0020262601C68626A22F003026262D0F8A0005F6964
:20406C0044681A69236847EA0200C3F80405084604F098F9B0BD0846FFF712F9B0BD7047D0
:20408C00F0B520480127F84201D002F061FB204D204F214EBD4206D203CD0478A4003459E7
:2040AC00401CA047F6E71D48002800D08047164D164FBD4202D210CDA047FAE7F0BD03259B
:2040CC001BE0416808300A1C2A400BD11A1C2A40AB4305D0046804300C600431043BF9D1DF
:2040EC00131C05D0047801300C700131013BF9D1021C2A4001D0A84304300368002BE0D190
:20410C007047C046FFFFFFFF000000000000000000C1000080C1000088C0000059C5011061
:20412C00002A4AD05FEA000C8B071CD1830722D1102A08D370B4103A78C978C0103AFBD2CB
:20414C0070BC103238D0042A2CD3082A05D30C2A24BF08C908C008C908C008C908C0920729
:20416C002AD0920F22E00B780370491C401C521E22D08B07F7D1C30714D18307D8D0121F11
:20418C0012D308C903801B0C4380001D121FF8D20AE008C903701B0A43701B0A83701B0A95
:2041AC00C370001D121FF4D2121D05D00B780370491C401C521EF9D1604670472DE9F84309
:2041CC00002A894607464CBF47F6FF75151C002F08BF002032D03888002808BF002403D0E2
:2041EC002A4600F067F90446281B26DD388828B1291B484612A202F02BFD0419B868E0B15C
:20420C00D7F804802E1BB8F1000F0DD0404604F0BFFF401DB04207DC291B484609A24346F1
:20422C0002F016FD04192E1B122E06DBBB68291B484606A202F00CFD04192046BDE8F883AB
:20424C003A2000C0222573222C2000C06C696E652025643A200070472DE9F04F09AF5FEA98
:20426C0000089A46ADF1140DD7F80490029297F800B0039137D0081C35D0101C33D0B9F1B8
:20428C00000F30D01948017800242AE0A00038F800604FF6FF7708EB0005B7421DD0AF780B
:2042AC00DFB10298039A514604F0AEFF0190A0B1780807D3CDF80090019A30465B4601218E
:2042CC0000F036FFA878800807D3CDF800902888019A02215B4600F02BFF04480178641C68
:2042EC00E4B2A142D2DC05B0BDE8F08F3C140020F8B5054604F0B0F9002808BF01223DD08E
:20430C001F4A116EB2F86870680805D308883843400828BF02222FD21A4C04F10C0630687B
:20432C00400838BF012227D30120E06333685B08FCD26B083CBF00228A8007D3888047F032
:20434C00010702F16006A2F868703168AA0834BF0022021CCA80EA0838BF0020088105F02F
:20436C00AFF905F0B9F9206840F0400020602068002220F04000206005F0F0F81046F8BD08
:20438C00501D002000500C402DE9F8432020EFF3118780F31188214CA068012105F056FAF5
:2043AC004FF001094FF0000865692168A4F81C906A1A2168A4F81E80461B401A904227D3F4
:2043CC0087F3118840464519361A4846294605F039FAB042F7D92021EFF3118781F31188DB
:2043EC00E18B012903D14046294605F02BFAB0F1FF3F06D0A169801B814238BF081C4119A6
:20440C0001E0A069291805F019FAA4F820902560A4F81C8087F31188BDE8F8837801002088
:20442C002DE9F843DFF87C900F4604464FF0FF31484605F01BFADFF870801D4800210AE05F
:20444C00FF2A07D00368934202D958F822600EB1002421E0491C1FB117F82120FE2AEFD112
:20446C0000202060012660600546A0600EE0FF290BD0636806FA01F048F8214018430B4961
:20448C0060601268204603F021F96D1C27B107EB85021178FE29EAD1484605F0E3F9204659
:2044AC00BDE8F883202E0020682C0020007FC767C82E00209EB513460C461F4A1D49128884
:2044CC000988824206DB13A219460346204602F0BFFB9EBD194A1788814207DB04F026FA15
:2044EC0042681946204602F0B3FB9EBD002F08BF0BA2E9D00094002B48BF47F6FF73104F16
:20450C00002101933C6802910E496A46A04702989EBDC0467B6D6F64756C652325647D0090
:20452C007B6D6F64756C652D726F70653A25787D00C046C0B2B8000060B900008A0500005F
:20454C005CB90000717D00002DE9F84303F0C6FE204C0025A5704FF6FF70A08202F00CFFCB
:20456C000121207004F1A80003F018F9022104F1CC0003F013F9042104F1F00003F00EF9F5
:20458C00042704F14808102240462946E77000F0C5FB04F1580910224846294600F0BEFB43
:2045AC0004F1200635602572072065721021A0724246E572022003F03FF9032010214A4657
:2045CC0003F03AF938463246014603F035F9BDE8F883C0463C1400202DE9984305F09EF938
:2045EC001F4CDFF87880814604F1E000007850B94446A0680146022088470746102002F01F
:20460C00F1F92FB320E001F0CDFA002820460FD1144909683222B2FBF1F101B9012100F11E
:20462C003004204605F072F9204605F06BF90FE044460022A16880F8E0200220884707465B
:20464C00102002F0CFF91FB1A068014603208847484605F05FF9BDE89883C046B4B8000046
:20466C008819002034B9000070B51F4CA568064604F094FB4FF47A71401B4843050C03F0FC
:20468C0041FE2169401A48BF404240F6B831AD19A94211D306280FDAA268E1688A420BD895
:2046AC00206848B1891A114A51438A0C02EB1141884288BF011C08E00D49486840080ED2C2
:2046CC0008687D2100F0FF004143C82905D3B1F57A6F88BF4FF47A6103E0C82101E04FF4A0
:2046EC00FA61084670BDC046742E002040420F00AC3F005070B5866845680846203832D0DC
:20470C00401E2CD0401E27D1287B1478012814BF19491A49FF2C41EA04011BD0D5F89C003E
:20472C0000F01AFE98B93068B0F1804F14BF23220B22D5F89C00214603F0A8FCD5F89C00F7
:20474C0095F88D1001F08AFA85F88D4012E04FF0FF3070BDFF24F1E76FF0010070BD00202F
:20476C0085F8A40070BD297B0020012908BF012085F8A400002070BD0004C0A00020008097
:20478C00F8B51E4C0546E8B2257504F0C5FCC6B2E06A002E0CBF1A4A1A4A4FF4E0212A438E
:2047AC0002F094FF00200C3D10D06D1E17D1E77826B9A7B90120E070607518E07FB1E07050
:2047CC00607502F0C7FB04F057FC10E026B9E7782FB901202071EFE72779E68817B9012858
:2047EC0005D0F8BD207160750EB100F00DF804F114010420022202F0E7F9F8BD20050020EB
:20480C0000000680000005801F49F0B5881D02880B89CF884088ADF12C0D9F4218BF002FD4
:20482C0003D100200881C8802CE0FF2328276C467F1E04F8013BFBD113128DF800200712F4
:20484C008DF8020001F264568DF801300DF102048DF80370122336F81050401C04F8025FEA
:20486C0080B282424FEA2525657003D05B1EF2D1088102E000200881C880002028216A465A
:20488C0000F0AEFF0BB0F0BD20050020F8B5001D84B214F0030002D0241A241DA4B204F020
:2048AC009DF901461948102C47680160C8BF8768388800221646C30BDD0319D126B9844271
:2048CC000ADD3A46012617E01388C3189BB29C42138011DC174618469FB1001B80B20428A2
:2048EC00B4BF3C88385344F400443C803F1D08E080F40040002680B2C71938880028DAD1EF
:20490C000027084604F081FB3846F8BD401C0020B0B50446A768ADF1280D27BB0C20FFF762
:20492C00B5FF071C16D0684600212422082304F0DDFF002306976A466168ADF81030144824
:20494C00059304F077FF386038B904F053FB384603F0D6FA6FF0030018E0E068786020693A
:20496C00B860A7600AE004F039F90546386803F0CDFF2069B860284604F047FB38686168A4
:20498C0004F0C4FF386804F0BDFF00200AB0B0BDB5940000B0B514460F4604F0BFFF85B277
:2049AC0019480068007808B904F0E0F887B1384603F0EFFB40B114B14FF0FF3020700820AE
:2049CC00FEF732FE002419E038687968BA6803E04FF480700122014602F05EFE0B490120A3
:2049EC0008600B4908684008FCD30A4800684168022088470CB1002121700446284604F0F9
:204A0C0089FF2046B0BDC046C4B80000A802504208800240CC0100102DE9F8431D4C04F11B
:204A2C006801DFF874900A884FF6FE7001260C25B04610400880304604F0D8FD08FA00F189
:204A4C0007018E43284604F0D1FD226F08FA00F107EB800013588D43ABB1C3F307301A0DA0
:204A6C00C3F30B01022800FB02F24FEA420292B203DB891F921D89B292B2E36E09EB010094
:204A8C00C918FFF74DFB002DDCD1002ED3D1BDE8F883C046501D002000000E40FEB5FCF798
:204AAC008DFB1D4C4FF6FF75002603F0C5FF0028FBD1009601A80DF106016A4603F098F9F7
:204ACC00D8B9BDF804000127102811D120789DF8061088420CD1009801888D4205D14088C6
:204AEC00000905D302F010FC02E004F073FC0746009810B10FB104F015F9606A04F096FECC
:204B0C000028D2D1606A04F08DFE074600F0BEFF384604F0FBF8F0E7200500202DE9F041B3
:204B2C00984616460F46044604F0D4FE0546384603F0D8FA42463146071C03D1284604F0E4
:204B4C00C5FE24E0F87F10F0070F19D112487B68984202D07B682366786004F1580080E829
:204B6C000600284604F0B2FE04F138004FF0FF3104F07CFE04F1680797E80300BDE8F0810B
:204B8C00284604F0A3FEF87F10F0070FFBD102200021BDE8F081C046616400002DE9F04142
:204BAC000E4604F0BBFE1C4C61788046C80000EB4110271804F0F2F807F1B8052860A0885B
:204BCC00A7F8BC00A088401CA080F0891036A7F8BE000FCE08350FC596E80F0085E80F00B7
:204BEC00A67800272EB960782178814208BF012700E06078401CC0B220281CBF60700021C0
:204C0C0002D100216170084607B120704046A17004F080FEBDE8F081840E00202DE9F04313
:204C2C00ADF13C0D04F05AFE1A4C184D002680461C3C684600213C22082304F0EFFD54F8A2
:204C4C00042F6868AF6806902B680897694605920F480493002204F0DDFD071C10D003F04C
:204C6C00BDFF8146384601F08FFC48B1484604F0CCF92D1D761CDCD0404604F023FE01E067
:204C8C0001F082FF0FB0BDE8F083C04670B30000C19200004C1C00201CB5042003F0E8FEED
:204CAC00022818D0032816D016480068C0F38150032814BF41F288324FF47A721248144CA7
:204CCC00016854342046B2FBF1F104F01FFE204604F018FE1CBD03200C4C009000214FF01D
:204CEC0040521C23204601F0C9FD012000214FF4007209230090204601F0C0FD022002F0DF
:204D0C0029FF1CBDB43F005034B9000000A00C4088190020002213460A46194671B510F059
:204D2C00030F0BD0002A82BF00F8011BB2F1010210F0030FF6D1002A08BF71BD11F0FF015C
:204D4C0041EA0121042A18D341EA0141082A0FD30E46102A08D30C460D46B2F10F0312F09B
:204D6C000F0272C0103BFCD812F0080F18BF42C012F0040F18BF40F8041B12F0020F18BFA6
:204D8C0020F8021B12F0010F18BF017071BD70470246184808B50068C0F3046004F00CFBB4
:204DAC0000EB2270401C162805DA10F10A0FB8BF6FF0090000E015200F49104B00F01F0021
:204DCC0040F4F85008801868800803D20C490020086001E042F040620A49D00E930E80F012
:204DEC00010000F00100086083F0010000F00100886008BDB81200506E62084000000940C0
:204E0C0094042A430000204338B5054601201A4C68712879B0B903F0E1FE2178002904BF25
:204E2C006FF00704051C15D0491EC9B2217039B904F0EBF8606802F0ADFF0020687118E063
:204E4C00054613E003F0CAFE05462078FF2805D16FF00604284604F0D8F80BE0401CC0B219
:204E6C000128207002D1606802F0ABFF284604F0CCF80024204638BD3C20002070B50646A4
:204E8C00B079F5680628A5F108052CDA3079062829DA03F0A3FE154CB27991000C3401EBF2
:204EAC00C20161184968E1B104F0AFF830792870B0796870307AA870B179880000EBC1006A
:204ECC002018F1684068083003F05CF8B179880000EBC10024186068406804F0C3FC002031
:204EEC0070BD04F092F86FF0020070BD701C002038B519491A4C00204822C1F8F30F94F83B
:204F0C00E200C1F8FF2F20B3012817D0022807D003281ED151F8310C00F024F80B2016E00B
:204F2C0051F8315C2846FCF777FD40F2FF50A84202D8801CA842F1D2082008E051F8310C96
:204F4C0000F074FD054800780028E7D0052084F8E400FDF7E9F838BD39400C40C2B80000B2
:204F6C008819002038B51A4CA0F5C060D4F8B810C4F8D4000029B8BF49420028B8BF4042EC
:204F8C00814220DAB4F8BC00124D30214FF47F4208230090284601F071FCB4F8C000042114
:204FAC004FF4F80212230090284601F067FCB4F8D00020214FF440620A230090284601F063
:204FCC005DFC012000E0002084F8D80038BDC0468819002000A00C4038B50546880F26D387
:204FEC0002F04EF8124804F03BFA12480078012803D005F1380004F035FC0F4800240460EA
:20500C00022002F0A7FD1120FEF70EFB287C10B90E20FEF709FB09480A49094A047008781E
:20502C00147020B108480C70042103F0CBFF38BD5D3500006520002000000460F12E002092
:20504C00F62E0020F42E0020182D00202DE9FF410E460546194C7188E08A81420CDCB188B8
:20506C00814209DBF088218B884205D13089618B884208BF18271DD0052001F089FF7788BA
:20508C00B388ADF80270F288ADF804303189ADF806208046ADF80810A08AADF800006846DA
:2050AC0004F0F0F9071C05D1A57304F1F000414602F046F938460090BDE8FF813C140020B6
:2050CC001A4898B5D0F8781203680F0F03F0FF03802B28BF002301F0ADFB4FF0FF3478B15C
:2050EC00401E07D0401E012802D9801E19D01AE0BFB118E0381C12D0801E14D1143311E033
:20510C003846401E0BD0801E07D0001F03D0401E09D1163306E0152405E0142403E00A2497
:20512C0001E00A335CB2204698BDC046A01000502DE9F0410E46984615460746ADF1180D92
:20514C0003A903F003FB0246059222B3002000900C9CBDF80C000DF1120329460190FF20A7
:20516C0002903846A047041C10D16889ADF81000700804D3384604A903F0A4FD04E0384615
:20518C00424604A904F05AFA041C05D004A81B2103F036FC00E01524204606B0BDE8F08139
:2051AC0000B5401EADF1140D08D0401F2ED140F215306946FDF750FC684625E04FF44170CE
:2051CC0002A9FDF749FC00218DF804109DF809308DF803109DF80A208DF801309DF80800AD
:2051EC008DF802209DF80B108DF800009DF80D308DF805109DF80C208DF8073068468DF8AB
:20520C000620FAF76FFF02A801F0FCF805B000BD2DE9F8430024002B16460F46804625467A
:20522C0006D5002FC3F1000302D57F42761E2D2599463846494601F00FFE0CA0405CB7FB3F
:20524C00F9F7002F04F1010408F8010DF1D1A64205DD3021301B401E08F8011DFBD10DB1ED
:20526C0008F8015D4046BDE8F883C0463031323334353637383961626364656600007047FF
:20528C00F8B5174A174B184C121D22F003019C4621605E1A2068256860606768A660002044
:2052AC0001E025F8020BAB42FBD84FF6FC75B3102A4001EB830323F8040CACEB0202E823F1
:2052CC0015403B80EC3DA1F8E850E83144F8081CFFF7DCFA44F8040C606844F8080CF8BD5A
:2052EC00FB2E0020483F00204C1C002038B504461848174DC03002686B68C2F30351C2F344
:20530C0003405B0813D22B681D0511EB257103D41029A8BF0F2100E000211B0410EB237357
:20532C0003D4102BA8BF0F2300E00023184640EA011002F47F4102F0FF03222C41EA0041B6
:20534C0043EA010024BF02F08042104338BDC046AC3F0050B81200502DE9F041071C0D461C
:20536C0004D016480068ECB2A04202D80220BDE8F081DFF840804FF0FF31404604F076FA05
:20538C000F4800EB8400066866B97A680121A140114379600849076038462A4602F096F975
:2053AC00002400E00124404604F05CFA2046BDE8F081C046202E0020007FC767C82E002035
:2053CC00682C002030B5401E4FF00004ADF12C0D0AD0401E04D0401E20D1FCF7A5FE1DE0C2
:2053EC0000F022FD044619E001A821462422082304F07CFA06940D4DADF81440094907948A
:20540C00012201AB05F1780004F06CFA064A23462C2105F19C00009304F044FA20460BB06B
:20542C0030BDC04679590000FD4E000088190020F8B504F073FA074616480C3000684008EA
:20544C0028BF002403D2114D287820B10224384604F060FA18E0104E00214036304603F049
:20546C00E5FE012438462C7004F054FA084800682A21B1FBF0F1304604F0F8F900281ABFD0
:20548C000024201C002028702046F8BD4E1D002034B9000000500C40501D00202DE9F041E5
:2054AC00054615F8017B90460E461CE0B8F1000F05F101050BD0FF2C09D8022015F8011B00
:2054CC00401E41EA0424F9D101E0042C02D315F8011B00E0394630462246FFF71FFCA61929
:2054EC0001E006F8010B15F8010B8742F9D115F8014B002CE9D115F8010B2C7800022418CF
:20550C00D4D1BDE8F081FEE72DE9F8430C46804620781D46914608AF022805D1606800889D
:20552C0042F60211814205D0204600F0BBFF0A20BDE8F883388821460090404601F054F9A7
:20554C0006460A4807686EB967B1786850B1204600F0A8FF00957C6802464FF489514B46A6
:20556C004046A0473046BDE8F883C046D01C00200146184880B5983000688A0CC0F38367CB
:20558C00C0F38F2022D241F3072100290BD54A420021400805D17F0806BF0127381C4FF66C
:2055AC00FF70521EF5D1002910DD4FF6FF72400040F00100824207D2780040F001070F2F72
:2055CC0092BF01200F27101C491EF0D140EA074080BDC046B8120050164880B507683FB301
:2055EC0015498B6803EA5300C00E21D2134A106880081DD2486880081AD21068096810F0F4
:20560C00050F4FEA114101F0F00101F5E0710AD1B9420DD2190F38BF40F00100D90E38BFD3
:20562C0040F0040003E0B94202D920F00500106080BDC04628500940AC3F00500000094064
:20564C0010B504F06BF91149097829B110490C6804F060F9204610BD04F05CF903F048FD9E
:20566C000FA20CCA03F072FC0A4A126800231B184FEA020408A044EB010490E80600C91898
:20568C0042EB04021046001C10BDC046F32E002004300440AC2E0020000000127A00000047
:2056AC0000093D00000000002DE9904190460F4604F034F90246154803788324391C4046C3
:2056CC000BD0491E02D0491E13D010E00C490978012906D00B49098807E00B490B1D1F68CB
:2056EC000FB9802406E04968898B018002E0032400E00370104604F00DF92046BDE890813E
:20570C00F02E0020E02D0020882E0020F32E0020F0B50F46174914460546ADF1140D11220A
:20572C006846FEF7FDFC00210F222046FFF7F6FA0F263A2017E00F2E03DA761E04F8010BE7
:20574C00F6B2297809111DF8011004F8011B15F8011B01F00F011DF80110B61E7F1EF6B233
:20576C00FFB204F8011B1FB1042EE4DA06B1207005B0F0BD70B500002DE9F041174CA06814
:20578C00ADF1280D38B304F1B805012620E004F0C5F82178CA0002EB4112AA18B2E88051E5
:2057AC006B46A3E88051B2E88050A3E8805092E88410491C01F01F0183E88410627821701D
:2057CC008A4208BFA67004F0A5F86846FCF71EFEA0780028DBD00AB0BDE8F081840E002059
:2057EC002DE9FE43154D0C4660B1401E23D105F10C00D0F80090A0F1080600F10408002712
:20580C00142004E0AE1C0127282006F12208A04211DB114640462246FEF782FC348057B1C7
:20582C002878074F05F14C0241460623009048460197FEF711FDBDE8FE83C046841B0020CE
:20584C008D5F0000B0B5074604F068F8114905460878D8B1401EC0B20870B8B90E48082164
:20586C0003F0B0FB97B10D4C2068703003F04EF80C4920680968C068094C3F1A2046B7FB40
:20588C00F1F104F043F8204604F03CF8284604F041F8B0BDF92E0020182D0020E02E00207B
:2058AC00802D002034B900002DE9F8438146EFF31188202080F311880125114E114CF5610B
:2058CC00114F6560F86A016A14208847D9F81000810C14BF000C0420A06138680268232107
:2058EC0000209047C6F88052206820F4C02040F480302060356088F31188BDE8F883C04666
:20590C00000024430020094084010010D0B5044603F0B4FF00F038FE071C08BF6FF002042C
:20592C001FD003F05BF90146A2880F480023243030F80C6F5EB902804760A2688260237381
:20594C00786820610024084603F05FFB09E0964208BF6FF00204F6D05B1C062BE8D301F014
:20596C0013F92046D0BDC0464C1C00201648144A144908B5E4300078801E0A2807D8DFE8B6
:20598C0000F01814100614100614100609C003F07DFF11E010688008FCD250688008FCD270
:2059AC000AE008688008FCD306E008688008FCD202E010688008FCD3FCF7B6FB08BDC0465E
:2059CC0034600C4038600C4088190020F0B5846822684568516821F00201516021684869B6
:2059EC0020F00F00486120680321ADF1140D016202A803F00BFF0C48016809682869084F48
:205A0C0000906869074E01902A7E20682B7B0C4657F8222056F823300399A04705B0F0BDF4
:205A2C0060B4000058B40000C4010010134910B50A684BF2F5214843040AC2F38140012847
:205A4C0006D102F05FFC01F0FDFA604304EB90540C4901F1E500007830B90948006820F062
:205A6C007F402418640802E0002081F8E50006480460210C41600123836010BDB43F0050BC
:205A8C0010200940881900203C600C40024680B502F109000146107A0B4640B1801E21D0BD
:205AAC00401E1BD0401E15D0401E0FD080BD0F8841F210103F1A05D0203F16D1184602F026
:205ACC0001FE80BD0846FAF7B3FA80BD088801F0C9FF80BD184602F075FF80BD507AFFF70E
:205AEC005FFB80BD084602F07EFB80BD1CB5154C8DF800000812002234348DF804002068A1
:205B0C008DF80510022101F0F7FA0121684602F069F820B120686FF0020401460BE001A81E
:205B2C00022102F05FF8216800281CBF6FF00104081CF2D1002408460122022101F0DCFA97
:205B4C0020461CBD20050020B0B5044603F012FD30F0010008BF6FF004041ED003F08EFE48
:205B6C00054603F03BF801460D480622303030F80C7F6FB1A388BB4208D14068006800227E
:205B8C00854208BF0122A260002403E0521EEED14FF0FF34084603F038FA2046B0BDC04652
:205BAC00401C002008B5012002F062FF01281DD00F4834210122002301F00EF9002808BF3D
:205BCC00002014D00B48006802F000FC03F0E6F80A4A93681168D060C01A074BA1EB9101F9
:205BEC004343180C884228BF011C1160012008BD00A00C408000001040420F00742E0020FB
:205C0C00B0B5144D28680004070C21D002F07AFB114991F90720824205DD10F1800FB8BFFB
:205C2C006FF07F00C8718C88BC4210D80A68D5F8D40F801A801C1F2888BF1F203F1B400880
:205C4C00C7404FF6FF70E719B84238BF071C8F80B0BDC04634100940C02E002070B50C46D5
:205C6C0020B141680122A240114201D1022070BD0D4E104B914300254160305D43F8245099
:205C8C00FF2804D00949096851F8201001E044F020410748FDF7F4FF20464FF0FF3102F04E
:205CAC0011FF284670BDC046A42D0020E82E0020007FC767682C0020F0B5144D6C6820792C
:205CCC00ADF1340DFDF784FD03F028FE2E6807463078A8B901A800213022082303F0E6FD42
:205CEC000695A279099200200090094A617901AB301D03F0D7FD01203070284602F00CFF7E
:205D0C00384603F007FE28460DB0F0BDD4B80000EF9500001549096820280ADC202819D0EB
:205D2C000B380FD00D380FD0001F0FD0C01E0FD01AE0243810D0001F10D0401E10D0401E85
:205D4C0010D011E04868704788687047C8687047086970474869704788697047C869704751
:205D6C00086A7047486A704700207047F0010020F8B50646B08815460F46FEF79BFB0446E7
:205D8C00002D02D4281B0A2806DB3368291B38460BA200F05DFF0419B08978B1002D06D4C2
:205DAC00B06803F0F5F9291B401D884206DCB368291B384603A200F04BFF04192046F8BD9D
:205DCC00257000C0282725732729000038B544688568D4F8A00001F03FFBD4F89C0002F0B4
:205DEC00C4FD2968486820F00200486004F11C0003F008FD04F1380003F000FD287BFDF71E
:205E0C0013FC207818B904F16C0003F0F3FC04F1C40002F02BFD03F081FD002184F8D910F1
:205E2C0003F078FD38BD704738B5134D95F8E100002410B91148007860B103F06FFD95F8CC
:205E4C00E310002906BF012185F8E310012403F061FD0CB1002038BD022001F093FE0E20A9
:205E6C00FDF7B6FC02F0C2FB01280EBF0120002085F8E20038BDC04688190020C2B80000F5
:205E8C00084610B500F0005100F00400084317D0012002F0EDFD01280CD00B48094C016869
:205EAC0032222046B2FBF1F103F030FD204603F029FD10BD054803F0D3FA05490548086011
:205ECC0010BDC046802D002034B90000ED050000001004409C2E00202DE9FC41114C0F46F4
:205EEC001146E26830B1401E1AD1D4F81080A51DA61C02E09046251D661C022F10DA7FB124
:205F0C0030463A46FEF70CF92F8004F11402314607232078044F009040460197FEF79CF907
:205F2C00BDE8FC81C81C0020395F00002DE9F84308AFBC883E880846984691460D4600F03F
:205F4C00B1FA0E4903460888002723B15B1E18BF0A2011D14888B0420CDB801BA042D8BF46
:205F6C0084B2A8F80040E868224631184846FEF7D7F800E007273846BDE8F883CC1C0020F8
:205F8C002DE9F84308AFBC883E880846984691460D4600F0ADFA0E4903460888002723B1CB
:205FAC005B1E18BF0A2011D14888B0420CDB801BA042D8BF84B2A8F80040E86822463118A5
:205FCC004846FEF7ADF800E007273846BDE8F883861B00202DE9F84308AFBC883E880846C0
:205FEC00984691460D4600F01BFB0E4903460888002723B15B1E18BF0A2011D14888B0423E
:20600C000CDB801BA042D8BF84B2A8F80040E868224631184846FEF783F800E007273846D8
:20602C00BDE8F883D61D002038B5124CA06C18B102F09BFC0020A064606CB0B904F592751F
:20604C00284603F087F80C48C4F83401012184F83C11002084F8240184F83001294601F056
:20606C00A9FD606408B903F045FC6079401C607138BDC0462005002040420F00012838B5C8
:20608C001ED1012002F0F4FC01281BD002F09EFE0D4D0E480122322305F1E00100680A707F
:2060AC00B3FBF0F404B914463035284602F02EFC2846214603F02AFC284603F023FC01E0ED
:2060CC0001F0D0FA002038BD8819002034B9000010B50446207B00F00F00022819D1104821
:2060EC000078012815D0FFF7ABFAA1686FF070428908A1EB900082420BDDB0F1704FBCBF25
:20610C000549084405490968C96801F57A71814200DB002010BDC046F6FFFF1FE02E002036
:20612C006420002010B510480E4C01680C40E1430160A10907D34068800904D30D484FF4DA
:20614C00005102F03FFF14F4602F09D00748016804F460240C4304600548002102F032FFCA
:20616C0010BDC04620000E0008100440DC2D00204C2D0020182D0020F8B5044603F0CEFBDC
:20618C00844610481838C17FC90802D3817FA14212D00D49091D868B0B68012504F10C07A8
:2061AC0005FA07F2A540934335430B600F68858317B9034900200870604603F0ABFBF8BD16
:2061CC0064200020DC2D0020081004402DE9F84F0AAFBC8880469A46914604F1120080B27A
:2061EC0002F0E4FA0D4DD5F804B0061C14D086F80880A6F8099086F80DA0396806F10E00D4
:20620C002246FDF78DFFA6F80B405846314603F0EDFA286803F026FBBDE8F88F400500207D
:20622C00DCB5044603F02AFB01F064FC064603F0A1F930F0010014BF002E6FF0040017D0C9
:20624C00606858B1B0F1FF3F05D0694601F03AFC30B107460BE04FF0FF3000E000200090C0
:20626C007068009903F002FB002700B901273846DCBD2DE9F8438046D8F80440D4F8880013
:20628C0000250574D4F88860776803F047FB814694F8D80050B117F0704F02D1042001F0B2
:2062AC0059FC022001F056FC84F8D850484603F031FBA068C4F8885031460246404690470F
:2062CC00BDE8F883F8B5124C6678E578182002F04DFA071C19D00421002202F081FF3046A0
:2062EC0002F04DF938727D720020B87204F14806FE6004F158033B6104F120027A6102F006
:20630C0045FA024A394600F06FFFF8BD8B9600003C1400202DE9F04104461148401C90F8F5
:20632C00008016460D46102002F020FA071C12D00421072202F054FF404602F020F9387213
:20634C007C72BD72FE6002F021FA044A394600F04BFFBDE8F0810420BDE8F081B596000007
:20636C003C140020F8B5044603F088FA00F00CF9071C19D002F032FC84460D480021243080
:20638C0030F80C6F6EB94FF6F872028047600025856021717868A060604602F036FE284699
:2063AC00F8BD491C0629EBD300F0EEFBF8BDC0464C1C00200F4908680028FCD1104A131D67
:2063CC000D49186820F0030001430C480068C0080CD2106810F0030F0AD041F00300186012
:2063EC00106800F003000328FAD101E041F00101196070470C00684204000020B03F0050D3
:20640C0000400340114990B504461122ADF1140D6846FDF785FE0E48A41D302106270170E7
:20642C0078214170801C14F8011D09111DF80110237800F8011B03F00F011DF801107F1E8B
:20644C0000F8011BEFD105B090BDC04660B80000B02E00202DE998430446276E99469046B9
:20646C0007B1B8470020022100EA090001EA0801002808BF00290BD104F1580090E8060070
:20648C0008EA010109EA0200002808BF002907D004F1680080E8000304F1380003F0E2F955
:2064AC00BDE8988370B542F6021200E010380478022C03D1416809888A42F7D0102C11D10E
:2064CC000A4E45682246A6F11001284602F01DF9002808BF002008D022462846314602F0FF
:2064EC0014F908B1FF2070BD012070BD08B6000070B542F6021200E010380478022C03D15B
:20650C00416809888A42F7D0102C11D10A4E45682246A6F11001284602F0F7F8002808BF31
:20652C00002008D022462846314602F0EEF808B1FF2070BD012070BD3CB60000F8B50446F6
:20654C00A1686068ADF104060025086003F07CF846F8040F002808BF6FF003000FD06D1CB8
:20656C00F4D0074D6E46002756F8040B55F8041BA368044A01F0EEFE7F1CF5D00020F8BDE8
:20658C0030B90000A17A00002DE9F843804602F025FB0F4C03250026814654F80C7F5FB963
:2065AC003046C4F800800146A6600A4603F01AF9606018B900F0E8FA474501D1264601E06C
:2065CC006D1EEAD1484602F020FD3046BDE8F8834C1C0020B0B5054603F050F9044602F086
:2065EC00C9FF30F0010008BF6FF0040414D002F0F5FA0A4A002132F80C7F4FB153681B684B
:20660C009C4204BF2971002404D0491C0629F2D36FF0040402F0F9FC2046B0BD701C002015
:20662C0070B542F6021200E010380478022C03D1416809888A42F7D0102C11D10A4E456847
:20664C002246A6F11001284602F05FF8002808BF002008D022462846314602F056F808B13A
:20666C00FF2070BD012070BD70B600007CB5114D04460E46600807D3B0B2002100900122A9
:20668C000B46284600F0FAF8A00807D3B0B20090002102220123284600F0F0F8E00807D368
:2066AC00B0B2009000210C220223284600F0E6F87CBDC04600A00C4098B50F4C2168486820
:2066CC00406808B1804721684A68906808B9D7688FB10A491C310F68002FFCD000230B6073
:2066EC0010B1804720684268D06800B180470448503802F08BF898BDE02E00200010044004
:20670C005100070610B50178A23902D02E391AD010BD4179132918D100890C4C01280AD142
:20672C002046F038817B022905D1F03002F0EDFF02F0BCFA10BD052000F02AFC0146204667
:20674C0000F0FEFD10BDFAF7A5FA10BD2C150020F8B506460F4D104F7388002417E0A0004D
